{
	"contracts/Smart_token.sol": {
		"SmartToken": {
			"abi": [
				{
					"inputs": [],
					"stateMutability": "nonpayable",
					"type": "constructor"
				},
				{
					"anonymous": false,
					"inputs": [
						{
							"indexed": true,
							"internalType": "address",
							"name": "owner",
							"type": "address"
						},
						{
							"indexed": true,
							"internalType": "address",
							"name": "spender",
							"type": "address"
						},
						{
							"indexed": false,
							"internalType": "uint256",
							"name": "value",
							"type": "uint256"
						}
					],
					"name": "Approval",
					"type": "event"
				},
				{
					"anonymous": false,
					"inputs": [
						{
							"indexed": false,
							"internalType": "uint8",
							"name": "version",
							"type": "uint8"
						}
					],
					"name": "Initialized",
					"type": "event"
				},
				{
					"anonymous": false,
					"inputs": [
						{
							"indexed": true,
							"internalType": "address",
							"name": "previousOwner",
							"type": "address"
						},
						{
							"indexed": true,
							"internalType": "address",
							"name": "newOwner",
							"type": "address"
						}
					],
					"name": "OwnershipTransferred",
					"type": "event"
				},
				{
					"anonymous": false,
					"inputs": [
						{
							"indexed": false,
							"internalType": "address",
							"name": "account",
							"type": "address"
						}
					],
					"name": "Paused",
					"type": "event"
				},
				{
					"anonymous": false,
					"inputs": [
						{
							"indexed": true,
							"internalType": "address",
							"name": "from",
							"type": "address"
						},
						{
							"indexed": true,
							"internalType": "address",
							"name": "to",
							"type": "address"
						},
						{
							"indexed": false,
							"internalType": "uint256",
							"name": "value",
							"type": "uint256"
						}
					],
					"name": "Transfer",
					"type": "event"
				},
				{
					"anonymous": false,
					"inputs": [
						{
							"indexed": false,
							"internalType": "address",
							"name": "account",
							"type": "address"
						}
					],
					"name": "Unpaused",
					"type": "event"
				},
				{
					"inputs": [
						{
							"internalType": "address",
							"name": "owner",
							"type": "address"
						},
						{
							"internalType": "address",
							"name": "spender",
							"type": "address"
						}
					],
					"name": "allowance",
					"outputs": [
						{
							"internalType": "uint256",
							"name": "",
							"type": "uint256"
						}
					],
					"stateMutability": "view",
					"type": "function"
				},
				{
					"inputs": [
						{
							"internalType": "address",
							"name": "spender",
							"type": "address"
						},
						{
							"internalType": "uint256",
							"name": "amount",
							"type": "uint256"
						}
					],
					"name": "approve",
					"outputs": [
						{
							"internalType": "bool",
							"name": "",
							"type": "bool"
						}
					],
					"stateMutability": "nonpayable",
					"type": "function"
				},
				{
					"inputs": [
						{
							"internalType": "address",
							"name": "account",
							"type": "address"
						}
					],
					"name": "balanceOf",
					"outputs": [
						{
							"internalType": "uint256",
							"name": "",
							"type": "uint256"
						}
					],
					"stateMutability": "view",
					"type": "function"
				},
				{
					"inputs": [
						{
							"internalType": "uint256",
							"name": "amount",
							"type": "uint256"
						}
					],
					"name": "burn",
					"outputs": [],
					"stateMutability": "nonpayable",
					"type": "function"
				},
				{
					"inputs": [
						{
							"internalType": "address",
							"name": "account",
							"type": "address"
						},
						{
							"internalType": "uint256",
							"name": "amount",
							"type": "uint256"
						}
					],
					"name": "burnFrom",
					"outputs": [],
					"stateMutability": "nonpayable",
					"type": "function"
				},
				{
					"inputs": [],
					"name": "decimals",
					"outputs": [
						{
							"internalType": "uint8",
							"name": "",
							"type": "uint8"
						}
					],
					"stateMutability": "view",
					"type": "function"
				},
				{
					"inputs": [
						{
							"internalType": "address",
							"name": "spender",
							"type": "address"
						},
						{
							"internalType": "uint256",
							"name": "subtractedValue",
							"type": "uint256"
						}
					],
					"name": "decreaseAllowance",
					"outputs": [
						{
							"internalType": "bool",
							"name": "",
							"type": "bool"
						}
					],
					"stateMutability": "nonpayable",
					"type": "function"
				},
				{
					"inputs": [
						{
							"internalType": "address",
							"name": "spender",
							"type": "address"
						},
						{
							"internalType": "uint256",
							"name": "addedValue",
							"type": "uint256"
						}
					],
					"name": "increaseAllowance",
					"outputs": [
						{
							"internalType": "bool",
							"name": "",
							"type": "bool"
						}
					],
					"stateMutability": "nonpayable",
					"type": "function"
				},
				{
					"inputs": [],
					"name": "initialize",
					"outputs": [],
					"stateMutability": "nonpayable",
					"type": "function"
				},
				{
					"inputs": [
						{
							"internalType": "address",
							"name": "to",
							"type": "address"
						},
						{
							"internalType": "uint256",
							"name": "amount",
							"type": "uint256"
						}
					],
					"name": "mint",
					"outputs": [],
					"stateMutability": "nonpayable",
					"type": "function"
				},
				{
					"inputs": [],
					"name": "name",
					"outputs": [
						{
							"internalType": "string",
							"name": "",
							"type": "string"
						}
					],
					"stateMutability": "view",
					"type": "function"
				},
				{
					"inputs": [],
					"name": "owner",
					"outputs": [
						{
							"internalType": "address",
							"name": "",
							"type": "address"
						}
					],
					"stateMutability": "view",
					"type": "function"
				},
				{
					"inputs": [],
					"name": "pause",
					"outputs": [],
					"stateMutability": "nonpayable",
					"type": "function"
				},
				{
					"inputs": [],
					"name": "paused",
					"outputs": [
						{
							"internalType": "bool",
							"name": "",
							"type": "bool"
						}
					],
					"stateMutability": "view",
					"type": "function"
				},
				{
					"inputs": [],
					"name": "renounceOwnership",
					"outputs": [],
					"stateMutability": "nonpayable",
					"type": "function"
				},
				{
					"inputs": [],
					"name": "symbol",
					"outputs": [
						{
							"internalType": "string",
							"name": "",
							"type": "string"
						}
					],
					"stateMutability": "view",
					"type": "function"
				},
				{
					"inputs": [],
					"name": "totalSupply",
					"outputs": [
						{
							"internalType": "uint256",
							"name": "",
							"type": "uint256"
						}
					],
					"stateMutability": "view",
					"type": "function"
				},
				{
					"inputs": [
						{
							"internalType": "address",
							"name": "to",
							"type": "address"
						},
						{
							"internalType": "uint256",
							"name": "amount",
							"type": "uint256"
						}
					],
					"name": "transfer",
					"outputs": [
						{
							"internalType": "bool",
							"name": "",
							"type": "bool"
						}
					],
					"stateMutability": "nonpayable",
					"type": "function"
				},
				{
					"inputs": [
						{
							"internalType": "address",
							"name": "from",
							"type": "address"
						},
						{
							"internalType": "address",
							"name": "to",
							"type": "address"
						},
						{
							"internalType": "uint256",
							"name": "amount",
							"type": "uint256"
						}
					],
					"name": "transferFrom",
					"outputs": [
						{
							"internalType": "bool",
							"name": "",
							"type": "bool"
						}
					],
					"stateMutability": "nonpayable",
					"type": "function"
				},
				{
					"inputs": [
						{
							"internalType": "address",
							"name": "newOwner",
							"type": "address"
						}
					],
					"name": "transferOwnership",
					"outputs": [],
					"stateMutability": "nonpayable",
					"type": "function"
				},
				{
					"inputs": [],
					"name": "unpause",
					"outputs": [],
					"stateMutability": "nonpayable",
					"type": "function"
				}
			],
			"devdoc": {
				"kind": "dev",
				"methods": {
					"allowance(address,address)": {
						"details": "See {IERC20-allowance}."
					},
					"approve(address,uint256)": {
						"details": "See {IERC20-approve}. NOTE: If `amount` is the maximum `uint256`, the allowance is not updated on `transferFrom`. This is semantically equivalent to an infinite approval. Requirements: - `spender` cannot be the zero address."
					},
					"balanceOf(address)": {
						"details": "See {IERC20-balanceOf}."
					},
					"burn(uint256)": {
						"details": "Destroys `amount` tokens from the caller. See {ERC20-_burn}."
					},
					"burnFrom(address,uint256)": {
						"details": "Destroys `amount` tokens from `account`, deducting from the caller's allowance. See {ERC20-_burn} and {ERC20-allowance}. Requirements: - the caller must have allowance for ``accounts``'s tokens of at least `amount`."
					},
					"constructor": {
						"custom:oz-upgrades-unsafe-allow": "constructor"
					},
					"decimals()": {
						"details": "Returns the number of decimals used to get its user representation. For example, if `decimals` equals `2`, a balance of `505` tokens should be displayed to a user as `5.05` (`505 / 10 ** 2`). Tokens usually opt for a value of 18, imitating the relationship between Ether and Wei. This is the value {ERC20} uses, unless this function is overridden; NOTE: This information is only used for _display_ purposes: it in no way affects any of the arithmetic of the contract, including {IERC20-balanceOf} and {IERC20-transfer}."
					},
					"decreaseAllowance(address,uint256)": {
						"details": "Atomically decreases the allowance granted to `spender` by the caller. This is an alternative to {approve} that can be used as a mitigation for problems described in {IERC20-approve}. Emits an {Approval} event indicating the updated allowance. Requirements: - `spender` cannot be the zero address. - `spender` must have allowance for the caller of at least `subtractedValue`."
					},
					"increaseAllowance(address,uint256)": {
						"details": "Atomically increases the allowance granted to `spender` by the caller. This is an alternative to {approve} that can be used as a mitigation for problems described in {IERC20-approve}. Emits an {Approval} event indicating the updated allowance. Requirements: - `spender` cannot be the zero address."
					},
					"name()": {
						"details": "Returns the name of the token."
					},
					"owner()": {
						"details": "Returns the address of the current owner."
					},
					"paused()": {
						"details": "Returns true if the contract is paused, and false otherwise."
					},
					"renounceOwnership()": {
						"details": "Leaves the contract without owner. It will not be possible to call `onlyOwner` functions anymore. Can only be called by the current owner. NOTE: Renouncing ownership will leave the contract without an owner, thereby removing any functionality that is only available to the owner."
					},
					"symbol()": {
						"details": "Returns the symbol of the token, usually a shorter version of the name."
					},
					"totalSupply()": {
						"details": "See {IERC20-totalSupply}."
					},
					"transfer(address,uint256)": {
						"details": "See {IERC20-transfer}. Requirements: - `to` cannot be the zero address. - the caller must have a balance of at least `amount`."
					},
					"transferFrom(address,address,uint256)": {
						"details": "See {IERC20-transferFrom}. Emits an {Approval} event indicating the updated allowance. This is not required by the EIP. See the note at the beginning of {ERC20}. NOTE: Does not update the allowance if the current allowance is the maximum `uint256`. Requirements: - `from` and `to` cannot be the zero address. - `from` must have a balance of at least `amount`. - the caller must have allowance for ``from``'s tokens of at least `amount`."
					},
					"transferOwnership(address)": {
						"details": "Transfers ownership of the contract to a new account (`newOwner`). Can only be called by the current owner."
					}
				},
				"version": 1
			},
			"evm": {
				"assembly": "    /* \"contracts/Smart_token.sol\":475:1415  contract SmartToken is Initializable, ERC20Upgradeable, ERC20BurnableUpgradeable, PausableUpgradeable, OwnableUpgradeable {... */\n  mstore(0x40, 0x80)\n    /* \"contracts/Smart_token.sol\":658:713  constructor() {... */\n  callvalue\n  dup1\n  iszero\n  tag_1\n  jumpi\n  0x00\n  dup1\n  revert\ntag_1:\n  pop\n    /* \"contracts/Smart_token.sol\":683:705  _disableInitializers() */\n  tag_4\n    /* \"contracts/Smart_token.sol\":683:703  _disableInitializers */\n  shl(0x20, tag_5)\n    /* \"contracts/Smart_token.sol\":683:705  _disableInitializers() */\n  0x20\n  shr\n  jump\t// in\ntag_4:\n    /* \"contracts/Smart_token.sol\":475:1415  contract SmartToken is Initializable, ERC20Upgradeable, ERC20BurnableUpgradeable, PausableUpgradeable, OwnableUpgradeable {... */\n  jump(tag_6)\n    /* \"@openzeppelin/contracts-upgradeable/proxy/utils/Initializable.sol\":5928:6207  function _disableInitializers() internal virtual {... */\ntag_5:\n    /* \"@openzeppelin/contracts-upgradeable/proxy/utils/Initializable.sol\":5996:6009  _initializing */\n  0x00\n  0x01\n  swap1\n  sload\n  swap1\n  0x0100\n  exp\n  swap1\n  div\n  0xff\n  and\n    /* \"@openzeppelin/contracts-upgradeable/proxy/utils/Initializable.sol\":5995:6009  !_initializing */\n  iszero\n    /* \"@openzeppelin/contracts-upgradeable/proxy/utils/Initializable.sol\":5987:6053  require(!_initializing, \"Initializable: contract is initializing\") */\n  tag_8\n  jumpi\n  mload(0x40)\n  0x08c379a000000000000000000000000000000000000000000000000000000000\n  dup2\n  mstore\n  0x04\n  add\n  tag_9\n  swap1\n  tag_10\n  jump\t// in\ntag_9:\n  mload(0x40)\n  dup1\n  swap2\n  sub\n  swap1\n  revert\ntag_8:\n    /* \"@openzeppelin/contracts-upgradeable/proxy/utils/Initializable.sol\":6082:6097  type(uint8).max */\n  0xff\n    /* \"@openzeppelin/contracts-upgradeable/proxy/utils/Initializable.sol\":6067:6097  _initialized < type(uint8).max */\n  dup1\n  and\n    /* \"@openzeppelin/contracts-upgradeable/proxy/utils/Initializable.sol\":6067:6079  _initialized */\n  0x00\n  dup1\n  sload\n  swap1\n  0x0100\n  exp\n  swap1\n  div\n  0xff\n  and\n    /* \"@openzeppelin/contracts-upgradeable/proxy/utils/Initializable.sol\":6067:6097  _initialized < type(uint8).max */\n  0xff\n  and\n  lt\n    /* \"@openzeppelin/contracts-upgradeable/proxy/utils/Initializable.sol\":6063:6201  if (_initialized < type(uint8).max) {... */\n  iszero\n  tag_11\n  jumpi\n    /* \"@openzeppelin/contracts-upgradeable/proxy/utils/Initializable.sol\":6128:6143  type(uint8).max */\n  0xff\n    /* \"@openzeppelin/contracts-upgradeable/proxy/utils/Initializable.sol\":6113:6125  _initialized */\n  0x00\n  dup1\n    /* \"@openzeppelin/contracts-upgradeable/proxy/utils/Initializable.sol\":6113:6143  _initialized = type(uint8).max */\n  0x0100\n  exp\n  dup2\n  sload\n  dup2\n  0xff\n  mul\n  not\n  and\n  swap1\n  dup4\n  0xff\n  and\n  mul\n  or\n  swap1\n  sstore\n  pop\n    /* \"@openzeppelin/contracts-upgradeable/proxy/utils/Initializable.sol\":6162:6190  Initialized(type(uint8).max) */\n  0x7f26b83ff96e1f2b6a682f133852f6798a09c465da95921460cefb3847402498\n    /* \"@openzeppelin/contracts-upgradeable/proxy/utils/Initializable.sol\":6174:6189  type(uint8).max */\n  0xff\n    /* \"@openzeppelin/contracts-upgradeable/proxy/utils/Initializable.sol\":6162:6190  Initialized(type(uint8).max) */\n  mload(0x40)\n  tag_12\n  swap2\n  swap1\n  tag_13\n  jump\t// in\ntag_12:\n  mload(0x40)\n  dup1\n  swap2\n  sub\n  swap1\n  log1\n    /* \"@openzeppelin/contracts-upgradeable/proxy/utils/Initializable.sol\":6063:6201  if (_initialized < type(uint8).max) {... */\ntag_11:\n    /* \"@openzeppelin/contracts-upgradeable/proxy/utils/Initializable.sol\":5928:6207  function _disableInitializers() internal virtual {... */\n  jump\t// out\n    /* \"#utility.yul\":7:176   */\ntag_14:\n    /* \"#utility.yul\":91:102   */\n  0x00\n    /* \"#utility.yul\":125:131   */\n  dup3\n    /* \"#utility.yul\":120:123   */\n  dup3\n    /* \"#utility.yul\":113:132   */\n  mstore\n    /* \"#utility.yul\":165:169   */\n  0x20\n    /* \"#utility.yul\":160:163   */\n  dup3\n    /* \"#utility.yul\":156:170   */\n  add\n    /* \"#utility.yul\":141:170   */\n  swap1\n  pop\n    /* \"#utility.yul\":7:176   */\n  swap3\n  swap2\n  pop\n  pop\n  jump\t// out\n    /* \"#utility.yul\":182:408   */\ntag_15:\n    /* \"#utility.yul\":322:356   */\n  0x496e697469616c697a61626c653a20636f6e747261637420697320696e697469\n    /* \"#utility.yul\":318:319   */\n  0x00\n    /* \"#utility.yul\":310:316   */\n  dup3\n    /* \"#utility.yul\":306:320   */\n  add\n    /* \"#utility.yul\":299:357   */\n  mstore\n    /* \"#utility.yul\":391:400   */\n  0x616c697a696e6700000000000000000000000000000000000000000000000000\n    /* \"#utility.yul\":386:388   */\n  0x20\n    /* \"#utility.yul\":378:384   */\n  dup3\n    /* \"#utility.yul\":374:389   */\n  add\n    /* \"#utility.yul\":367:401   */\n  mstore\n    /* \"#utility.yul\":182:408   */\n  pop\n  jump\t// out\n    /* \"#utility.yul\":414:780   */\ntag_16:\n    /* \"#utility.yul\":556:559   */\n  0x00\n    /* \"#utility.yul\":577:644   */\n  tag_23\n    /* \"#utility.yul\":641:643   */\n  0x27\n    /* \"#utility.yul\":636:639   */\n  dup4\n    /* \"#utility.yul\":577:644   */\n  tag_14\n  jump\t// in\ntag_23:\n    /* \"#utility.yul\":570:644   */\n  swap2\n  pop\n    /* \"#utility.yul\":653:746   */\n  tag_24\n    /* \"#utility.yul\":742:745   */\n  dup3\n    /* \"#utility.yul\":653:746   */\n  tag_15\n  jump\t// in\ntag_24:\n    /* \"#utility.yul\":771:773   */\n  0x40\n    /* \"#utility.yul\":766:769   */\n  dup3\n    /* \"#utility.yul\":762:774   */\n  add\n    /* \"#utility.yul\":755:774   */\n  swap1\n  pop\n    /* \"#utility.yul\":414:780   */\n  swap2\n  swap1\n  pop\n  jump\t// out\n    /* \"#utility.yul\":786:1205   */\ntag_10:\n    /* \"#utility.yul\":952:956   */\n  0x00\n    /* \"#utility.yul\":990:992   */\n  0x20\n    /* \"#utility.yul\":979:988   */\n  dup3\n    /* \"#utility.yul\":975:993   */\n  add\n    /* \"#utility.yul\":967:993   */\n  swap1\n  pop\n    /* \"#utility.yul\":1039:1048   */\n  dup2\n    /* \"#utility.yul\":1033:1037   */\n  dup2\n    /* \"#utility.yul\":1029:1049   */\n  sub\n    /* \"#utility.yul\":1025:1026   */\n  0x00\n    /* \"#utility.yul\":1014:1023   */\n  dup4\n    /* \"#utility.yul\":1010:1027   */\n  add\n    /* \"#utility.yul\":1003:1050   */\n  mstore\n    /* \"#utility.yul\":1067:1198   */\n  tag_26\n    /* \"#utility.yul\":1193:1197   */\n  dup2\n    /* \"#utility.yul\":1067:1198   */\n  tag_16\n  jump\t// in\ntag_26:\n    /* \"#utility.yul\":1059:1198   */\n  swap1\n  pop\n    /* \"#utility.yul\":786:1205   */\n  swap2\n  swap1\n  pop\n  jump\t// out\n    /* \"#utility.yul\":1211:1297   */\ntag_17:\n    /* \"#utility.yul\":1246:1253   */\n  0x00\n    /* \"#utility.yul\":1286:1290   */\n  0xff\n    /* \"#utility.yul\":1279:1284   */\n  dup3\n    /* \"#utility.yul\":1275:1291   */\n  and\n    /* \"#utility.yul\":1264:1291   */\n  swap1\n  pop\n    /* \"#utility.yul\":1211:1297   */\n  swap2\n  swap1\n  pop\n  jump\t// out\n    /* \"#utility.yul\":1303:1415   */\ntag_18:\n    /* \"#utility.yul\":1386:1408   */\n  tag_29\n    /* \"#utility.yul\":1402:1407   */\n  dup2\n    /* \"#utility.yul\":1386:1408   */\n  tag_17\n  jump\t// in\ntag_29:\n    /* \"#utility.yul\":1381:1384   */\n  dup3\n    /* \"#utility.yul\":1374:1409   */\n  mstore\n    /* \"#utility.yul\":1303:1415   */\n  pop\n  pop\n  jump\t// out\n    /* \"#utility.yul\":1421:1635   */\ntag_13:\n    /* \"#utility.yul\":1510:1514   */\n  0x00\n    /* \"#utility.yul\":1548:1550   */\n  0x20\n    /* \"#utility.yul\":1537:1546   */\n  dup3\n    /* \"#utility.yul\":1533:1551   */\n  add\n    /* \"#utility.yul\":1525:1551   */\n  swap1\n  pop\n    /* \"#utility.yul\":1561:1628   */\n  tag_31\n    /* \"#utility.yul\":1625:1626   */\n  0x00\n    /* \"#utility.yul\":1614:1623   */\n  dup4\n    /* \"#utility.yul\":1610:1627   */\n  add\n    /* \"#utility.yul\":1601:1607   */\n  dup5\n    /* \"#utility.yul\":1561:1628   */\n  tag_18\n  jump\t// in\ntag_31:\n    /* \"#utility.yul\":1421:1635   */\n  swap3\n  swap2\n  pop\n  pop\n  jump\t// out\n    /* \"contracts/Smart_token.sol\":475:1415  contract SmartToken is Initializable, ERC20Upgradeable, ERC20BurnableUpgradeable, PausableUpgradeable, OwnableUpgradeable {... */\ntag_6:\n  dataSize(sub_0)\n  dup1\n  dataOffset(sub_0)\n  0x00\n  codecopy\n  0x00\n  return\nstop\n\nsub_0: assembly {\n        /* \"contracts/Smart_token.sol\":475:1415  contract SmartToken is Initializable, ERC20Upgradeable, ERC20BurnableUpgradeable, PausableUpgradeable, OwnableUpgradeable {... */\n      mstore(0x40, 0x80)\n      callvalue\n      dup1\n      iszero\n      tag_1\n      jumpi\n      0x00\n      dup1\n      revert\n    tag_1:\n      pop\n      jumpi(tag_2, lt(calldatasize, 0x04))\n      shr(0xe0, calldataload(0x00))\n      dup1\n      0x70a08231\n      gt\n      tag_24\n      jumpi\n      dup1\n      0x8da5cb5b\n      gt\n      tag_25\n      jumpi\n      dup1\n      0x8da5cb5b\n      eq\n      tag_18\n      jumpi\n      dup1\n      0x95d89b41\n      eq\n      tag_19\n      jumpi\n      dup1\n      0xa457c2d7\n      eq\n      tag_20\n      jumpi\n      dup1\n      0xa9059cbb\n      eq\n      tag_21\n      jumpi\n      dup1\n      0xdd62ed3e\n      eq\n      tag_22\n      jumpi\n      dup1\n      0xf2fde38b\n      eq\n      tag_23\n      jumpi\n      jump(tag_2)\n    tag_25:\n      dup1\n      0x70a08231\n      eq\n      tag_13\n      jumpi\n      dup1\n      0x715018a6\n      eq\n      tag_14\n      jumpi\n      dup1\n      0x79cc6790\n      eq\n      tag_15\n      jumpi\n      dup1\n      0x8129fc1c\n      eq\n      tag_16\n      jumpi\n      dup1\n      0x8456cb59\n      eq\n      tag_17\n      jumpi\n      jump(tag_2)\n    tag_24:\n      dup1\n      0x39509351\n      gt\n      tag_26\n      jumpi\n      dup1\n      0x39509351\n      eq\n      tag_8\n      jumpi\n      dup1\n      0x3f4ba83a\n      eq\n      tag_9\n      jumpi\n      dup1\n      0x40c10f19\n      eq\n      tag_10\n      jumpi\n      dup1\n      0x42966c68\n      eq\n      tag_11\n      jumpi\n      dup1\n      0x5c975abb\n      eq\n      tag_12\n      jumpi\n      jump(tag_2)\n    tag_26:\n      dup1\n      0x06fdde03\n      eq\n      tag_3\n      jumpi\n      dup1\n      0x095ea7b3\n      eq\n      tag_4\n      jumpi\n      dup1\n      0x18160ddd\n      eq\n      tag_5\n      jumpi\n      dup1\n      0x23b872dd\n      eq\n      tag_6\n      jumpi\n      dup1\n      0x313ce567\n      eq\n      tag_7\n      jumpi\n    tag_2:\n      0x00\n      dup1\n      revert\n        /* \"@openzeppelin/contracts-upgradeable/token/ERC20/ERC20Upgradeable.sol\":2491:2589  function name() public view virtual override returns (string memory) {... */\n    tag_3:\n      tag_27\n      tag_28\n      jump\t// in\n    tag_27:\n      mload(0x40)\n      tag_29\n      swap2\n      swap1\n      tag_30\n      jump\t// in\n    tag_29:\n      mload(0x40)\n      dup1\n      swap2\n      sub\n      swap1\n      return\n        /* \"@openzeppelin/contracts-upgradeable/token/ERC20/ERC20Upgradeable.sol\":4768:4965  function approve(address spender, uint256 amount) public virtual override returns (bool) {... */\n    tag_4:\n      tag_31\n      0x04\n      dup1\n      calldatasize\n      sub\n      dup2\n      add\n      swap1\n      tag_32\n      swap2\n      swap1\n      tag_33\n      jump\t// in\n    tag_32:\n      tag_34\n      jump\t// in\n    tag_31:\n      mload(0x40)\n      tag_35\n      swap2\n      swap1\n      tag_36\n      jump\t// in\n    tag_35:\n      mload(0x40)\n      dup1\n      swap2\n      sub\n      swap1\n      return\n        /* \"@openzeppelin/contracts-upgradeable/token/ERC20/ERC20Upgradeable.sol\":3579:3685  function totalSupply() public view virtual override returns (uint256) {... */\n    tag_5:\n      tag_37\n      tag_38\n      jump\t// in\n    tag_37:\n      mload(0x40)\n      tag_39\n      swap2\n      swap1\n      tag_40\n      jump\t// in\n    tag_39:\n      mload(0x40)\n      dup1\n      swap2\n      sub\n      swap1\n      return\n        /* \"@openzeppelin/contracts-upgradeable/token/ERC20/ERC20Upgradeable.sol\":5527:5813  function transferFrom(... */\n    tag_6:\n      tag_41\n      0x04\n      dup1\n      calldatasize\n      sub\n      dup2\n      add\n      swap1\n      tag_42\n      swap2\n      swap1\n      tag_43\n      jump\t// in\n    tag_42:\n      tag_44\n      jump\t// in\n    tag_41:\n      mload(0x40)\n      tag_45\n      swap2\n      swap1\n      tag_36\n      jump\t// in\n    tag_45:\n      mload(0x40)\n      dup1\n      swap2\n      sub\n      swap1\n      return\n        /* \"@openzeppelin/contracts-upgradeable/token/ERC20/ERC20Upgradeable.sol\":3428:3519  function decimals() public view virtual override returns (uint8) {... */\n    tag_7:\n      tag_46\n      tag_47\n      jump\t// in\n    tag_46:\n      mload(0x40)\n      tag_48\n      swap2\n      swap1\n      tag_49\n      jump\t// in\n    tag_48:\n      mload(0x40)\n      dup1\n      swap2\n      sub\n      swap1\n      return\n        /* \"@openzeppelin/contracts-upgradeable/token/ERC20/ERC20Upgradeable.sol\":6208:6442  function increaseAllowance(address spender, uint256 addedValue) public virtual returns (bool) {... */\n    tag_8:\n      tag_50\n      0x04\n      dup1\n      calldatasize\n      sub\n      dup2\n      add\n      swap1\n      tag_51\n      swap2\n      swap1\n      tag_33\n      jump\t// in\n    tag_51:\n      tag_52\n      jump\t// in\n    tag_50:\n      mload(0x40)\n      tag_53\n      swap2\n      swap1\n      tag_36\n      jump\t// in\n    tag_53:\n      mload(0x40)\n      dup1\n      swap2\n      sub\n      swap1\n      return\n        /* \"contracts/Smart_token.sol\":1037:1102  function unpause() public onlyOwner {... */\n    tag_9:\n      tag_54\n      tag_55\n      jump\t// in\n    tag_54:\n      stop\n        /* \"contracts/Smart_token.sol\":1110:1205  function mint(address to, uint256 amount) public onlyOwner {... */\n    tag_10:\n      tag_56\n      0x04\n      dup1\n      calldatasize\n      sub\n      dup2\n      add\n      swap1\n      tag_57\n      swap2\n      swap1\n      tag_33\n      jump\t// in\n    tag_57:\n      tag_58\n      jump\t// in\n    tag_56:\n      stop\n        /* \"@openzeppelin/contracts-upgradeable/token/ERC20/extensions/ERC20BurnableUpgradeable.sol\":848:937  function burn(uint256 amount) public virtual {... */\n    tag_11:\n      tag_59\n      0x04\n      dup1\n      calldatasize\n      sub\n      dup2\n      add\n      swap1\n      tag_60\n      swap2\n      swap1\n      tag_61\n      jump\t// in\n    tag_60:\n      tag_62\n      jump\t// in\n    tag_59:\n      stop\n        /* \"@openzeppelin/contracts-upgradeable/security/PausableUpgradeable.sol\":1858:1942  function paused() public view virtual returns (bool) {... */\n    tag_12:\n      tag_63\n      tag_64\n      jump\t// in\n    tag_63:\n      mload(0x40)\n      tag_65\n      swap2\n      swap1\n      tag_36\n      jump\t// in\n    tag_65:\n      mload(0x40)\n      dup1\n      swap2\n      sub\n      swap1\n      return\n        /* \"@openzeppelin/contracts-upgradeable/token/ERC20/ERC20Upgradeable.sol\":3743:3868  function balanceOf(address account) public view virtual override returns (uint256) {... */\n    tag_13:\n      tag_66\n      0x04\n      dup1\n      calldatasize\n      sub\n      dup2\n      add\n      swap1\n      tag_67\n      swap2\n      swap1\n      tag_68\n      jump\t// in\n    tag_67:\n      tag_69\n      jump\t// in\n    tag_66:\n      mload(0x40)\n      tag_70\n      swap2\n      swap1\n      tag_40\n      jump\t// in\n    tag_70:\n      mload(0x40)\n      dup1\n      swap2\n      sub\n      swap1\n      return\n        /* \"@openzeppelin/contracts-upgradeable/access/OwnableUpgradeable.sol\":2071:2172  function renounceOwnership() public virtual onlyOwner {... */\n    tag_14:\n      tag_71\n      tag_72\n      jump\t// in\n    tag_71:\n      stop\n        /* \"@openzeppelin/contracts-upgradeable/token/ERC20/extensions/ERC20BurnableUpgradeable.sol\":1243:1404  function burnFrom(address account, uint256 amount) public virtual {... */\n    tag_15:\n      tag_73\n      0x04\n      dup1\n      calldatasize\n      sub\n      dup2\n      add\n      swap1\n      tag_74\n      swap2\n      swap1\n      tag_33\n      jump\t// in\n    tag_74:\n      tag_75\n      jump\t// in\n    tag_73:\n      stop\n        /* \"contracts/Smart_token.sol\":721:960  function initialize() initializer public {... */\n    tag_16:\n      tag_76\n      tag_77\n      jump\t// in\n    tag_76:\n      stop\n        /* \"contracts/Smart_token.sol\":968:1029  function pause() public onlyOwner {... */\n    tag_17:\n      tag_78\n      tag_79\n      jump\t// in\n    tag_78:\n      stop\n        /* \"@openzeppelin/contracts-upgradeable/access/OwnableUpgradeable.sol\":1441:1526  function owner() public view virtual returns (address) {... */\n    tag_18:\n      tag_80\n      tag_81\n      jump\t// in\n    tag_80:\n      mload(0x40)\n      tag_82\n      swap2\n      swap1\n      tag_83\n      jump\t// in\n    tag_82:\n      mload(0x40)\n      dup1\n      swap2\n      sub\n      swap1\n      return\n        /* \"@openzeppelin/contracts-upgradeable/token/ERC20/ERC20Upgradeable.sol\":2702:2804  function symbol() public view virtual override returns (string memory) {... */\n    tag_19:\n      tag_84\n      tag_85\n      jump\t// in\n    tag_84:\n      mload(0x40)\n      tag_86\n      swap2\n      swap1\n      tag_30\n      jump\t// in\n    tag_86:\n      mload(0x40)\n      dup1\n      swap2\n      sub\n      swap1\n      return\n        /* \"@openzeppelin/contracts-upgradeable/token/ERC20/ERC20Upgradeable.sol\":6929:7356  function decreaseAllowance(address spender, uint256 subtractedValue) public virtual returns (bool) {... */\n    tag_20:\n      tag_87\n      0x04\n      dup1\n      calldatasize\n      sub\n      dup2\n      add\n      swap1\n      tag_88\n      swap2\n      swap1\n      tag_33\n      jump\t// in\n    tag_88:\n      tag_89\n      jump\t// in\n    tag_87:\n      mload(0x40)\n      tag_90\n      swap2\n      swap1\n      tag_36\n      jump\t// in\n    tag_90:\n      mload(0x40)\n      dup1\n      swap2\n      sub\n      swap1\n      return\n        /* \"@openzeppelin/contracts-upgradeable/token/ERC20/ERC20Upgradeable.sol\":4064:4253  function transfer(address to, uint256 amount) public virtual override returns (bool) {... */\n    tag_21:\n      tag_91\n      0x04\n      dup1\n      calldatasize\n      sub\n      dup2\n      add\n      swap1\n      tag_92\n      swap2\n      swap1\n      tag_33\n      jump\t// in\n    tag_92:\n      tag_93\n      jump\t// in\n    tag_91:\n      mload(0x40)\n      tag_94\n      swap2\n      swap1\n      tag_36\n      jump\t// in\n    tag_94:\n      mload(0x40)\n      dup1\n      swap2\n      sub\n      swap1\n      return\n        /* \"@openzeppelin/contracts-upgradeable/token/ERC20/ERC20Upgradeable.sol\":4311:4460  function allowance(address owner, address spender) public view virtual override returns (uint256) {... */\n    tag_22:\n      tag_95\n      0x04\n      dup1\n      calldatasize\n      sub\n      dup2\n      add\n      swap1\n      tag_96\n      swap2\n      swap1\n      tag_97\n      jump\t// in\n    tag_96:\n      tag_98\n      jump\t// in\n    tag_95:\n      mload(0x40)\n      tag_99\n      swap2\n      swap1\n      tag_40\n      jump\t// in\n    tag_99:\n      mload(0x40)\n      dup1\n      swap2\n      sub\n      swap1\n      return\n        /* \"@openzeppelin/contracts-upgradeable/access/OwnableUpgradeable.sol\":2321:2519  function transferOwnership(address newOwner) public virtual onlyOwner {... */\n    tag_23:\n      tag_100\n      0x04\n      dup1\n      calldatasize\n      sub\n      dup2\n      add\n      swap1\n      tag_101\n      swap2\n      swap1\n      tag_68\n      jump\t// in\n    tag_101:\n      tag_102\n      jump\t// in\n    tag_100:\n      stop\n        /* \"@openzeppelin/contracts-upgradeable/token/ERC20/ERC20Upgradeable.sol\":2491:2589  function name() public view virtual override returns (string memory) {... */\n    tag_28:\n        /* \"@openzeppelin/contracts-upgradeable/token/ERC20/ERC20Upgradeable.sol\":2545:2558  string memory */\n      0x60\n        /* \"@openzeppelin/contracts-upgradeable/token/ERC20/ERC20Upgradeable.sol\":2577:2582  _name */\n      0x36\n        /* \"@openzeppelin/contracts-upgradeable/token/ERC20/ERC20Upgradeable.sol\":2570:2582  return _name */\n      dup1\n      sload\n      tag_104\n      swap1\n      tag_105\n      jump\t// in\n    tag_104:\n      dup1\n      0x1f\n      add\n      0x20\n      dup1\n      swap2\n      div\n      mul\n      0x20\n      add\n      mload(0x40)\n      swap1\n      dup2\n      add\n      0x40\n      mstore\n      dup1\n      swap3\n      swap2\n      swap1\n      dup2\n      dup2\n      mstore\n      0x20\n      add\n      dup3\n      dup1\n      sload\n      tag_106\n      swap1\n      tag_105\n      jump\t// in\n    tag_106:\n      dup1\n      iszero\n      tag_107\n      jumpi\n      dup1\n      0x1f\n      lt\n      tag_108\n      jumpi\n      0x0100\n      dup1\n      dup4\n      sload\n      div\n      mul\n      dup4\n      mstore\n      swap2\n      0x20\n      add\n      swap2\n      jump(tag_107)\n    tag_108:\n      dup3\n      add\n      swap2\n      swap1\n      0x00\n      mstore\n      keccak256(0x00, 0x20)\n      swap1\n    tag_109:\n      dup2\n      sload\n      dup2\n      mstore\n      swap1\n      0x01\n      add\n      swap1\n      0x20\n      add\n      dup1\n      dup4\n      gt\n      tag_109\n      jumpi\n      dup3\n      swap1\n      sub\n      0x1f\n      and\n      dup3\n      add\n      swap2\n    tag_107:\n      pop\n      pop\n      pop\n      pop\n      pop\n      swap1\n      pop\n        /* \"@openzeppelin/contracts-upgradeable/token/ERC20/ERC20Upgradeable.sol\":2491:2589  function name() public view virtual override returns (string memory) {... */\n      swap1\n      jump\t// out\n        /* \"@openzeppelin/contracts-upgradeable/token/ERC20/ERC20Upgradeable.sol\":4768:4965  function approve(address spender, uint256 amount) public virtual override returns (bool) {... */\n    tag_34:\n        /* \"@openzeppelin/contracts-upgradeable/token/ERC20/ERC20Upgradeable.sol\":4851:4855  bool */\n      0x00\n        /* \"@openzeppelin/contracts-upgradeable/token/ERC20/ERC20Upgradeable.sol\":4867:4880  address owner */\n      dup1\n        /* \"@openzeppelin/contracts-upgradeable/token/ERC20/ERC20Upgradeable.sol\":4883:4895  _msgSender() */\n      tag_111\n        /* \"@openzeppelin/contracts-upgradeable/token/ERC20/ERC20Upgradeable.sol\":4883:4893  _msgSender */\n      tag_112\n        /* \"@openzeppelin/contracts-upgradeable/token/ERC20/ERC20Upgradeable.sol\":4883:4895  _msgSender() */\n      jump\t// in\n    tag_111:\n        /* \"@openzeppelin/contracts-upgradeable/token/ERC20/ERC20Upgradeable.sol\":4867:4895  address owner = _msgSender() */\n      swap1\n      pop\n        /* \"@openzeppelin/contracts-upgradeable/token/ERC20/ERC20Upgradeable.sol\":4905:4937  _approve(owner, spender, amount) */\n      tag_113\n        /* \"@openzeppelin/contracts-upgradeable/token/ERC20/ERC20Upgradeable.sol\":4914:4919  owner */\n      dup2\n        /* \"@openzeppelin/contracts-upgradeable/token/ERC20/ERC20Upgradeable.sol\":4921:4928  spender */\n      dup6\n        /* \"@openzeppelin/contracts-upgradeable/token/ERC20/ERC20Upgradeable.sol\":4930:4936  amount */\n      dup6\n        /* \"@openzeppelin/contracts-upgradeable/token/ERC20/ERC20Upgradeable.sol\":4905:4913  _approve */\n      tag_114\n        /* \"@openzeppelin/contracts-upgradeable/token/ERC20/ERC20Upgradeable.sol\":4905:4937  _approve(owner, spender, amount) */\n      jump\t// in\n    tag_113:\n        /* \"@openzeppelin/contracts-upgradeable/token/ERC20/ERC20Upgradeable.sol\":4954:4958  true */\n      0x01\n        /* \"@openzeppelin/contracts-upgradeable/token/ERC20/ERC20Upgradeable.sol\":4947:4958  return true */\n      swap2\n      pop\n      pop\n        /* \"@openzeppelin/contracts-upgradeable/token/ERC20/ERC20Upgradeable.sol\":4768:4965  function approve(address spender, uint256 amount) public virtual override returns (bool) {... */\n      swap3\n      swap2\n      pop\n      pop\n      jump\t// out\n        /* \"@openzeppelin/contracts-upgradeable/token/ERC20/ERC20Upgradeable.sol\":3579:3685  function totalSupply() public view virtual override returns (uint256) {... */\n    tag_38:\n        /* \"@openzeppelin/contracts-upgradeable/token/ERC20/ERC20Upgradeable.sol\":3640:3647  uint256 */\n      0x00\n        /* \"@openzeppelin/contracts-upgradeable/token/ERC20/ERC20Upgradeable.sol\":3666:3678  _totalSupply */\n      sload(0x35)\n        /* \"@openzeppelin/contracts-upgradeable/token/ERC20/ERC20Upgradeable.sol\":3659:3678  return _totalSupply */\n      swap1\n      pop\n        /* \"@openzeppelin/contracts-upgradeable/token/ERC20/ERC20Upgradeable.sol\":3579:3685  function totalSupply() public view virtual override returns (uint256) {... */\n      swap1\n      jump\t// out\n        /* \"@openzeppelin/contracts-upgradeable/token/ERC20/ERC20Upgradeable.sol\":5527:5813  function transferFrom(... */\n    tag_44:\n        /* \"@openzeppelin/contracts-upgradeable/token/ERC20/ERC20Upgradeable.sol\":5654:5658  bool */\n      0x00\n        /* \"@openzeppelin/contracts-upgradeable/token/ERC20/ERC20Upgradeable.sol\":5670:5685  address spender */\n      dup1\n        /* \"@openzeppelin/contracts-upgradeable/token/ERC20/ERC20Upgradeable.sol\":5688:5700  _msgSender() */\n      tag_117\n        /* \"@openzeppelin/contracts-upgradeable/token/ERC20/ERC20Upgradeable.sol\":5688:5698  _msgSender */\n      tag_112\n        /* \"@openzeppelin/contracts-upgradeable/token/ERC20/ERC20Upgradeable.sol\":5688:5700  _msgSender() */\n      jump\t// in\n    tag_117:\n        /* \"@openzeppelin/contracts-upgradeable/token/ERC20/ERC20Upgradeable.sol\":5670:5700  address spender = _msgSender() */\n      swap1\n      pop\n        /* \"@openzeppelin/contracts-upgradeable/token/ERC20/ERC20Upgradeable.sol\":5710:5748  _spendAllowance(from, spender, amount) */\n      tag_118\n        /* \"@openzeppelin/contracts-upgradeable/token/ERC20/ERC20Upgradeable.sol\":5726:5730  from */\n      dup6\n        /* \"@openzeppelin/contracts-upgradeable/token/ERC20/ERC20Upgradeable.sol\":5732:5739  spender */\n      dup3\n        /* \"@openzeppelin/contracts-upgradeable/token/ERC20/ERC20Upgradeable.sol\":5741:5747  amount */\n      dup6\n        /* \"@openzeppelin/contracts-upgradeable/token/ERC20/ERC20Upgradeable.sol\":5710:5725  _spendAllowance */\n      tag_119\n        /* \"@openzeppelin/contracts-upgradeable/token/ERC20/ERC20Upgradeable.sol\":5710:5748  _spendAllowance(from, spender, amount) */\n      jump\t// in\n    tag_118:\n        /* \"@openzeppelin/contracts-upgradeable/token/ERC20/ERC20Upgradeable.sol\":5758:5785  _transfer(from, to, amount) */\n      tag_120\n        /* \"@openzeppelin/contracts-upgradeable/token/ERC20/ERC20Upgradeable.sol\":5768:5772  from */\n      dup6\n        /* \"@openzeppelin/contracts-upgradeable/token/ERC20/ERC20Upgradeable.sol\":5774:5776  to */\n      dup6\n        /* \"@openzeppelin/contracts-upgradeable/token/ERC20/ERC20Upgradeable.sol\":5778:5784  amount */\n      dup6\n        /* \"@openzeppelin/contracts-upgradeable/token/ERC20/ERC20Upgradeable.sol\":5758:5767  _transfer */\n      tag_121\n        /* \"@openzeppelin/contracts-upgradeable/token/ERC20/ERC20Upgradeable.sol\":5758:5785  _transfer(from, to, amount) */\n      jump\t// in\n    tag_120:\n        /* \"@openzeppelin/contracts-upgradeable/token/ERC20/ERC20Upgradeable.sol\":5802:5806  true */\n      0x01\n        /* \"@openzeppelin/contracts-upgradeable/token/ERC20/ERC20Upgradeable.sol\":5795:5806  return true */\n      swap2\n      pop\n      pop\n        /* \"@openzeppelin/contracts-upgradeable/token/ERC20/ERC20Upgradeable.sol\":5527:5813  function transferFrom(... */\n      swap4\n      swap3\n      pop\n      pop\n      pop\n      jump\t// out\n        /* \"@openzeppelin/contracts-upgradeable/token/ERC20/ERC20Upgradeable.sol\":3428:3519  function decimals() public view virtual override returns (uint8) {... */\n    tag_47:\n        /* \"@openzeppelin/contracts-upgradeable/token/ERC20/ERC20Upgradeable.sol\":3486:3491  uint8 */\n      0x00\n        /* \"@openzeppelin/contracts-upgradeable/token/ERC20/ERC20Upgradeable.sol\":3510:3512  18 */\n      0x12\n        /* \"@openzeppelin/contracts-upgradeable/token/ERC20/ERC20Upgradeable.sol\":3503:3512  return 18 */\n      swap1\n      pop\n        /* \"@openzeppelin/contracts-upgradeable/token/ERC20/ERC20Upgradeable.sol\":3428:3519  function decimals() public view virtual override returns (uint8) {... */\n      swap1\n      jump\t// out\n        /* \"@openzeppelin/contracts-upgradeable/token/ERC20/ERC20Upgradeable.sol\":6208:6442  function increaseAllowance(address spender, uint256 addedValue) public virtual returns (bool) {... */\n    tag_52:\n        /* \"@openzeppelin/contracts-upgradeable/token/ERC20/ERC20Upgradeable.sol\":6296:6300  bool */\n      0x00\n        /* \"@openzeppelin/contracts-upgradeable/token/ERC20/ERC20Upgradeable.sol\":6312:6325  address owner */\n      dup1\n        /* \"@openzeppelin/contracts-upgradeable/token/ERC20/ERC20Upgradeable.sol\":6328:6340  _msgSender() */\n      tag_124\n        /* \"@openzeppelin/contracts-upgradeable/token/ERC20/ERC20Upgradeable.sol\":6328:6338  _msgSender */\n      tag_112\n        /* \"@openzeppelin/contracts-upgradeable/token/ERC20/ERC20Upgradeable.sol\":6328:6340  _msgSender() */\n      jump\t// in\n    tag_124:\n        /* \"@openzeppelin/contracts-upgradeable/token/ERC20/ERC20Upgradeable.sol\":6312:6340  address owner = _msgSender() */\n      swap1\n      pop\n        /* \"@openzeppelin/contracts-upgradeable/token/ERC20/ERC20Upgradeable.sol\":6350:6414  _approve(owner, spender, allowance(owner, spender) + addedValue) */\n      tag_125\n        /* \"@openzeppelin/contracts-upgradeable/token/ERC20/ERC20Upgradeable.sol\":6359:6364  owner */\n      dup2\n        /* \"@openzeppelin/contracts-upgradeable/token/ERC20/ERC20Upgradeable.sol\":6366:6373  spender */\n      dup6\n        /* \"@openzeppelin/contracts-upgradeable/token/ERC20/ERC20Upgradeable.sol\":6403:6413  addedValue */\n      dup6\n        /* \"@openzeppelin/contracts-upgradeable/token/ERC20/ERC20Upgradeable.sol\":6375:6400  allowance(owner, spender) */\n      tag_126\n        /* \"@openzeppelin/contracts-upgradeable/token/ERC20/ERC20Upgradeable.sol\":6385:6390  owner */\n      dup6\n        /* \"@openzeppelin/contracts-upgradeable/token/ERC20/ERC20Upgradeable.sol\":6392:6399  spender */\n      dup10\n        /* \"@openzeppelin/contracts-upgradeable/token/ERC20/ERC20Upgradeable.sol\":6375:6384  allowance */\n      tag_98\n        /* \"@openzeppelin/contracts-upgradeable/token/ERC20/ERC20Upgradeable.sol\":6375:6400  allowance(owner, spender) */\n      jump\t// in\n    tag_126:\n        /* \"@openzeppelin/contracts-upgradeable/token/ERC20/ERC20Upgradeable.sol\":6375:6413  allowance(owner, spender) + addedValue */\n      tag_127\n      swap2\n      swap1\n      tag_128\n      jump\t// in\n    tag_127:\n        /* \"@openzeppelin/contracts-upgradeable/token/ERC20/ERC20Upgradeable.sol\":6350:6358  _approve */\n      tag_114\n        /* \"@openzeppelin/contracts-upgradeable/token/ERC20/ERC20Upgradeable.sol\":6350:6414  _approve(owner, spender, allowance(owner, spender) + addedValue) */\n      jump\t// in\n    tag_125:\n        /* \"@openzeppelin/contracts-upgradeable/token/ERC20/ERC20Upgradeable.sol\":6431:6435  true */\n      0x01\n        /* \"@openzeppelin/contracts-upgradeable/token/ERC20/ERC20Upgradeable.sol\":6424:6435  return true */\n      swap2\n      pop\n      pop\n        /* \"@openzeppelin/contracts-upgradeable/token/ERC20/ERC20Upgradeable.sol\":6208:6442  function increaseAllowance(address spender, uint256 addedValue) public virtual returns (bool) {... */\n      swap3\n      swap2\n      pop\n      pop\n      jump\t// out\n        /* \"contracts/Smart_token.sol\":1037:1102  function unpause() public onlyOwner {... */\n    tag_55:\n        /* \"@openzeppelin/contracts-upgradeable/access/OwnableUpgradeable.sol\":1334:1347  _checkOwner() */\n      tag_130\n        /* \"@openzeppelin/contracts-upgradeable/access/OwnableUpgradeable.sol\":1334:1345  _checkOwner */\n      tag_131\n        /* \"@openzeppelin/contracts-upgradeable/access/OwnableUpgradeable.sol\":1334:1347  _checkOwner() */\n      jump\t// in\n    tag_130:\n        /* \"contracts/Smart_token.sol\":1084:1094  _unpause() */\n      tag_133\n        /* \"contracts/Smart_token.sol\":1084:1092  _unpause */\n      tag_134\n        /* \"contracts/Smart_token.sol\":1084:1094  _unpause() */\n      jump\t// in\n    tag_133:\n        /* \"contracts/Smart_token.sol\":1037:1102  function unpause() public onlyOwner {... */\n      jump\t// out\n        /* \"contracts/Smart_token.sol\":1110:1205  function mint(address to, uint256 amount) public onlyOwner {... */\n    tag_58:\n        /* \"@openzeppelin/contracts-upgradeable/access/OwnableUpgradeable.sol\":1334:1347  _checkOwner() */\n      tag_136\n        /* \"@openzeppelin/contracts-upgradeable/access/OwnableUpgradeable.sol\":1334:1345  _checkOwner */\n      tag_131\n        /* \"@openzeppelin/contracts-upgradeable/access/OwnableUpgradeable.sol\":1334:1347  _checkOwner() */\n      jump\t// in\n    tag_136:\n        /* \"contracts/Smart_token.sol\":1180:1197  _mint(to, amount) */\n      tag_138\n        /* \"contracts/Smart_token.sol\":1186:1188  to */\n      dup3\n        /* \"contracts/Smart_token.sol\":1190:1196  amount */\n      dup3\n        /* \"contracts/Smart_token.sol\":1180:1185  _mint */\n      tag_139\n        /* \"contracts/Smart_token.sol\":1180:1197  _mint(to, amount) */\n      jump\t// in\n    tag_138:\n        /* \"contracts/Smart_token.sol\":1110:1205  function mint(address to, uint256 amount) public onlyOwner {... */\n      pop\n      pop\n      jump\t// out\n        /* \"@openzeppelin/contracts-upgradeable/token/ERC20/extensions/ERC20BurnableUpgradeable.sol\":848:937  function burn(uint256 amount) public virtual {... */\n    tag_62:\n        /* \"@openzeppelin/contracts-upgradeable/token/ERC20/extensions/ERC20BurnableUpgradeable.sol\":903:930  _burn(_msgSender(), amount) */\n      tag_141\n        /* \"@openzeppelin/contracts-upgradeable/token/ERC20/extensions/ERC20BurnableUpgradeable.sol\":909:921  _msgSender() */\n      tag_142\n        /* \"@openzeppelin/contracts-upgradeable/token/ERC20/extensions/ERC20BurnableUpgradeable.sol\":909:919  _msgSender */\n      tag_112\n        /* \"@openzeppelin/contracts-upgradeable/token/ERC20/extensions/ERC20BurnableUpgradeable.sol\":909:921  _msgSender() */\n      jump\t// in\n    tag_142:\n        /* \"@openzeppelin/contracts-upgradeable/token/ERC20/extensions/ERC20BurnableUpgradeable.sol\":923:929  amount */\n      dup3\n        /* \"@openzeppelin/contracts-upgradeable/token/ERC20/extensions/ERC20BurnableUpgradeable.sol\":903:908  _burn */\n      tag_143\n        /* \"@openzeppelin/contracts-upgradeable/token/ERC20/extensions/ERC20BurnableUpgradeable.sol\":903:930  _burn(_msgSender(), amount) */\n      jump\t// in\n    tag_141:\n        /* \"@openzeppelin/contracts-upgradeable/token/ERC20/extensions/ERC20BurnableUpgradeable.sol\":848:937  function burn(uint256 amount) public virtual {... */\n      pop\n      jump\t// out\n        /* \"@openzeppelin/contracts-upgradeable/security/PausableUpgradeable.sol\":1858:1942  function paused() public view virtual returns (bool) {... */\n    tag_64:\n        /* \"@openzeppelin/contracts-upgradeable/security/PausableUpgradeable.sol\":1905:1909  bool */\n      0x00\n        /* \"@openzeppelin/contracts-upgradeable/security/PausableUpgradeable.sol\":1928:1935  _paused */\n      0x97\n      0x00\n      swap1\n      sload\n      swap1\n      0x0100\n      exp\n      swap1\n      div\n      0xff\n      and\n        /* \"@openzeppelin/contracts-upgradeable/security/PausableUpgradeable.sol\":1921:1935  return _paused */\n      swap1\n      pop\n        /* \"@openzeppelin/contracts-upgradeable/security/PausableUpgradeable.sol\":1858:1942  function paused() public view virtual returns (bool) {... */\n      swap1\n      jump\t// out\n        /* \"@openzeppelin/contracts-upgradeable/token/ERC20/ERC20Upgradeable.sol\":3743:3868  function balanceOf(address account) public view virtual override returns (uint256) {... */\n    tag_69:\n        /* \"@openzeppelin/contracts-upgradeable/token/ERC20/ERC20Upgradeable.sol\":3817:3824  uint256 */\n      0x00\n        /* \"@openzeppelin/contracts-upgradeable/token/ERC20/ERC20Upgradeable.sol\":3843:3852  _balances */\n      0x33\n        /* \"@openzeppelin/contracts-upgradeable/token/ERC20/ERC20Upgradeable.sol\":3843:3861  _balances[account] */\n      0x00\n        /* \"@openzeppelin/contracts-upgradeable/token/ERC20/ERC20Upgradeable.sol\":3853:3860  account */\n      dup4\n        /* \"@openzeppelin/contracts-upgradeable/token/ERC20/ERC20Upgradeable.sol\":3843:3861  _balances[account] */\n      0xffffffffffffffffffffffffffffffffffffffff\n      and\n      0xffffffffffffffffffffffffffffffffffffffff\n      and\n      dup2\n      mstore\n      0x20\n      add\n      swap1\n      dup2\n      mstore\n      0x20\n      add\n      0x00\n      keccak256\n      sload\n        /* \"@openzeppelin/contracts-upgradeable/token/ERC20/ERC20Upgradeable.sol\":3836:3861  return _balances[account] */\n      swap1\n      pop\n        /* \"@openzeppelin/contracts-upgradeable/token/ERC20/ERC20Upgradeable.sol\":3743:3868  function balanceOf(address account) public view virtual override returns (uint256) {... */\n      swap2\n      swap1\n      pop\n      jump\t// out\n        /* \"@openzeppelin/contracts-upgradeable/access/OwnableUpgradeable.sol\":2071:2172  function renounceOwnership() public virtual onlyOwner {... */\n    tag_72:\n        /* \"@openzeppelin/contracts-upgradeable/access/OwnableUpgradeable.sol\":1334:1347  _checkOwner() */\n      tag_147\n        /* \"@openzeppelin/contracts-upgradeable/access/OwnableUpgradeable.sol\":1334:1345  _checkOwner */\n      tag_131\n        /* \"@openzeppelin/contracts-upgradeable/access/OwnableUpgradeable.sol\":1334:1347  _checkOwner() */\n      jump\t// in\n    tag_147:\n        /* \"@openzeppelin/contracts-upgradeable/access/OwnableUpgradeable.sol\":2135:2165  _transferOwnership(address(0)) */\n      tag_149\n        /* \"@openzeppelin/contracts-upgradeable/access/OwnableUpgradeable.sol\":2162:2163  0 */\n      0x00\n        /* \"@openzeppelin/contracts-upgradeable/access/OwnableUpgradeable.sol\":2135:2153  _transferOwnership */\n      tag_150\n        /* \"@openzeppelin/contracts-upgradeable/access/OwnableUpgradeable.sol\":2135:2165  _transferOwnership(address(0)) */\n      jump\t// in\n    tag_149:\n        /* \"@openzeppelin/contracts-upgradeable/access/OwnableUpgradeable.sol\":2071:2172  function renounceOwnership() public virtual onlyOwner {... */\n      jump\t// out\n        /* \"@openzeppelin/contracts-upgradeable/token/ERC20/extensions/ERC20BurnableUpgradeable.sol\":1243:1404  function burnFrom(address account, uint256 amount) public virtual {... */\n    tag_75:\n        /* \"@openzeppelin/contracts-upgradeable/token/ERC20/extensions/ERC20BurnableUpgradeable.sol\":1319:1365  _spendAllowance(account, _msgSender(), amount) */\n      tag_152\n        /* \"@openzeppelin/contracts-upgradeable/token/ERC20/extensions/ERC20BurnableUpgradeable.sol\":1335:1342  account */\n      dup3\n        /* \"@openzeppelin/contracts-upgradeable/token/ERC20/extensions/ERC20BurnableUpgradeable.sol\":1344:1356  _msgSender() */\n      tag_153\n        /* \"@openzeppelin/contracts-upgradeable/token/ERC20/extensions/ERC20BurnableUpgradeable.sol\":1344:1354  _msgSender */\n      tag_112\n        /* \"@openzeppelin/contracts-upgradeable/token/ERC20/extensions/ERC20BurnableUpgradeable.sol\":1344:1356  _msgSender() */\n      jump\t// in\n    tag_153:\n        /* \"@openzeppelin/contracts-upgradeable/token/ERC20/extensions/ERC20BurnableUpgradeable.sol\":1358:1364  amount */\n      dup4\n        /* \"@openzeppelin/contracts-upgradeable/token/ERC20/extensions/ERC20BurnableUpgradeable.sol\":1319:1334  _spendAllowance */\n      tag_119\n        /* \"@openzeppelin/contracts-upgradeable/token/ERC20/extensions/ERC20BurnableUpgradeable.sol\":1319:1365  _spendAllowance(account, _msgSender(), amount) */\n      jump\t// in\n    tag_152:\n        /* \"@openzeppelin/contracts-upgradeable/token/ERC20/extensions/ERC20BurnableUpgradeable.sol\":1375:1397  _burn(account, amount) */\n      tag_154\n        /* \"@openzeppelin/contracts-upgradeable/token/ERC20/extensions/ERC20BurnableUpgradeable.sol\":1381:1388  account */\n      dup3\n        /* \"@openzeppelin/contracts-upgradeable/token/ERC20/extensions/ERC20BurnableUpgradeable.sol\":1390:1396  amount */\n      dup3\n        /* \"@openzeppelin/contracts-upgradeable/token/ERC20/extensions/ERC20BurnableUpgradeable.sol\":1375:1380  _burn */\n      tag_143\n        /* \"@openzeppelin/contracts-upgradeable/token/ERC20/extensions/ERC20BurnableUpgradeable.sol\":1375:1397  _burn(account, amount) */\n      jump\t// in\n    tag_154:\n        /* \"@openzeppelin/contracts-upgradeable/token/ERC20/extensions/ERC20BurnableUpgradeable.sol\":1243:1404  function burnFrom(address account, uint256 amount) public virtual {... */\n      pop\n      pop\n      jump\t// out\n        /* \"contracts/Smart_token.sol\":721:960  function initialize() initializer public {... */\n    tag_77:\n        /* \"@openzeppelin/contracts-upgradeable/proxy/utils/Initializable.sol\":3268:3287  bool isTopLevelCall */\n      0x00\n        /* \"@openzeppelin/contracts-upgradeable/proxy/utils/Initializable.sol\":3291:3304  _initializing */\n      dup1\n      0x01\n      swap1\n      sload\n      swap1\n      0x0100\n      exp\n      swap1\n      div\n      0xff\n      and\n        /* \"@openzeppelin/contracts-upgradeable/proxy/utils/Initializable.sol\":3290:3304  !_initializing */\n      iszero\n        /* \"@openzeppelin/contracts-upgradeable/proxy/utils/Initializable.sol\":3268:3304  bool isTopLevelCall = !_initializing */\n      swap1\n      pop\n        /* \"@openzeppelin/contracts-upgradeable/proxy/utils/Initializable.sol\":3336:3350  isTopLevelCall */\n      dup1\n        /* \"@openzeppelin/contracts-upgradeable/proxy/utils/Initializable.sol\":3336:3370  isTopLevelCall && _initialized < 1 */\n      dup1\n      iszero\n      tag_156\n      jumpi\n      pop\n        /* \"@openzeppelin/contracts-upgradeable/proxy/utils/Initializable.sol\":3369:3370  1 */\n      0x01\n        /* \"@openzeppelin/contracts-upgradeable/proxy/utils/Initializable.sol\":3354:3366  _initialized */\n      0x00\n      dup1\n      sload\n      swap1\n      0x0100\n      exp\n      swap1\n      div\n      0xff\n      and\n        /* \"@openzeppelin/contracts-upgradeable/proxy/utils/Initializable.sol\":3354:3370  _initialized < 1 */\n      0xff\n      and\n      lt\n        /* \"@openzeppelin/contracts-upgradeable/proxy/utils/Initializable.sol\":3336:3370  isTopLevelCall && _initialized < 1 */\n    tag_156:\n        /* \"@openzeppelin/contracts-upgradeable/proxy/utils/Initializable.sol\":3335:3443  (isTopLevelCall && _initialized < 1) || (!AddressUpgradeable.isContract(address(this)) && _initialized == 1) */\n      dup1\n      tag_157\n      jumpi\n      pop\n        /* \"@openzeppelin/contracts-upgradeable/proxy/utils/Initializable.sol\":3377:3421  AddressUpgradeable.isContract(address(this)) */\n      tag_158\n        /* \"@openzeppelin/contracts-upgradeable/proxy/utils/Initializable.sol\":3415:3419  this */\n      address\n        /* \"@openzeppelin/contracts-upgradeable/proxy/utils/Initializable.sol\":3377:3406  AddressUpgradeable.isContract */\n      tag_159\n        /* \"@openzeppelin/contracts-upgradeable/proxy/utils/Initializable.sol\":3377:3421  AddressUpgradeable.isContract(address(this)) */\n      jump\t// in\n    tag_158:\n        /* \"@openzeppelin/contracts-upgradeable/proxy/utils/Initializable.sol\":3376:3421  !AddressUpgradeable.isContract(address(this)) */\n      iszero\n        /* \"@openzeppelin/contracts-upgradeable/proxy/utils/Initializable.sol\":3376:3442  !AddressUpgradeable.isContract(address(this)) && _initialized == 1 */\n      dup1\n      iszero\n      tag_160\n      jumpi\n      pop\n        /* \"@openzeppelin/contracts-upgradeable/proxy/utils/Initializable.sol\":3441:3442  1 */\n      0x01\n        /* \"@openzeppelin/contracts-upgradeable/proxy/utils/Initializable.sol\":3425:3437  _initialized */\n      0x00\n      dup1\n      sload\n      swap1\n      0x0100\n      exp\n      swap1\n      div\n      0xff\n      and\n        /* \"@openzeppelin/contracts-upgradeable/proxy/utils/Initializable.sol\":3425:3442  _initialized == 1 */\n      0xff\n      and\n      eq\n        /* \"@openzeppelin/contracts-upgradeable/proxy/utils/Initializable.sol\":3376:3442  !AddressUpgradeable.isContract(address(this)) && _initialized == 1 */\n    tag_160:\n        /* \"@openzeppelin/contracts-upgradeable/proxy/utils/Initializable.sol\":3335:3443  (isTopLevelCall && _initialized < 1) || (!AddressUpgradeable.isContract(address(this)) && _initialized == 1) */\n    tag_157:\n        /* \"@openzeppelin/contracts-upgradeable/proxy/utils/Initializable.sol\":3314:3515  require(... */\n      tag_161\n      jumpi\n      mload(0x40)\n      0x08c379a000000000000000000000000000000000000000000000000000000000\n      dup2\n      mstore\n      0x04\n      add\n      tag_162\n      swap1\n      tag_163\n      jump\t// in\n    tag_162:\n      mload(0x40)\n      dup1\n      swap2\n      sub\n      swap1\n      revert\n    tag_161:\n        /* \"@openzeppelin/contracts-upgradeable/proxy/utils/Initializable.sol\":3540:3541  1 */\n      0x01\n        /* \"@openzeppelin/contracts-upgradeable/proxy/utils/Initializable.sol\":3525:3537  _initialized */\n      0x00\n      dup1\n        /* \"@openzeppelin/contracts-upgradeable/proxy/utils/Initializable.sol\":3525:3541  _initialized = 1 */\n      0x0100\n      exp\n      dup2\n      sload\n      dup2\n      0xff\n      mul\n      not\n      and\n      swap1\n      dup4\n      0xff\n      and\n      mul\n      or\n      swap1\n      sstore\n      pop\n        /* \"@openzeppelin/contracts-upgradeable/proxy/utils/Initializable.sol\":3555:3569  isTopLevelCall */\n      dup1\n        /* \"@openzeppelin/contracts-upgradeable/proxy/utils/Initializable.sol\":3551:3616  if (isTopLevelCall) {... */\n      iszero\n      tag_164\n      jumpi\n        /* \"@openzeppelin/contracts-upgradeable/proxy/utils/Initializable.sol\":3601:3605  true */\n      0x01\n        /* \"@openzeppelin/contracts-upgradeable/proxy/utils/Initializable.sol\":3585:3598  _initializing */\n      0x00\n      0x01\n        /* \"@openzeppelin/contracts-upgradeable/proxy/utils/Initializable.sol\":3585:3605  _initializing = true */\n      0x0100\n      exp\n      dup2\n      sload\n      dup2\n      0xff\n      mul\n      not\n      and\n      swap1\n      dup4\n      iszero\n      iszero\n      mul\n      or\n      swap1\n      sstore\n      pop\n        /* \"@openzeppelin/contracts-upgradeable/proxy/utils/Initializable.sol\":3551:3616  if (isTopLevelCall) {... */\n    tag_164:\n        /* \"contracts/Smart_token.sol\":773:806  __ERC20_init(\"SmartToken\", \"SMT\") */\n      tag_166\n      mload(0x40)\n      dup1\n      0x40\n      add\n      0x40\n      mstore\n      dup1\n      0x0a\n      dup2\n      mstore\n      0x20\n      add\n      0x536d617274546f6b656e00000000000000000000000000000000000000000000\n      dup2\n      mstore\n      pop\n      mload(0x40)\n      dup1\n      0x40\n      add\n      0x40\n      mstore\n      dup1\n      0x03\n      dup2\n      mstore\n      0x20\n      add\n      0x534d540000000000000000000000000000000000000000000000000000000000\n      dup2\n      mstore\n      pop\n        /* \"contracts/Smart_token.sol\":773:785  __ERC20_init */\n      tag_167\n        /* \"contracts/Smart_token.sol\":773:806  __ERC20_init(\"SmartToken\", \"SMT\") */\n      jump\t// in\n    tag_166:\n        /* \"contracts/Smart_token.sol\":817:839  __ERC20Burnable_init() */\n      tag_168\n        /* \"contracts/Smart_token.sol\":817:837  __ERC20Burnable_init */\n      tag_169\n        /* \"contracts/Smart_token.sol\":817:839  __ERC20Burnable_init() */\n      jump\t// in\n    tag_168:\n        /* \"contracts/Smart_token.sol\":850:867  __Pausable_init() */\n      tag_170\n        /* \"contracts/Smart_token.sol\":850:865  __Pausable_init */\n      tag_171\n        /* \"contracts/Smart_token.sol\":850:867  __Pausable_init() */\n      jump\t// in\n    tag_170:\n        /* \"contracts/Smart_token.sol\":878:894  __Ownable_init() */\n      tag_172\n        /* \"contracts/Smart_token.sol\":878:892  __Ownable_init */\n      tag_173\n        /* \"contracts/Smart_token.sol\":878:894  __Ownable_init() */\n      jump\t// in\n    tag_172:\n        /* \"contracts/Smart_token.sol\":907:952  _mint(msg.sender, 1000000 * 10 ** decimals()) */\n      tag_174\n        /* \"contracts/Smart_token.sol\":913:923  msg.sender */\n      caller\n        /* \"contracts/Smart_token.sol\":941:951  decimals() */\n      tag_175\n        /* \"contracts/Smart_token.sol\":941:949  decimals */\n      tag_47\n        /* \"contracts/Smart_token.sol\":941:951  decimals() */\n      jump\t// in\n    tag_175:\n        /* \"contracts/Smart_token.sol\":935:937  10 */\n      0x0a\n        /* \"contracts/Smart_token.sol\":935:951  10 ** decimals() */\n      tag_176\n      swap2\n      swap1\n      tag_177\n      jump\t// in\n    tag_176:\n        /* \"contracts/Smart_token.sol\":925:932  1000000 */\n      0x0f4240\n        /* \"contracts/Smart_token.sol\":925:951  1000000 * 10 ** decimals() */\n      tag_178\n      swap2\n      swap1\n      tag_179\n      jump\t// in\n    tag_178:\n        /* \"contracts/Smart_token.sol\":907:912  _mint */\n      tag_139\n        /* \"contracts/Smart_token.sol\":907:952  _mint(msg.sender, 1000000 * 10 ** decimals()) */\n      jump\t// in\n    tag_174:\n        /* \"@openzeppelin/contracts-upgradeable/proxy/utils/Initializable.sol\":3640:3654  isTopLevelCall */\n      dup1\n        /* \"@openzeppelin/contracts-upgradeable/proxy/utils/Initializable.sol\":3636:3735  if (isTopLevelCall) {... */\n      iszero\n      tag_180\n      jumpi\n        /* \"@openzeppelin/contracts-upgradeable/proxy/utils/Initializable.sol\":3686:3691  false */\n      0x00\n        /* \"@openzeppelin/contracts-upgradeable/proxy/utils/Initializable.sol\":3670:3683  _initializing */\n      dup1\n      0x01\n        /* \"@openzeppelin/contracts-upgradeable/proxy/utils/Initializable.sol\":3670:3691  _initializing = false */\n      0x0100\n      exp\n      dup2\n      sload\n      dup2\n      0xff\n      mul\n      not\n      and\n      swap1\n      dup4\n      iszero\n      iszero\n      mul\n      or\n      swap1\n      sstore\n      pop\n        /* \"@openzeppelin/contracts-upgradeable/proxy/utils/Initializable.sol\":3710:3724  Initialized(1) */\n      0x7f26b83ff96e1f2b6a682f133852f6798a09c465da95921460cefb3847402498\n        /* \"@openzeppelin/contracts-upgradeable/proxy/utils/Initializable.sol\":3722:3723  1 */\n      0x01\n        /* \"@openzeppelin/contracts-upgradeable/proxy/utils/Initializable.sol\":3710:3724  Initialized(1) */\n      mload(0x40)\n      tag_181\n      swap2\n      swap1\n      tag_182\n      jump\t// in\n    tag_181:\n      mload(0x40)\n      dup1\n      swap2\n      sub\n      swap1\n      log1\n        /* \"@openzeppelin/contracts-upgradeable/proxy/utils/Initializable.sol\":3636:3735  if (isTopLevelCall) {... */\n    tag_180:\n        /* \"@openzeppelin/contracts-upgradeable/proxy/utils/Initializable.sol\":3258:3741  {... */\n      pop\n        /* \"contracts/Smart_token.sol\":721:960  function initialize() initializer public {... */\n      jump\t// out\n        /* \"contracts/Smart_token.sol\":968:1029  function pause() public onlyOwner {... */\n    tag_79:\n        /* \"@openzeppelin/contracts-upgradeable/access/OwnableUpgradeable.sol\":1334:1347  _checkOwner() */\n      tag_184\n        /* \"@openzeppelin/contracts-upgradeable/access/OwnableUpgradeable.sol\":1334:1345  _checkOwner */\n      tag_131\n        /* \"@openzeppelin/contracts-upgradeable/access/OwnableUpgradeable.sol\":1334:1347  _checkOwner() */\n      jump\t// in\n    tag_184:\n        /* \"contracts/Smart_token.sol\":1013:1021  _pause() */\n      tag_186\n        /* \"contracts/Smart_token.sol\":1013:1019  _pause */\n      tag_187\n        /* \"contracts/Smart_token.sol\":1013:1021  _pause() */\n      jump\t// in\n    tag_186:\n        /* \"contracts/Smart_token.sol\":968:1029  function pause() public onlyOwner {... */\n      jump\t// out\n        /* \"@openzeppelin/contracts-upgradeable/access/OwnableUpgradeable.sol\":1441:1526  function owner() public view virtual returns (address) {... */\n    tag_81:\n        /* \"@openzeppelin/contracts-upgradeable/access/OwnableUpgradeable.sol\":1487:1494  address */\n      0x00\n        /* \"@openzeppelin/contracts-upgradeable/access/OwnableUpgradeable.sol\":1513:1519  _owner */\n      0xc9\n      0x00\n      swap1\n      sload\n      swap1\n      0x0100\n      exp\n      swap1\n      div\n      0xffffffffffffffffffffffffffffffffffffffff\n      and\n        /* \"@openzeppelin/contracts-upgradeable/access/OwnableUpgradeable.sol\":1506:1519  return _owner */\n      swap1\n      pop\n        /* \"@openzeppelin/contracts-upgradeable/access/OwnableUpgradeable.sol\":1441:1526  function owner() public view virtual returns (address) {... */\n      swap1\n      jump\t// out\n        /* \"@openzeppelin/contracts-upgradeable/token/ERC20/ERC20Upgradeable.sol\":2702:2804  function symbol() public view virtual override returns (string memory) {... */\n    tag_85:\n        /* \"@openzeppelin/contracts-upgradeable/token/ERC20/ERC20Upgradeable.sol\":2758:2771  string memory */\n      0x60\n        /* \"@openzeppelin/contracts-upgradeable/token/ERC20/ERC20Upgradeable.sol\":2790:2797  _symbol */\n      0x37\n        /* \"@openzeppelin/contracts-upgradeable/token/ERC20/ERC20Upgradeable.sol\":2783:2797  return _symbol */\n      dup1\n      sload\n      tag_190\n      swap1\n      tag_105\n      jump\t// in\n    tag_190:\n      dup1\n      0x1f\n      add\n      0x20\n      dup1\n      swap2\n      div\n      mul\n      0x20\n      add\n      mload(0x40)\n      swap1\n      dup2\n      add\n      0x40\n      mstore\n      dup1\n      swap3\n      swap2\n      swap1\n      dup2\n      dup2\n      mstore\n      0x20\n      add\n      dup3\n      dup1\n      sload\n      tag_191\n      swap1\n      tag_105\n      jump\t// in\n    tag_191:\n      dup1\n      iszero\n      tag_192\n      jumpi\n      dup1\n      0x1f\n      lt\n      tag_193\n      jumpi\n      0x0100\n      dup1\n      dup4\n      sload\n      div\n      mul\n      dup4\n      mstore\n      swap2\n      0x20\n      add\n      swap2\n      jump(tag_192)\n    tag_193:\n      dup3\n      add\n      swap2\n      swap1\n      0x00\n      mstore\n      keccak256(0x00, 0x20)\n      swap1\n    tag_194:\n      dup2\n      sload\n      dup2\n      mstore\n      swap1\n      0x01\n      add\n      swap1\n      0x20\n      add\n      dup1\n      dup4\n      gt\n      tag_194\n      jumpi\n      dup3\n      swap1\n      sub\n      0x1f\n      and\n      dup3\n      add\n      swap2\n    tag_192:\n      pop\n      pop\n      pop\n      pop\n      pop\n      swap1\n      pop\n        /* \"@openzeppelin/contracts-upgradeable/token/ERC20/ERC20Upgradeable.sol\":2702:2804  function symbol() public view virtual override returns (string memory) {... */\n      swap1\n      jump\t// out\n        /* \"@openzeppelin/contracts-upgradeable/token/ERC20/ERC20Upgradeable.sol\":6929:7356  function decreaseAllowance(address spender, uint256 subtractedValue) public virtual returns (bool) {... */\n    tag_89:\n        /* \"@openzeppelin/contracts-upgradeable/token/ERC20/ERC20Upgradeable.sol\":7022:7026  bool */\n      0x00\n        /* \"@openzeppelin/contracts-upgradeable/token/ERC20/ERC20Upgradeable.sol\":7038:7051  address owner */\n      dup1\n        /* \"@openzeppelin/contracts-upgradeable/token/ERC20/ERC20Upgradeable.sol\":7054:7066  _msgSender() */\n      tag_196\n        /* \"@openzeppelin/contracts-upgradeable/token/ERC20/ERC20Upgradeable.sol\":7054:7064  _msgSender */\n      tag_112\n        /* \"@openzeppelin/contracts-upgradeable/token/ERC20/ERC20Upgradeable.sol\":7054:7066  _msgSender() */\n      jump\t// in\n    tag_196:\n        /* \"@openzeppelin/contracts-upgradeable/token/ERC20/ERC20Upgradeable.sol\":7038:7066  address owner = _msgSender() */\n      swap1\n      pop\n        /* \"@openzeppelin/contracts-upgradeable/token/ERC20/ERC20Upgradeable.sol\":7076:7100  uint256 currentAllowance */\n      0x00\n        /* \"@openzeppelin/contracts-upgradeable/token/ERC20/ERC20Upgradeable.sol\":7103:7128  allowance(owner, spender) */\n      tag_197\n        /* \"@openzeppelin/contracts-upgradeable/token/ERC20/ERC20Upgradeable.sol\":7113:7118  owner */\n      dup3\n        /* \"@openzeppelin/contracts-upgradeable/token/ERC20/ERC20Upgradeable.sol\":7120:7127  spender */\n      dup7\n        /* \"@openzeppelin/contracts-upgradeable/token/ERC20/ERC20Upgradeable.sol\":7103:7112  allowance */\n      tag_98\n        /* \"@openzeppelin/contracts-upgradeable/token/ERC20/ERC20Upgradeable.sol\":7103:7128  allowance(owner, spender) */\n      jump\t// in\n    tag_197:\n        /* \"@openzeppelin/contracts-upgradeable/token/ERC20/ERC20Upgradeable.sol\":7076:7128  uint256 currentAllowance = allowance(owner, spender) */\n      swap1\n      pop\n        /* \"@openzeppelin/contracts-upgradeable/token/ERC20/ERC20Upgradeable.sol\":7166:7181  subtractedValue */\n      dup4\n        /* \"@openzeppelin/contracts-upgradeable/token/ERC20/ERC20Upgradeable.sol\":7146:7162  currentAllowance */\n      dup2\n        /* \"@openzeppelin/contracts-upgradeable/token/ERC20/ERC20Upgradeable.sol\":7146:7181  currentAllowance >= subtractedValue */\n      lt\n      iszero\n        /* \"@openzeppelin/contracts-upgradeable/token/ERC20/ERC20Upgradeable.sol\":7138:7223  require(currentAllowance >= subtractedValue, \"ERC20: decreased allowance below zero\") */\n      tag_198\n      jumpi\n      mload(0x40)\n      0x08c379a000000000000000000000000000000000000000000000000000000000\n      dup2\n      mstore\n      0x04\n      add\n      tag_199\n      swap1\n      tag_200\n      jump\t// in\n    tag_199:\n      mload(0x40)\n      dup1\n      swap2\n      sub\n      swap1\n      revert\n    tag_198:\n        /* \"@openzeppelin/contracts-upgradeable/token/ERC20/ERC20Upgradeable.sol\":7257:7317  _approve(owner, spender, currentAllowance - subtractedValue) */\n      tag_201\n        /* \"@openzeppelin/contracts-upgradeable/token/ERC20/ERC20Upgradeable.sol\":7266:7271  owner */\n      dup3\n        /* \"@openzeppelin/contracts-upgradeable/token/ERC20/ERC20Upgradeable.sol\":7273:7280  spender */\n      dup7\n        /* \"@openzeppelin/contracts-upgradeable/token/ERC20/ERC20Upgradeable.sol\":7301:7316  subtractedValue */\n      dup7\n        /* \"@openzeppelin/contracts-upgradeable/token/ERC20/ERC20Upgradeable.sol\":7282:7298  currentAllowance */\n      dup5\n        /* \"@openzeppelin/contracts-upgradeable/token/ERC20/ERC20Upgradeable.sol\":7282:7316  currentAllowance - subtractedValue */\n      sub\n        /* \"@openzeppelin/contracts-upgradeable/token/ERC20/ERC20Upgradeable.sol\":7257:7265  _approve */\n      tag_114\n        /* \"@openzeppelin/contracts-upgradeable/token/ERC20/ERC20Upgradeable.sol\":7257:7317  _approve(owner, spender, currentAllowance - subtractedValue) */\n      jump\t// in\n    tag_201:\n        /* \"@openzeppelin/contracts-upgradeable/token/ERC20/ERC20Upgradeable.sol\":7345:7349  true */\n      0x01\n        /* \"@openzeppelin/contracts-upgradeable/token/ERC20/ERC20Upgradeable.sol\":7338:7349  return true */\n      swap3\n      pop\n      pop\n      pop\n        /* \"@openzeppelin/contracts-upgradeable/token/ERC20/ERC20Upgradeable.sol\":6929:7356  function decreaseAllowance(address spender, uint256 subtractedValue) public virtual returns (bool) {... */\n      swap3\n      swap2\n      pop\n      pop\n      jump\t// out\n        /* \"@openzeppelin/contracts-upgradeable/token/ERC20/ERC20Upgradeable.sol\":4064:4253  function transfer(address to, uint256 amount) public virtual override returns (bool) {... */\n    tag_93:\n        /* \"@openzeppelin/contracts-upgradeable/token/ERC20/ERC20Upgradeable.sol\":4143:4147  bool */\n      0x00\n        /* \"@openzeppelin/contracts-upgradeable/token/ERC20/ERC20Upgradeable.sol\":4159:4172  address owner */\n      dup1\n        /* \"@openzeppelin/contracts-upgradeable/token/ERC20/ERC20Upgradeable.sol\":4175:4187  _msgSender() */\n      tag_203\n        /* \"@openzeppelin/contracts-upgradeable/token/ERC20/ERC20Upgradeable.sol\":4175:4185  _msgSender */\n      tag_112\n        /* \"@openzeppelin/contracts-upgradeable/token/ERC20/ERC20Upgradeable.sol\":4175:4187  _msgSender() */\n      jump\t// in\n    tag_203:\n        /* \"@openzeppelin/contracts-upgradeable/token/ERC20/ERC20Upgradeable.sol\":4159:4187  address owner = _msgSender() */\n      swap1\n      pop\n        /* \"@openzeppelin/contracts-upgradeable/token/ERC20/ERC20Upgradeable.sol\":4197:4225  _transfer(owner, to, amount) */\n      tag_204\n        /* \"@openzeppelin/contracts-upgradeable/token/ERC20/ERC20Upgradeable.sol\":4207:4212  owner */\n      dup2\n        /* \"@openzeppelin/contracts-upgradeable/token/ERC20/ERC20Upgradeable.sol\":4214:4216  to */\n      dup6\n        /* \"@openzeppelin/contracts-upgradeable/token/ERC20/ERC20Upgradeable.sol\":4218:4224  amount */\n      dup6\n        /* \"@openzeppelin/contracts-upgradeable/token/ERC20/ERC20Upgradeable.sol\":4197:4206  _transfer */\n      tag_121\n        /* \"@openzeppelin/contracts-upgradeable/token/ERC20/ERC20Upgradeable.sol\":4197:4225  _transfer(owner, to, amount) */\n      jump\t// in\n    tag_204:\n        /* \"@openzeppelin/contracts-upgradeable/token/ERC20/ERC20Upgradeable.sol\":4242:4246  true */\n      0x01\n        /* \"@openzeppelin/contracts-upgradeable/token/ERC20/ERC20Upgradeable.sol\":4235:4246  return true */\n      swap2\n      pop\n      pop\n        /* \"@openzeppelin/contracts-upgradeable/token/ERC20/ERC20Upgradeable.sol\":4064:4253  function transfer(address to, uint256 amount) public virtual override returns (bool) {... */\n      swap3\n      swap2\n      pop\n      pop\n      jump\t// out\n        /* \"@openzeppelin/contracts-upgradeable/token/ERC20/ERC20Upgradeable.sol\":4311:4460  function allowance(address owner, address spender) public view virtual override returns (uint256) {... */\n    tag_98:\n        /* \"@openzeppelin/contracts-upgradeable/token/ERC20/ERC20Upgradeable.sol\":4400:4407  uint256 */\n      0x00\n        /* \"@openzeppelin/contracts-upgradeable/token/ERC20/ERC20Upgradeable.sol\":4426:4437  _allowances */\n      0x34\n        /* \"@openzeppelin/contracts-upgradeable/token/ERC20/ERC20Upgradeable.sol\":4426:4444  _allowances[owner] */\n      0x00\n        /* \"@openzeppelin/contracts-upgradeable/token/ERC20/ERC20Upgradeable.sol\":4438:4443  owner */\n      dup5\n        /* \"@openzeppelin/contracts-upgradeable/token/ERC20/ERC20Upgradeable.sol\":4426:4444  _allowances[owner] */\n      0xffffffffffffffffffffffffffffffffffffffff\n      and\n      0xffffffffffffffffffffffffffffffffffffffff\n      and\n      dup2\n      mstore\n      0x20\n      add\n      swap1\n      dup2\n      mstore\n      0x20\n      add\n      0x00\n      keccak256\n        /* \"@openzeppelin/contracts-upgradeable/token/ERC20/ERC20Upgradeable.sol\":4426:4453  _allowances[owner][spender] */\n      0x00\n        /* \"@openzeppelin/contracts-upgradeable/token/ERC20/ERC20Upgradeable.sol\":4445:4452  spender */\n      dup4\n        /* \"@openzeppelin/contracts-upgradeable/token/ERC20/ERC20Upgradeable.sol\":4426:4453  _allowances[owner][spender] */\n      0xffffffffffffffffffffffffffffffffffffffff\n      and\n      0xffffffffffffffffffffffffffffffffffffffff\n      and\n      dup2\n      mstore\n      0x20\n      add\n      swap1\n      dup2\n      mstore\n      0x20\n      add\n      0x00\n      keccak256\n      sload\n        /* \"@openzeppelin/contracts-upgradeable/token/ERC20/ERC20Upgradeable.sol\":4419:4453  return _allowances[owner][spender] */\n      swap1\n      pop\n        /* \"@openzeppelin/contracts-upgradeable/token/ERC20/ERC20Upgradeable.sol\":4311:4460  function allowance(address owner, address spender) public view virtual override returns (uint256) {... */\n      swap3\n      swap2\n      pop\n      pop\n      jump\t// out\n        /* \"@openzeppelin/contracts-upgradeable/access/OwnableUpgradeable.sol\":2321:2519  function transferOwnership(address newOwner) public virtual onlyOwner {... */\n    tag_102:\n        /* \"@openzeppelin/contracts-upgradeable/access/OwnableUpgradeable.sol\":1334:1347  _checkOwner() */\n      tag_207\n        /* \"@openzeppelin/contracts-upgradeable/access/OwnableUpgradeable.sol\":1334:1345  _checkOwner */\n      tag_131\n        /* \"@openzeppelin/contracts-upgradeable/access/OwnableUpgradeable.sol\":1334:1347  _checkOwner() */\n      jump\t// in\n    tag_207:\n        /* \"@openzeppelin/contracts-upgradeable/access/OwnableUpgradeable.sol\":2429:2430  0 */\n      0x00\n        /* \"@openzeppelin/contracts-upgradeable/access/OwnableUpgradeable.sol\":2409:2431  newOwner != address(0) */\n      0xffffffffffffffffffffffffffffffffffffffff\n      and\n        /* \"@openzeppelin/contracts-upgradeable/access/OwnableUpgradeable.sol\":2409:2417  newOwner */\n      dup2\n        /* \"@openzeppelin/contracts-upgradeable/access/OwnableUpgradeable.sol\":2409:2431  newOwner != address(0) */\n      0xffffffffffffffffffffffffffffffffffffffff\n      and\n      eq\n      iszero\n        /* \"@openzeppelin/contracts-upgradeable/access/OwnableUpgradeable.sol\":2401:2474  require(newOwner != address(0), \"Ownable: new owner is the zero address\") */\n      tag_209\n      jumpi\n      mload(0x40)\n      0x08c379a000000000000000000000000000000000000000000000000000000000\n      dup2\n      mstore\n      0x04\n      add\n      tag_210\n      swap1\n      tag_211\n      jump\t// in\n    tag_210:\n      mload(0x40)\n      dup1\n      swap2\n      sub\n      swap1\n      revert\n    tag_209:\n        /* \"@openzeppelin/contracts-upgradeable/access/OwnableUpgradeable.sol\":2484:2512  _transferOwnership(newOwner) */\n      tag_212\n        /* \"@openzeppelin/contracts-upgradeable/access/OwnableUpgradeable.sol\":2503:2511  newOwner */\n      dup2\n        /* \"@openzeppelin/contracts-upgradeable/access/OwnableUpgradeable.sol\":2484:2502  _transferOwnership */\n      tag_150\n        /* \"@openzeppelin/contracts-upgradeable/access/OwnableUpgradeable.sol\":2484:2512  _transferOwnership(newOwner) */\n      jump\t// in\n    tag_212:\n        /* \"@openzeppelin/contracts-upgradeable/access/OwnableUpgradeable.sol\":2321:2519  function transferOwnership(address newOwner) public virtual onlyOwner {... */\n      pop\n      jump\t// out\n        /* \"@openzeppelin/contracts-upgradeable/utils/ContextUpgradeable.sol\":850:946  function _msgSender() internal view virtual returns (address) {... */\n    tag_112:\n        /* \"@openzeppelin/contracts-upgradeable/utils/ContextUpgradeable.sol\":903:910  address */\n      0x00\n        /* \"@openzeppelin/contracts-upgradeable/utils/ContextUpgradeable.sol\":929:939  msg.sender */\n      caller\n        /* \"@openzeppelin/contracts-upgradeable/utils/ContextUpgradeable.sol\":922:939  return msg.sender */\n      swap1\n      pop\n        /* \"@openzeppelin/contracts-upgradeable/utils/ContextUpgradeable.sol\":850:946  function _msgSender() internal view virtual returns (address) {... */\n      swap1\n      jump\t// out\n        /* \"@openzeppelin/contracts-upgradeable/token/ERC20/ERC20Upgradeable.sol\":10841:11211  function _approve(... */\n    tag_114:\n        /* \"@openzeppelin/contracts-upgradeable/token/ERC20/ERC20Upgradeable.sol\":10989:10990  0 */\n      0x00\n        /* \"@openzeppelin/contracts-upgradeable/token/ERC20/ERC20Upgradeable.sol\":10972:10991  owner != address(0) */\n      0xffffffffffffffffffffffffffffffffffffffff\n      and\n        /* \"@openzeppelin/contracts-upgradeable/token/ERC20/ERC20Upgradeable.sol\":10972:10977  owner */\n      dup4\n        /* \"@openzeppelin/contracts-upgradeable/token/ERC20/ERC20Upgradeable.sol\":10972:10991  owner != address(0) */\n      0xffffffffffffffffffffffffffffffffffffffff\n      and\n      eq\n      iszero\n        /* \"@openzeppelin/contracts-upgradeable/token/ERC20/ERC20Upgradeable.sol\":10964:11032  require(owner != address(0), \"ERC20: approve from the zero address\") */\n      tag_215\n      jumpi\n      mload(0x40)\n      0x08c379a000000000000000000000000000000000000000000000000000000000\n      dup2\n      mstore\n      0x04\n      add\n      tag_216\n      swap1\n      tag_217\n      jump\t// in\n    tag_216:\n      mload(0x40)\n      dup1\n      swap2\n      sub\n      swap1\n      revert\n    tag_215:\n        /* \"@openzeppelin/contracts-upgradeable/token/ERC20/ERC20Upgradeable.sol\":11069:11070  0 */\n      0x00\n        /* \"@openzeppelin/contracts-upgradeable/token/ERC20/ERC20Upgradeable.sol\":11050:11071  spender != address(0) */\n      0xffffffffffffffffffffffffffffffffffffffff\n      and\n        /* \"@openzeppelin/contracts-upgradeable/token/ERC20/ERC20Upgradeable.sol\":11050:11057  spender */\n      dup3\n        /* \"@openzeppelin/contracts-upgradeable/token/ERC20/ERC20Upgradeable.sol\":11050:11071  spender != address(0) */\n      0xffffffffffffffffffffffffffffffffffffffff\n      and\n      eq\n      iszero\n        /* \"@openzeppelin/contracts-upgradeable/token/ERC20/ERC20Upgradeable.sol\":11042:11110  require(spender != address(0), \"ERC20: approve to the zero address\") */\n      tag_218\n      jumpi\n      mload(0x40)\n      0x08c379a000000000000000000000000000000000000000000000000000000000\n      dup2\n      mstore\n      0x04\n      add\n      tag_219\n      swap1\n      tag_220\n      jump\t// in\n    tag_219:\n      mload(0x40)\n      dup1\n      swap2\n      sub\n      swap1\n      revert\n    tag_218:\n        /* \"@openzeppelin/contracts-upgradeable/token/ERC20/ERC20Upgradeable.sol\":11151:11157  amount */\n      dup1\n        /* \"@openzeppelin/contracts-upgradeable/token/ERC20/ERC20Upgradeable.sol\":11121:11132  _allowances */\n      0x34\n        /* \"@openzeppelin/contracts-upgradeable/token/ERC20/ERC20Upgradeable.sol\":11121:11139  _allowances[owner] */\n      0x00\n        /* \"@openzeppelin/contracts-upgradeable/token/ERC20/ERC20Upgradeable.sol\":11133:11138  owner */\n      dup6\n        /* \"@openzeppelin/contracts-upgradeable/token/ERC20/ERC20Upgradeable.sol\":11121:11139  _allowances[owner] */\n      0xffffffffffffffffffffffffffffffffffffffff\n      and\n      0xffffffffffffffffffffffffffffffffffffffff\n      and\n      dup2\n      mstore\n      0x20\n      add\n      swap1\n      dup2\n      mstore\n      0x20\n      add\n      0x00\n      keccak256\n        /* \"@openzeppelin/contracts-upgradeable/token/ERC20/ERC20Upgradeable.sol\":11121:11148  _allowances[owner][spender] */\n      0x00\n        /* \"@openzeppelin/contracts-upgradeable/token/ERC20/ERC20Upgradeable.sol\":11140:11147  spender */\n      dup5\n        /* \"@openzeppelin/contracts-upgradeable/token/ERC20/ERC20Upgradeable.sol\":11121:11148  _allowances[owner][spender] */\n      0xffffffffffffffffffffffffffffffffffffffff\n      and\n      0xffffffffffffffffffffffffffffffffffffffff\n      and\n      dup2\n      mstore\n      0x20\n      add\n      swap1\n      dup2\n      mstore\n      0x20\n      add\n      0x00\n      keccak256\n        /* \"@openzeppelin/contracts-upgradeable/token/ERC20/ERC20Upgradeable.sol\":11121:11157  _allowances[owner][spender] = amount */\n      dup2\n      swap1\n      sstore\n      pop\n        /* \"@openzeppelin/contracts-upgradeable/token/ERC20/ERC20Upgradeable.sol\":11188:11195  spender */\n      dup2\n        /* \"@openzeppelin/contracts-upgradeable/token/ERC20/ERC20Upgradeable.sol\":11172:11204  Approval(owner, spender, amount) */\n      0xffffffffffffffffffffffffffffffffffffffff\n      and\n        /* \"@openzeppelin/contracts-upgradeable/token/ERC20/ERC20Upgradeable.sol\":11181:11186  owner */\n      dup4\n        /* \"@openzeppelin/contracts-upgradeable/token/ERC20/ERC20Upgradeable.sol\":11172:11204  Approval(owner, spender, amount) */\n      0xffffffffffffffffffffffffffffffffffffffff\n      and\n      0x8c5be1e5ebec7d5bd14f71427d1e84f3dd0314c0f7b2291e5b200ac8c7c3b925\n        /* \"@openzeppelin/contracts-upgradeable/token/ERC20/ERC20Upgradeable.sol\":11197:11203  amount */\n      dup4\n        /* \"@openzeppelin/contracts-upgradeable/token/ERC20/ERC20Upgradeable.sol\":11172:11204  Approval(owner, spender, amount) */\n      mload(0x40)\n      tag_221\n      swap2\n      swap1\n      tag_40\n      jump\t// in\n    tag_221:\n      mload(0x40)\n      dup1\n      swap2\n      sub\n      swap1\n      log3\n        /* \"@openzeppelin/contracts-upgradeable/token/ERC20/ERC20Upgradeable.sol\":10841:11211  function _approve(... */\n      pop\n      pop\n      pop\n      jump\t// out\n        /* \"@openzeppelin/contracts-upgradeable/token/ERC20/ERC20Upgradeable.sol\":11492:11933  function _spendAllowance(... */\n    tag_119:\n        /* \"@openzeppelin/contracts-upgradeable/token/ERC20/ERC20Upgradeable.sol\":11622:11646  uint256 currentAllowance */\n      0x00\n        /* \"@openzeppelin/contracts-upgradeable/token/ERC20/ERC20Upgradeable.sol\":11649:11674  allowance(owner, spender) */\n      tag_223\n        /* \"@openzeppelin/contracts-upgradeable/token/ERC20/ERC20Upgradeable.sol\":11659:11664  owner */\n      dup5\n        /* \"@openzeppelin/contracts-upgradeable/token/ERC20/ERC20Upgradeable.sol\":11666:11673  spender */\n      dup5\n        /* \"@openzeppelin/contracts-upgradeable/token/ERC20/ERC20Upgradeable.sol\":11649:11658  allowance */\n      tag_98\n        /* \"@openzeppelin/contracts-upgradeable/token/ERC20/ERC20Upgradeable.sol\":11649:11674  allowance(owner, spender) */\n      jump\t// in\n    tag_223:\n        /* \"@openzeppelin/contracts-upgradeable/token/ERC20/ERC20Upgradeable.sol\":11622:11674  uint256 currentAllowance = allowance(owner, spender) */\n      swap1\n      pop\n        /* \"@openzeppelin/contracts-upgradeable/token/ERC20/ERC20Upgradeable.sol\":11708:11725  type(uint256).max */\n      0xffffffffffffffffffffffffffffffffffffffffffffffffffffffffffffffff\n        /* \"@openzeppelin/contracts-upgradeable/token/ERC20/ERC20Upgradeable.sol\":11688:11704  currentAllowance */\n      dup2\n        /* \"@openzeppelin/contracts-upgradeable/token/ERC20/ERC20Upgradeable.sol\":11688:11725  currentAllowance != type(uint256).max */\n      eq\n        /* \"@openzeppelin/contracts-upgradeable/token/ERC20/ERC20Upgradeable.sol\":11684:11927  if (currentAllowance != type(uint256).max) {... */\n      tag_224\n      jumpi\n        /* \"@openzeppelin/contracts-upgradeable/token/ERC20/ERC20Upgradeable.sol\":11769:11775  amount */\n      dup2\n        /* \"@openzeppelin/contracts-upgradeable/token/ERC20/ERC20Upgradeable.sol\":11749:11765  currentAllowance */\n      dup2\n        /* \"@openzeppelin/contracts-upgradeable/token/ERC20/ERC20Upgradeable.sol\":11749:11775  currentAllowance >= amount */\n      lt\n      iszero\n        /* \"@openzeppelin/contracts-upgradeable/token/ERC20/ERC20Upgradeable.sol\":11741:11809  require(currentAllowance >= amount, \"ERC20: insufficient allowance\") */\n      tag_225\n      jumpi\n      mload(0x40)\n      0x08c379a000000000000000000000000000000000000000000000000000000000\n      dup2\n      mstore\n      0x04\n      add\n      tag_226\n      swap1\n      tag_227\n      jump\t// in\n    tag_226:\n      mload(0x40)\n      dup1\n      swap2\n      sub\n      swap1\n      revert\n    tag_225:\n        /* \"@openzeppelin/contracts-upgradeable/token/ERC20/ERC20Upgradeable.sol\":11851:11902  _approve(owner, spender, currentAllowance - amount) */\n      tag_228\n        /* \"@openzeppelin/contracts-upgradeable/token/ERC20/ERC20Upgradeable.sol\":11860:11865  owner */\n      dup5\n        /* \"@openzeppelin/contracts-upgradeable/token/ERC20/ERC20Upgradeable.sol\":11867:11874  spender */\n      dup5\n        /* \"@openzeppelin/contracts-upgradeable/token/ERC20/ERC20Upgradeable.sol\":11895:11901  amount */\n      dup5\n        /* \"@openzeppelin/contracts-upgradeable/token/ERC20/ERC20Upgradeable.sol\":11876:11892  currentAllowance */\n      dup5\n        /* \"@openzeppelin/contracts-upgradeable/token/ERC20/ERC20Upgradeable.sol\":11876:11901  currentAllowance - amount */\n      sub\n        /* \"@openzeppelin/contracts-upgradeable/token/ERC20/ERC20Upgradeable.sol\":11851:11859  _approve */\n      tag_114\n        /* \"@openzeppelin/contracts-upgradeable/token/ERC20/ERC20Upgradeable.sol\":11851:11902  _approve(owner, spender, currentAllowance - amount) */\n      jump\t// in\n    tag_228:\n        /* \"@openzeppelin/contracts-upgradeable/token/ERC20/ERC20Upgradeable.sol\":11684:11927  if (currentAllowance != type(uint256).max) {... */\n    tag_224:\n        /* \"@openzeppelin/contracts-upgradeable/token/ERC20/ERC20Upgradeable.sol\":11612:11933  {... */\n      pop\n        /* \"@openzeppelin/contracts-upgradeable/token/ERC20/ERC20Upgradeable.sol\":11492:11933  function _spendAllowance(... */\n      pop\n      pop\n      pop\n      jump\t// out\n        /* \"@openzeppelin/contracts-upgradeable/token/ERC20/ERC20Upgradeable.sol\":7810:8628  function _transfer(... */\n    tag_121:\n        /* \"@openzeppelin/contracts-upgradeable/token/ERC20/ERC20Upgradeable.sol\":7952:7953  0 */\n      0x00\n        /* \"@openzeppelin/contracts-upgradeable/token/ERC20/ERC20Upgradeable.sol\":7936:7954  from != address(0) */\n      0xffffffffffffffffffffffffffffffffffffffff\n      and\n        /* \"@openzeppelin/contracts-upgradeable/token/ERC20/ERC20Upgradeable.sol\":7936:7940  from */\n      dup4\n        /* \"@openzeppelin/contracts-upgradeable/token/ERC20/ERC20Upgradeable.sol\":7936:7954  from != address(0) */\n      0xffffffffffffffffffffffffffffffffffffffff\n      and\n      eq\n      iszero\n        /* \"@openzeppelin/contracts-upgradeable/token/ERC20/ERC20Upgradeable.sol\":7928:7996  require(from != address(0), \"ERC20: transfer from the zero address\") */\n      tag_230\n      jumpi\n      mload(0x40)\n      0x08c379a000000000000000000000000000000000000000000000000000000000\n      dup2\n      mstore\n      0x04\n      add\n      tag_231\n      swap1\n      tag_232\n      jump\t// in\n    tag_231:\n      mload(0x40)\n      dup1\n      swap2\n      sub\n      swap1\n      revert\n    tag_230:\n        /* \"@openzeppelin/contracts-upgradeable/token/ERC20/ERC20Upgradeable.sol\":8028:8029  0 */\n      0x00\n        /* \"@openzeppelin/contracts-upgradeable/token/ERC20/ERC20Upgradeable.sol\":8014:8030  to != address(0) */\n      0xffffffffffffffffffffffffffffffffffffffff\n      and\n        /* \"@openzeppelin/contracts-upgradeable/token/ERC20/ERC20Upgradeable.sol\":8014:8016  to */\n      dup3\n        /* \"@openzeppelin/contracts-upgradeable/token/ERC20/ERC20Upgradeable.sol\":8014:8030  to != address(0) */\n      0xffffffffffffffffffffffffffffffffffffffff\n      and\n      eq\n      iszero\n        /* \"@openzeppelin/contracts-upgradeable/token/ERC20/ERC20Upgradeable.sol\":8006:8070  require(to != address(0), \"ERC20: transfer to the zero address\") */\n      tag_233\n      jumpi\n      mload(0x40)\n      0x08c379a000000000000000000000000000000000000000000000000000000000\n      dup2\n      mstore\n      0x04\n      add\n      tag_234\n      swap1\n      tag_235\n      jump\t// in\n    tag_234:\n      mload(0x40)\n      dup1\n      swap2\n      sub\n      swap1\n      revert\n    tag_233:\n        /* \"@openzeppelin/contracts-upgradeable/token/ERC20/ERC20Upgradeable.sol\":8081:8119  _beforeTokenTransfer(from, to, amount) */\n      tag_236\n        /* \"@openzeppelin/contracts-upgradeable/token/ERC20/ERC20Upgradeable.sol\":8102:8106  from */\n      dup4\n        /* \"@openzeppelin/contracts-upgradeable/token/ERC20/ERC20Upgradeable.sol\":8108:8110  to */\n      dup4\n        /* \"@openzeppelin/contracts-upgradeable/token/ERC20/ERC20Upgradeable.sol\":8112:8118  amount */\n      dup4\n        /* \"@openzeppelin/contracts-upgradeable/token/ERC20/ERC20Upgradeable.sol\":8081:8101  _beforeTokenTransfer */\n      tag_237\n        /* \"@openzeppelin/contracts-upgradeable/token/ERC20/ERC20Upgradeable.sol\":8081:8119  _beforeTokenTransfer(from, to, amount) */\n      jump\t// in\n    tag_236:\n        /* \"@openzeppelin/contracts-upgradeable/token/ERC20/ERC20Upgradeable.sol\":8130:8149  uint256 fromBalance */\n      0x00\n        /* \"@openzeppelin/contracts-upgradeable/token/ERC20/ERC20Upgradeable.sol\":8152:8161  _balances */\n      0x33\n        /* \"@openzeppelin/contracts-upgradeable/token/ERC20/ERC20Upgradeable.sol\":8152:8167  _balances[from] */\n      0x00\n        /* \"@openzeppelin/contracts-upgradeable/token/ERC20/ERC20Upgradeable.sol\":8162:8166  from */\n      dup6\n        /* \"@openzeppelin/contracts-upgradeable/token/ERC20/ERC20Upgradeable.sol\":8152:8167  _balances[from] */\n      0xffffffffffffffffffffffffffffffffffffffff\n      and\n      0xffffffffffffffffffffffffffffffffffffffff\n      and\n      dup2\n      mstore\n      0x20\n      add\n      swap1\n      dup2\n      mstore\n      0x20\n      add\n      0x00\n      keccak256\n      sload\n        /* \"@openzeppelin/contracts-upgradeable/token/ERC20/ERC20Upgradeable.sol\":8130:8167  uint256 fromBalance = _balances[from] */\n      swap1\n      pop\n        /* \"@openzeppelin/contracts-upgradeable/token/ERC20/ERC20Upgradeable.sol\":8200:8206  amount */\n      dup2\n        /* \"@openzeppelin/contracts-upgradeable/token/ERC20/ERC20Upgradeable.sol\":8185:8196  fromBalance */\n      dup2\n        /* \"@openzeppelin/contracts-upgradeable/token/ERC20/ERC20Upgradeable.sol\":8185:8206  fromBalance >= amount */\n      lt\n      iszero\n        /* \"@openzeppelin/contracts-upgradeable/token/ERC20/ERC20Upgradeable.sol\":8177:8249  require(fromBalance >= amount, \"ERC20: transfer amount exceeds balance\") */\n      tag_238\n      jumpi\n      mload(0x40)\n      0x08c379a000000000000000000000000000000000000000000000000000000000\n      dup2\n      mstore\n      0x04\n      add\n      tag_239\n      swap1\n      tag_240\n      jump\t// in\n    tag_239:\n      mload(0x40)\n      dup1\n      swap2\n      sub\n      swap1\n      revert\n    tag_238:\n        /* \"@openzeppelin/contracts-upgradeable/token/ERC20/ERC20Upgradeable.sol\":8315:8321  amount */\n      dup2\n        /* \"@openzeppelin/contracts-upgradeable/token/ERC20/ERC20Upgradeable.sol\":8301:8312  fromBalance */\n      dup2\n        /* \"@openzeppelin/contracts-upgradeable/token/ERC20/ERC20Upgradeable.sol\":8301:8321  fromBalance - amount */\n      sub\n        /* \"@openzeppelin/contracts-upgradeable/token/ERC20/ERC20Upgradeable.sol\":8283:8292  _balances */\n      0x33\n        /* \"@openzeppelin/contracts-upgradeable/token/ERC20/ERC20Upgradeable.sol\":8283:8298  _balances[from] */\n      0x00\n        /* \"@openzeppelin/contracts-upgradeable/token/ERC20/ERC20Upgradeable.sol\":8293:8297  from */\n      dup7\n        /* \"@openzeppelin/contracts-upgradeable/token/ERC20/ERC20Upgradeable.sol\":8283:8298  _balances[from] */\n      0xffffffffffffffffffffffffffffffffffffffff\n      and\n      0xffffffffffffffffffffffffffffffffffffffff\n      and\n      dup2\n      mstore\n      0x20\n      add\n      swap1\n      dup2\n      mstore\n      0x20\n      add\n      0x00\n      keccak256\n        /* \"@openzeppelin/contracts-upgradeable/token/ERC20/ERC20Upgradeable.sol\":8283:8321  _balances[from] = fromBalance - amount */\n      dup2\n      swap1\n      sstore\n      pop\n        /* \"@openzeppelin/contracts-upgradeable/token/ERC20/ERC20Upgradeable.sol\":8515:8521  amount */\n      dup2\n        /* \"@openzeppelin/contracts-upgradeable/token/ERC20/ERC20Upgradeable.sol\":8498:8507  _balances */\n      0x33\n        /* \"@openzeppelin/contracts-upgradeable/token/ERC20/ERC20Upgradeable.sol\":8498:8511  _balances[to] */\n      0x00\n        /* \"@openzeppelin/contracts-upgradeable/token/ERC20/ERC20Upgradeable.sol\":8508:8510  to */\n      dup6\n        /* \"@openzeppelin/contracts-upgradeable/token/ERC20/ERC20Upgradeable.sol\":8498:8511  _balances[to] */\n      0xffffffffffffffffffffffffffffffffffffffff\n      and\n      0xffffffffffffffffffffffffffffffffffffffff\n      and\n      dup2\n      mstore\n      0x20\n      add\n      swap1\n      dup2\n      mstore\n      0x20\n      add\n      0x00\n      keccak256\n      0x00\n        /* \"@openzeppelin/contracts-upgradeable/token/ERC20/ERC20Upgradeable.sol\":8498:8521  _balances[to] += amount */\n      dup3\n      dup3\n      sload\n      add\n      swap3\n      pop\n      pop\n      dup2\n      swap1\n      sstore\n      pop\n        /* \"@openzeppelin/contracts-upgradeable/token/ERC20/ERC20Upgradeable.sol\":8562:8564  to */\n      dup3\n        /* \"@openzeppelin/contracts-upgradeable/token/ERC20/ERC20Upgradeable.sol\":8547:8573  Transfer(from, to, amount) */\n      0xffffffffffffffffffffffffffffffffffffffff\n      and\n        /* \"@openzeppelin/contracts-upgradeable/token/ERC20/ERC20Upgradeable.sol\":8556:8560  from */\n      dup5\n        /* \"@openzeppelin/contracts-upgradeable/token/ERC20/ERC20Upgradeable.sol\":8547:8573  Transfer(from, to, amount) */\n      0xffffffffffffffffffffffffffffffffffffffff\n      and\n      0xddf252ad1be2c89b69c2b068fc378daa952ba7f163c4a11628f55a4df523b3ef\n        /* \"@openzeppelin/contracts-upgradeable/token/ERC20/ERC20Upgradeable.sol\":8566:8572  amount */\n      dup5\n        /* \"@openzeppelin/contracts-upgradeable/token/ERC20/ERC20Upgradeable.sol\":8547:8573  Transfer(from, to, amount) */\n      mload(0x40)\n      tag_241\n      swap2\n      swap1\n      tag_40\n      jump\t// in\n    tag_241:\n      mload(0x40)\n      dup1\n      swap2\n      sub\n      swap1\n      log3\n        /* \"@openzeppelin/contracts-upgradeable/token/ERC20/ERC20Upgradeable.sol\":8584:8621  _afterTokenTransfer(from, to, amount) */\n      tag_242\n        /* \"@openzeppelin/contracts-upgradeable/token/ERC20/ERC20Upgradeable.sol\":8604:8608  from */\n      dup5\n        /* \"@openzeppelin/contracts-upgradeable/token/ERC20/ERC20Upgradeable.sol\":8610:8612  to */\n      dup5\n        /* \"@openzeppelin/contracts-upgradeable/token/ERC20/ERC20Upgradeable.sol\":8614:8620  amount */\n      dup5\n        /* \"@openzeppelin/contracts-upgradeable/token/ERC20/ERC20Upgradeable.sol\":8584:8603  _afterTokenTransfer */\n      tag_243\n        /* \"@openzeppelin/contracts-upgradeable/token/ERC20/ERC20Upgradeable.sol\":8584:8621  _afterTokenTransfer(from, to, amount) */\n      jump\t// in\n    tag_242:\n        /* \"@openzeppelin/contracts-upgradeable/token/ERC20/ERC20Upgradeable.sol\":7918:8628  {... */\n      pop\n        /* \"@openzeppelin/contracts-upgradeable/token/ERC20/ERC20Upgradeable.sol\":7810:8628  function _transfer(... */\n      pop\n      pop\n      pop\n      jump\t// out\n        /* \"@openzeppelin/contracts-upgradeable/access/OwnableUpgradeable.sol\":1599:1729  function _checkOwner() internal view virtual {... */\n    tag_131:\n        /* \"@openzeppelin/contracts-upgradeable/access/OwnableUpgradeable.sol\":1673:1685  _msgSender() */\n      tag_245\n        /* \"@openzeppelin/contracts-upgradeable/access/OwnableUpgradeable.sol\":1673:1683  _msgSender */\n      tag_112\n        /* \"@openzeppelin/contracts-upgradeable/access/OwnableUpgradeable.sol\":1673:1685  _msgSender() */\n      jump\t// in\n    tag_245:\n        /* \"@openzeppelin/contracts-upgradeable/access/OwnableUpgradeable.sol\":1662:1685  owner() == _msgSender() */\n      0xffffffffffffffffffffffffffffffffffffffff\n      and\n        /* \"@openzeppelin/contracts-upgradeable/access/OwnableUpgradeable.sol\":1662:1669  owner() */\n      tag_246\n        /* \"@openzeppelin/contracts-upgradeable/access/OwnableUpgradeable.sol\":1662:1667  owner */\n      tag_81\n        /* \"@openzeppelin/contracts-upgradeable/access/OwnableUpgradeable.sol\":1662:1669  owner() */\n      jump\t// in\n    tag_246:\n        /* \"@openzeppelin/contracts-upgradeable/access/OwnableUpgradeable.sol\":1662:1685  owner() == _msgSender() */\n      0xffffffffffffffffffffffffffffffffffffffff\n      and\n      eq\n        /* \"@openzeppelin/contracts-upgradeable/access/OwnableUpgradeable.sol\":1654:1722  require(owner() == _msgSender(), \"Ownable: caller is not the owner\") */\n      tag_247\n      jumpi\n      mload(0x40)\n      0x08c379a000000000000000000000000000000000000000000000000000000000\n      dup2\n      mstore\n      0x04\n      add\n      tag_248\n      swap1\n      tag_249\n      jump\t// in\n    tag_248:\n      mload(0x40)\n      dup1\n      swap2\n      sub\n      swap1\n      revert\n    tag_247:\n        /* \"@openzeppelin/contracts-upgradeable/access/OwnableUpgradeable.sol\":1599:1729  function _checkOwner() internal view virtual {... */\n      jump\t// out\n        /* \"@openzeppelin/contracts-upgradeable/security/PausableUpgradeable.sol\":2676:2793  function _unpause() internal virtual whenPaused {... */\n    tag_134:\n        /* \"@openzeppelin/contracts-upgradeable/security/PausableUpgradeable.sol\":1729:1745  _requirePaused() */\n      tag_251\n        /* \"@openzeppelin/contracts-upgradeable/security/PausableUpgradeable.sol\":1729:1743  _requirePaused */\n      tag_252\n        /* \"@openzeppelin/contracts-upgradeable/security/PausableUpgradeable.sol\":1729:1745  _requirePaused() */\n      jump\t// in\n    tag_251:\n        /* \"@openzeppelin/contracts-upgradeable/security/PausableUpgradeable.sol\":2744:2749  false */\n      0x00\n        /* \"@openzeppelin/contracts-upgradeable/security/PausableUpgradeable.sol\":2734:2741  _paused */\n      0x97\n      0x00\n        /* \"@openzeppelin/contracts-upgradeable/security/PausableUpgradeable.sol\":2734:2749  _paused = false */\n      0x0100\n      exp\n      dup2\n      sload\n      dup2\n      0xff\n      mul\n      not\n      and\n      swap1\n      dup4\n      iszero\n      iszero\n      mul\n      or\n      swap1\n      sstore\n      pop\n        /* \"@openzeppelin/contracts-upgradeable/security/PausableUpgradeable.sol\":2764:2786  Unpaused(_msgSender()) */\n      0x5db9ee0a495bf2e6ff9c91a7834c1ba4fdd244a5e8aa4e537bd38aeae4b073aa\n        /* \"@openzeppelin/contracts-upgradeable/security/PausableUpgradeable.sol\":2773:2785  _msgSender() */\n      tag_254\n        /* \"@openzeppelin/contracts-upgradeable/security/PausableUpgradeable.sol\":2773:2783  _msgSender */\n      tag_112\n        /* \"@openzeppelin/contracts-upgradeable/security/PausableUpgradeable.sol\":2773:2785  _msgSender() */\n      jump\t// in\n    tag_254:\n        /* \"@openzeppelin/contracts-upgradeable/security/PausableUpgradeable.sol\":2764:2786  Unpaused(_msgSender()) */\n      mload(0x40)\n      tag_255\n      swap2\n      swap1\n      tag_83\n      jump\t// in\n    tag_255:\n      mload(0x40)\n      dup1\n      swap2\n      sub\n      swap1\n      log1\n        /* \"@openzeppelin/contracts-upgradeable/security/PausableUpgradeable.sol\":2676:2793  function _unpause() internal virtual whenPaused {... */\n      jump\t// out\n        /* \"@openzeppelin/contracts-upgradeable/token/ERC20/ERC20Upgradeable.sol\":8904:9439  function _mint(address account, uint256 amount) internal virtual {... */\n    tag_139:\n        /* \"@openzeppelin/contracts-upgradeable/token/ERC20/ERC20Upgradeable.sol\":9006:9007  0 */\n      0x00\n        /* \"@openzeppelin/contracts-upgradeable/token/ERC20/ERC20Upgradeable.sol\":8987:9008  account != address(0) */\n      0xffffffffffffffffffffffffffffffffffffffff\n      and\n        /* \"@openzeppelin/contracts-upgradeable/token/ERC20/ERC20Upgradeable.sol\":8987:8994  account */\n      dup3\n        /* \"@openzeppelin/contracts-upgradeable/token/ERC20/ERC20Upgradeable.sol\":8987:9008  account != address(0) */\n      0xffffffffffffffffffffffffffffffffffffffff\n      and\n      eq\n      iszero\n        /* \"@openzeppelin/contracts-upgradeable/token/ERC20/ERC20Upgradeable.sol\":8979:9044  require(account != address(0), \"ERC20: mint to the zero address\") */\n      tag_257\n      jumpi\n      mload(0x40)\n      0x08c379a000000000000000000000000000000000000000000000000000000000\n      dup2\n      mstore\n      0x04\n      add\n      tag_258\n      swap1\n      tag_259\n      jump\t// in\n    tag_258:\n      mload(0x40)\n      dup1\n      swap2\n      sub\n      swap1\n      revert\n    tag_257:\n        /* \"@openzeppelin/contracts-upgradeable/token/ERC20/ERC20Upgradeable.sol\":9055:9104  _beforeTokenTransfer(address(0), account, amount) */\n      tag_260\n        /* \"@openzeppelin/contracts-upgradeable/token/ERC20/ERC20Upgradeable.sol\":9084:9085  0 */\n      0x00\n        /* \"@openzeppelin/contracts-upgradeable/token/ERC20/ERC20Upgradeable.sol\":9088:9095  account */\n      dup4\n        /* \"@openzeppelin/contracts-upgradeable/token/ERC20/ERC20Upgradeable.sol\":9097:9103  amount */\n      dup4\n        /* \"@openzeppelin/contracts-upgradeable/token/ERC20/ERC20Upgradeable.sol\":9055:9075  _beforeTokenTransfer */\n      tag_237\n        /* \"@openzeppelin/contracts-upgradeable/token/ERC20/ERC20Upgradeable.sol\":9055:9104  _beforeTokenTransfer(address(0), account, amount) */\n      jump\t// in\n    tag_260:\n        /* \"@openzeppelin/contracts-upgradeable/token/ERC20/ERC20Upgradeable.sol\":9131:9137  amount */\n      dup1\n        /* \"@openzeppelin/contracts-upgradeable/token/ERC20/ERC20Upgradeable.sol\":9115:9127  _totalSupply */\n      0x35\n      0x00\n        /* \"@openzeppelin/contracts-upgradeable/token/ERC20/ERC20Upgradeable.sol\":9115:9137  _totalSupply += amount */\n      dup3\n      dup3\n      sload\n      tag_261\n      swap2\n      swap1\n      tag_128\n      jump\t// in\n    tag_261:\n      swap3\n      pop\n      pop\n      dup2\n      swap1\n      sstore\n      pop\n        /* \"@openzeppelin/contracts-upgradeable/token/ERC20/ERC20Upgradeable.sol\":9305:9311  amount */\n      dup1\n        /* \"@openzeppelin/contracts-upgradeable/token/ERC20/ERC20Upgradeable.sol\":9283:9292  _balances */\n      0x33\n        /* \"@openzeppelin/contracts-upgradeable/token/ERC20/ERC20Upgradeable.sol\":9283:9301  _balances[account] */\n      0x00\n        /* \"@openzeppelin/contracts-upgradeable/token/ERC20/ERC20Upgradeable.sol\":9293:9300  account */\n      dup5\n        /* \"@openzeppelin/contracts-upgradeable/token/ERC20/ERC20Upgradeable.sol\":9283:9301  _balances[account] */\n      0xffffffffffffffffffffffffffffffffffffffff\n      and\n      0xffffffffffffffffffffffffffffffffffffffff\n      and\n      dup2\n      mstore\n      0x20\n      add\n      swap1\n      dup2\n      mstore\n      0x20\n      add\n      0x00\n      keccak256\n      0x00\n        /* \"@openzeppelin/contracts-upgradeable/token/ERC20/ERC20Upgradeable.sol\":9283:9311  _balances[account] += amount */\n      dup3\n      dup3\n      sload\n      add\n      swap3\n      pop\n      pop\n      dup2\n      swap1\n      sstore\n      pop\n        /* \"@openzeppelin/contracts-upgradeable/token/ERC20/ERC20Upgradeable.sol\":9357:9364  account */\n      dup2\n        /* \"@openzeppelin/contracts-upgradeable/token/ERC20/ERC20Upgradeable.sol\":9336:9373  Transfer(address(0), account, amount) */\n      0xffffffffffffffffffffffffffffffffffffffff\n      and\n        /* \"@openzeppelin/contracts-upgradeable/token/ERC20/ERC20Upgradeable.sol\":9353:9354  0 */\n      0x00\n        /* \"@openzeppelin/contracts-upgradeable/token/ERC20/ERC20Upgradeable.sol\":9336:9373  Transfer(address(0), account, amount) */\n      0xffffffffffffffffffffffffffffffffffffffff\n      and\n      0xddf252ad1be2c89b69c2b068fc378daa952ba7f163c4a11628f55a4df523b3ef\n        /* \"@openzeppelin/contracts-upgradeable/token/ERC20/ERC20Upgradeable.sol\":9366:9372  amount */\n      dup4\n        /* \"@openzeppelin/contracts-upgradeable/token/ERC20/ERC20Upgradeable.sol\":9336:9373  Transfer(address(0), account, amount) */\n      mload(0x40)\n      tag_262\n      swap2\n      swap1\n      tag_40\n      jump\t// in\n    tag_262:\n      mload(0x40)\n      dup1\n      swap2\n      sub\n      swap1\n      log3\n        /* \"@openzeppelin/contracts-upgradeable/token/ERC20/ERC20Upgradeable.sol\":9384:9432  _afterTokenTransfer(address(0), account, amount) */\n      tag_263\n        /* \"@openzeppelin/contracts-upgradeable/token/ERC20/ERC20Upgradeable.sol\":9412:9413  0 */\n      0x00\n        /* \"@openzeppelin/contracts-upgradeable/token/ERC20/ERC20Upgradeable.sol\":9416:9423  account */\n      dup4\n        /* \"@openzeppelin/contracts-upgradeable/token/ERC20/ERC20Upgradeable.sol\":9425:9431  amount */\n      dup4\n        /* \"@openzeppelin/contracts-upgradeable/token/ERC20/ERC20Upgradeable.sol\":9384:9403  _afterTokenTransfer */\n      tag_243\n        /* \"@openzeppelin/contracts-upgradeable/token/ERC20/ERC20Upgradeable.sol\":9384:9432  _afterTokenTransfer(address(0), account, amount) */\n      jump\t// in\n    tag_263:\n        /* \"@openzeppelin/contracts-upgradeable/token/ERC20/ERC20Upgradeable.sol\":8904:9439  function _mint(address account, uint256 amount) internal virtual {... */\n      pop\n      pop\n      jump\t// out\n        /* \"@openzeppelin/contracts-upgradeable/token/ERC20/ERC20Upgradeable.sol\":9759:10418  function _burn(address account, uint256 amount) internal virtual {... */\n    tag_143:\n        /* \"@openzeppelin/contracts-upgradeable/token/ERC20/ERC20Upgradeable.sol\":9861:9862  0 */\n      0x00\n        /* \"@openzeppelin/contracts-upgradeable/token/ERC20/ERC20Upgradeable.sol\":9842:9863  account != address(0) */\n      0xffffffffffffffffffffffffffffffffffffffff\n      and\n        /* \"@openzeppelin/contracts-upgradeable/token/ERC20/ERC20Upgradeable.sol\":9842:9849  account */\n      dup3\n        /* \"@openzeppelin/contracts-upgradeable/token/ERC20/ERC20Upgradeable.sol\":9842:9863  account != address(0) */\n      0xffffffffffffffffffffffffffffffffffffffff\n      and\n      eq\n      iszero\n        /* \"@openzeppelin/contracts-upgradeable/token/ERC20/ERC20Upgradeable.sol\":9834:9901  require(account != address(0), \"ERC20: burn from the zero address\") */\n      tag_265\n      jumpi\n      mload(0x40)\n      0x08c379a000000000000000000000000000000000000000000000000000000000\n      dup2\n      mstore\n      0x04\n      add\n      tag_266\n      swap1\n      tag_267\n      jump\t// in\n    tag_266:\n      mload(0x40)\n      dup1\n      swap2\n      sub\n      swap1\n      revert\n    tag_265:\n        /* \"@openzeppelin/contracts-upgradeable/token/ERC20/ERC20Upgradeable.sol\":9912:9961  _beforeTokenTransfer(account, address(0), amount) */\n      tag_268\n        /* \"@openzeppelin/contracts-upgradeable/token/ERC20/ERC20Upgradeable.sol\":9933:9940  account */\n      dup3\n        /* \"@openzeppelin/contracts-upgradeable/token/ERC20/ERC20Upgradeable.sol\":9950:9951  0 */\n      0x00\n        /* \"@openzeppelin/contracts-upgradeable/token/ERC20/ERC20Upgradeable.sol\":9954:9960  amount */\n      dup4\n        /* \"@openzeppelin/contracts-upgradeable/token/ERC20/ERC20Upgradeable.sol\":9912:9932  _beforeTokenTransfer */\n      tag_237\n        /* \"@openzeppelin/contracts-upgradeable/token/ERC20/ERC20Upgradeable.sol\":9912:9961  _beforeTokenTransfer(account, address(0), amount) */\n      jump\t// in\n    tag_268:\n        /* \"@openzeppelin/contracts-upgradeable/token/ERC20/ERC20Upgradeable.sol\":9972:9994  uint256 accountBalance */\n      0x00\n        /* \"@openzeppelin/contracts-upgradeable/token/ERC20/ERC20Upgradeable.sol\":9997:10006  _balances */\n      0x33\n        /* \"@openzeppelin/contracts-upgradeable/token/ERC20/ERC20Upgradeable.sol\":9997:10015  _balances[account] */\n      0x00\n        /* \"@openzeppelin/contracts-upgradeable/token/ERC20/ERC20Upgradeable.sol\":10007:10014  account */\n      dup5\n        /* \"@openzeppelin/contracts-upgradeable/token/ERC20/ERC20Upgradeable.sol\":9997:10015  _balances[account] */\n      0xffffffffffffffffffffffffffffffffffffffff\n      and\n      0xffffffffffffffffffffffffffffffffffffffff\n      and\n      dup2\n      mstore\n      0x20\n      add\n      swap1\n      dup2\n      mstore\n      0x20\n      add\n      0x00\n      keccak256\n      sload\n        /* \"@openzeppelin/contracts-upgradeable/token/ERC20/ERC20Upgradeable.sol\":9972:10015  uint256 accountBalance = _balances[account] */\n      swap1\n      pop\n        /* \"@openzeppelin/contracts-upgradeable/token/ERC20/ERC20Upgradeable.sol\":10051:10057  amount */\n      dup2\n        /* \"@openzeppelin/contracts-upgradeable/token/ERC20/ERC20Upgradeable.sol\":10033:10047  accountBalance */\n      dup2\n        /* \"@openzeppelin/contracts-upgradeable/token/ERC20/ERC20Upgradeable.sol\":10033:10057  accountBalance >= amount */\n      lt\n      iszero\n        /* \"@openzeppelin/contracts-upgradeable/token/ERC20/ERC20Upgradeable.sol\":10025:10096  require(accountBalance >= amount, \"ERC20: burn amount exceeds balance\") */\n      tag_269\n      jumpi\n      mload(0x40)\n      0x08c379a000000000000000000000000000000000000000000000000000000000\n      dup2\n      mstore\n      0x04\n      add\n      tag_270\n      swap1\n      tag_271\n      jump\t// in\n    tag_270:\n      mload(0x40)\n      dup1\n      swap2\n      sub\n      swap1\n      revert\n    tag_269:\n        /* \"@openzeppelin/contracts-upgradeable/token/ERC20/ERC20Upgradeable.sol\":10168:10174  amount */\n      dup2\n        /* \"@openzeppelin/contracts-upgradeable/token/ERC20/ERC20Upgradeable.sol\":10151:10165  accountBalance */\n      dup2\n        /* \"@openzeppelin/contracts-upgradeable/token/ERC20/ERC20Upgradeable.sol\":10151:10174  accountBalance - amount */\n      sub\n        /* \"@openzeppelin/contracts-upgradeable/token/ERC20/ERC20Upgradeable.sol\":10130:10139  _balances */\n      0x33\n        /* \"@openzeppelin/contracts-upgradeable/token/ERC20/ERC20Upgradeable.sol\":10130:10148  _balances[account] */\n      0x00\n        /* \"@openzeppelin/contracts-upgradeable/token/ERC20/ERC20Upgradeable.sol\":10140:10147  account */\n      dup6\n        /* \"@openzeppelin/contracts-upgradeable/token/ERC20/ERC20Upgradeable.sol\":10130:10148  _balances[account] */\n      0xffffffffffffffffffffffffffffffffffffffff\n      and\n      0xffffffffffffffffffffffffffffffffffffffff\n      and\n      dup2\n      mstore\n      0x20\n      add\n      swap1\n      dup2\n      mstore\n      0x20\n      add\n      0x00\n      keccak256\n        /* \"@openzeppelin/contracts-upgradeable/token/ERC20/ERC20Upgradeable.sol\":10130:10174  _balances[account] = accountBalance - amount */\n      dup2\n      swap1\n      sstore\n      pop\n        /* \"@openzeppelin/contracts-upgradeable/token/ERC20/ERC20Upgradeable.sol\":10283:10289  amount */\n      dup2\n        /* \"@openzeppelin/contracts-upgradeable/token/ERC20/ERC20Upgradeable.sol\":10267:10279  _totalSupply */\n      0x35\n      0x00\n        /* \"@openzeppelin/contracts-upgradeable/token/ERC20/ERC20Upgradeable.sol\":10267:10289  _totalSupply -= amount */\n      dup3\n      dup3\n      sload\n      sub\n      swap3\n      pop\n      pop\n      dup2\n      swap1\n      sstore\n      pop\n        /* \"@openzeppelin/contracts-upgradeable/token/ERC20/ERC20Upgradeable.sol\":10341:10342  0 */\n      0x00\n        /* \"@openzeppelin/contracts-upgradeable/token/ERC20/ERC20Upgradeable.sol\":10315:10352  Transfer(account, address(0), amount) */\n      0xffffffffffffffffffffffffffffffffffffffff\n      and\n        /* \"@openzeppelin/contracts-upgradeable/token/ERC20/ERC20Upgradeable.sol\":10324:10331  account */\n      dup4\n        /* \"@openzeppelin/contracts-upgradeable/token/ERC20/ERC20Upgradeable.sol\":10315:10352  Transfer(account, address(0), amount) */\n      0xffffffffffffffffffffffffffffffffffffffff\n      and\n      0xddf252ad1be2c89b69c2b068fc378daa952ba7f163c4a11628f55a4df523b3ef\n        /* \"@openzeppelin/contracts-upgradeable/token/ERC20/ERC20Upgradeable.sol\":10345:10351  amount */\n      dup5\n        /* \"@openzeppelin/contracts-upgradeable/token/ERC20/ERC20Upgradeable.sol\":10315:10352  Transfer(account, address(0), amount) */\n      mload(0x40)\n      tag_272\n      swap2\n      swap1\n      tag_40\n      jump\t// in\n    tag_272:\n      mload(0x40)\n      dup1\n      swap2\n      sub\n      swap1\n      log3\n        /* \"@openzeppelin/contracts-upgradeable/token/ERC20/ERC20Upgradeable.sol\":10363:10411  _afterTokenTransfer(account, address(0), amount) */\n      tag_273\n        /* \"@openzeppelin/contracts-upgradeable/token/ERC20/ERC20Upgradeable.sol\":10383:10390  account */\n      dup4\n        /* \"@openzeppelin/contracts-upgradeable/token/ERC20/ERC20Upgradeable.sol\":10400:10401  0 */\n      0x00\n        /* \"@openzeppelin/contracts-upgradeable/token/ERC20/ERC20Upgradeable.sol\":10404:10410  amount */\n      dup5\n        /* \"@openzeppelin/contracts-upgradeable/token/ERC20/ERC20Upgradeable.sol\":10363:10382  _afterTokenTransfer */\n      tag_243\n        /* \"@openzeppelin/contracts-upgradeable/token/ERC20/ERC20Upgradeable.sol\":10363:10411  _afterTokenTransfer(account, address(0), amount) */\n      jump\t// in\n    tag_273:\n        /* \"@openzeppelin/contracts-upgradeable/token/ERC20/ERC20Upgradeable.sol\":9824:10418  {... */\n      pop\n        /* \"@openzeppelin/contracts-upgradeable/token/ERC20/ERC20Upgradeable.sol\":9759:10418  function _burn(address account, uint256 amount) internal virtual {... */\n      pop\n      pop\n      jump\t// out\n        /* \"@openzeppelin/contracts-upgradeable/access/OwnableUpgradeable.sol\":2673:2860  function _transferOwnership(address newOwner) internal virtual {... */\n    tag_150:\n        /* \"@openzeppelin/contracts-upgradeable/access/OwnableUpgradeable.sol\":2746:2762  address oldOwner */\n      0x00\n        /* \"@openzeppelin/contracts-upgradeable/access/OwnableUpgradeable.sol\":2765:2771  _owner */\n      0xc9\n      0x00\n      swap1\n      sload\n      swap1\n      0x0100\n      exp\n      swap1\n      div\n      0xffffffffffffffffffffffffffffffffffffffff\n      and\n        /* \"@openzeppelin/contracts-upgradeable/access/OwnableUpgradeable.sol\":2746:2771  address oldOwner = _owner */\n      swap1\n      pop\n        /* \"@openzeppelin/contracts-upgradeable/access/OwnableUpgradeable.sol\":2790:2798  newOwner */\n      dup2\n        /* \"@openzeppelin/contracts-upgradeable/access/OwnableUpgradeable.sol\":2781:2787  _owner */\n      0xc9\n      0x00\n        /* \"@openzeppelin/contracts-upgradeable/access/OwnableUpgradeable.sol\":2781:2798  _owner = newOwner */\n      0x0100\n      exp\n      dup2\n      sload\n      dup2\n      0xffffffffffffffffffffffffffffffffffffffff\n      mul\n      not\n      and\n      swap1\n      dup4\n      0xffffffffffffffffffffffffffffffffffffffff\n      and\n      mul\n      or\n      swap1\n      sstore\n      pop\n        /* \"@openzeppelin/contracts-upgradeable/access/OwnableUpgradeable.sol\":2844:2852  newOwner */\n      dup2\n        /* \"@openzeppelin/contracts-upgradeable/access/OwnableUpgradeable.sol\":2813:2853  OwnershipTransferred(oldOwner, newOwner) */\n      0xffffffffffffffffffffffffffffffffffffffff\n      and\n        /* \"@openzeppelin/contracts-upgradeable/access/OwnableUpgradeable.sol\":2834:2842  oldOwner */\n      dup2\n        /* \"@openzeppelin/contracts-upgradeable/access/OwnableUpgradeable.sol\":2813:2853  OwnershipTransferred(oldOwner, newOwner) */\n      0xffffffffffffffffffffffffffffffffffffffff\n      and\n      0x8be0079c531659141344cd1fd0a4f28419497f9722a3daafe3b4186f6b6457e0\n      mload(0x40)\n      mload(0x40)\n      dup1\n      swap2\n      sub\n      swap1\n      log3\n        /* \"@openzeppelin/contracts-upgradeable/access/OwnableUpgradeable.sol\":2736:2860  {... */\n      pop\n        /* \"@openzeppelin/contracts-upgradeable/access/OwnableUpgradeable.sol\":2673:2860  function _transferOwnership(address newOwner) internal virtual {... */\n      pop\n      jump\t// out\n        /* \"@openzeppelin/contracts-upgradeable/utils/AddressUpgradeable.sol\":1186:1506  function isContract(address account) internal view returns (bool) {... */\n    tag_159:\n        /* \"@openzeppelin/contracts-upgradeable/utils/AddressUpgradeable.sol\":1246:1250  bool */\n      0x00\n        /* \"@openzeppelin/contracts-upgradeable/utils/AddressUpgradeable.sol\":1498:1499  0 */\n      dup1\n        /* \"@openzeppelin/contracts-upgradeable/utils/AddressUpgradeable.sol\":1476:1483  account */\n      dup3\n        /* \"@openzeppelin/contracts-upgradeable/utils/AddressUpgradeable.sol\":1476:1495  account.code.length */\n      0xffffffffffffffffffffffffffffffffffffffff\n      and\n      extcodesize\n        /* \"@openzeppelin/contracts-upgradeable/utils/AddressUpgradeable.sol\":1476:1499  account.code.length > 0 */\n      gt\n        /* \"@openzeppelin/contracts-upgradeable/utils/AddressUpgradeable.sol\":1469:1499  return account.code.length > 0 */\n      swap1\n      pop\n        /* \"@openzeppelin/contracts-upgradeable/utils/AddressUpgradeable.sol\":1186:1506  function isContract(address account) internal view returns (bool) {... */\n      swap2\n      swap1\n      pop\n      jump\t// out\n        /* \"@openzeppelin/contracts-upgradeable/token/ERC20/ERC20Upgradeable.sol\":2114:2261  function __ERC20_init(string memory name_, string memory symbol_) internal onlyInitializing {... */\n    tag_167:\n        /* \"@openzeppelin/contracts-upgradeable/proxy/utils/Initializable.sol\":5363:5376  _initializing */\n      0x00\n      0x01\n      swap1\n      sload\n      swap1\n      0x0100\n      exp\n      swap1\n      div\n      0xff\n      and\n        /* \"@openzeppelin/contracts-upgradeable/proxy/utils/Initializable.sol\":5355:5424  require(_initializing, \"Initializable: contract is not initializing\") */\n      tag_277\n      jumpi\n      mload(0x40)\n      0x08c379a000000000000000000000000000000000000000000000000000000000\n      dup2\n      mstore\n      0x04\n      add\n      tag_278\n      swap1\n      tag_279\n      jump\t// in\n    tag_278:\n      mload(0x40)\n      dup1\n      swap2\n      sub\n      swap1\n      revert\n    tag_277:\n        /* \"@openzeppelin/contracts-upgradeable/token/ERC20/ERC20Upgradeable.sol\":2216:2254  __ERC20_init_unchained(name_, symbol_) */\n      tag_281\n        /* \"@openzeppelin/contracts-upgradeable/token/ERC20/ERC20Upgradeable.sol\":2239:2244  name_ */\n      dup3\n        /* \"@openzeppelin/contracts-upgradeable/token/ERC20/ERC20Upgradeable.sol\":2246:2253  symbol_ */\n      dup3\n        /* \"@openzeppelin/contracts-upgradeable/token/ERC20/ERC20Upgradeable.sol\":2216:2238  __ERC20_init_unchained */\n      tag_282\n        /* \"@openzeppelin/contracts-upgradeable/token/ERC20/ERC20Upgradeable.sol\":2216:2254  __ERC20_init_unchained(name_, symbol_) */\n      jump\t// in\n    tag_281:\n        /* \"@openzeppelin/contracts-upgradeable/token/ERC20/ERC20Upgradeable.sol\":2114:2261  function __ERC20_init(string memory name_, string memory symbol_) internal onlyInitializing {... */\n      pop\n      pop\n      jump\t// out\n        /* \"@openzeppelin/contracts-upgradeable/token/ERC20/extensions/ERC20BurnableUpgradeable.sol\":594:659  function __ERC20Burnable_init() internal onlyInitializing {... */\n    tag_169:\n        /* \"@openzeppelin/contracts-upgradeable/proxy/utils/Initializable.sol\":5363:5376  _initializing */\n      0x00\n      0x01\n      swap1\n      sload\n      swap1\n      0x0100\n      exp\n      swap1\n      div\n      0xff\n      and\n        /* \"@openzeppelin/contracts-upgradeable/proxy/utils/Initializable.sol\":5355:5424  require(_initializing, \"Initializable: contract is not initializing\") */\n      tag_284\n      jumpi\n      mload(0x40)\n      0x08c379a000000000000000000000000000000000000000000000000000000000\n      dup2\n      mstore\n      0x04\n      add\n      tag_285\n      swap1\n      tag_279\n      jump\t// in\n    tag_285:\n      mload(0x40)\n      dup1\n      swap2\n      sub\n      swap1\n      revert\n    tag_284:\n        /* \"@openzeppelin/contracts-upgradeable/token/ERC20/extensions/ERC20BurnableUpgradeable.sol\":594:659  function __ERC20Burnable_init() internal onlyInitializing {... */\n      jump\t// out\n        /* \"@openzeppelin/contracts-upgradeable/security/PausableUpgradeable.sol\":1063:1160  function __Pausable_init() internal onlyInitializing {... */\n    tag_171:\n        /* \"@openzeppelin/contracts-upgradeable/proxy/utils/Initializable.sol\":5363:5376  _initializing */\n      0x00\n      0x01\n      swap1\n      sload\n      swap1\n      0x0100\n      exp\n      swap1\n      div\n      0xff\n      and\n        /* \"@openzeppelin/contracts-upgradeable/proxy/utils/Initializable.sol\":5355:5424  require(_initializing, \"Initializable: contract is not initializing\") */\n      tag_288\n      jumpi\n      mload(0x40)\n      0x08c379a000000000000000000000000000000000000000000000000000000000\n      dup2\n      mstore\n      0x04\n      add\n      tag_289\n      swap1\n      tag_279\n      jump\t// in\n    tag_289:\n      mload(0x40)\n      dup1\n      swap2\n      sub\n      swap1\n      revert\n    tag_288:\n        /* \"@openzeppelin/contracts-upgradeable/security/PausableUpgradeable.sol\":1126:1153  __Pausable_init_unchained() */\n      tag_291\n        /* \"@openzeppelin/contracts-upgradeable/security/PausableUpgradeable.sol\":1126:1151  __Pausable_init_unchained */\n      tag_292\n        /* \"@openzeppelin/contracts-upgradeable/security/PausableUpgradeable.sol\":1126:1153  __Pausable_init_unchained() */\n      jump\t// in\n    tag_291:\n        /* \"@openzeppelin/contracts-upgradeable/security/PausableUpgradeable.sol\":1063:1160  function __Pausable_init() internal onlyInitializing {... */\n      jump\t// out\n        /* \"@openzeppelin/contracts-upgradeable/access/OwnableUpgradeable.sol\":1003:1098  function __Ownable_init() internal onlyInitializing {... */\n    tag_173:\n        /* \"@openzeppelin/contracts-upgradeable/proxy/utils/Initializable.sol\":5363:5376  _initializing */\n      0x00\n      0x01\n      swap1\n      sload\n      swap1\n      0x0100\n      exp\n      swap1\n      div\n      0xff\n      and\n        /* \"@openzeppelin/contracts-upgradeable/proxy/utils/Initializable.sol\":5355:5424  require(_initializing, \"Initializable: contract is not initializing\") */\n      tag_294\n      jumpi\n      mload(0x40)\n      0x08c379a000000000000000000000000000000000000000000000000000000000\n      dup2\n      mstore\n      0x04\n      add\n      tag_295\n      swap1\n      tag_279\n      jump\t// in\n    tag_295:\n      mload(0x40)\n      dup1\n      swap2\n      sub\n      swap1\n      revert\n    tag_294:\n        /* \"@openzeppelin/contracts-upgradeable/access/OwnableUpgradeable.sol\":1065:1091  __Ownable_init_unchained() */\n      tag_297\n        /* \"@openzeppelin/contracts-upgradeable/access/OwnableUpgradeable.sol\":1065:1089  __Ownable_init_unchained */\n      tag_298\n        /* \"@openzeppelin/contracts-upgradeable/access/OwnableUpgradeable.sol\":1065:1091  __Ownable_init_unchained() */\n      jump\t// in\n    tag_297:\n        /* \"@openzeppelin/contracts-upgradeable/access/OwnableUpgradeable.sol\":1003:1098  function __Ownable_init() internal onlyInitializing {... */\n      jump\t// out\n        /* \"@openzeppelin/contracts-upgradeable/security/PausableUpgradeable.sol\":2429:2544  function _pause() internal virtual whenNotPaused {... */\n    tag_187:\n        /* \"@openzeppelin/contracts-upgradeable/security/PausableUpgradeable.sol\":1482:1501  _requireNotPaused() */\n      tag_300\n        /* \"@openzeppelin/contracts-upgradeable/security/PausableUpgradeable.sol\":1482:1499  _requireNotPaused */\n      tag_301\n        /* \"@openzeppelin/contracts-upgradeable/security/PausableUpgradeable.sol\":1482:1501  _requireNotPaused() */\n      jump\t// in\n    tag_300:\n        /* \"@openzeppelin/contracts-upgradeable/security/PausableUpgradeable.sol\":2498:2502  true */\n      0x01\n        /* \"@openzeppelin/contracts-upgradeable/security/PausableUpgradeable.sol\":2488:2495  _paused */\n      0x97\n      0x00\n        /* \"@openzeppelin/contracts-upgradeable/security/PausableUpgradeable.sol\":2488:2502  _paused = true */\n      0x0100\n      exp\n      dup2\n      sload\n      dup2\n      0xff\n      mul\n      not\n      and\n      swap1\n      dup4\n      iszero\n      iszero\n      mul\n      or\n      swap1\n      sstore\n      pop\n        /* \"@openzeppelin/contracts-upgradeable/security/PausableUpgradeable.sol\":2517:2537  Paused(_msgSender()) */\n      0x62e78cea01bee320cd4e420270b5ea74000d11b0c9f74754ebdbfc544b05a258\n        /* \"@openzeppelin/contracts-upgradeable/security/PausableUpgradeable.sol\":2524:2536  _msgSender() */\n      tag_303\n        /* \"@openzeppelin/contracts-upgradeable/security/PausableUpgradeable.sol\":2524:2534  _msgSender */\n      tag_112\n        /* \"@openzeppelin/contracts-upgradeable/security/PausableUpgradeable.sol\":2524:2536  _msgSender() */\n      jump\t// in\n    tag_303:\n        /* \"@openzeppelin/contracts-upgradeable/security/PausableUpgradeable.sol\":2517:2537  Paused(_msgSender()) */\n      mload(0x40)\n      tag_304\n      swap2\n      swap1\n      tag_83\n      jump\t// in\n    tag_304:\n      mload(0x40)\n      dup1\n      swap2\n      sub\n      swap1\n      log1\n        /* \"@openzeppelin/contracts-upgradeable/security/PausableUpgradeable.sol\":2429:2544  function _pause() internal virtual whenNotPaused {... */\n      jump\t// out\n        /* \"contracts/Smart_token.sol\":1213:1412  function _beforeTokenTransfer(address from, address to, uint256 amount)... */\n    tag_237:\n        /* \"@openzeppelin/contracts-upgradeable/security/PausableUpgradeable.sol\":1482:1501  _requireNotPaused() */\n      tag_306\n        /* \"@openzeppelin/contracts-upgradeable/security/PausableUpgradeable.sol\":1482:1499  _requireNotPaused */\n      tag_301\n        /* \"@openzeppelin/contracts-upgradeable/security/PausableUpgradeable.sol\":1482:1501  _requireNotPaused() */\n      jump\t// in\n    tag_306:\n        /* \"contracts/Smart_token.sol\":1360:1404  super._beforeTokenTransfer(from, to, amount) */\n      tag_308\n        /* \"contracts/Smart_token.sol\":1387:1391  from */\n      dup4\n        /* \"contracts/Smart_token.sol\":1393:1395  to */\n      dup4\n        /* \"contracts/Smart_token.sol\":1397:1403  amount */\n      dup4\n        /* \"contracts/Smart_token.sol\":1360:1386  super._beforeTokenTransfer */\n      tag_309\n        /* \"contracts/Smart_token.sol\":1360:1404  super._beforeTokenTransfer(from, to, amount) */\n      jump\t// in\n    tag_308:\n        /* \"contracts/Smart_token.sol\":1213:1412  function _beforeTokenTransfer(address from, address to, uint256 amount)... */\n      pop\n      pop\n      pop\n      jump\t// out\n        /* \"@openzeppelin/contracts-upgradeable/token/ERC20/ERC20Upgradeable.sol\":13226:13346  function _afterTokenTransfer(... */\n    tag_243:\n      pop\n      pop\n      pop\n      jump\t// out\n        /* \"@openzeppelin/contracts-upgradeable/security/PausableUpgradeable.sol\":2188:2294  function _requirePaused() internal view virtual {... */\n    tag_252:\n        /* \"@openzeppelin/contracts-upgradeable/security/PausableUpgradeable.sol\":2254:2262  paused() */\n      tag_312\n        /* \"@openzeppelin/contracts-upgradeable/security/PausableUpgradeable.sol\":2254:2260  paused */\n      tag_64\n        /* \"@openzeppelin/contracts-upgradeable/security/PausableUpgradeable.sol\":2254:2262  paused() */\n      jump\t// in\n    tag_312:\n        /* \"@openzeppelin/contracts-upgradeable/security/PausableUpgradeable.sol\":2246:2287  require(paused(), \"Pausable: not paused\") */\n      tag_313\n      jumpi\n      mload(0x40)\n      0x08c379a000000000000000000000000000000000000000000000000000000000\n      dup2\n      mstore\n      0x04\n      add\n      tag_314\n      swap1\n      tag_315\n      jump\t// in\n    tag_314:\n      mload(0x40)\n      dup1\n      swap2\n      sub\n      swap1\n      revert\n    tag_313:\n        /* \"@openzeppelin/contracts-upgradeable/security/PausableUpgradeable.sol\":2188:2294  function _requirePaused() internal view virtual {... */\n      jump\t// out\n        /* \"@openzeppelin/contracts-upgradeable/token/ERC20/ERC20Upgradeable.sol\":2267:2426  function __ERC20_init_unchained(string memory name_, string memory symbol_) internal onlyInitializing {... */\n    tag_282:\n        /* \"@openzeppelin/contracts-upgradeable/proxy/utils/Initializable.sol\":5363:5376  _initializing */\n      0x00\n      0x01\n      swap1\n      sload\n      swap1\n      0x0100\n      exp\n      swap1\n      div\n      0xff\n      and\n        /* \"@openzeppelin/contracts-upgradeable/proxy/utils/Initializable.sol\":5355:5424  require(_initializing, \"Initializable: contract is not initializing\") */\n      tag_317\n      jumpi\n      mload(0x40)\n      0x08c379a000000000000000000000000000000000000000000000000000000000\n      dup2\n      mstore\n      0x04\n      add\n      tag_318\n      swap1\n      tag_279\n      jump\t// in\n    tag_318:\n      mload(0x40)\n      dup1\n      swap2\n      sub\n      swap1\n      revert\n    tag_317:\n        /* \"@openzeppelin/contracts-upgradeable/token/ERC20/ERC20Upgradeable.sol\":2387:2392  name_ */\n      dup2\n        /* \"@openzeppelin/contracts-upgradeable/token/ERC20/ERC20Upgradeable.sol\":2379:2384  _name */\n      0x36\n        /* \"@openzeppelin/contracts-upgradeable/token/ERC20/ERC20Upgradeable.sol\":2379:2392  _name = name_ */\n      swap1\n      dup1\n      mload\n      swap1\n      0x20\n      add\n      swap1\n      tag_320\n      swap3\n      swap2\n      swap1\n      tag_321\n      jump\t// in\n    tag_320:\n      pop\n        /* \"@openzeppelin/contracts-upgradeable/token/ERC20/ERC20Upgradeable.sol\":2412:2419  symbol_ */\n      dup1\n        /* \"@openzeppelin/contracts-upgradeable/token/ERC20/ERC20Upgradeable.sol\":2402:2409  _symbol */\n      0x37\n        /* \"@openzeppelin/contracts-upgradeable/token/ERC20/ERC20Upgradeable.sol\":2402:2419  _symbol = symbol_ */\n      swap1\n      dup1\n      mload\n      swap1\n      0x20\n      add\n      swap1\n      tag_322\n      swap3\n      swap2\n      swap1\n      tag_321\n      jump\t// in\n    tag_322:\n      pop\n        /* \"@openzeppelin/contracts-upgradeable/token/ERC20/ERC20Upgradeable.sol\":2267:2426  function __ERC20_init_unchained(string memory name_, string memory symbol_) internal onlyInitializing {... */\n      pop\n      pop\n      jump\t// out\n        /* \"@openzeppelin/contracts-upgradeable/security/PausableUpgradeable.sol\":1166:1261  function __Pausable_init_unchained() internal onlyInitializing {... */\n    tag_292:\n        /* \"@openzeppelin/contracts-upgradeable/proxy/utils/Initializable.sol\":5363:5376  _initializing */\n      0x00\n      0x01\n      swap1\n      sload\n      swap1\n      0x0100\n      exp\n      swap1\n      div\n      0xff\n      and\n        /* \"@openzeppelin/contracts-upgradeable/proxy/utils/Initializable.sol\":5355:5424  require(_initializing, \"Initializable: contract is not initializing\") */\n      tag_324\n      jumpi\n      mload(0x40)\n      0x08c379a000000000000000000000000000000000000000000000000000000000\n      dup2\n      mstore\n      0x04\n      add\n      tag_325\n      swap1\n      tag_279\n      jump\t// in\n    tag_325:\n      mload(0x40)\n      dup1\n      swap2\n      sub\n      swap1\n      revert\n    tag_324:\n        /* \"@openzeppelin/contracts-upgradeable/security/PausableUpgradeable.sol\":1249:1254  false */\n      0x00\n        /* \"@openzeppelin/contracts-upgradeable/security/PausableUpgradeable.sol\":1239:1246  _paused */\n      0x97\n      0x00\n        /* \"@openzeppelin/contracts-upgradeable/security/PausableUpgradeable.sol\":1239:1254  _paused = false */\n      0x0100\n      exp\n      dup2\n      sload\n      dup2\n      0xff\n      mul\n      not\n      and\n      swap1\n      dup4\n      iszero\n      iszero\n      mul\n      or\n      swap1\n      sstore\n      pop\n        /* \"@openzeppelin/contracts-upgradeable/security/PausableUpgradeable.sol\":1166:1261  function __Pausable_init_unchained() internal onlyInitializing {... */\n      jump\t// out\n        /* \"@openzeppelin/contracts-upgradeable/access/OwnableUpgradeable.sol\":1104:1215  function __Ownable_init_unchained() internal onlyInitializing {... */\n    tag_298:\n        /* \"@openzeppelin/contracts-upgradeable/proxy/utils/Initializable.sol\":5363:5376  _initializing */\n      0x00\n      0x01\n      swap1\n      sload\n      swap1\n      0x0100\n      exp\n      swap1\n      div\n      0xff\n      and\n        /* \"@openzeppelin/contracts-upgradeable/proxy/utils/Initializable.sol\":5355:5424  require(_initializing, \"Initializable: contract is not initializing\") */\n      tag_328\n      jumpi\n      mload(0x40)\n      0x08c379a000000000000000000000000000000000000000000000000000000000\n      dup2\n      mstore\n      0x04\n      add\n      tag_329\n      swap1\n      tag_279\n      jump\t// in\n    tag_329:\n      mload(0x40)\n      dup1\n      swap2\n      sub\n      swap1\n      revert\n    tag_328:\n        /* \"@openzeppelin/contracts-upgradeable/access/OwnableUpgradeable.sol\":1176:1208  _transferOwnership(_msgSender()) */\n      tag_331\n        /* \"@openzeppelin/contracts-upgradeable/access/OwnableUpgradeable.sol\":1195:1207  _msgSender() */\n      tag_332\n        /* \"@openzeppelin/contracts-upgradeable/access/OwnableUpgradeable.sol\":1195:1205  _msgSender */\n      tag_112\n        /* \"@openzeppelin/contracts-upgradeable/access/OwnableUpgradeable.sol\":1195:1207  _msgSender() */\n      jump\t// in\n    tag_332:\n        /* \"@openzeppelin/contracts-upgradeable/access/OwnableUpgradeable.sol\":1176:1194  _transferOwnership */\n      tag_150\n        /* \"@openzeppelin/contracts-upgradeable/access/OwnableUpgradeable.sol\":1176:1208  _transferOwnership(_msgSender()) */\n      jump\t// in\n    tag_331:\n        /* \"@openzeppelin/contracts-upgradeable/access/OwnableUpgradeable.sol\":1104:1215  function __Ownable_init_unchained() internal onlyInitializing {... */\n      jump\t// out\n        /* \"@openzeppelin/contracts-upgradeable/security/PausableUpgradeable.sol\":2010:2116  function _requireNotPaused() internal view virtual {... */\n    tag_301:\n        /* \"@openzeppelin/contracts-upgradeable/security/PausableUpgradeable.sol\":2080:2088  paused() */\n      tag_334\n        /* \"@openzeppelin/contracts-upgradeable/security/PausableUpgradeable.sol\":2080:2086  paused */\n      tag_64\n        /* \"@openzeppelin/contracts-upgradeable/security/PausableUpgradeable.sol\":2080:2088  paused() */\n      jump\t// in\n    tag_334:\n        /* \"@openzeppelin/contracts-upgradeable/security/PausableUpgradeable.sol\":2079:2088  !paused() */\n      iszero\n        /* \"@openzeppelin/contracts-upgradeable/security/PausableUpgradeable.sol\":2071:2109  require(!paused(), \"Pausable: paused\") */\n      tag_335\n      jumpi\n      mload(0x40)\n      0x08c379a000000000000000000000000000000000000000000000000000000000\n      dup2\n      mstore\n      0x04\n      add\n      tag_336\n      swap1\n      tag_337\n      jump\t// in\n    tag_336:\n      mload(0x40)\n      dup1\n      swap2\n      sub\n      swap1\n      revert\n    tag_335:\n        /* \"@openzeppelin/contracts-upgradeable/security/PausableUpgradeable.sol\":2010:2116  function _requireNotPaused() internal view virtual {... */\n      jump\t// out\n        /* \"@openzeppelin/contracts-upgradeable/token/ERC20/ERC20Upgradeable.sol\":12517:12638  function _beforeTokenTransfer(... */\n    tag_309:\n      pop\n      pop\n      pop\n      jump\t// out\n    tag_321:\n      dup3\n      dup1\n      sload\n      tag_339\n      swap1\n      tag_105\n      jump\t// in\n    tag_339:\n      swap1\n      0x00\n      mstore\n      keccak256(0x00, 0x20)\n      swap1\n      0x1f\n      add\n      0x20\n      swap1\n      div\n      dup2\n      add\n      swap3\n      dup3\n      tag_341\n      jumpi\n      0x00\n      dup6\n      sstore\n      jump(tag_340)\n    tag_341:\n      dup3\n      0x1f\n      lt\n      tag_342\n      jumpi\n      dup1\n      mload\n      not(0xff)\n      and\n      dup4\n      dup1\n      add\n      or\n      dup6\n      sstore\n      jump(tag_340)\n    tag_342:\n      dup3\n      dup1\n      add\n      0x01\n      add\n      dup6\n      sstore\n      dup3\n      iszero\n      tag_340\n      jumpi\n      swap2\n      dup3\n      add\n    tag_343:\n      dup3\n      dup2\n      gt\n      iszero\n      tag_344\n      jumpi\n      dup3\n      mload\n      dup3\n      sstore\n      swap2\n      0x20\n      add\n      swap2\n      swap1\n      0x01\n      add\n      swap1\n      jump(tag_343)\n    tag_344:\n    tag_340:\n      pop\n      swap1\n      pop\n      tag_345\n      swap2\n      swap1\n      tag_346\n      jump\t// in\n    tag_345:\n      pop\n      swap1\n      jump\t// out\n    tag_346:\n    tag_347:\n      dup1\n      dup3\n      gt\n      iszero\n      tag_348\n      jumpi\n      0x00\n      dup2\n      0x00\n      swap1\n      sstore\n      pop\n      0x01\n      add\n      jump(tag_347)\n    tag_348:\n      pop\n      swap1\n      jump\t// out\n        /* \"#utility.yul\":7:106   */\n    tag_349:\n        /* \"#utility.yul\":59:65   */\n      0x00\n        /* \"#utility.yul\":93:98   */\n      dup2\n        /* \"#utility.yul\":87:99   */\n      mload\n        /* \"#utility.yul\":77:99   */\n      swap1\n      pop\n        /* \"#utility.yul\":7:106   */\n      swap2\n      swap1\n      pop\n      jump\t// out\n        /* \"#utility.yul\":112:281   */\n    tag_350:\n        /* \"#utility.yul\":196:207   */\n      0x00\n        /* \"#utility.yul\":230:236   */\n      dup3\n        /* \"#utility.yul\":225:228   */\n      dup3\n        /* \"#utility.yul\":218:237   */\n      mstore\n        /* \"#utility.yul\":270:274   */\n      0x20\n        /* \"#utility.yul\":265:268   */\n      dup3\n        /* \"#utility.yul\":261:275   */\n      add\n        /* \"#utility.yul\":246:275   */\n      swap1\n      pop\n        /* \"#utility.yul\":112:281   */\n      swap3\n      swap2\n      pop\n      pop\n      jump\t// out\n        /* \"#utility.yul\":287:594   */\n    tag_351:\n        /* \"#utility.yul\":355:356   */\n      0x00\n        /* \"#utility.yul\":365:478   */\n    tag_415:\n        /* \"#utility.yul\":379:385   */\n      dup4\n        /* \"#utility.yul\":376:377   */\n      dup2\n        /* \"#utility.yul\":373:386   */\n      lt\n        /* \"#utility.yul\":365:478   */\n      iszero\n      tag_417\n      jumpi\n        /* \"#utility.yul\":464:465   */\n      dup1\n        /* \"#utility.yul\":459:462   */\n      dup3\n        /* \"#utility.yul\":455:466   */\n      add\n        /* \"#utility.yul\":449:467   */\n      mload\n        /* \"#utility.yul\":445:446   */\n      dup2\n        /* \"#utility.yul\":440:443   */\n      dup5\n        /* \"#utility.yul\":436:447   */\n      add\n        /* \"#utility.yul\":429:468   */\n      mstore\n        /* \"#utility.yul\":401:403   */\n      0x20\n        /* \"#utility.yul\":398:399   */\n      dup2\n        /* \"#utility.yul\":394:404   */\n      add\n        /* \"#utility.yul\":389:404   */\n      swap1\n      pop\n        /* \"#utility.yul\":365:478   */\n      jump(tag_415)\n    tag_417:\n        /* \"#utility.yul\":496:502   */\n      dup4\n        /* \"#utility.yul\":493:494   */\n      dup2\n        /* \"#utility.yul\":490:503   */\n      gt\n        /* \"#utility.yul\":487:588   */\n      iszero\n      tag_418\n      jumpi\n        /* \"#utility.yul\":576:577   */\n      0x00\n        /* \"#utility.yul\":567:573   */\n      dup5\n        /* \"#utility.yul\":562:565   */\n      dup5\n        /* \"#utility.yul\":558:574   */\n      add\n        /* \"#utility.yul\":551:578   */\n      mstore\n        /* \"#utility.yul\":487:588   */\n    tag_418:\n        /* \"#utility.yul\":336:594   */\n      pop\n        /* \"#utility.yul\":287:594   */\n      pop\n      pop\n      pop\n      jump\t// out\n        /* \"#utility.yul\":600:702   */\n    tag_352:\n        /* \"#utility.yul\":641:647   */\n      0x00\n        /* \"#utility.yul\":692:694   */\n      0x1f\n        /* \"#utility.yul\":688:695   */\n      not\n        /* \"#utility.yul\":683:685   */\n      0x1f\n        /* \"#utility.yul\":676:681   */\n      dup4\n        /* \"#utility.yul\":672:686   */\n      add\n        /* \"#utility.yul\":668:696   */\n      and\n        /* \"#utility.yul\":658:696   */\n      swap1\n      pop\n        /* \"#utility.yul\":600:702   */\n      swap2\n      swap1\n      pop\n      jump\t// out\n        /* \"#utility.yul\":708:1072   */\n    tag_353:\n        /* \"#utility.yul\":796:799   */\n      0x00\n        /* \"#utility.yul\":824:863   */\n      tag_421\n        /* \"#utility.yul\":857:862   */\n      dup3\n        /* \"#utility.yul\":824:863   */\n      tag_349\n      jump\t// in\n    tag_421:\n        /* \"#utility.yul\":879:950   */\n      tag_422\n        /* \"#utility.yul\":943:949   */\n      dup2\n        /* \"#utility.yul\":938:941   */\n      dup6\n        /* \"#utility.yul\":879:950   */\n      tag_350\n      jump\t// in\n    tag_422:\n        /* \"#utility.yul\":872:950   */\n      swap4\n      pop\n        /* \"#utility.yul\":959:1011   */\n      tag_423\n        /* \"#utility.yul\":1004:1010   */\n      dup2\n        /* \"#utility.yul\":999:1002   */\n      dup6\n        /* \"#utility.yul\":992:996   */\n      0x20\n        /* \"#utility.yul\":985:990   */\n      dup7\n        /* \"#utility.yul\":981:997   */\n      add\n        /* \"#utility.yul\":959:1011   */\n      tag_351\n      jump\t// in\n    tag_423:\n        /* \"#utility.yul\":1036:1065   */\n      tag_424\n        /* \"#utility.yul\":1058:1064   */\n      dup2\n        /* \"#utility.yul\":1036:1065   */\n      tag_352\n      jump\t// in\n    tag_424:\n        /* \"#utility.yul\":1031:1034   */\n      dup5\n        /* \"#utility.yul\":1027:1066   */\n      add\n        /* \"#utility.yul\":1020:1066   */\n      swap2\n      pop\n        /* \"#utility.yul\":800:1072   */\n      pop\n        /* \"#utility.yul\":708:1072   */\n      swap3\n      swap2\n      pop\n      pop\n      jump\t// out\n        /* \"#utility.yul\":1078:1391   */\n    tag_30:\n        /* \"#utility.yul\":1191:1195   */\n      0x00\n        /* \"#utility.yul\":1229:1231   */\n      0x20\n        /* \"#utility.yul\":1218:1227   */\n      dup3\n        /* \"#utility.yul\":1214:1232   */\n      add\n        /* \"#utility.yul\":1206:1232   */\n      swap1\n      pop\n        /* \"#utility.yul\":1278:1287   */\n      dup2\n        /* \"#utility.yul\":1272:1276   */\n      dup2\n        /* \"#utility.yul\":1268:1288   */\n      sub\n        /* \"#utility.yul\":1264:1265   */\n      0x00\n        /* \"#utility.yul\":1253:1262   */\n      dup4\n        /* \"#utility.yul\":1249:1266   */\n      add\n        /* \"#utility.yul\":1242:1289   */\n      mstore\n        /* \"#utility.yul\":1306:1384   */\n      tag_426\n        /* \"#utility.yul\":1379:1383   */\n      dup2\n        /* \"#utility.yul\":1370:1376   */\n      dup5\n        /* \"#utility.yul\":1306:1384   */\n      tag_353\n      jump\t// in\n    tag_426:\n        /* \"#utility.yul\":1298:1384   */\n      swap1\n      pop\n        /* \"#utility.yul\":1078:1391   */\n      swap3\n      swap2\n      pop\n      pop\n      jump\t// out\n        /* \"#utility.yul\":1478:1595   */\n    tag_355:\n        /* \"#utility.yul\":1587:1588   */\n      0x00\n        /* \"#utility.yul\":1584:1585   */\n      dup1\n        /* \"#utility.yul\":1577:1589   */\n      revert\n        /* \"#utility.yul\":1724:1850   */\n    tag_357:\n        /* \"#utility.yul\":1761:1768   */\n      0x00\n        /* \"#utility.yul\":1801:1843   */\n      0xffffffffffffffffffffffffffffffffffffffff\n        /* \"#utility.yul\":1794:1799   */\n      dup3\n        /* \"#utility.yul\":1790:1844   */\n      and\n        /* \"#utility.yul\":1779:1844   */\n      swap1\n      pop\n        /* \"#utility.yul\":1724:1850   */\n      swap2\n      swap1\n      pop\n      jump\t// out\n        /* \"#utility.yul\":1856:1952   */\n    tag_358:\n        /* \"#utility.yul\":1893:1900   */\n      0x00\n        /* \"#utility.yul\":1922:1946   */\n      tag_432\n        /* \"#utility.yul\":1940:1945   */\n      dup3\n        /* \"#utility.yul\":1922:1946   */\n      tag_357\n      jump\t// in\n    tag_432:\n        /* \"#utility.yul\":1911:1946   */\n      swap1\n      pop\n        /* \"#utility.yul\":1856:1952   */\n      swap2\n      swap1\n      pop\n      jump\t// out\n        /* \"#utility.yul\":1958:2080   */\n    tag_359:\n        /* \"#utility.yul\":2031:2055   */\n      tag_434\n        /* \"#utility.yul\":2049:2054   */\n      dup2\n        /* \"#utility.yul\":2031:2055   */\n      tag_358\n      jump\t// in\n    tag_434:\n        /* \"#utility.yul\":2024:2029   */\n      dup2\n        /* \"#utility.yul\":2021:2056   */\n      eq\n        /* \"#utility.yul\":2011:2074   */\n      tag_435\n      jumpi\n        /* \"#utility.yul\":2070:2071   */\n      0x00\n        /* \"#utility.yul\":2067:2068   */\n      dup1\n        /* \"#utility.yul\":2060:2072   */\n      revert\n        /* \"#utility.yul\":2011:2074   */\n    tag_435:\n        /* \"#utility.yul\":1958:2080   */\n      pop\n      jump\t// out\n        /* \"#utility.yul\":2086:2225   */\n    tag_360:\n        /* \"#utility.yul\":2132:2137   */\n      0x00\n        /* \"#utility.yul\":2170:2176   */\n      dup2\n        /* \"#utility.yul\":2157:2177   */\n      calldataload\n        /* \"#utility.yul\":2148:2177   */\n      swap1\n      pop\n        /* \"#utility.yul\":2186:2219   */\n      tag_437\n        /* \"#utility.yul\":2213:2218   */\n      dup2\n        /* \"#utility.yul\":2186:2219   */\n      tag_359\n      jump\t// in\n    tag_437:\n        /* \"#utility.yul\":2086:2225   */\n      swap3\n      swap2\n      pop\n      pop\n      jump\t// out\n        /* \"#utility.yul\":2231:2308   */\n    tag_361:\n        /* \"#utility.yul\":2268:2275   */\n      0x00\n        /* \"#utility.yul\":2297:2302   */\n      dup2\n        /* \"#utility.yul\":2286:2302   */\n      swap1\n      pop\n        /* \"#utility.yul\":2231:2308   */\n      swap2\n      swap1\n      pop\n      jump\t// out\n        /* \"#utility.yul\":2314:2436   */\n    tag_362:\n        /* \"#utility.yul\":2387:2411   */\n      tag_440\n        /* \"#utility.yul\":2405:2410   */\n      dup2\n        /* \"#utility.yul\":2387:2411   */\n      tag_361\n      jump\t// in\n    tag_440:\n        /* \"#utility.yul\":2380:2385   */\n      dup2\n        /* \"#utility.yul\":2377:2412   */\n      eq\n        /* \"#utility.yul\":2367:2430   */\n      tag_441\n      jumpi\n        /* \"#utility.yul\":2426:2427   */\n      0x00\n        /* \"#utility.yul\":2423:2424   */\n      dup1\n        /* \"#utility.yul\":2416:2428   */\n      revert\n        /* \"#utility.yul\":2367:2430   */\n    tag_441:\n        /* \"#utility.yul\":2314:2436   */\n      pop\n      jump\t// out\n        /* \"#utility.yul\":2442:2581   */\n    tag_363:\n        /* \"#utility.yul\":2488:2493   */\n      0x00\n        /* \"#utility.yul\":2526:2532   */\n      dup2\n        /* \"#utility.yul\":2513:2533   */\n      calldataload\n        /* \"#utility.yul\":2504:2533   */\n      swap1\n      pop\n        /* \"#utility.yul\":2542:2575   */\n      tag_443\n        /* \"#utility.yul\":2569:2574   */\n      dup2\n        /* \"#utility.yul\":2542:2575   */\n      tag_362\n      jump\t// in\n    tag_443:\n        /* \"#utility.yul\":2442:2581   */\n      swap3\n      swap2\n      pop\n      pop\n      jump\t// out\n        /* \"#utility.yul\":2587:3061   */\n    tag_33:\n        /* \"#utility.yul\":2655:2661   */\n      0x00\n        /* \"#utility.yul\":2663:2669   */\n      dup1\n        /* \"#utility.yul\":2712:2714   */\n      0x40\n        /* \"#utility.yul\":2700:2709   */\n      dup4\n        /* \"#utility.yul\":2691:2698   */\n      dup6\n        /* \"#utility.yul\":2687:2710   */\n      sub\n        /* \"#utility.yul\":2683:2715   */\n      slt\n        /* \"#utility.yul\":2680:2799   */\n      iszero\n      tag_445\n      jumpi\n        /* \"#utility.yul\":2718:2797   */\n      tag_446\n      tag_355\n      jump\t// in\n    tag_446:\n        /* \"#utility.yul\":2680:2799   */\n    tag_445:\n        /* \"#utility.yul\":2838:2839   */\n      0x00\n        /* \"#utility.yul\":2863:2916   */\n      tag_447\n        /* \"#utility.yul\":2908:2915   */\n      dup6\n        /* \"#utility.yul\":2899:2905   */\n      dup3\n        /* \"#utility.yul\":2888:2897   */\n      dup7\n        /* \"#utility.yul\":2884:2906   */\n      add\n        /* \"#utility.yul\":2863:2916   */\n      tag_360\n      jump\t// in\n    tag_447:\n        /* \"#utility.yul\":2853:2916   */\n      swap3\n      pop\n        /* \"#utility.yul\":2809:2926   */\n      pop\n        /* \"#utility.yul\":2965:2967   */\n      0x20\n        /* \"#utility.yul\":2991:3044   */\n      tag_448\n        /* \"#utility.yul\":3036:3043   */\n      dup6\n        /* \"#utility.yul\":3027:3033   */\n      dup3\n        /* \"#utility.yul\":3016:3025   */\n      dup7\n        /* \"#utility.yul\":3012:3034   */\n      add\n        /* \"#utility.yul\":2991:3044   */\n      tag_363\n      jump\t// in\n    tag_448:\n        /* \"#utility.yul\":2981:3044   */\n      swap2\n      pop\n        /* \"#utility.yul\":2936:3054   */\n      pop\n        /* \"#utility.yul\":2587:3061   */\n      swap3\n      pop\n      swap3\n      swap1\n      pop\n      jump\t// out\n        /* \"#utility.yul\":3067:3157   */\n    tag_364:\n        /* \"#utility.yul\":3101:3108   */\n      0x00\n        /* \"#utility.yul\":3144:3149   */\n      dup2\n        /* \"#utility.yul\":3137:3150   */\n      iszero\n        /* \"#utility.yul\":3130:3151   */\n      iszero\n        /* \"#utility.yul\":3119:3151   */\n      swap1\n      pop\n        /* \"#utility.yul\":3067:3157   */\n      swap2\n      swap1\n      pop\n      jump\t// out\n        /* \"#utility.yul\":3163:3272   */\n    tag_365:\n        /* \"#utility.yul\":3244:3265   */\n      tag_451\n        /* \"#utility.yul\":3259:3264   */\n      dup2\n        /* \"#utility.yul\":3244:3265   */\n      tag_364\n      jump\t// in\n    tag_451:\n        /* \"#utility.yul\":3239:3242   */\n      dup3\n        /* \"#utility.yul\":3232:3266   */\n      mstore\n        /* \"#utility.yul\":3163:3272   */\n      pop\n      pop\n      jump\t// out\n        /* \"#utility.yul\":3278:3488   */\n    tag_36:\n        /* \"#utility.yul\":3365:3369   */\n      0x00\n        /* \"#utility.yul\":3403:3405   */\n      0x20\n        /* \"#utility.yul\":3392:3401   */\n      dup3\n        /* \"#utility.yul\":3388:3406   */\n      add\n        /* \"#utility.yul\":3380:3406   */\n      swap1\n      pop\n        /* \"#utility.yul\":3416:3481   */\n      tag_453\n        /* \"#utility.yul\":3478:3479   */\n      0x00\n        /* \"#utility.yul\":3467:3476   */\n      dup4\n        /* \"#utility.yul\":3463:3480   */\n      add\n        /* \"#utility.yul\":3454:3460   */\n      dup5\n        /* \"#utility.yul\":3416:3481   */\n      tag_365\n      jump\t// in\n    tag_453:\n        /* \"#utility.yul\":3278:3488   */\n      swap3\n      swap2\n      pop\n      pop\n      jump\t// out\n        /* \"#utility.yul\":3494:3612   */\n    tag_366:\n        /* \"#utility.yul\":3581:3605   */\n      tag_455\n        /* \"#utility.yul\":3599:3604   */\n      dup2\n        /* \"#utility.yul\":3581:3605   */\n      tag_361\n      jump\t// in\n    tag_455:\n        /* \"#utility.yul\":3576:3579   */\n      dup3\n        /* \"#utility.yul\":3569:3606   */\n      mstore\n        /* \"#utility.yul\":3494:3612   */\n      pop\n      pop\n      jump\t// out\n        /* \"#utility.yul\":3618:3840   */\n    tag_40:\n        /* \"#utility.yul\":3711:3715   */\n      0x00\n        /* \"#utility.yul\":3749:3751   */\n      0x20\n        /* \"#utility.yul\":3738:3747   */\n      dup3\n        /* \"#utility.yul\":3734:3752   */\n      add\n        /* \"#utility.yul\":3726:3752   */\n      swap1\n      pop\n        /* \"#utility.yul\":3762:3833   */\n      tag_457\n        /* \"#utility.yul\":3830:3831   */\n      0x00\n        /* \"#utility.yul\":3819:3828   */\n      dup4\n        /* \"#utility.yul\":3815:3832   */\n      add\n        /* \"#utility.yul\":3806:3812   */\n      dup5\n        /* \"#utility.yul\":3762:3833   */\n      tag_366\n      jump\t// in\n    tag_457:\n        /* \"#utility.yul\":3618:3840   */\n      swap3\n      swap2\n      pop\n      pop\n      jump\t// out\n        /* \"#utility.yul\":3846:4465   */\n    tag_43:\n        /* \"#utility.yul\":3923:3929   */\n      0x00\n        /* \"#utility.yul\":3931:3937   */\n      dup1\n        /* \"#utility.yul\":3939:3945   */\n      0x00\n        /* \"#utility.yul\":3988:3990   */\n      0x60\n        /* \"#utility.yul\":3976:3985   */\n      dup5\n        /* \"#utility.yul\":3967:3974   */\n      dup7\n        /* \"#utility.yul\":3963:3986   */\n      sub\n        /* \"#utility.yul\":3959:3991   */\n      slt\n        /* \"#utility.yul\":3956:4075   */\n      iszero\n      tag_459\n      jumpi\n        /* \"#utility.yul\":3994:4073   */\n      tag_460\n      tag_355\n      jump\t// in\n    tag_460:\n        /* \"#utility.yul\":3956:4075   */\n    tag_459:\n        /* \"#utility.yul\":4114:4115   */\n      0x00\n        /* \"#utility.yul\":4139:4192   */\n      tag_461\n        /* \"#utility.yul\":4184:4191   */\n      dup7\n        /* \"#utility.yul\":4175:4181   */\n      dup3\n        /* \"#utility.yul\":4164:4173   */\n      dup8\n        /* \"#utility.yul\":4160:4182   */\n      add\n        /* \"#utility.yul\":4139:4192   */\n      tag_360\n      jump\t// in\n    tag_461:\n        /* \"#utility.yul\":4129:4192   */\n      swap4\n      pop\n        /* \"#utility.yul\":4085:4202   */\n      pop\n        /* \"#utility.yul\":4241:4243   */\n      0x20\n        /* \"#utility.yul\":4267:4320   */\n      tag_462\n        /* \"#utility.yul\":4312:4319   */\n      dup7\n        /* \"#utility.yul\":4303:4309   */\n      dup3\n        /* \"#utility.yul\":4292:4301   */\n      dup8\n        /* \"#utility.yul\":4288:4310   */\n      add\n        /* \"#utility.yul\":4267:4320   */\n      tag_360\n      jump\t// in\n    tag_462:\n        /* \"#utility.yul\":4257:4320   */\n      swap3\n      pop\n        /* \"#utility.yul\":4212:4330   */\n      pop\n        /* \"#utility.yul\":4369:4371   */\n      0x40\n        /* \"#utility.yul\":4395:4448   */\n      tag_463\n        /* \"#utility.yul\":4440:4447   */\n      dup7\n        /* \"#utility.yul\":4431:4437   */\n      dup3\n        /* \"#utility.yul\":4420:4429   */\n      dup8\n        /* \"#utility.yul\":4416:4438   */\n      add\n        /* \"#utility.yul\":4395:4448   */\n      tag_363\n      jump\t// in\n    tag_463:\n        /* \"#utility.yul\":4385:4448   */\n      swap2\n      pop\n        /* \"#utility.yul\":4340:4458   */\n      pop\n        /* \"#utility.yul\":3846:4465   */\n      swap3\n      pop\n      swap3\n      pop\n      swap3\n      jump\t// out\n        /* \"#utility.yul\":4471:4557   */\n    tag_367:\n        /* \"#utility.yul\":4506:4513   */\n      0x00\n        /* \"#utility.yul\":4546:4550   */\n      0xff\n        /* \"#utility.yul\":4539:4544   */\n      dup3\n        /* \"#utility.yul\":4535:4551   */\n      and\n        /* \"#utility.yul\":4524:4551   */\n      swap1\n      pop\n        /* \"#utility.yul\":4471:4557   */\n      swap2\n      swap1\n      pop\n      jump\t// out\n        /* \"#utility.yul\":4563:4675   */\n    tag_368:\n        /* \"#utility.yul\":4646:4668   */\n      tag_466\n        /* \"#utility.yul\":4662:4667   */\n      dup2\n        /* \"#utility.yul\":4646:4668   */\n      tag_367\n      jump\t// in\n    tag_466:\n        /* \"#utility.yul\":4641:4644   */\n      dup3\n        /* \"#utility.yul\":4634:4669   */\n      mstore\n        /* \"#utility.yul\":4563:4675   */\n      pop\n      pop\n      jump\t// out\n        /* \"#utility.yul\":4681:4895   */\n    tag_49:\n        /* \"#utility.yul\":4770:4774   */\n      0x00\n        /* \"#utility.yul\":4808:4810   */\n      0x20\n        /* \"#utility.yul\":4797:4806   */\n      dup3\n        /* \"#utility.yul\":4793:4811   */\n      add\n        /* \"#utility.yul\":4785:4811   */\n      swap1\n      pop\n        /* \"#utility.yul\":4821:4888   */\n      tag_468\n        /* \"#utility.yul\":4885:4886   */\n      0x00\n        /* \"#utility.yul\":4874:4883   */\n      dup4\n        /* \"#utility.yul\":4870:4887   */\n      add\n        /* \"#utility.yul\":4861:4867   */\n      dup5\n        /* \"#utility.yul\":4821:4888   */\n      tag_368\n      jump\t// in\n    tag_468:\n        /* \"#utility.yul\":4681:4895   */\n      swap3\n      swap2\n      pop\n      pop\n      jump\t// out\n        /* \"#utility.yul\":4901:5230   */\n    tag_61:\n        /* \"#utility.yul\":4960:4966   */\n      0x00\n        /* \"#utility.yul\":5009:5011   */\n      0x20\n        /* \"#utility.yul\":4997:5006   */\n      dup3\n        /* \"#utility.yul\":4988:4995   */\n      dup5\n        /* \"#utility.yul\":4984:5007   */\n      sub\n        /* \"#utility.yul\":4980:5012   */\n      slt\n        /* \"#utility.yul\":4977:5096   */\n      iszero\n      tag_470\n      jumpi\n        /* \"#utility.yul\":5015:5094   */\n      tag_471\n      tag_355\n      jump\t// in\n    tag_471:\n        /* \"#utility.yul\":4977:5096   */\n    tag_470:\n        /* \"#utility.yul\":5135:5136   */\n      0x00\n        /* \"#utility.yul\":5160:5213   */\n      tag_472\n        /* \"#utility.yul\":5205:5212   */\n      dup5\n        /* \"#utility.yul\":5196:5202   */\n      dup3\n        /* \"#utility.yul\":5185:5194   */\n      dup6\n        /* \"#utility.yul\":5181:5203   */\n      add\n        /* \"#utility.yul\":5160:5213   */\n      tag_363\n      jump\t// in\n    tag_472:\n        /* \"#utility.yul\":5150:5213   */\n      swap2\n      pop\n        /* \"#utility.yul\":5106:5223   */\n      pop\n        /* \"#utility.yul\":4901:5230   */\n      swap3\n      swap2\n      pop\n      pop\n      jump\t// out\n        /* \"#utility.yul\":5236:5565   */\n    tag_68:\n        /* \"#utility.yul\":5295:5301   */\n      0x00\n        /* \"#utility.yul\":5344:5346   */\n      0x20\n        /* \"#utility.yul\":5332:5341   */\n      dup3\n        /* \"#utility.yul\":5323:5330   */\n      dup5\n        /* \"#utility.yul\":5319:5342   */\n      sub\n        /* \"#utility.yul\":5315:5347   */\n      slt\n        /* \"#utility.yul\":5312:5431   */\n      iszero\n      tag_474\n      jumpi\n        /* \"#utility.yul\":5350:5429   */\n      tag_475\n      tag_355\n      jump\t// in\n    tag_475:\n        /* \"#utility.yul\":5312:5431   */\n    tag_474:\n        /* \"#utility.yul\":5470:5471   */\n      0x00\n        /* \"#utility.yul\":5495:5548   */\n      tag_476\n        /* \"#utility.yul\":5540:5547   */\n      dup5\n        /* \"#utility.yul\":5531:5537   */\n      dup3\n        /* \"#utility.yul\":5520:5529   */\n      dup6\n        /* \"#utility.yul\":5516:5538   */\n      add\n        /* \"#utility.yul\":5495:5548   */\n      tag_360\n      jump\t// in\n    tag_476:\n        /* \"#utility.yul\":5485:5548   */\n      swap2\n      pop\n        /* \"#utility.yul\":5441:5558   */\n      pop\n        /* \"#utility.yul\":5236:5565   */\n      swap3\n      swap2\n      pop\n      pop\n      jump\t// out\n        /* \"#utility.yul\":5571:5689   */\n    tag_369:\n        /* \"#utility.yul\":5658:5682   */\n      tag_478\n        /* \"#utility.yul\":5676:5681   */\n      dup2\n        /* \"#utility.yul\":5658:5682   */\n      tag_358\n      jump\t// in\n    tag_478:\n        /* \"#utility.yul\":5653:5656   */\n      dup3\n        /* \"#utility.yul\":5646:5683   */\n      mstore\n        /* \"#utility.yul\":5571:5689   */\n      pop\n      pop\n      jump\t// out\n        /* \"#utility.yul\":5695:5917   */\n    tag_83:\n        /* \"#utility.yul\":5788:5792   */\n      0x00\n        /* \"#utility.yul\":5826:5828   */\n      0x20\n        /* \"#utility.yul\":5815:5824   */\n      dup3\n        /* \"#utility.yul\":5811:5829   */\n      add\n        /* \"#utility.yul\":5803:5829   */\n      swap1\n      pop\n        /* \"#utility.yul\":5839:5910   */\n      tag_480\n        /* \"#utility.yul\":5907:5908   */\n      0x00\n        /* \"#utility.yul\":5896:5905   */\n      dup4\n        /* \"#utility.yul\":5892:5909   */\n      add\n        /* \"#utility.yul\":5883:5889   */\n      dup5\n        /* \"#utility.yul\":5839:5910   */\n      tag_369\n      jump\t// in\n    tag_480:\n        /* \"#utility.yul\":5695:5917   */\n      swap3\n      swap2\n      pop\n      pop\n      jump\t// out\n        /* \"#utility.yul\":5923:6397   */\n    tag_97:\n        /* \"#utility.yul\":5991:5997   */\n      0x00\n        /* \"#utility.yul\":5999:6005   */\n      dup1\n        /* \"#utility.yul\":6048:6050   */\n      0x40\n        /* \"#utility.yul\":6036:6045   */\n      dup4\n        /* \"#utility.yul\":6027:6034   */\n      dup6\n        /* \"#utility.yul\":6023:6046   */\n      sub\n        /* \"#utility.yul\":6019:6051   */\n      slt\n        /* \"#utility.yul\":6016:6135   */\n      iszero\n      tag_482\n      jumpi\n        /* \"#utility.yul\":6054:6133   */\n      tag_483\n      tag_355\n      jump\t// in\n    tag_483:\n        /* \"#utility.yul\":6016:6135   */\n    tag_482:\n        /* \"#utility.yul\":6174:6175   */\n      0x00\n        /* \"#utility.yul\":6199:6252   */\n      tag_484\n        /* \"#utility.yul\":6244:6251   */\n      dup6\n        /* \"#utility.yul\":6235:6241   */\n      dup3\n        /* \"#utility.yul\":6224:6233   */\n      dup7\n        /* \"#utility.yul\":6220:6242   */\n      add\n        /* \"#utility.yul\":6199:6252   */\n      tag_360\n      jump\t// in\n    tag_484:\n        /* \"#utility.yul\":6189:6252   */\n      swap3\n      pop\n        /* \"#utility.yul\":6145:6262   */\n      pop\n        /* \"#utility.yul\":6301:6303   */\n      0x20\n        /* \"#utility.yul\":6327:6380   */\n      tag_485\n        /* \"#utility.yul\":6372:6379   */\n      dup6\n        /* \"#utility.yul\":6363:6369   */\n      dup3\n        /* \"#utility.yul\":6352:6361   */\n      dup7\n        /* \"#utility.yul\":6348:6370   */\n      add\n        /* \"#utility.yul\":6327:6380   */\n      tag_360\n      jump\t// in\n    tag_485:\n        /* \"#utility.yul\":6317:6380   */\n      swap2\n      pop\n        /* \"#utility.yul\":6272:6390   */\n      pop\n        /* \"#utility.yul\":5923:6397   */\n      swap3\n      pop\n      swap3\n      swap1\n      pop\n      jump\t// out\n        /* \"#utility.yul\":6403:6583   */\n    tag_370:\n        /* \"#utility.yul\":6451:6528   */\n      0x4e487b7100000000000000000000000000000000000000000000000000000000\n        /* \"#utility.yul\":6448:6449   */\n      0x00\n        /* \"#utility.yul\":6441:6529   */\n      mstore\n        /* \"#utility.yul\":6548:6552   */\n      0x22\n        /* \"#utility.yul\":6545:6546   */\n      0x04\n        /* \"#utility.yul\":6538:6553   */\n      mstore\n        /* \"#utility.yul\":6572:6576   */\n      0x24\n        /* \"#utility.yul\":6569:6570   */\n      0x00\n        /* \"#utility.yul\":6562:6577   */\n      revert\n        /* \"#utility.yul\":6589:6909   */\n    tag_105:\n        /* \"#utility.yul\":6633:6639   */\n      0x00\n        /* \"#utility.yul\":6670:6671   */\n      0x02\n        /* \"#utility.yul\":6664:6668   */\n      dup3\n        /* \"#utility.yul\":6660:6672   */\n      div\n        /* \"#utility.yul\":6650:6672   */\n      swap1\n      pop\n        /* \"#utility.yul\":6717:6718   */\n      0x01\n        /* \"#utility.yul\":6711:6715   */\n      dup3\n        /* \"#utility.yul\":6707:6719   */\n      and\n        /* \"#utility.yul\":6738:6756   */\n      dup1\n        /* \"#utility.yul\":6728:6809   */\n      tag_488\n      jumpi\n        /* \"#utility.yul\":6794:6798   */\n      0x7f\n        /* \"#utility.yul\":6786:6792   */\n      dup3\n        /* \"#utility.yul\":6782:6799   */\n      and\n        /* \"#utility.yul\":6772:6799   */\n      swap2\n      pop\n        /* \"#utility.yul\":6728:6809   */\n    tag_488:\n        /* \"#utility.yul\":6856:6858   */\n      0x20\n        /* \"#utility.yul\":6848:6854   */\n      dup3\n        /* \"#utility.yul\":6845:6859   */\n      lt\n        /* \"#utility.yul\":6825:6843   */\n      dup2\n        /* \"#utility.yul\":6822:6860   */\n      eq\n        /* \"#utility.yul\":6819:6903   */\n      iszero\n      tag_489\n      jumpi\n        /* \"#utility.yul\":6875:6893   */\n      tag_490\n      tag_370\n      jump\t// in\n    tag_490:\n        /* \"#utility.yul\":6819:6903   */\n    tag_489:\n        /* \"#utility.yul\":6640:6909   */\n      pop\n        /* \"#utility.yul\":6589:6909   */\n      swap2\n      swap1\n      pop\n      jump\t// out\n        /* \"#utility.yul\":6915:7095   */\n    tag_371:\n        /* \"#utility.yul\":6963:7040   */\n      0x4e487b7100000000000000000000000000000000000000000000000000000000\n        /* \"#utility.yul\":6960:6961   */\n      0x00\n        /* \"#utility.yul\":6953:7041   */\n      mstore\n        /* \"#utility.yul\":7060:7064   */\n      0x11\n        /* \"#utility.yul\":7057:7058   */\n      0x04\n        /* \"#utility.yul\":7050:7065   */\n      mstore\n        /* \"#utility.yul\":7084:7088   */\n      0x24\n        /* \"#utility.yul\":7081:7082   */\n      0x00\n        /* \"#utility.yul\":7074:7089   */\n      revert\n        /* \"#utility.yul\":7101:7406   */\n    tag_128:\n        /* \"#utility.yul\":7141:7144   */\n      0x00\n        /* \"#utility.yul\":7160:7180   */\n      tag_493\n        /* \"#utility.yul\":7178:7179   */\n      dup3\n        /* \"#utility.yul\":7160:7180   */\n      tag_361\n      jump\t// in\n    tag_493:\n        /* \"#utility.yul\":7155:7180   */\n      swap2\n      pop\n        /* \"#utility.yul\":7194:7214   */\n      tag_494\n        /* \"#utility.yul\":7212:7213   */\n      dup4\n        /* \"#utility.yul\":7194:7214   */\n      tag_361\n      jump\t// in\n    tag_494:\n        /* \"#utility.yul\":7189:7214   */\n      swap3\n      pop\n        /* \"#utility.yul\":7348:7349   */\n      dup3\n        /* \"#utility.yul\":7280:7346   */\n      0xffffffffffffffffffffffffffffffffffffffffffffffffffffffffffffffff\n        /* \"#utility.yul\":7276:7350   */\n      sub\n        /* \"#utility.yul\":7273:7274   */\n      dup3\n        /* \"#utility.yul\":7270:7351   */\n      gt\n        /* \"#utility.yul\":7267:7374   */\n      iszero\n      tag_495\n      jumpi\n        /* \"#utility.yul\":7354:7372   */\n      tag_496\n      tag_371\n      jump\t// in\n    tag_496:\n        /* \"#utility.yul\":7267:7374   */\n    tag_495:\n        /* \"#utility.yul\":7398:7399   */\n      dup3\n        /* \"#utility.yul\":7395:7396   */\n      dup3\n        /* \"#utility.yul\":7391:7400   */\n      add\n        /* \"#utility.yul\":7384:7400   */\n      swap1\n      pop\n        /* \"#utility.yul\":7101:7406   */\n      swap3\n      swap2\n      pop\n      pop\n      jump\t// out\n        /* \"#utility.yul\":7412:7645   */\n    tag_372:\n        /* \"#utility.yul\":7552:7586   */\n      0x496e697469616c697a61626c653a20636f6e747261637420697320616c726561\n        /* \"#utility.yul\":7548:7549   */\n      0x00\n        /* \"#utility.yul\":7540:7546   */\n      dup3\n        /* \"#utility.yul\":7536:7550   */\n      add\n        /* \"#utility.yul\":7529:7587   */\n      mstore\n        /* \"#utility.yul\":7621:7637   */\n      0x647920696e697469616c697a6564000000000000000000000000000000000000\n        /* \"#utility.yul\":7616:7618   */\n      0x20\n        /* \"#utility.yul\":7608:7614   */\n      dup3\n        /* \"#utility.yul\":7604:7619   */\n      add\n        /* \"#utility.yul\":7597:7638   */\n      mstore\n        /* \"#utility.yul\":7412:7645   */\n      pop\n      jump\t// out\n        /* \"#utility.yul\":7651:8017   */\n    tag_373:\n        /* \"#utility.yul\":7793:7796   */\n      0x00\n        /* \"#utility.yul\":7814:7881   */\n      tag_499\n        /* \"#utility.yul\":7878:7880   */\n      0x2e\n        /* \"#utility.yul\":7873:7876   */\n      dup4\n        /* \"#utility.yul\":7814:7881   */\n      tag_350\n      jump\t// in\n    tag_499:\n        /* \"#utility.yul\":7807:7881   */\n      swap2\n      pop\n        /* \"#utility.yul\":7890:7983   */\n      tag_500\n        /* \"#utility.yul\":7979:7982   */\n      dup3\n        /* \"#utility.yul\":7890:7983   */\n      tag_372\n      jump\t// in\n    tag_500:\n        /* \"#utility.yul\":8008:8010   */\n      0x40\n        /* \"#utility.yul\":8003:8006   */\n      dup3\n        /* \"#utility.yul\":7999:8011   */\n      add\n        /* \"#utility.yul\":7992:8011   */\n      swap1\n      pop\n        /* \"#utility.yul\":7651:8017   */\n      swap2\n      swap1\n      pop\n      jump\t// out\n        /* \"#utility.yul\":8023:8442   */\n    tag_163:\n        /* \"#utility.yul\":8189:8193   */\n      0x00\n        /* \"#utility.yul\":8227:8229   */\n      0x20\n        /* \"#utility.yul\":8216:8225   */\n      dup3\n        /* \"#utility.yul\":8212:8230   */\n      add\n        /* \"#utility.yul\":8204:8230   */\n      swap1\n      pop\n        /* \"#utility.yul\":8276:8285   */\n      dup2\n        /* \"#utility.yul\":8270:8274   */\n      dup2\n        /* \"#utility.yul\":8266:8286   */\n      sub\n        /* \"#utility.yul\":8262:8263   */\n      0x00\n        /* \"#utility.yul\":8251:8260   */\n      dup4\n        /* \"#utility.yul\":8247:8264   */\n      add\n        /* \"#utility.yul\":8240:8287   */\n      mstore\n        /* \"#utility.yul\":8304:8435   */\n      tag_502\n        /* \"#utility.yul\":8430:8434   */\n      dup2\n        /* \"#utility.yul\":8304:8435   */\n      tag_373\n      jump\t// in\n    tag_502:\n        /* \"#utility.yul\":8296:8435   */\n      swap1\n      pop\n        /* \"#utility.yul\":8023:8442   */\n      swap2\n      swap1\n      pop\n      jump\t// out\n        /* \"#utility.yul\":8448:8550   */\n    tag_374:\n        /* \"#utility.yul\":8490:8498   */\n      0x00\n        /* \"#utility.yul\":8537:8542   */\n      dup2\n        /* \"#utility.yul\":8534:8535   */\n      0x01\n        /* \"#utility.yul\":8530:8543   */\n      shr\n        /* \"#utility.yul\":8509:8543   */\n      swap1\n      pop\n        /* \"#utility.yul\":8448:8550   */\n      swap2\n      swap1\n      pop\n      jump\t// out\n        /* \"#utility.yul\":8556:9404   */\n    tag_375:\n        /* \"#utility.yul\":8617:8622   */\n      0x00\n        /* \"#utility.yul\":8624:8628   */\n      dup1\n        /* \"#utility.yul\":8648:8654   */\n      dup3\n        /* \"#utility.yul\":8639:8654   */\n      swap2\n      pop\n        /* \"#utility.yul\":8672:8677   */\n      dup4\n        /* \"#utility.yul\":8663:8677   */\n      swap1\n      pop\n        /* \"#utility.yul\":8686:9398   */\n    tag_505:\n        /* \"#utility.yul\":8707:8708   */\n      0x01\n        /* \"#utility.yul\":8697:8705   */\n      dup6\n        /* \"#utility.yul\":8694:8709   */\n      gt\n        /* \"#utility.yul\":8686:9398   */\n      iszero\n      tag_507\n      jumpi\n        /* \"#utility.yul\":8802:8806   */\n      dup1\n        /* \"#utility.yul\":8797:8800   */\n      dup7\n        /* \"#utility.yul\":8793:8807   */\n      div\n        /* \"#utility.yul\":8787:8791   */\n      dup2\n        /* \"#utility.yul\":8784:8808   */\n      gt\n        /* \"#utility.yul\":8781:8831   */\n      iszero\n      tag_508\n      jumpi\n        /* \"#utility.yul\":8811:8829   */\n      tag_509\n      tag_371\n      jump\t// in\n    tag_509:\n        /* \"#utility.yul\":8781:8831   */\n    tag_508:\n        /* \"#utility.yul\":8861:8862   */\n      0x01\n        /* \"#utility.yul\":8851:8859   */\n      dup6\n        /* \"#utility.yul\":8847:8863   */\n      and\n        /* \"#utility.yul\":8844:9295   */\n      iszero\n      tag_510\n      jumpi\n        /* \"#utility.yul\":9276:9280   */\n      dup1\n        /* \"#utility.yul\":9269:9274   */\n      dup3\n        /* \"#utility.yul\":9265:9281   */\n      mul\n        /* \"#utility.yul\":9256:9281   */\n      swap2\n      pop\n        /* \"#utility.yul\":8844:9295   */\n    tag_510:\n        /* \"#utility.yul\":9326:9330   */\n      dup1\n        /* \"#utility.yul\":9320:9324   */\n      dup2\n        /* \"#utility.yul\":9316:9331   */\n      mul\n        /* \"#utility.yul\":9308:9331   */\n      swap1\n      pop\n        /* \"#utility.yul\":9356:9388   */\n      tag_511\n        /* \"#utility.yul\":9379:9387   */\n      dup6\n        /* \"#utility.yul\":9356:9388   */\n      tag_374\n      jump\t// in\n    tag_511:\n        /* \"#utility.yul\":9344:9388   */\n      swap5\n      pop\n        /* \"#utility.yul\":8686:9398   */\n      jump(tag_505)\n    tag_507:\n        /* \"#utility.yul\":8556:9404   */\n      swap5\n      pop\n      swap5\n      swap3\n      pop\n      pop\n      pop\n      jump\t// out\n        /* \"#utility.yul\":9410:10483   */\n    tag_376:\n        /* \"#utility.yul\":9464:9469   */\n      0x00\n        /* \"#utility.yul\":9655:9663   */\n      dup3\n        /* \"#utility.yul\":9645:9685   */\n      tag_513\n      jumpi\n        /* \"#utility.yul\":9676:9677   */\n      0x01\n        /* \"#utility.yul\":9667:9677   */\n      swap1\n      pop\n        /* \"#utility.yul\":9678:9683   */\n      jump(tag_512)\n        /* \"#utility.yul\":9645:9685   */\n    tag_513:\n        /* \"#utility.yul\":9704:9708   */\n      dup2\n        /* \"#utility.yul\":9694:9730   */\n      tag_514\n      jumpi\n        /* \"#utility.yul\":9721:9722   */\n      0x00\n        /* \"#utility.yul\":9712:9722   */\n      swap1\n      pop\n        /* \"#utility.yul\":9723:9728   */\n      jump(tag_512)\n        /* \"#utility.yul\":9694:9730   */\n    tag_514:\n        /* \"#utility.yul\":9790:9794   */\n      dup2\n        /* \"#utility.yul\":9838:9839   */\n      0x01\n        /* \"#utility.yul\":9833:9860   */\n      dup2\n      eq\n      tag_516\n      jumpi\n        /* \"#utility.yul\":9874:9875   */\n      0x02\n        /* \"#utility.yul\":9869:10060   */\n      dup2\n      eq\n      tag_517\n      jumpi\n        /* \"#utility.yul\":9783:10060   */\n      jump(tag_515)\n        /* \"#utility.yul\":9833:9860   */\n    tag_516:\n        /* \"#utility.yul\":9851:9852   */\n      0x01\n        /* \"#utility.yul\":9842:9852   */\n      swap2\n      pop\n        /* \"#utility.yul\":9853:9858   */\n      pop\n      jump(tag_512)\n        /* \"#utility.yul\":9869:10060   */\n    tag_517:\n        /* \"#utility.yul\":9914:9917   */\n      0xff\n        /* \"#utility.yul\":9904:9912   */\n      dup5\n        /* \"#utility.yul\":9901:9918   */\n      gt\n        /* \"#utility.yul\":9898:9941   */\n      iszero\n      tag_518\n      jumpi\n        /* \"#utility.yul\":9921:9939   */\n      tag_519\n      tag_371\n      jump\t// in\n    tag_519:\n        /* \"#utility.yul\":9898:9941   */\n    tag_518:\n        /* \"#utility.yul\":9970:9978   */\n      dup4\n        /* \"#utility.yul\":9967:9968   */\n      0x02\n        /* \"#utility.yul\":9963:9979   */\n      exp\n        /* \"#utility.yul\":9954:9979   */\n      swap2\n      pop\n        /* \"#utility.yul\":10005:10008   */\n      dup5\n        /* \"#utility.yul\":9998:10003   */\n      dup3\n        /* \"#utility.yul\":9995:10009   */\n      gt\n        /* \"#utility.yul\":9992:10032   */\n      iszero\n      tag_520\n      jumpi\n        /* \"#utility.yul\":10012:10030   */\n      tag_521\n      tag_371\n      jump\t// in\n    tag_521:\n        /* \"#utility.yul\":9992:10032   */\n    tag_520:\n        /* \"#utility.yul\":10045:10050   */\n      pop\n      jump(tag_512)\n        /* \"#utility.yul\":9783:10060   */\n    tag_515:\n      pop\n        /* \"#utility.yul\":10169:10171   */\n      0x20\n        /* \"#utility.yul\":10159:10167   */\n      dup4\n        /* \"#utility.yul\":10156:10172   */\n      lt\n        /* \"#utility.yul\":10150:10153   */\n      0x0133\n        /* \"#utility.yul\":10144:10148   */\n      dup4\n        /* \"#utility.yul\":10141:10154   */\n      lt\n        /* \"#utility.yul\":10137:10173   */\n      and\n        /* \"#utility.yul\":10119:10121   */\n      0x4e\n        /* \"#utility.yul\":10109:10117   */\n      dup5\n        /* \"#utility.yul\":10106:10122   */\n      lt\n        /* \"#utility.yul\":10101:10103   */\n      0x0b\n        /* \"#utility.yul\":10095:10099   */\n      dup5\n        /* \"#utility.yul\":10092:10104   */\n      lt\n        /* \"#utility.yul\":10088:10123   */\n      and\n        /* \"#utility.yul\":10072:10183   */\n      or\n        /* \"#utility.yul\":10069:10315   */\n      iszero\n      tag_522\n      jumpi\n        /* \"#utility.yul\":10225:10233   */\n      dup3\n        /* \"#utility.yul\":10219:10223   */\n      dup3\n        /* \"#utility.yul\":10215:10234   */\n      exp\n        /* \"#utility.yul\":10206:10234   */\n      swap1\n      pop\n        /* \"#utility.yul\":10260:10263   */\n      dup4\n        /* \"#utility.yul\":10253:10258   */\n      dup2\n        /* \"#utility.yul\":10250:10264   */\n      gt\n        /* \"#utility.yul\":10247:10287   */\n      iszero\n      tag_523\n      jumpi\n        /* \"#utility.yul\":10267:10285   */\n      tag_524\n      tag_371\n      jump\t// in\n    tag_524:\n        /* \"#utility.yul\":10247:10287   */\n    tag_523:\n        /* \"#utility.yul\":10300:10305   */\n      jump(tag_512)\n        /* \"#utility.yul\":10069:10315   */\n    tag_522:\n        /* \"#utility.yul\":10340:10382   */\n      tag_525\n        /* \"#utility.yul\":10378:10381   */\n      dup5\n        /* \"#utility.yul\":10368:10376   */\n      dup5\n        /* \"#utility.yul\":10362:10366   */\n      dup5\n        /* \"#utility.yul\":10359:10360   */\n      0x01\n        /* \"#utility.yul\":10340:10382   */\n      tag_375\n      jump\t// in\n    tag_525:\n        /* \"#utility.yul\":10325:10382   */\n      swap3\n      pop\n      swap1\n      pop\n        /* \"#utility.yul\":10414:10418   */\n      dup2\n        /* \"#utility.yul\":10409:10412   */\n      dup5\n        /* \"#utility.yul\":10405:10419   */\n      div\n        /* \"#utility.yul\":10398:10403   */\n      dup2\n        /* \"#utility.yul\":10395:10420   */\n      gt\n        /* \"#utility.yul\":10392:10443   */\n      iszero\n      tag_526\n      jumpi\n        /* \"#utility.yul\":10423:10441   */\n      tag_527\n      tag_371\n      jump\t// in\n    tag_527:\n        /* \"#utility.yul\":10392:10443   */\n    tag_526:\n        /* \"#utility.yul\":10472:10476   */\n      dup2\n        /* \"#utility.yul\":10465:10470   */\n      dup2\n        /* \"#utility.yul\":10461:10477   */\n      mul\n        /* \"#utility.yul\":10452:10477   */\n      swap1\n      pop\n        /* \"#utility.yul\":9410:10483   */\n    tag_512:\n      swap4\n      swap3\n      pop\n      pop\n      pop\n      jump\t// out\n        /* \"#utility.yul\":10489:10770   */\n    tag_177:\n        /* \"#utility.yul\":10547:10552   */\n      0x00\n        /* \"#utility.yul\":10571:10594   */\n      tag_529\n        /* \"#utility.yul\":10589:10593   */\n      dup3\n        /* \"#utility.yul\":10571:10594   */\n      tag_361\n      jump\t// in\n    tag_529:\n        /* \"#utility.yul\":10563:10594   */\n      swap2\n      pop\n        /* \"#utility.yul\":10615:10640   */\n      tag_530\n        /* \"#utility.yul\":10631:10639   */\n      dup4\n        /* \"#utility.yul\":10615:10640   */\n      tag_367\n      jump\t// in\n    tag_530:\n        /* \"#utility.yul\":10603:10640   */\n      swap3\n      pop\n        /* \"#utility.yul\":10659:10763   */\n      tag_531\n        /* \"#utility.yul\":10696:10762   */\n      0xffffffffffffffffffffffffffffffffffffffffffffffffffffffffffffffff\n        /* \"#utility.yul\":10686:10694   */\n      dup5\n        /* \"#utility.yul\":10680:10684   */\n      dup5\n        /* \"#utility.yul\":10659:10763   */\n      tag_376\n      jump\t// in\n    tag_531:\n        /* \"#utility.yul\":10650:10763   */\n      swap1\n      pop\n        /* \"#utility.yul\":10489:10770   */\n      swap3\n      swap2\n      pop\n      pop\n      jump\t// out\n        /* \"#utility.yul\":10776:11124   */\n    tag_179:\n        /* \"#utility.yul\":10816:10823   */\n      0x00\n        /* \"#utility.yul\":10839:10859   */\n      tag_533\n        /* \"#utility.yul\":10857:10858   */\n      dup3\n        /* \"#utility.yul\":10839:10859   */\n      tag_361\n      jump\t// in\n    tag_533:\n        /* \"#utility.yul\":10834:10859   */\n      swap2\n      pop\n        /* \"#utility.yul\":10873:10893   */\n      tag_534\n        /* \"#utility.yul\":10891:10892   */\n      dup4\n        /* \"#utility.yul\":10873:10893   */\n      tag_361\n      jump\t// in\n    tag_534:\n        /* \"#utility.yul\":10868:10893   */\n      swap3\n      pop\n        /* \"#utility.yul\":11061:11062   */\n      dup2\n        /* \"#utility.yul\":10993:11059   */\n      0xffffffffffffffffffffffffffffffffffffffffffffffffffffffffffffffff\n        /* \"#utility.yul\":10989:11063   */\n      div\n        /* \"#utility.yul\":10986:10987   */\n      dup4\n        /* \"#utility.yul\":10983:11064   */\n      gt\n        /* \"#utility.yul\":10978:10979   */\n      dup3\n        /* \"#utility.yul\":10971:10980   */\n      iszero\n        /* \"#utility.yul\":10964:10981   */\n      iszero\n        /* \"#utility.yul\":10960:11065   */\n      and\n        /* \"#utility.yul\":10957:11088   */\n      iszero\n      tag_535\n      jumpi\n        /* \"#utility.yul\":11068:11086   */\n      tag_536\n      tag_371\n      jump\t// in\n    tag_536:\n        /* \"#utility.yul\":10957:11088   */\n    tag_535:\n        /* \"#utility.yul\":11116:11117   */\n      dup3\n        /* \"#utility.yul\":11113:11114   */\n      dup3\n        /* \"#utility.yul\":11109:11118   */\n      mul\n        /* \"#utility.yul\":11098:11118   */\n      swap1\n      pop\n        /* \"#utility.yul\":10776:11124   */\n      swap3\n      swap2\n      pop\n      pop\n      jump\t// out\n        /* \"#utility.yul\":11130:11215   */\n    tag_377:\n        /* \"#utility.yul\":11175:11182   */\n      0x00\n        /* \"#utility.yul\":11204:11209   */\n      dup2\n        /* \"#utility.yul\":11193:11209   */\n      swap1\n      pop\n        /* \"#utility.yul\":11130:11215   */\n      swap2\n      swap1\n      pop\n      jump\t// out\n        /* \"#utility.yul\":11221:11281   */\n    tag_378:\n        /* \"#utility.yul\":11249:11252   */\n      0x00\n        /* \"#utility.yul\":11270:11275   */\n      dup2\n        /* \"#utility.yul\":11263:11275   */\n      swap1\n      pop\n        /* \"#utility.yul\":11221:11281   */\n      swap2\n      swap1\n      pop\n      jump\t// out\n        /* \"#utility.yul\":11287:11441   */\n    tag_379:\n        /* \"#utility.yul\":11343:11352   */\n      0x00\n        /* \"#utility.yul\":11376:11435   */\n      tag_540\n        /* \"#utility.yul\":11392:11434   */\n      tag_541\n        /* \"#utility.yul\":11401:11433   */\n      tag_542\n        /* \"#utility.yul\":11427:11432   */\n      dup5\n        /* \"#utility.yul\":11401:11433   */\n      tag_377\n      jump\t// in\n    tag_542:\n        /* \"#utility.yul\":11392:11434   */\n      tag_378\n      jump\t// in\n    tag_541:\n        /* \"#utility.yul\":11376:11435   */\n      tag_367\n      jump\t// in\n    tag_540:\n        /* \"#utility.yul\":11363:11435   */\n      swap1\n      pop\n        /* \"#utility.yul\":11287:11441   */\n      swap2\n      swap1\n      pop\n      jump\t// out\n        /* \"#utility.yul\":11447:11590   */\n    tag_380:\n        /* \"#utility.yul\":11540:11583   */\n      tag_544\n        /* \"#utility.yul\":11577:11582   */\n      dup2\n        /* \"#utility.yul\":11540:11583   */\n      tag_379\n      jump\t// in\n    tag_544:\n        /* \"#utility.yul\":11535:11538   */\n      dup3\n        /* \"#utility.yul\":11528:11584   */\n      mstore\n        /* \"#utility.yul\":11447:11590   */\n      pop\n      pop\n      jump\t// out\n        /* \"#utility.yul\":11596:11830   */\n    tag_182:\n        /* \"#utility.yul\":11695:11699   */\n      0x00\n        /* \"#utility.yul\":11733:11735   */\n      0x20\n        /* \"#utility.yul\":11722:11731   */\n      dup3\n        /* \"#utility.yul\":11718:11736   */\n      add\n        /* \"#utility.yul\":11710:11736   */\n      swap1\n      pop\n        /* \"#utility.yul\":11746:11823   */\n      tag_546\n        /* \"#utility.yul\":11820:11821   */\n      0x00\n        /* \"#utility.yul\":11809:11818   */\n      dup4\n        /* \"#utility.yul\":11805:11822   */\n      add\n        /* \"#utility.yul\":11796:11802   */\n      dup5\n        /* \"#utility.yul\":11746:11823   */\n      tag_380\n      jump\t// in\n    tag_546:\n        /* \"#utility.yul\":11596:11830   */\n      swap3\n      swap2\n      pop\n      pop\n      jump\t// out\n        /* \"#utility.yul\":11836:12060   */\n    tag_381:\n        /* \"#utility.yul\":11976:12010   */\n      0x45524332303a2064656372656173656420616c6c6f77616e63652062656c6f77\n        /* \"#utility.yul\":11972:11973   */\n      0x00\n        /* \"#utility.yul\":11964:11970   */\n      dup3\n        /* \"#utility.yul\":11960:11974   */\n      add\n        /* \"#utility.yul\":11953:12011   */\n      mstore\n        /* \"#utility.yul\":12045:12052   */\n      0x207a65726f000000000000000000000000000000000000000000000000000000\n        /* \"#utility.yul\":12040:12042   */\n      0x20\n        /* \"#utility.yul\":12032:12038   */\n      dup3\n        /* \"#utility.yul\":12028:12043   */\n      add\n        /* \"#utility.yul\":12021:12053   */\n      mstore\n        /* \"#utility.yul\":11836:12060   */\n      pop\n      jump\t// out\n        /* \"#utility.yul\":12066:12432   */\n    tag_382:\n        /* \"#utility.yul\":12208:12211   */\n      0x00\n        /* \"#utility.yul\":12229:12296   */\n      tag_549\n        /* \"#utility.yul\":12293:12295   */\n      0x25\n        /* \"#utility.yul\":12288:12291   */\n      dup4\n        /* \"#utility.yul\":12229:12296   */\n      tag_350\n      jump\t// in\n    tag_549:\n        /* \"#utility.yul\":12222:12296   */\n      swap2\n      pop\n        /* \"#utility.yul\":12305:12398   */\n      tag_550\n        /* \"#utility.yul\":12394:12397   */\n      dup3\n        /* \"#utility.yul\":12305:12398   */\n      tag_381\n      jump\t// in\n    tag_550:\n        /* \"#utility.yul\":12423:12425   */\n      0x40\n        /* \"#utility.yul\":12418:12421   */\n      dup3\n        /* \"#utility.yul\":12414:12426   */\n      add\n        /* \"#utility.yul\":12407:12426   */\n      swap1\n      pop\n        /* \"#utility.yul\":12066:12432   */\n      swap2\n      swap1\n      pop\n      jump\t// out\n        /* \"#utility.yul\":12438:12857   */\n    tag_200:\n        /* \"#utility.yul\":12604:12608   */\n      0x00\n        /* \"#utility.yul\":12642:12644   */\n      0x20\n        /* \"#utility.yul\":12631:12640   */\n      dup3\n        /* \"#utility.yul\":12627:12645   */\n      add\n        /* \"#utility.yul\":12619:12645   */\n      swap1\n      pop\n        /* \"#utility.yul\":12691:12700   */\n      dup2\n        /* \"#utility.yul\":12685:12689   */\n      dup2\n        /* \"#utility.yul\":12681:12701   */\n      sub\n        /* \"#utility.yul\":12677:12678   */\n      0x00\n        /* \"#utility.yul\":12666:12675   */\n      dup4\n        /* \"#utility.yul\":12662:12679   */\n      add\n        /* \"#utility.yul\":12655:12702   */\n      mstore\n        /* \"#utility.yul\":12719:12850   */\n      tag_552\n        /* \"#utility.yul\":12845:12849   */\n      dup2\n        /* \"#utility.yul\":12719:12850   */\n      tag_382\n      jump\t// in\n    tag_552:\n        /* \"#utility.yul\":12711:12850   */\n      swap1\n      pop\n        /* \"#utility.yul\":12438:12857   */\n      swap2\n      swap1\n      pop\n      jump\t// out\n        /* \"#utility.yul\":12863:13088   */\n    tag_383:\n        /* \"#utility.yul\":13003:13037   */\n      0x4f776e61626c653a206e6577206f776e657220697320746865207a65726f2061\n        /* \"#utility.yul\":12999:13000   */\n      0x00\n        /* \"#utility.yul\":12991:12997   */\n      dup3\n        /* \"#utility.yul\":12987:13001   */\n      add\n        /* \"#utility.yul\":12980:13038   */\n      mstore\n        /* \"#utility.yul\":13072:13080   */\n      0x6464726573730000000000000000000000000000000000000000000000000000\n        /* \"#utility.yul\":13067:13069   */\n      0x20\n        /* \"#utility.yul\":13059:13065   */\n      dup3\n        /* \"#utility.yul\":13055:13070   */\n      add\n        /* \"#utility.yul\":13048:13081   */\n      mstore\n        /* \"#utility.yul\":12863:13088   */\n      pop\n      jump\t// out\n        /* \"#utility.yul\":13094:13460   */\n    tag_384:\n        /* \"#utility.yul\":13236:13239   */\n      0x00\n        /* \"#utility.yul\":13257:13324   */\n      tag_555\n        /* \"#utility.yul\":13321:13323   */\n      0x26\n        /* \"#utility.yul\":13316:13319   */\n      dup4\n        /* \"#utility.yul\":13257:13324   */\n      tag_350\n      jump\t// in\n    tag_555:\n        /* \"#utility.yul\":13250:13324   */\n      swap2\n      pop\n        /* \"#utility.yul\":13333:13426   */\n      tag_556\n        /* \"#utility.yul\":13422:13425   */\n      dup3\n        /* \"#utility.yul\":13333:13426   */\n      tag_383\n      jump\t// in\n    tag_556:\n        /* \"#utility.yul\":13451:13453   */\n      0x40\n        /* \"#utility.yul\":13446:13449   */\n      dup3\n        /* \"#utility.yul\":13442:13454   */\n      add\n        /* \"#utility.yul\":13435:13454   */\n      swap1\n      pop\n        /* \"#utility.yul\":13094:13460   */\n      swap2\n      swap1\n      pop\n      jump\t// out\n        /* \"#utility.yul\":13466:13885   */\n    tag_211:\n        /* \"#utility.yul\":13632:13636   */\n      0x00\n        /* \"#utility.yul\":13670:13672   */\n      0x20\n        /* \"#utility.yul\":13659:13668   */\n      dup3\n        /* \"#utility.yul\":13655:13673   */\n      add\n        /* \"#utility.yul\":13647:13673   */\n      swap1\n      pop\n        /* \"#utility.yul\":13719:13728   */\n      dup2\n        /* \"#utility.yul\":13713:13717   */\n      dup2\n        /* \"#utility.yul\":13709:13729   */\n      sub\n        /* \"#utility.yul\":13705:13706   */\n      0x00\n        /* \"#utility.yul\":13694:13703   */\n      dup4\n        /* \"#utility.yul\":13690:13707   */\n      add\n        /* \"#utility.yul\":13683:13730   */\n      mstore\n        /* \"#utility.yul\":13747:13878   */\n      tag_558\n        /* \"#utility.yul\":13873:13877   */\n      dup2\n        /* \"#utility.yul\":13747:13878   */\n      tag_384\n      jump\t// in\n    tag_558:\n        /* \"#utility.yul\":13739:13878   */\n      swap1\n      pop\n        /* \"#utility.yul\":13466:13885   */\n      swap2\n      swap1\n      pop\n      jump\t// out\n        /* \"#utility.yul\":13891:14114   */\n    tag_385:\n        /* \"#utility.yul\":14031:14065   */\n      0x45524332303a20617070726f76652066726f6d20746865207a65726f20616464\n        /* \"#utility.yul\":14027:14028   */\n      0x00\n        /* \"#utility.yul\":14019:14025   */\n      dup3\n        /* \"#utility.yul\":14015:14029   */\n      add\n        /* \"#utility.yul\":14008:14066   */\n      mstore\n        /* \"#utility.yul\":14100:14106   */\n      0x7265737300000000000000000000000000000000000000000000000000000000\n        /* \"#utility.yul\":14095:14097   */\n      0x20\n        /* \"#utility.yul\":14087:14093   */\n      dup3\n        /* \"#utility.yul\":14083:14098   */\n      add\n        /* \"#utility.yul\":14076:14107   */\n      mstore\n        /* \"#utility.yul\":13891:14114   */\n      pop\n      jump\t// out\n        /* \"#utility.yul\":14120:14486   */\n    tag_386:\n        /* \"#utility.yul\":14262:14265   */\n      0x00\n        /* \"#utility.yul\":14283:14350   */\n      tag_561\n        /* \"#utility.yul\":14347:14349   */\n      0x24\n        /* \"#utility.yul\":14342:14345   */\n      dup4\n        /* \"#utility.yul\":14283:14350   */\n      tag_350\n      jump\t// in\n    tag_561:\n        /* \"#utility.yul\":14276:14350   */\n      swap2\n      pop\n        /* \"#utility.yul\":14359:14452   */\n      tag_562\n        /* \"#utility.yul\":14448:14451   */\n      dup3\n        /* \"#utility.yul\":14359:14452   */\n      tag_385\n      jump\t// in\n    tag_562:\n        /* \"#utility.yul\":14477:14479   */\n      0x40\n        /* \"#utility.yul\":14472:14475   */\n      dup3\n        /* \"#utility.yul\":14468:14480   */\n      add\n        /* \"#utility.yul\":14461:14480   */\n      swap1\n      pop\n        /* \"#utility.yul\":14120:14486   */\n      swap2\n      swap1\n      pop\n      jump\t// out\n        /* \"#utility.yul\":14492:14911   */\n    tag_217:\n        /* \"#utility.yul\":14658:14662   */\n      0x00\n        /* \"#utility.yul\":14696:14698   */\n      0x20\n        /* \"#utility.yul\":14685:14694   */\n      dup3\n        /* \"#utility.yul\":14681:14699   */\n      add\n        /* \"#utility.yul\":14673:14699   */\n      swap1\n      pop\n        /* \"#utility.yul\":14745:14754   */\n      dup2\n        /* \"#utility.yul\":14739:14743   */\n      dup2\n        /* \"#utility.yul\":14735:14755   */\n      sub\n        /* \"#utility.yul\":14731:14732   */\n      0x00\n        /* \"#utility.yul\":14720:14729   */\n      dup4\n        /* \"#utility.yul\":14716:14733   */\n      add\n        /* \"#utility.yul\":14709:14756   */\n      mstore\n        /* \"#utility.yul\":14773:14904   */\n      tag_564\n        /* \"#utility.yul\":14899:14903   */\n      dup2\n        /* \"#utility.yul\":14773:14904   */\n      tag_386\n      jump\t// in\n    tag_564:\n        /* \"#utility.yul\":14765:14904   */\n      swap1\n      pop\n        /* \"#utility.yul\":14492:14911   */\n      swap2\n      swap1\n      pop\n      jump\t// out\n        /* \"#utility.yul\":14917:15138   */\n    tag_387:\n        /* \"#utility.yul\":15057:15091   */\n      0x45524332303a20617070726f766520746f20746865207a65726f206164647265\n        /* \"#utility.yul\":15053:15054   */\n      0x00\n        /* \"#utility.yul\":15045:15051   */\n      dup3\n        /* \"#utility.yul\":15041:15055   */\n      add\n        /* \"#utility.yul\":15034:15092   */\n      mstore\n        /* \"#utility.yul\":15126:15130   */\n      0x7373000000000000000000000000000000000000000000000000000000000000\n        /* \"#utility.yul\":15121:15123   */\n      0x20\n        /* \"#utility.yul\":15113:15119   */\n      dup3\n        /* \"#utility.yul\":15109:15124   */\n      add\n        /* \"#utility.yul\":15102:15131   */\n      mstore\n        /* \"#utility.yul\":14917:15138   */\n      pop\n      jump\t// out\n        /* \"#utility.yul\":15144:15510   */\n    tag_388:\n        /* \"#utility.yul\":15286:15289   */\n      0x00\n        /* \"#utility.yul\":15307:15374   */\n      tag_567\n        /* \"#utility.yul\":15371:15373   */\n      0x22\n        /* \"#utility.yul\":15366:15369   */\n      dup4\n        /* \"#utility.yul\":15307:15374   */\n      tag_350\n      jump\t// in\n    tag_567:\n        /* \"#utility.yul\":15300:15374   */\n      swap2\n      pop\n        /* \"#utility.yul\":15383:15476   */\n      tag_568\n        /* \"#utility.yul\":15472:15475   */\n      dup3\n        /* \"#utility.yul\":15383:15476   */\n      tag_387\n      jump\t// in\n    tag_568:\n        /* \"#utility.yul\":15501:15503   */\n      0x40\n        /* \"#utility.yul\":15496:15499   */\n      dup3\n        /* \"#utility.yul\":15492:15504   */\n      add\n        /* \"#utility.yul\":15485:15504   */\n      swap1\n      pop\n        /* \"#utility.yul\":15144:15510   */\n      swap2\n      swap1\n      pop\n      jump\t// out\n        /* \"#utility.yul\":15516:15935   */\n    tag_220:\n        /* \"#utility.yul\":15682:15686   */\n      0x00\n        /* \"#utility.yul\":15720:15722   */\n      0x20\n        /* \"#utility.yul\":15709:15718   */\n      dup3\n        /* \"#utility.yul\":15705:15723   */\n      add\n        /* \"#utility.yul\":15697:15723   */\n      swap1\n      pop\n        /* \"#utility.yul\":15769:15778   */\n      dup2\n        /* \"#utility.yul\":15763:15767   */\n      dup2\n        /* \"#utility.yul\":15759:15779   */\n      sub\n        /* \"#utility.yul\":15755:15756   */\n      0x00\n        /* \"#utility.yul\":15744:15753   */\n      dup4\n        /* \"#utility.yul\":15740:15757   */\n      add\n        /* \"#utility.yul\":15733:15780   */\n      mstore\n        /* \"#utility.yul\":15797:15928   */\n      tag_570\n        /* \"#utility.yul\":15923:15927   */\n      dup2\n        /* \"#utility.yul\":15797:15928   */\n      tag_388\n      jump\t// in\n    tag_570:\n        /* \"#utility.yul\":15789:15928   */\n      swap1\n      pop\n        /* \"#utility.yul\":15516:15935   */\n      swap2\n      swap1\n      pop\n      jump\t// out\n        /* \"#utility.yul\":15941:16120   */\n    tag_389:\n        /* \"#utility.yul\":16081:16112   */\n      0x45524332303a20696e73756666696369656e7420616c6c6f77616e6365000000\n        /* \"#utility.yul\":16077:16078   */\n      0x00\n        /* \"#utility.yul\":16069:16075   */\n      dup3\n        /* \"#utility.yul\":16065:16079   */\n      add\n        /* \"#utility.yul\":16058:16113   */\n      mstore\n        /* \"#utility.yul\":15941:16120   */\n      pop\n      jump\t// out\n        /* \"#utility.yul\":16126:16492   */\n    tag_390:\n        /* \"#utility.yul\":16268:16271   */\n      0x00\n        /* \"#utility.yul\":16289:16356   */\n      tag_573\n        /* \"#utility.yul\":16353:16355   */\n      0x1d\n        /* \"#utility.yul\":16348:16351   */\n      dup4\n        /* \"#utility.yul\":16289:16356   */\n      tag_350\n      jump\t// in\n    tag_573:\n        /* \"#utility.yul\":16282:16356   */\n      swap2\n      pop\n        /* \"#utility.yul\":16365:16458   */\n      tag_574\n        /* \"#utility.yul\":16454:16457   */\n      dup3\n        /* \"#utility.yul\":16365:16458   */\n      tag_389\n      jump\t// in\n    tag_574:\n        /* \"#utility.yul\":16483:16485   */\n      0x20\n        /* \"#utility.yul\":16478:16481   */\n      dup3\n        /* \"#utility.yul\":16474:16486   */\n      add\n        /* \"#utility.yul\":16467:16486   */\n      swap1\n      pop\n        /* \"#utility.yul\":16126:16492   */\n      swap2\n      swap1\n      pop\n      jump\t// out\n        /* \"#utility.yul\":16498:16917   */\n    tag_227:\n        /* \"#utility.yul\":16664:16668   */\n      0x00\n        /* \"#utility.yul\":16702:16704   */\n      0x20\n        /* \"#utility.yul\":16691:16700   */\n      dup3\n        /* \"#utility.yul\":16687:16705   */\n      add\n        /* \"#utility.yul\":16679:16705   */\n      swap1\n      pop\n        /* \"#utility.yul\":16751:16760   */\n      dup2\n        /* \"#utility.yul\":16745:16749   */\n      dup2\n        /* \"#utility.yul\":16741:16761   */\n      sub\n        /* \"#utility.yul\":16737:16738   */\n      0x00\n        /* \"#utility.yul\":16726:16735   */\n      dup4\n        /* \"#utility.yul\":16722:16739   */\n      add\n        /* \"#utility.yul\":16715:16762   */\n      mstore\n        /* \"#utility.yul\":16779:16910   */\n      tag_576\n        /* \"#utility.yul\":16905:16909   */\n      dup2\n        /* \"#utility.yul\":16779:16910   */\n      tag_390\n      jump\t// in\n    tag_576:\n        /* \"#utility.yul\":16771:16910   */\n      swap1\n      pop\n        /* \"#utility.yul\":16498:16917   */\n      swap2\n      swap1\n      pop\n      jump\t// out\n        /* \"#utility.yul\":16923:17147   */\n    tag_391:\n        /* \"#utility.yul\":17063:17097   */\n      0x45524332303a207472616e736665722066726f6d20746865207a65726f206164\n        /* \"#utility.yul\":17059:17060   */\n      0x00\n        /* \"#utility.yul\":17051:17057   */\n      dup3\n        /* \"#utility.yul\":17047:17061   */\n      add\n        /* \"#utility.yul\":17040:17098   */\n      mstore\n        /* \"#utility.yul\":17132:17139   */\n      0x6472657373000000000000000000000000000000000000000000000000000000\n        /* \"#utility.yul\":17127:17129   */\n      0x20\n        /* \"#utility.yul\":17119:17125   */\n      dup3\n        /* \"#utility.yul\":17115:17130   */\n      add\n        /* \"#utility.yul\":17108:17140   */\n      mstore\n        /* \"#utility.yul\":16923:17147   */\n      pop\n      jump\t// out\n        /* \"#utility.yul\":17153:17519   */\n    tag_392:\n        /* \"#utility.yul\":17295:17298   */\n      0x00\n        /* \"#utility.yul\":17316:17383   */\n      tag_579\n        /* \"#utility.yul\":17380:17382   */\n      0x25\n        /* \"#utility.yul\":17375:17378   */\n      dup4\n        /* \"#utility.yul\":17316:17383   */\n      tag_350\n      jump\t// in\n    tag_579:\n        /* \"#utility.yul\":17309:17383   */\n      swap2\n      pop\n        /* \"#utility.yul\":17392:17485   */\n      tag_580\n        /* \"#utility.yul\":17481:17484   */\n      dup3\n        /* \"#utility.yul\":17392:17485   */\n      tag_391\n      jump\t// in\n    tag_580:\n        /* \"#utility.yul\":17510:17512   */\n      0x40\n        /* \"#utility.yul\":17505:17508   */\n      dup3\n        /* \"#utility.yul\":17501:17513   */\n      add\n        /* \"#utility.yul\":17494:17513   */\n      swap1\n      pop\n        /* \"#utility.yul\":17153:17519   */\n      swap2\n      swap1\n      pop\n      jump\t// out\n        /* \"#utility.yul\":17525:17944   */\n    tag_232:\n        /* \"#utility.yul\":17691:17695   */\n      0x00\n        /* \"#utility.yul\":17729:17731   */\n      0x20\n        /* \"#utility.yul\":17718:17727   */\n      dup3\n        /* \"#utility.yul\":17714:17732   */\n      add\n        /* \"#utility.yul\":17706:17732   */\n      swap1\n      pop\n        /* \"#utility.yul\":17778:17787   */\n      dup2\n        /* \"#utility.yul\":17772:17776   */\n      dup2\n        /* \"#utility.yul\":17768:17788   */\n      sub\n        /* \"#utility.yul\":17764:17765   */\n      0x00\n        /* \"#utility.yul\":17753:17762   */\n      dup4\n        /* \"#utility.yul\":17749:17766   */\n      add\n        /* \"#utility.yul\":17742:17789   */\n      mstore\n        /* \"#utility.yul\":17806:17937   */\n      tag_582\n        /* \"#utility.yul\":17932:17936   */\n      dup2\n        /* \"#utility.yul\":17806:17937   */\n      tag_392\n      jump\t// in\n    tag_582:\n        /* \"#utility.yul\":17798:17937   */\n      swap1\n      pop\n        /* \"#utility.yul\":17525:17944   */\n      swap2\n      swap1\n      pop\n      jump\t// out\n        /* \"#utility.yul\":17950:18172   */\n    tag_393:\n        /* \"#utility.yul\":18090:18124   */\n      0x45524332303a207472616e7366657220746f20746865207a65726f2061646472\n        /* \"#utility.yul\":18086:18087   */\n      0x00\n        /* \"#utility.yul\":18078:18084   */\n      dup3\n        /* \"#utility.yul\":18074:18088   */\n      add\n        /* \"#utility.yul\":18067:18125   */\n      mstore\n        /* \"#utility.yul\":18159:18164   */\n      0x6573730000000000000000000000000000000000000000000000000000000000\n        /* \"#utility.yul\":18154:18156   */\n      0x20\n        /* \"#utility.yul\":18146:18152   */\n      dup3\n        /* \"#utility.yul\":18142:18157   */\n      add\n        /* \"#utility.yul\":18135:18165   */\n      mstore\n        /* \"#utility.yul\":17950:18172   */\n      pop\n      jump\t// out\n        /* \"#utility.yul\":18178:18544   */\n    tag_394:\n        /* \"#utility.yul\":18320:18323   */\n      0x00\n        /* \"#utility.yul\":18341:18408   */\n      tag_585\n        /* \"#utility.yul\":18405:18407   */\n      0x23\n        /* \"#utility.yul\":18400:18403   */\n      dup4\n        /* \"#utility.yul\":18341:18408   */\n      tag_350\n      jump\t// in\n    tag_585:\n        /* \"#utility.yul\":18334:18408   */\n      swap2\n      pop\n        /* \"#utility.yul\":18417:18510   */\n      tag_586\n        /* \"#utility.yul\":18506:18509   */\n      dup3\n        /* \"#utility.yul\":18417:18510   */\n      tag_393\n      jump\t// in\n    tag_586:\n        /* \"#utility.yul\":18535:18537   */\n      0x40\n        /* \"#utility.yul\":18530:18533   */\n      dup3\n        /* \"#utility.yul\":18526:18538   */\n      add\n        /* \"#utility.yul\":18519:18538   */\n      swap1\n      pop\n        /* \"#utility.yul\":18178:18544   */\n      swap2\n      swap1\n      pop\n      jump\t// out\n        /* \"#utility.yul\":18550:18969   */\n    tag_235:\n        /* \"#utility.yul\":18716:18720   */\n      0x00\n        /* \"#utility.yul\":18754:18756   */\n      0x20\n        /* \"#utility.yul\":18743:18752   */\n      dup3\n        /* \"#utility.yul\":18739:18757   */\n      add\n        /* \"#utility.yul\":18731:18757   */\n      swap1\n      pop\n        /* \"#utility.yul\":18803:18812   */\n      dup2\n        /* \"#utility.yul\":18797:18801   */\n      dup2\n        /* \"#utility.yul\":18793:18813   */\n      sub\n        /* \"#utility.yul\":18789:18790   */\n      0x00\n        /* \"#utility.yul\":18778:18787   */\n      dup4\n        /* \"#utility.yul\":18774:18791   */\n      add\n        /* \"#utility.yul\":18767:18814   */\n      mstore\n        /* \"#utility.yul\":18831:18962   */\n      tag_588\n        /* \"#utility.yul\":18957:18961   */\n      dup2\n        /* \"#utility.yul\":18831:18962   */\n      tag_394\n      jump\t// in\n    tag_588:\n        /* \"#utility.yul\":18823:18962   */\n      swap1\n      pop\n        /* \"#utility.yul\":18550:18969   */\n      swap2\n      swap1\n      pop\n      jump\t// out\n        /* \"#utility.yul\":18975:19200   */\n    tag_395:\n        /* \"#utility.yul\":19115:19149   */\n      0x45524332303a207472616e7366657220616d6f756e7420657863656564732062\n        /* \"#utility.yul\":19111:19112   */\n      0x00\n        /* \"#utility.yul\":19103:19109   */\n      dup3\n        /* \"#utility.yul\":19099:19113   */\n      add\n        /* \"#utility.yul\":19092:19150   */\n      mstore\n        /* \"#utility.yul\":19184:19192   */\n      0x616c616e63650000000000000000000000000000000000000000000000000000\n        /* \"#utility.yul\":19179:19181   */\n      0x20\n        /* \"#utility.yul\":19171:19177   */\n      dup3\n        /* \"#utility.yul\":19167:19182   */\n      add\n        /* \"#utility.yul\":19160:19193   */\n      mstore\n        /* \"#utility.yul\":18975:19200   */\n      pop\n      jump\t// out\n        /* \"#utility.yul\":19206:19572   */\n    tag_396:\n        /* \"#utility.yul\":19348:19351   */\n      0x00\n        /* \"#utility.yul\":19369:19436   */\n      tag_591\n        /* \"#utility.yul\":19433:19435   */\n      0x26\n        /* \"#utility.yul\":19428:19431   */\n      dup4\n        /* \"#utility.yul\":19369:19436   */\n      tag_350\n      jump\t// in\n    tag_591:\n        /* \"#utility.yul\":19362:19436   */\n      swap2\n      pop\n        /* \"#utility.yul\":19445:19538   */\n      tag_592\n        /* \"#utility.yul\":19534:19537   */\n      dup3\n        /* \"#utility.yul\":19445:19538   */\n      tag_395\n      jump\t// in\n    tag_592:\n        /* \"#utility.yul\":19563:19565   */\n      0x40\n        /* \"#utility.yul\":19558:19561   */\n      dup3\n        /* \"#utility.yul\":19554:19566   */\n      add\n        /* \"#utility.yul\":19547:19566   */\n      swap1\n      pop\n        /* \"#utility.yul\":19206:19572   */\n      swap2\n      swap1\n      pop\n      jump\t// out\n        /* \"#utility.yul\":19578:19997   */\n    tag_240:\n        /* \"#utility.yul\":19744:19748   */\n      0x00\n        /* \"#utility.yul\":19782:19784   */\n      0x20\n        /* \"#utility.yul\":19771:19780   */\n      dup3\n        /* \"#utility.yul\":19767:19785   */\n      add\n        /* \"#utility.yul\":19759:19785   */\n      swap1\n      pop\n        /* \"#utility.yul\":19831:19840   */\n      dup2\n        /* \"#utility.yul\":19825:19829   */\n      dup2\n        /* \"#utility.yul\":19821:19841   */\n      sub\n        /* \"#utility.yul\":19817:19818   */\n      0x00\n        /* \"#utility.yul\":19806:19815   */\n      dup4\n        /* \"#utility.yul\":19802:19819   */\n      add\n        /* \"#utility.yul\":19795:19842   */\n      mstore\n        /* \"#utility.yul\":19859:19990   */\n      tag_594\n        /* \"#utility.yul\":19985:19989   */\n      dup2\n        /* \"#utility.yul\":19859:19990   */\n      tag_396\n      jump\t// in\n    tag_594:\n        /* \"#utility.yul\":19851:19990   */\n      swap1\n      pop\n        /* \"#utility.yul\":19578:19997   */\n      swap2\n      swap1\n      pop\n      jump\t// out\n        /* \"#utility.yul\":20003:20185   */\n    tag_397:\n        /* \"#utility.yul\":20143:20177   */\n      0x4f776e61626c653a2063616c6c6572206973206e6f7420746865206f776e6572\n        /* \"#utility.yul\":20139:20140   */\n      0x00\n        /* \"#utility.yul\":20131:20137   */\n      dup3\n        /* \"#utility.yul\":20127:20141   */\n      add\n        /* \"#utility.yul\":20120:20178   */\n      mstore\n        /* \"#utility.yul\":20003:20185   */\n      pop\n      jump\t// out\n        /* \"#utility.yul\":20191:20557   */\n    tag_398:\n        /* \"#utility.yul\":20333:20336   */\n      0x00\n        /* \"#utility.yul\":20354:20421   */\n      tag_597\n        /* \"#utility.yul\":20418:20420   */\n      0x20\n        /* \"#utility.yul\":20413:20416   */\n      dup4\n        /* \"#utility.yul\":20354:20421   */\n      tag_350\n      jump\t// in\n    tag_597:\n        /* \"#utility.yul\":20347:20421   */\n      swap2\n      pop\n        /* \"#utility.yul\":20430:20523   */\n      tag_598\n        /* \"#utility.yul\":20519:20522   */\n      dup3\n        /* \"#utility.yul\":20430:20523   */\n      tag_397\n      jump\t// in\n    tag_598:\n        /* \"#utility.yul\":20548:20550   */\n      0x20\n        /* \"#utility.yul\":20543:20546   */\n      dup3\n        /* \"#utility.yul\":20539:20551   */\n      add\n        /* \"#utility.yul\":20532:20551   */\n      swap1\n      pop\n        /* \"#utility.yul\":20191:20557   */\n      swap2\n      swap1\n      pop\n      jump\t// out\n        /* \"#utility.yul\":20563:20982   */\n    tag_249:\n        /* \"#utility.yul\":20729:20733   */\n      0x00\n        /* \"#utility.yul\":20767:20769   */\n      0x20\n        /* \"#utility.yul\":20756:20765   */\n      dup3\n        /* \"#utility.yul\":20752:20770   */\n      add\n        /* \"#utility.yul\":20744:20770   */\n      swap1\n      pop\n        /* \"#utility.yul\":20816:20825   */\n      dup2\n        /* \"#utility.yul\":20810:20814   */\n      dup2\n        /* \"#utility.yul\":20806:20826   */\n      sub\n        /* \"#utility.yul\":20802:20803   */\n      0x00\n        /* \"#utility.yul\":20791:20800   */\n      dup4\n        /* \"#utility.yul\":20787:20804   */\n      add\n        /* \"#utility.yul\":20780:20827   */\n      mstore\n        /* \"#utility.yul\":20844:20975   */\n      tag_600\n        /* \"#utility.yul\":20970:20974   */\n      dup2\n        /* \"#utility.yul\":20844:20975   */\n      tag_398\n      jump\t// in\n    tag_600:\n        /* \"#utility.yul\":20836:20975   */\n      swap1\n      pop\n        /* \"#utility.yul\":20563:20982   */\n      swap2\n      swap1\n      pop\n      jump\t// out\n        /* \"#utility.yul\":20988:21169   */\n    tag_399:\n        /* \"#utility.yul\":21128:21161   */\n      0x45524332303a206d696e7420746f20746865207a65726f206164647265737300\n        /* \"#utility.yul\":21124:21125   */\n      0x00\n        /* \"#utility.yul\":21116:21122   */\n      dup3\n        /* \"#utility.yul\":21112:21126   */\n      add\n        /* \"#utility.yul\":21105:21162   */\n      mstore\n        /* \"#utility.yul\":20988:21169   */\n      pop\n      jump\t// out\n        /* \"#utility.yul\":21175:21541   */\n    tag_400:\n        /* \"#utility.yul\":21317:21320   */\n      0x00\n        /* \"#utility.yul\":21338:21405   */\n      tag_603\n        /* \"#utility.yul\":21402:21404   */\n      0x1f\n        /* \"#utility.yul\":21397:21400   */\n      dup4\n        /* \"#utility.yul\":21338:21405   */\n      tag_350\n      jump\t// in\n    tag_603:\n        /* \"#utility.yul\":21331:21405   */\n      swap2\n      pop\n        /* \"#utility.yul\":21414:21507   */\n      tag_604\n        /* \"#utility.yul\":21503:21506   */\n      dup3\n        /* \"#utility.yul\":21414:21507   */\n      tag_399\n      jump\t// in\n    tag_604:\n        /* \"#utility.yul\":21532:21534   */\n      0x20\n        /* \"#utility.yul\":21527:21530   */\n      dup3\n        /* \"#utility.yul\":21523:21535   */\n      add\n        /* \"#utility.yul\":21516:21535   */\n      swap1\n      pop\n        /* \"#utility.yul\":21175:21541   */\n      swap2\n      swap1\n      pop\n      jump\t// out\n        /* \"#utility.yul\":21547:21966   */\n    tag_259:\n        /* \"#utility.yul\":21713:21717   */\n      0x00\n        /* \"#utility.yul\":21751:21753   */\n      0x20\n        /* \"#utility.yul\":21740:21749   */\n      dup3\n        /* \"#utility.yul\":21736:21754   */\n      add\n        /* \"#utility.yul\":21728:21754   */\n      swap1\n      pop\n        /* \"#utility.yul\":21800:21809   */\n      dup2\n        /* \"#utility.yul\":21794:21798   */\n      dup2\n        /* \"#utility.yul\":21790:21810   */\n      sub\n        /* \"#utility.yul\":21786:21787   */\n      0x00\n        /* \"#utility.yul\":21775:21784   */\n      dup4\n        /* \"#utility.yul\":21771:21788   */\n      add\n        /* \"#utility.yul\":21764:21811   */\n      mstore\n        /* \"#utility.yul\":21828:21959   */\n      tag_606\n        /* \"#utility.yul\":21954:21958   */\n      dup2\n        /* \"#utility.yul\":21828:21959   */\n      tag_400\n      jump\t// in\n    tag_606:\n        /* \"#utility.yul\":21820:21959   */\n      swap1\n      pop\n        /* \"#utility.yul\":21547:21966   */\n      swap2\n      swap1\n      pop\n      jump\t// out\n        /* \"#utility.yul\":21972:22192   */\n    tag_401:\n        /* \"#utility.yul\":22112:22146   */\n      0x45524332303a206275726e2066726f6d20746865207a65726f20616464726573\n        /* \"#utility.yul\":22108:22109   */\n      0x00\n        /* \"#utility.yul\":22100:22106   */\n      dup3\n        /* \"#utility.yul\":22096:22110   */\n      add\n        /* \"#utility.yul\":22089:22147   */\n      mstore\n        /* \"#utility.yul\":22181:22184   */\n      0x7300000000000000000000000000000000000000000000000000000000000000\n        /* \"#utility.yul\":22176:22178   */\n      0x20\n        /* \"#utility.yul\":22168:22174   */\n      dup3\n        /* \"#utility.yul\":22164:22179   */\n      add\n        /* \"#utility.yul\":22157:22185   */\n      mstore\n        /* \"#utility.yul\":21972:22192   */\n      pop\n      jump\t// out\n        /* \"#utility.yul\":22198:22564   */\n    tag_402:\n        /* \"#utility.yul\":22340:22343   */\n      0x00\n        /* \"#utility.yul\":22361:22428   */\n      tag_609\n        /* \"#utility.yul\":22425:22427   */\n      0x21\n        /* \"#utility.yul\":22420:22423   */\n      dup4\n        /* \"#utility.yul\":22361:22428   */\n      tag_350\n      jump\t// in\n    tag_609:\n        /* \"#utility.yul\":22354:22428   */\n      swap2\n      pop\n        /* \"#utility.yul\":22437:22530   */\n      tag_610\n        /* \"#utility.yul\":22526:22529   */\n      dup3\n        /* \"#utility.yul\":22437:22530   */\n      tag_401\n      jump\t// in\n    tag_610:\n        /* \"#utility.yul\":22555:22557   */\n      0x40\n        /* \"#utility.yul\":22550:22553   */\n      dup3\n        /* \"#utility.yul\":22546:22558   */\n      add\n        /* \"#utility.yul\":22539:22558   */\n      swap1\n      pop\n        /* \"#utility.yul\":22198:22564   */\n      swap2\n      swap1\n      pop\n      jump\t// out\n        /* \"#utility.yul\":22570:22989   */\n    tag_267:\n        /* \"#utility.yul\":22736:22740   */\n      0x00\n        /* \"#utility.yul\":22774:22776   */\n      0x20\n        /* \"#utility.yul\":22763:22772   */\n      dup3\n        /* \"#utility.yul\":22759:22777   */\n      add\n        /* \"#utility.yul\":22751:22777   */\n      swap1\n      pop\n        /* \"#utility.yul\":22823:22832   */\n      dup2\n        /* \"#utility.yul\":22817:22821   */\n      dup2\n        /* \"#utility.yul\":22813:22833   */\n      sub\n        /* \"#utility.yul\":22809:22810   */\n      0x00\n        /* \"#utility.yul\":22798:22807   */\n      dup4\n        /* \"#utility.yul\":22794:22811   */\n      add\n        /* \"#utility.yul\":22787:22834   */\n      mstore\n        /* \"#utility.yul\":22851:22982   */\n      tag_612\n        /* \"#utility.yul\":22977:22981   */\n      dup2\n        /* \"#utility.yul\":22851:22982   */\n      tag_402\n      jump\t// in\n    tag_612:\n        /* \"#utility.yul\":22843:22982   */\n      swap1\n      pop\n        /* \"#utility.yul\":22570:22989   */\n      swap2\n      swap1\n      pop\n      jump\t// out\n        /* \"#utility.yul\":22995:23216   */\n    tag_403:\n        /* \"#utility.yul\":23135:23169   */\n      0x45524332303a206275726e20616d6f756e7420657863656564732062616c616e\n        /* \"#utility.yul\":23131:23132   */\n      0x00\n        /* \"#utility.yul\":23123:23129   */\n      dup3\n        /* \"#utility.yul\":23119:23133   */\n      add\n        /* \"#utility.yul\":23112:23170   */\n      mstore\n        /* \"#utility.yul\":23204:23208   */\n      0x6365000000000000000000000000000000000000000000000000000000000000\n        /* \"#utility.yul\":23199:23201   */\n      0x20\n        /* \"#utility.yul\":23191:23197   */\n      dup3\n        /* \"#utility.yul\":23187:23202   */\n      add\n        /* \"#utility.yul\":23180:23209   */\n      mstore\n        /* \"#utility.yul\":22995:23216   */\n      pop\n      jump\t// out\n        /* \"#utility.yul\":23222:23588   */\n    tag_404:\n        /* \"#utility.yul\":23364:23367   */\n      0x00\n        /* \"#utility.yul\":23385:23452   */\n      tag_615\n        /* \"#utility.yul\":23449:23451   */\n      0x22\n        /* \"#utility.yul\":23444:23447   */\n      dup4\n        /* \"#utility.yul\":23385:23452   */\n      tag_350\n      jump\t// in\n    tag_615:\n        /* \"#utility.yul\":23378:23452   */\n      swap2\n      pop\n        /* \"#utility.yul\":23461:23554   */\n      tag_616\n        /* \"#utility.yul\":23550:23553   */\n      dup3\n        /* \"#utility.yul\":23461:23554   */\n      tag_403\n      jump\t// in\n    tag_616:\n        /* \"#utility.yul\":23579:23581   */\n      0x40\n        /* \"#utility.yul\":23574:23577   */\n      dup3\n        /* \"#utility.yul\":23570:23582   */\n      add\n        /* \"#utility.yul\":23563:23582   */\n      swap1\n      pop\n        /* \"#utility.yul\":23222:23588   */\n      swap2\n      swap1\n      pop\n      jump\t// out\n        /* \"#utility.yul\":23594:24013   */\n    tag_271:\n        /* \"#utility.yul\":23760:23764   */\n      0x00\n        /* \"#utility.yul\":23798:23800   */\n      0x20\n        /* \"#utility.yul\":23787:23796   */\n      dup3\n        /* \"#utility.yul\":23783:23801   */\n      add\n        /* \"#utility.yul\":23775:23801   */\n      swap1\n      pop\n        /* \"#utility.yul\":23847:23856   */\n      dup2\n        /* \"#utility.yul\":23841:23845   */\n      dup2\n        /* \"#utility.yul\":23837:23857   */\n      sub\n        /* \"#utility.yul\":23833:23834   */\n      0x00\n        /* \"#utility.yul\":23822:23831   */\n      dup4\n        /* \"#utility.yul\":23818:23835   */\n      add\n        /* \"#utility.yul\":23811:23858   */\n      mstore\n        /* \"#utility.yul\":23875:24006   */\n      tag_618\n        /* \"#utility.yul\":24001:24005   */\n      dup2\n        /* \"#utility.yul\":23875:24006   */\n      tag_404\n      jump\t// in\n    tag_618:\n        /* \"#utility.yul\":23867:24006   */\n      swap1\n      pop\n        /* \"#utility.yul\":23594:24013   */\n      swap2\n      swap1\n      pop\n      jump\t// out\n        /* \"#utility.yul\":24019:24249   */\n    tag_405:\n        /* \"#utility.yul\":24159:24193   */\n      0x496e697469616c697a61626c653a20636f6e7472616374206973206e6f742069\n        /* \"#utility.yul\":24155:24156   */\n      0x00\n        /* \"#utility.yul\":24147:24153   */\n      dup3\n        /* \"#utility.yul\":24143:24157   */\n      add\n        /* \"#utility.yul\":24136:24194   */\n      mstore\n        /* \"#utility.yul\":24228:24241   */\n      0x6e697469616c697a696e67000000000000000000000000000000000000000000\n        /* \"#utility.yul\":24223:24225   */\n      0x20\n        /* \"#utility.yul\":24215:24221   */\n      dup3\n        /* \"#utility.yul\":24211:24226   */\n      add\n        /* \"#utility.yul\":24204:24242   */\n      mstore\n        /* \"#utility.yul\":24019:24249   */\n      pop\n      jump\t// out\n        /* \"#utility.yul\":24255:24621   */\n    tag_406:\n        /* \"#utility.yul\":24397:24400   */\n      0x00\n        /* \"#utility.yul\":24418:24485   */\n      tag_621\n        /* \"#utility.yul\":24482:24484   */\n      0x2b\n        /* \"#utility.yul\":24477:24480   */\n      dup4\n        /* \"#utility.yul\":24418:24485   */\n      tag_350\n      jump\t// in\n    tag_621:\n        /* \"#utility.yul\":24411:24485   */\n      swap2\n      pop\n        /* \"#utility.yul\":24494:24587   */\n      tag_622\n        /* \"#utility.yul\":24583:24586   */\n      dup3\n        /* \"#utility.yul\":24494:24587   */\n      tag_405\n      jump\t// in\n    tag_622:\n        /* \"#utility.yul\":24612:24614   */\n      0x40\n        /* \"#utility.yul\":24607:24610   */\n      dup3\n        /* \"#utility.yul\":24603:24615   */\n      add\n        /* \"#utility.yul\":24596:24615   */\n      swap1\n      pop\n        /* \"#utility.yul\":24255:24621   */\n      swap2\n      swap1\n      pop\n      jump\t// out\n        /* \"#utility.yul\":24627:25046   */\n    tag_279:\n        /* \"#utility.yul\":24793:24797   */\n      0x00\n        /* \"#utility.yul\":24831:24833   */\n      0x20\n        /* \"#utility.yul\":24820:24829   */\n      dup3\n        /* \"#utility.yul\":24816:24834   */\n      add\n        /* \"#utility.yul\":24808:24834   */\n      swap1\n      pop\n        /* \"#utility.yul\":24880:24889   */\n      dup2\n        /* \"#utility.yul\":24874:24878   */\n      dup2\n        /* \"#utility.yul\":24870:24890   */\n      sub\n        /* \"#utility.yul\":24866:24867   */\n      0x00\n        /* \"#utility.yul\":24855:24864   */\n      dup4\n        /* \"#utility.yul\":24851:24868   */\n      add\n        /* \"#utility.yul\":24844:24891   */\n      mstore\n        /* \"#utility.yul\":24908:25039   */\n      tag_624\n        /* \"#utility.yul\":25034:25038   */\n      dup2\n        /* \"#utility.yul\":24908:25039   */\n      tag_406\n      jump\t// in\n    tag_624:\n        /* \"#utility.yul\":24900:25039   */\n      swap1\n      pop\n        /* \"#utility.yul\":24627:25046   */\n      swap2\n      swap1\n      pop\n      jump\t// out\n        /* \"#utility.yul\":25052:25222   */\n    tag_407:\n        /* \"#utility.yul\":25192:25214   */\n      0x5061757361626c653a206e6f7420706175736564000000000000000000000000\n        /* \"#utility.yul\":25188:25189   */\n      0x00\n        /* \"#utility.yul\":25180:25186   */\n      dup3\n        /* \"#utility.yul\":25176:25190   */\n      add\n        /* \"#utility.yul\":25169:25215   */\n      mstore\n        /* \"#utility.yul\":25052:25222   */\n      pop\n      jump\t// out\n        /* \"#utility.yul\":25228:25594   */\n    tag_408:\n        /* \"#utility.yul\":25370:25373   */\n      0x00\n        /* \"#utility.yul\":25391:25458   */\n      tag_627\n        /* \"#utility.yul\":25455:25457   */\n      0x14\n        /* \"#utility.yul\":25450:25453   */\n      dup4\n        /* \"#utility.yul\":25391:25458   */\n      tag_350\n      jump\t// in\n    tag_627:\n        /* \"#utility.yul\":25384:25458   */\n      swap2\n      pop\n        /* \"#utility.yul\":25467:25560   */\n      tag_628\n        /* \"#utility.yul\":25556:25559   */\n      dup3\n        /* \"#utility.yul\":25467:25560   */\n      tag_407\n      jump\t// in\n    tag_628:\n        /* \"#utility.yul\":25585:25587   */\n      0x20\n        /* \"#utility.yul\":25580:25583   */\n      dup3\n        /* \"#utility.yul\":25576:25588   */\n      add\n        /* \"#utility.yul\":25569:25588   */\n      swap1\n      pop\n        /* \"#utility.yul\":25228:25594   */\n      swap2\n      swap1\n      pop\n      jump\t// out\n        /* \"#utility.yul\":25600:26019   */\n    tag_315:\n        /* \"#utility.yul\":25766:25770   */\n      0x00\n        /* \"#utility.yul\":25804:25806   */\n      0x20\n        /* \"#utility.yul\":25793:25802   */\n      dup3\n        /* \"#utility.yul\":25789:25807   */\n      add\n        /* \"#utility.yul\":25781:25807   */\n      swap1\n      pop\n        /* \"#utility.yul\":25853:25862   */\n      dup2\n        /* \"#utility.yul\":25847:25851   */\n      dup2\n        /* \"#utility.yul\":25843:25863   */\n      sub\n        /* \"#utility.yul\":25839:25840   */\n      0x00\n        /* \"#utility.yul\":25828:25837   */\n      dup4\n        /* \"#utility.yul\":25824:25841   */\n      add\n        /* \"#utility.yul\":25817:25864   */\n      mstore\n        /* \"#utility.yul\":25881:26012   */\n      tag_630\n        /* \"#utility.yul\":26007:26011   */\n      dup2\n        /* \"#utility.yul\":25881:26012   */\n      tag_408\n      jump\t// in\n    tag_630:\n        /* \"#utility.yul\":25873:26012   */\n      swap1\n      pop\n        /* \"#utility.yul\":25600:26019   */\n      swap2\n      swap1\n      pop\n      jump\t// out\n        /* \"#utility.yul\":26025:26191   */\n    tag_409:\n        /* \"#utility.yul\":26165:26183   */\n      0x5061757361626c653a2070617573656400000000000000000000000000000000\n        /* \"#utility.yul\":26161:26162   */\n      0x00\n        /* \"#utility.yul\":26153:26159   */\n      dup3\n        /* \"#utility.yul\":26149:26163   */\n      add\n        /* \"#utility.yul\":26142:26184   */\n      mstore\n        /* \"#utility.yul\":26025:26191   */\n      pop\n      jump\t// out\n        /* \"#utility.yul\":26197:26563   */\n    tag_410:\n        /* \"#utility.yul\":26339:26342   */\n      0x00\n        /* \"#utility.yul\":26360:26427   */\n      tag_633\n        /* \"#utility.yul\":26424:26426   */\n      0x10\n        /* \"#utility.yul\":26419:26422   */\n      dup4\n        /* \"#utility.yul\":26360:26427   */\n      tag_350\n      jump\t// in\n    tag_633:\n        /* \"#utility.yul\":26353:26427   */\n      swap2\n      pop\n        /* \"#utility.yul\":26436:26529   */\n      tag_634\n        /* \"#utility.yul\":26525:26528   */\n      dup3\n        /* \"#utility.yul\":26436:26529   */\n      tag_409\n      jump\t// in\n    tag_634:\n        /* \"#utility.yul\":26554:26556   */\n      0x20\n        /* \"#utility.yul\":26549:26552   */\n      dup3\n        /* \"#utility.yul\":26545:26557   */\n      add\n        /* \"#utility.yul\":26538:26557   */\n      swap1\n      pop\n        /* \"#utility.yul\":26197:26563   */\n      swap2\n      swap1\n      pop\n      jump\t// out\n        /* \"#utility.yul\":26569:26988   */\n    tag_337:\n        /* \"#utility.yul\":26735:26739   */\n      0x00\n        /* \"#utility.yul\":26773:26775   */\n      0x20\n        /* \"#utility.yul\":26762:26771   */\n      dup3\n        /* \"#utility.yul\":26758:26776   */\n      add\n        /* \"#utility.yul\":26750:26776   */\n      swap1\n      pop\n        /* \"#utility.yul\":26822:26831   */\n      dup2\n        /* \"#utility.yul\":26816:26820   */\n      dup2\n        /* \"#utility.yul\":26812:26832   */\n      sub\n        /* \"#utility.yul\":26808:26809   */\n      0x00\n        /* \"#utility.yul\":26797:26806   */\n      dup4\n        /* \"#utility.yul\":26793:26810   */\n      add\n        /* \"#utility.yul\":26786:26833   */\n      mstore\n        /* \"#utility.yul\":26850:26981   */\n      tag_636\n        /* \"#utility.yul\":26976:26980   */\n      dup2\n        /* \"#utility.yul\":26850:26981   */\n      tag_410\n      jump\t// in\n    tag_636:\n        /* \"#utility.yul\":26842:26981   */\n      swap1\n      pop\n        /* \"#utility.yul\":26569:26988   */\n      swap2\n      swap1\n      pop\n      jump\t// out\n\n    auxdata: 0xa264697066735822122007d0818009867f05d8a2f72469d0ad744c0fffac90cf3e5d851b5948c3eec9cc64736f6c63430008090033\n}\n",
				"bytecode": {
					"linkReferences": {},
					"object": "60806040523480156200001157600080fd5b50620000226200002860201b60201c565b620001d3565b600060019054906101000a900460ff16156200007b576040517f08c379a0000000000000000000000000000000000000000000000000000000008152600401620000729062000176565b60405180910390fd5b60ff801660008054906101000a900460ff1660ff161015620000ed5760ff6000806101000a81548160ff021916908360ff1602179055507f7f26b83ff96e1f2b6a682f133852f6798a09c465da95921460cefb384740249860ff604051620000e49190620001b6565b60405180910390a15b565b600082825260208201905092915050565b7f496e697469616c697a61626c653a20636f6e747261637420697320696e69746960008201527f616c697a696e6700000000000000000000000000000000000000000000000000602082015250565b60006200015e602783620000ef565b91506200016b8262000100565b604082019050919050565b6000602082019050818103600083015262000191816200014f565b9050919050565b600060ff82169050919050565b620001b08162000198565b82525050565b6000602082019050620001cd6000830184620001a5565b92915050565b61276380620001e36000396000f3fe608060405234801561001057600080fd5b50600436106101375760003560e01c806370a08231116100b85780638da5cb5b1161007c5780638da5cb5b146102f057806395d89b411461030e578063a457c2d71461032c578063a9059cbb1461035c578063dd62ed3e1461038c578063f2fde38b146103bc57610137565b806370a0823114610286578063715018a6146102b657806379cc6790146102c05780638129fc1c146102dc5780638456cb59146102e657610137565b806339509351116100ff57806339509351146101f65780633f4ba83a1461022657806340c10f191461023057806342966c681461024c5780635c975abb1461026857610137565b806306fdde031461013c578063095ea7b31461015a57806318160ddd1461018a57806323b872dd146101a8578063313ce567146101d8575b600080fd5b6101446103d8565b6040516101519190611904565b60405180910390f35b610174600480360381019061016f91906119bf565b61046a565b6040516101819190611a1a565b60405180910390f35b61019261048d565b60405161019f9190611a44565b60405180910390f35b6101c260048036038101906101bd9190611a5f565b610497565b6040516101cf9190611a1a565b60405180910390f35b6101e06104c6565b6040516101ed9190611ace565b60405180910390f35b610210600480360381019061020b91906119bf565b6104cf565b60405161021d9190611a1a565b60405180910390f35b61022e610506565b005b61024a600480360381019061024591906119bf565b610518565b005b61026660048036038101906102619190611ae9565b61052e565b005b610270610542565b60405161027d9190611a1a565b60405180910390f35b6102a0600480360381019061029b9190611b16565b610559565b6040516102ad9190611a44565b60405180910390f35b6102be6105a2565b005b6102da60048036038101906102d591906119bf565b6105b6565b005b6102e46105d6565b005b6102ee6107c3565b005b6102f86107d5565b6040516103059190611b52565b60405180910390f35b6103166107ff565b6040516103239190611904565b60405180910390f35b610346600480360381019061034191906119bf565b610891565b6040516103539190611a1a565b60405180910390f35b610376600480360381019061037191906119bf565b610908565b6040516103839190611a1a565b60405180910390f35b6103a660048036038101906103a19190611b6d565b61092b565b6040516103b39190611a44565b60405180910390f35b6103d660048036038101906103d19190611b16565b6109b2565b005b6060603680546103e790611bdc565b80601f016020809104026020016040519081016040528092919081815260200182805461041390611bdc565b80156104605780601f1061043557610100808354040283529160200191610460565b820191906000526020600020905b81548152906001019060200180831161044357829003601f168201915b5050505050905090565b600080610475610a36565b9050610482818585610a3e565b600191505092915050565b6000603554905090565b6000806104a2610a36565b90506104af858285610c09565b6104ba858585610c95565b60019150509392505050565b60006012905090565b6000806104da610a36565b90506104fb8185856104ec858961092b565b6104f69190611c3d565b610a3e565b600191505092915050565b61050e610f10565b610516610f8e565b565b610520610f10565b61052a8282610ff1565b5050565b61053f610539610a36565b82611149565b50565b6000609760009054906101000a900460ff16905090565b6000603360008373ffffffffffffffffffffffffffffffffffffffff1673ffffffffffffffffffffffffffffffffffffffff168152602001908152602001600020549050919050565b6105aa610f10565b6105b46000611319565b565b6105c8826105c2610a36565b83610c09565b6105d28282611149565b5050565b60008060019054906101000a900460ff161590508080156106075750600160008054906101000a900460ff1660ff16105b806106345750610616306113df565b1580156106335750600160008054906101000a900460ff1660ff16145b5b610673576040517f08c379a000000000000000000000000000000000000000000000000000000000815260040161066a90611d05565b60405180910390fd5b60016000806101000a81548160ff021916908360ff16021790555080156106b0576001600060016101000a81548160ff0219169083151502179055505b6107246040518060400160405280600a81526020017f536d617274546f6b656e000000000000000000000000000000000000000000008152506040518060400160405280600381526020017f534d540000000000000000000000000000000000000000000000000000000000815250611402565b61072c61145f565b6107346114b0565b61073c611509565b610767336107486104c6565b600a6107549190611e58565b620f42406107629190611ea3565b610ff1565b80156107c05760008060016101000a81548160ff0219169083151502179055507f7f26b83ff96e1f2b6a682f133852f6798a09c465da95921460cefb384740249860016040516107b79190611f42565b60405180910390a15b50565b6107cb610f10565b6107d3611562565b565b600060c960009054906101000a900473ffffffffffffffffffffffffffffffffffffffff16905090565b60606037805461080e90611bdc565b80601f016020809104026020016040519081016040528092919081815260200182805461083a90611bdc565b80156108875780601f1061085c57610100808354040283529160200191610887565b820191906000526020600020905b81548152906001019060200180831161086a57829003601f168201915b5050505050905090565b60008061089c610a36565b905060006108aa828661092b565b9050838110156108ef576040517f08c379a00000000000000000000000000000000000000000000000000000000081526004016108e690611fcf565b60405180910390fd5b6108fc8286868403610a3e565b60019250505092915050565b600080610913610a36565b9050610920818585610c95565b600191505092915050565b6000603460008473ffffffffffffffffffffffffffffffffffffffff1673ffffffffffffffffffffffffffffffffffffffff16815260200190815260200160002060008373ffffffffffffffffffffffffffffffffffffffff1673ffffffffffffffffffffffffffffffffffffffff16815260200190815260200160002054905092915050565b6109ba610f10565b600073ffffffffffffffffffffffffffffffffffffffff168173ffffffffffffffffffffffffffffffffffffffff161415610a2a576040517f08c379a0000000000000000000000000000000000000000000000000000000008152600401610a2190612061565b60405180910390fd5b610a3381611319565b50565b600033905090565b600073ffffffffffffffffffffffffffffffffffffffff168373ffffffffffffffffffffffffffffffffffffffff161415610aae576040517f08c379a0000000000000000000000000000000000000000000000000000000008152600401610aa5906120f3565b60405180910390fd5b600073ffffffffffffffffffffffffffffffffffffffff168273ffffffffffffffffffffffffffffffffffffffff161415610b1e576040517f08c379a0000000000000000000000000000000000000000000000000000000008152600401610b1590612185565b60405180910390fd5b80603460008573ffffffffffffffffffffffffffffffffffffffff1673ffffffffffffffffffffffffffffffffffffffff16815260200190815260200160002060008473ffffffffffffffffffffffffffffffffffffffff1673ffffffffffffffffffffffffffffffffffffffff168152602001908152602001600020819055508173ffffffffffffffffffffffffffffffffffffffff168373ffffffffffffffffffffffffffffffffffffffff167f8c5be1e5ebec7d5bd14f71427d1e84f3dd0314c0f7b2291e5b200ac8c7c3b92583604051610bfc9190611a44565b60405180910390a3505050565b6000610c15848461092b565b90507fffffffffffffffffffffffffffffffffffffffffffffffffffffffffffffffff8114610c8f5781811015610c81576040517f08c379a0000000000000000000000000000000000000000000000000000000008152600401610c78906121f1565b60405180910390fd5b610c8e8484848403610a3e565b5b50505050565b600073ffffffffffffffffffffffffffffffffffffffff168373ffffffffffffffffffffffffffffffffffffffff161415610d05576040517f08c379a0000000000000000000000000000000000000000000000000000000008152600401610cfc90612283565b60405180910390fd5b600073ffffffffffffffffffffffffffffffffffffffff168273ffffffffffffffffffffffffffffffffffffffff161415610d75576040517f08c379a0000000000000000000000000000000000000000000000000000000008152600401610d6c90612315565b60405180910390fd5b610d808383836115c5565b6000603360008573ffffffffffffffffffffffffffffffffffffffff1673ffffffffffffffffffffffffffffffffffffffff16815260200190815260200160002054905081811015610e07576040517f08c379a0000000000000000000000000000000000000000000000000000000008152600401610dfe906123a7565b60405180910390fd5b818103603360008673ffffffffffffffffffffffffffffffffffffffff1673ffffffffffffffffffffffffffffffffffffffff1681526020019081526020016000208190555081603360008573ffffffffffffffffffffffffffffffffffffffff1673ffffffffffffffffffffffffffffffffffffffff168152602001908152602001600020600082825401925050819055508273ffffffffffffffffffffffffffffffffffffffff168473ffffffffffffffffffffffffffffffffffffffff167fddf252ad1be2c89b69c2b068fc378daa952ba7f163c4a11628f55a4df523b3ef84604051610ef79190611a44565b60405180910390a3610f0a8484846115dd565b50505050565b610f18610a36565b73ffffffffffffffffffffffffffffffffffffffff16610f366107d5565b73ffffffffffffffffffffffffffffffffffffffff1614610f8c576040517f08c379a0000000000000000000000000000000000000000000000000000000008152600401610f8390612413565b60405180910390fd5b565b610f966115e2565b6000609760006101000a81548160ff0219169083151502179055507f5db9ee0a495bf2e6ff9c91a7834c1ba4fdd244a5e8aa4e537bd38aeae4b073aa610fda610a36565b604051610fe79190611b52565b60405180910390a1565b600073ffffffffffffffffffffffffffffffffffffffff168273ffffffffffffffffffffffffffffffffffffffff161415611061576040517f08c379a00000000000000000000000000000000000000000000000000000000081526004016110589061247f565b60405180910390fd5b61106d600083836115c5565b806035600082825461107f9190611c3d565b9250508190555080603360008473ffffffffffffffffffffffffffffffffffffffff1673ffffffffffffffffffffffffffffffffffffffff168152602001908152602001600020600082825401925050819055508173ffffffffffffffffffffffffffffffffffffffff16600073ffffffffffffffffffffffffffffffffffffffff167fddf252ad1be2c89b69c2b068fc378daa952ba7f163c4a11628f55a4df523b3ef836040516111319190611a44565b60405180910390a3611145600083836115dd565b5050565b600073ffffffffffffffffffffffffffffffffffffffff168273ffffffffffffffffffffffffffffffffffffffff1614156111b9576040517f08c379a00000000000000000000000000000000000000000000000000000000081526004016111b090612511565b60405180910390fd5b6111c5826000836115c5565b6000603360008473ffffffffffffffffffffffffffffffffffffffff1673ffffffffffffffffffffffffffffffffffffffff1681526020019081526020016000205490508181101561124c576040517f08c379a0000000000000000000000000000000000000000000000000000000008152600401611243906125a3565b60405180910390fd5b818103603360008573ffffffffffffffffffffffffffffffffffffffff1673ffffffffffffffffffffffffffffffffffffffff1681526020019081526020016000208190555081603560008282540392505081905550600073ffffffffffffffffffffffffffffffffffffffff168373ffffffffffffffffffffffffffffffffffffffff167fddf252ad1be2c89b69c2b068fc378daa952ba7f163c4a11628f55a4df523b3ef846040516113009190611a44565b60405180910390a3611314836000846115dd565b505050565b600060c960009054906101000a900473ffffffffffffffffffffffffffffffffffffffff1690508160c960006101000a81548173ffffffffffffffffffffffffffffffffffffffff021916908373ffffffffffffffffffffffffffffffffffffffff1602179055508173ffffffffffffffffffffffffffffffffffffffff168173ffffffffffffffffffffffffffffffffffffffff167f8be0079c531659141344cd1fd0a4f28419497f9722a3daafe3b4186f6b6457e060405160405180910390a35050565b6000808273ffffffffffffffffffffffffffffffffffffffff163b119050919050565b600060019054906101000a900460ff16611451576040517f08c379a000000000000000000000000000000000000000000000000000000000815260040161144890612635565b60405180910390fd5b61145b828261162b565b5050565b600060019054906101000a900460ff166114ae576040517f08c379a00000000000000000000000000000000000000000000000000000000081526004016114a590612635565b60405180910390fd5b565b600060019054906101000a900460ff166114ff576040517f08c379a00000000000000000000000000000000000000000000000000000000081526004016114f690612635565b60405180910390fd5b6115076116ac565b565b600060019054906101000a900460ff16611558576040517f08c379a000000000000000000000000000000000000000000000000000000000815260040161154f90612635565b60405180910390fd5b611560611718565b565b61156a611779565b6001609760006101000a81548160ff0219169083151502179055507f62e78cea01bee320cd4e420270b5ea74000d11b0c9f74754ebdbfc544b05a2586115ae610a36565b6040516115bb9190611b52565b60405180910390a1565b6115cd611779565b6115d88383836117c3565b505050565b505050565b6115ea610542565b611629576040517f08c379a0000000000000000000000000000000000000000000000000000000008152600401611620906126a1565b60405180910390fd5b565b600060019054906101000a900460ff1661167a576040517f08c379a000000000000000000000000000000000000000000000000000000000815260040161167190612635565b60405180910390fd5b81603690805190602001906116909291906117c8565b5080603790805190602001906116a79291906117c8565b505050565b600060019054906101000a900460ff166116fb576040517f08c379a00000000000000000000000000000000000000000000000000000000081526004016116f290612635565b60405180910390fd5b6000609760006101000a81548160ff021916908315150217905550565b600060019054906101000a900460ff16611767576040517f08c379a000000000000000000000000000000000000000000000000000000000815260040161175e90612635565b60405180910390fd5b611777611772610a36565b611319565b565b611781610542565b156117c1576040517f08c379a00000000000000000000000000000000000000000000000000000000081526004016117b89061270d565b60405180910390fd5b565b505050565b8280546117d490611bdc565b90600052602060002090601f0160209004810192826117f6576000855561183d565b82601f1061180f57805160ff191683800117855561183d565b8280016001018555821561183d579182015b8281111561183c578251825591602001919060010190611821565b5b50905061184a919061184e565b5090565b5b8082111561186757600081600090555060010161184f565b5090565b600081519050919050565b600082825260208201905092915050565b60005b838110156118a557808201518184015260208101905061188a565b838111156118b4576000848401525b50505050565b6000601f19601f8301169050919050565b60006118d68261186b565b6118e08185611876565b93506118f0818560208601611887565b6118f9816118ba565b840191505092915050565b6000602082019050818103600083015261191e81846118cb565b905092915050565b600080fd5b600073ffffffffffffffffffffffffffffffffffffffff82169050919050565b60006119568261192b565b9050919050565b6119668161194b565b811461197157600080fd5b50565b6000813590506119838161195d565b92915050565b6000819050919050565b61199c81611989565b81146119a757600080fd5b50565b6000813590506119b981611993565b92915050565b600080604083850312156119d6576119d5611926565b5b60006119e485828601611974565b92505060206119f5858286016119aa565b9150509250929050565b60008115159050919050565b611a14816119ff565b82525050565b6000602082019050611a2f6000830184611a0b565b92915050565b611a3e81611989565b82525050565b6000602082019050611a596000830184611a35565b92915050565b600080600060608486031215611a7857611a77611926565b5b6000611a8686828701611974565b9350506020611a9786828701611974565b9250506040611aa8868287016119aa565b9150509250925092565b600060ff82169050919050565b611ac881611ab2565b82525050565b6000602082019050611ae36000830184611abf565b92915050565b600060208284031215611aff57611afe611926565b5b6000611b0d848285016119aa565b91505092915050565b600060208284031215611b2c57611b2b611926565b5b6000611b3a84828501611974565b91505092915050565b611b4c8161194b565b82525050565b6000602082019050611b676000830184611b43565b92915050565b60008060408385031215611b8457611b83611926565b5b6000611b9285828601611974565b9250506020611ba385828601611974565b9150509250929050565b7f4e487b7100000000000000000000000000000000000000000000000000000000600052602260045260246000fd5b60006002820490506001821680611bf457607f821691505b60208210811415611c0857611c07611bad565b5b50919050565b7f4e487b7100000000000000000000000000000000000000000000000000000000600052601160045260246000fd5b6000611c4882611989565b9150611c5383611989565b9250827fffffffffffffffffffffffffffffffffffffffffffffffffffffffffffffffff03821115611c8857611c87611c0e565b5b828201905092915050565b7f496e697469616c697a61626c653a20636f6e747261637420697320616c72656160008201527f647920696e697469616c697a6564000000000000000000000000000000000000602082015250565b6000611cef602e83611876565b9150611cfa82611c93565b604082019050919050565b60006020820190508181036000830152611d1e81611ce2565b9050919050565b60008160011c9050919050565b6000808291508390505b6001851115611d7c57808604811115611d5857611d57611c0e565b5b6001851615611d675780820291505b8081029050611d7585611d25565b9450611d3c565b94509492505050565b600082611d955760019050611e51565b81611da35760009050611e51565b8160018114611db95760028114611dc357611df2565b6001915050611e51565b60ff841115611dd557611dd4611c0e565b5b8360020a915084821115611dec57611deb611c0e565b5b50611e51565b5060208310610133831016604e8410600b8410161715611e275782820a905083811115611e2257611e21611c0e565b5b611e51565b611e348484846001611d32565b92509050818404811115611e4b57611e4a611c0e565b5b81810290505b9392505050565b6000611e6382611989565b9150611e6e83611ab2565b9250611e9b7fffffffffffffffffffffffffffffffffffffffffffffffffffffffffffffffff8484611d85565b905092915050565b6000611eae82611989565b9150611eb983611989565b9250817fffffffffffffffffffffffffffffffffffffffffffffffffffffffffffffffff0483118215151615611ef257611ef1611c0e565b5b828202905092915050565b6000819050919050565b6000819050919050565b6000611f2c611f27611f2284611efd565b611f07565b611ab2565b9050919050565b611f3c81611f11565b82525050565b6000602082019050611f576000830184611f33565b92915050565b7f45524332303a2064656372656173656420616c6c6f77616e63652062656c6f7760008201527f207a65726f000000000000000000000000000000000000000000000000000000602082015250565b6000611fb9602583611876565b9150611fc482611f5d565b604082019050919050565b60006020820190508181036000830152611fe881611fac565b9050919050565b7f4f776e61626c653a206e6577206f776e657220697320746865207a65726f206160008201527f6464726573730000000000000000000000000000000000000000000000000000602082015250565b600061204b602683611876565b915061205682611fef565b604082019050919050565b6000602082019050818103600083015261207a8161203e565b9050919050565b7f45524332303a20617070726f76652066726f6d20746865207a65726f2061646460008201527f7265737300000000000000000000000000000000000000000000000000000000602082015250565b60006120dd602483611876565b91506120e882612081565b604082019050919050565b6000602082019050818103600083015261210c816120d0565b9050919050565b7f45524332303a20617070726f766520746f20746865207a65726f20616464726560008201527f7373000000000000000000000000000000000000000000000000000000000000602082015250565b600061216f602283611876565b915061217a82612113565b604082019050919050565b6000602082019050818103600083015261219e81612162565b9050919050565b7f45524332303a20696e73756666696369656e7420616c6c6f77616e6365000000600082015250565b60006121db601d83611876565b91506121e6826121a5565b602082019050919050565b6000602082019050818103600083015261220a816121ce565b9050919050565b7f45524332303a207472616e736665722066726f6d20746865207a65726f20616460008201527f6472657373000000000000000000000000000000000000000000000000000000602082015250565b600061226d602583611876565b915061227882612211565b604082019050919050565b6000602082019050818103600083015261229c81612260565b9050919050565b7f45524332303a207472616e7366657220746f20746865207a65726f206164647260008201527f6573730000000000000000000000000000000000000000000000000000000000602082015250565b60006122ff602383611876565b915061230a826122a3565b604082019050919050565b6000602082019050818103600083015261232e816122f2565b9050919050565b7f45524332303a207472616e7366657220616d6f756e742065786365656473206260008201527f616c616e63650000000000000000000000000000000000000000000000000000602082015250565b6000612391602683611876565b915061239c82612335565b604082019050919050565b600060208201905081810360008301526123c081612384565b9050919050565b7f4f776e61626c653a2063616c6c6572206973206e6f7420746865206f776e6572600082015250565b60006123fd602083611876565b9150612408826123c7565b602082019050919050565b6000602082019050818103600083015261242c816123f0565b9050919050565b7f45524332303a206d696e7420746f20746865207a65726f206164647265737300600082015250565b6000612469601f83611876565b915061247482612433565b602082019050919050565b600060208201905081810360008301526124988161245c565b9050919050565b7f45524332303a206275726e2066726f6d20746865207a65726f2061646472657360008201527f7300000000000000000000000000000000000000000000000000000000000000602082015250565b60006124fb602183611876565b91506125068261249f565b604082019050919050565b6000602082019050818103600083015261252a816124ee565b9050919050565b7f45524332303a206275726e20616d6f756e7420657863656564732062616c616e60008201527f6365000000000000000000000000000000000000000000000000000000000000602082015250565b600061258d602283611876565b915061259882612531565b604082019050919050565b600060208201905081810360008301526125bc81612580565b9050919050565b7f496e697469616c697a61626c653a20636f6e7472616374206973206e6f74206960008201527f6e697469616c697a696e67000000000000000000000000000000000000000000602082015250565b600061261f602b83611876565b915061262a826125c3565b604082019050919050565b6000602082019050818103600083015261264e81612612565b9050919050565b7f5061757361626c653a206e6f7420706175736564000000000000000000000000600082015250565b600061268b601483611876565b915061269682612655565b602082019050919050565b600060208201905081810360008301526126ba8161267e565b9050919050565b7f5061757361626c653a2070617573656400000000000000000000000000000000600082015250565b60006126f7601083611876565b9150612702826126c1565b602082019050919050565b60006020820190508181036000830152612726816126ea565b905091905056fea264697066735822122007d0818009867f05d8a2f72469d0ad744c0fffac90cf3e5d851b5948c3eec9cc64736f6c63430008090033",
					"opcodes": "PUSH1 0x80 PUSH1 0x40 MSTORE CALLVALUE DUP1 ISZERO PUSH3 0x11 JUMPI PUSH1 0x0 DUP1 REVERT JUMPDEST POP PUSH3 0x22 PUSH3 0x28 PUSH1 0x20 SHL PUSH1 0x20 SHR JUMP JUMPDEST PUSH3 0x1D3 JUMP JUMPDEST PUSH1 0x0 PUSH1 0x1 SWAP1 SLOAD SWAP1 PUSH2 0x100 EXP SWAP1 DIV PUSH1 0xFF AND ISZERO PUSH3 0x7B JUMPI PUSH1 0x40 MLOAD PUSH32 0x8C379A000000000000000000000000000000000000000000000000000000000 DUP2 MSTORE PUSH1 0x4 ADD PUSH3 0x72 SWAP1 PUSH3 0x176 JUMP JUMPDEST PUSH1 0x40 MLOAD DUP1 SWAP2 SUB SWAP1 REVERT JUMPDEST PUSH1 0xFF DUP1 AND PUSH1 0x0 DUP1 SLOAD SWAP1 PUSH2 0x100 EXP SWAP1 DIV PUSH1 0xFF AND PUSH1 0xFF AND LT ISZERO PUSH3 0xED JUMPI PUSH1 0xFF PUSH1 0x0 DUP1 PUSH2 0x100 EXP DUP2 SLOAD DUP2 PUSH1 0xFF MUL NOT AND SWAP1 DUP4 PUSH1 0xFF AND MUL OR SWAP1 SSTORE POP PUSH32 0x7F26B83FF96E1F2B6A682F133852F6798A09C465DA95921460CEFB3847402498 PUSH1 0xFF PUSH1 0x40 MLOAD PUSH3 0xE4 SWAP2 SWAP1 PUSH3 0x1B6 JUMP JUMPDEST PUSH1 0x40 MLOAD DUP1 SWAP2 SUB SWAP1 LOG1 JUMPDEST JUMP JUMPDEST PUSH1 0x0 DUP3 DUP3 MSTORE PUSH1 0x20 DUP3 ADD SWAP1 POP SWAP3 SWAP2 POP POP JUMP JUMPDEST PUSH32 0x496E697469616C697A61626C653A20636F6E747261637420697320696E697469 PUSH1 0x0 DUP3 ADD MSTORE PUSH32 0x616C697A696E6700000000000000000000000000000000000000000000000000 PUSH1 0x20 DUP3 ADD MSTORE POP JUMP JUMPDEST PUSH1 0x0 PUSH3 0x15E PUSH1 0x27 DUP4 PUSH3 0xEF JUMP JUMPDEST SWAP2 POP PUSH3 0x16B DUP3 PUSH3 0x100 JUMP JUMPDEST PUSH1 0x40 DUP3 ADD SWAP1 POP SWAP2 SWAP1 POP JUMP JUMPDEST PUSH1 0x0 PUSH1 0x20 DUP3 ADD SWAP1 POP DUP2 DUP2 SUB PUSH1 0x0 DUP4 ADD MSTORE PUSH3 0x191 DUP2 PUSH3 0x14F JUMP JUMPDEST SWAP1 POP SWAP2 SWAP1 POP JUMP JUMPDEST PUSH1 0x0 PUSH1 0xFF DUP3 AND SWAP1 POP SWAP2 SWAP1 POP JUMP JUMPDEST PUSH3 0x1B0 DUP2 PUSH3 0x198 JUMP JUMPDEST DUP3 MSTORE POP POP JUMP JUMPDEST PUSH1 0x0 PUSH1 0x20 DUP3 ADD SWAP1 POP PUSH3 0x1CD PUSH1 0x0 DUP4 ADD DUP5 PUSH3 0x1A5 JUMP JUMPDEST SWAP3 SWAP2 POP POP JUMP JUMPDEST PUSH2 0x2763 DUP1 PUSH3 0x1E3 PUSH1 0x0 CODECOPY PUSH1 0x0 RETURN INVALID PUSH1 0x80 PUSH1 0x40 MSTORE CALLVALUE DUP1 ISZERO PUSH2 0x10 JUMPI PUSH1 0x0 DUP1 REVERT JUMPDEST POP PUSH1 0x4 CALLDATASIZE LT PUSH2 0x137 JUMPI PUSH1 0x0 CALLDATALOAD PUSH1 0xE0 SHR DUP1 PUSH4 0x70A08231 GT PUSH2 0xB8 JUMPI DUP1 PUSH4 0x8DA5CB5B GT PUSH2 0x7C JUMPI DUP1 PUSH4 0x8DA5CB5B EQ PUSH2 0x2F0 JUMPI DUP1 PUSH4 0x95D89B41 EQ PUSH2 0x30E JUMPI DUP1 PUSH4 0xA457C2D7 EQ PUSH2 0x32C JUMPI DUP1 PUSH4 0xA9059CBB EQ PUSH2 0x35C JUMPI DUP1 PUSH4 0xDD62ED3E EQ PUSH2 0x38C JUMPI DUP1 PUSH4 0xF2FDE38B EQ PUSH2 0x3BC JUMPI PUSH2 0x137 JUMP JUMPDEST DUP1 PUSH4 0x70A08231 EQ PUSH2 0x286 JUMPI DUP1 PUSH4 0x715018A6 EQ PUSH2 0x2B6 JUMPI DUP1 PUSH4 0x79CC6790 EQ PUSH2 0x2C0 JUMPI DUP1 PUSH4 0x8129FC1C EQ PUSH2 0x2DC JUMPI DUP1 PUSH4 0x8456CB59 EQ PUSH2 0x2E6 JUMPI PUSH2 0x137 JUMP JUMPDEST DUP1 PUSH4 0x39509351 GT PUSH2 0xFF JUMPI DUP1 PUSH4 0x39509351 EQ PUSH2 0x1F6 JUMPI DUP1 PUSH4 0x3F4BA83A EQ PUSH2 0x226 JUMPI DUP1 PUSH4 0x40C10F19 EQ PUSH2 0x230 JUMPI DUP1 PUSH4 0x42966C68 EQ PUSH2 0x24C JUMPI DUP1 PUSH4 0x5C975ABB EQ PUSH2 0x268 JUMPI PUSH2 0x137 JUMP JUMPDEST DUP1 PUSH4 0x6FDDE03 EQ PUSH2 0x13C JUMPI DUP1 PUSH4 0x95EA7B3 EQ PUSH2 0x15A JUMPI DUP1 PUSH4 0x18160DDD EQ PUSH2 0x18A JUMPI DUP1 PUSH4 0x23B872DD EQ PUSH2 0x1A8 JUMPI DUP1 PUSH4 0x313CE567 EQ PUSH2 0x1D8 JUMPI JUMPDEST PUSH1 0x0 DUP1 REVERT JUMPDEST PUSH2 0x144 PUSH2 0x3D8 JUMP JUMPDEST PUSH1 0x40 MLOAD PUSH2 0x151 SWAP2 SWAP1 PUSH2 0x1904 JUMP JUMPDEST PUSH1 0x40 MLOAD DUP1 SWAP2 SUB SWAP1 RETURN JUMPDEST PUSH2 0x174 PUSH1 0x4 DUP1 CALLDATASIZE SUB DUP2 ADD SWAP1 PUSH2 0x16F SWAP2 SWAP1 PUSH2 0x19BF JUMP JUMPDEST PUSH2 0x46A JUMP JUMPDEST PUSH1 0x40 MLOAD PUSH2 0x181 SWAP2 SWAP1 PUSH2 0x1A1A JUMP JUMPDEST PUSH1 0x40 MLOAD DUP1 SWAP2 SUB SWAP1 RETURN JUMPDEST PUSH2 0x192 PUSH2 0x48D JUMP JUMPDEST PUSH1 0x40 MLOAD PUSH2 0x19F SWAP2 SWAP1 PUSH2 0x1A44 JUMP JUMPDEST PUSH1 0x40 MLOAD DUP1 SWAP2 SUB SWAP1 RETURN JUMPDEST PUSH2 0x1C2 PUSH1 0x4 DUP1 CALLDATASIZE SUB DUP2 ADD SWAP1 PUSH2 0x1BD SWAP2 SWAP1 PUSH2 0x1A5F JUMP JUMPDEST PUSH2 0x497 JUMP JUMPDEST PUSH1 0x40 MLOAD PUSH2 0x1CF SWAP2 SWAP1 PUSH2 0x1A1A JUMP JUMPDEST PUSH1 0x40 MLOAD DUP1 SWAP2 SUB SWAP1 RETURN JUMPDEST PUSH2 0x1E0 PUSH2 0x4C6 JUMP JUMPDEST PUSH1 0x40 MLOAD PUSH2 0x1ED SWAP2 SWAP1 PUSH2 0x1ACE JUMP JUMPDEST PUSH1 0x40 MLOAD DUP1 SWAP2 SUB SWAP1 RETURN JUMPDEST PUSH2 0x210 PUSH1 0x4 DUP1 CALLDATASIZE SUB DUP2 ADD SWAP1 PUSH2 0x20B SWAP2 SWAP1 PUSH2 0x19BF JUMP JUMPDEST PUSH2 0x4CF JUMP JUMPDEST PUSH1 0x40 MLOAD PUSH2 0x21D SWAP2 SWAP1 PUSH2 0x1A1A JUMP JUMPDEST PUSH1 0x40 MLOAD DUP1 SWAP2 SUB SWAP1 RETURN JUMPDEST PUSH2 0x22E PUSH2 0x506 JUMP JUMPDEST STOP JUMPDEST PUSH2 0x24A PUSH1 0x4 DUP1 CALLDATASIZE SUB DUP2 ADD SWAP1 PUSH2 0x245 SWAP2 SWAP1 PUSH2 0x19BF JUMP JUMPDEST PUSH2 0x518 JUMP JUMPDEST STOP JUMPDEST PUSH2 0x266 PUSH1 0x4 DUP1 CALLDATASIZE SUB DUP2 ADD SWAP1 PUSH2 0x261 SWAP2 SWAP1 PUSH2 0x1AE9 JUMP JUMPDEST PUSH2 0x52E JUMP JUMPDEST STOP JUMPDEST PUSH2 0x270 PUSH2 0x542 JUMP JUMPDEST PUSH1 0x40 MLOAD PUSH2 0x27D SWAP2 SWAP1 PUSH2 0x1A1A JUMP JUMPDEST PUSH1 0x40 MLOAD DUP1 SWAP2 SUB SWAP1 RETURN JUMPDEST PUSH2 0x2A0 PUSH1 0x4 DUP1 CALLDATASIZE SUB DUP2 ADD SWAP1 PUSH2 0x29B SWAP2 SWAP1 PUSH2 0x1B16 JUMP JUMPDEST PUSH2 0x559 JUMP JUMPDEST PUSH1 0x40 MLOAD PUSH2 0x2AD SWAP2 SWAP1 PUSH2 0x1A44 JUMP JUMPDEST PUSH1 0x40 MLOAD DUP1 SWAP2 SUB SWAP1 RETURN JUMPDEST PUSH2 0x2BE PUSH2 0x5A2 JUMP JUMPDEST STOP JUMPDEST PUSH2 0x2DA PUSH1 0x4 DUP1 CALLDATASIZE SUB DUP2 ADD SWAP1 PUSH2 0x2D5 SWAP2 SWAP1 PUSH2 0x19BF JUMP JUMPDEST PUSH2 0x5B6 JUMP JUMPDEST STOP JUMPDEST PUSH2 0x2E4 PUSH2 0x5D6 JUMP JUMPDEST STOP JUMPDEST PUSH2 0x2EE PUSH2 0x7C3 JUMP JUMPDEST STOP JUMPDEST PUSH2 0x2F8 PUSH2 0x7D5 JUMP JUMPDEST PUSH1 0x40 MLOAD PUSH2 0x305 SWAP2 SWAP1 PUSH2 0x1B52 JUMP JUMPDEST PUSH1 0x40 MLOAD DUP1 SWAP2 SUB SWAP1 RETURN JUMPDEST PUSH2 0x316 PUSH2 0x7FF JUMP JUMPDEST PUSH1 0x40 MLOAD PUSH2 0x323 SWAP2 SWAP1 PUSH2 0x1904 JUMP JUMPDEST PUSH1 0x40 MLOAD DUP1 SWAP2 SUB SWAP1 RETURN JUMPDEST PUSH2 0x346 PUSH1 0x4 DUP1 CALLDATASIZE SUB DUP2 ADD SWAP1 PUSH2 0x341 SWAP2 SWAP1 PUSH2 0x19BF JUMP JUMPDEST PUSH2 0x891 JUMP JUMPDEST PUSH1 0x40 MLOAD PUSH2 0x353 SWAP2 SWAP1 PUSH2 0x1A1A JUMP JUMPDEST PUSH1 0x40 MLOAD DUP1 SWAP2 SUB SWAP1 RETURN JUMPDEST PUSH2 0x376 PUSH1 0x4 DUP1 CALLDATASIZE SUB DUP2 ADD SWAP1 PUSH2 0x371 SWAP2 SWAP1 PUSH2 0x19BF JUMP JUMPDEST PUSH2 0x908 JUMP JUMPDEST PUSH1 0x40 MLOAD PUSH2 0x383 SWAP2 SWAP1 PUSH2 0x1A1A JUMP JUMPDEST PUSH1 0x40 MLOAD DUP1 SWAP2 SUB SWAP1 RETURN JUMPDEST PUSH2 0x3A6 PUSH1 0x4 DUP1 CALLDATASIZE SUB DUP2 ADD SWAP1 PUSH2 0x3A1 SWAP2 SWAP1 PUSH2 0x1B6D JUMP JUMPDEST PUSH2 0x92B JUMP JUMPDEST PUSH1 0x40 MLOAD PUSH2 0x3B3 SWAP2 SWAP1 PUSH2 0x1A44 JUMP JUMPDEST PUSH1 0x40 MLOAD DUP1 SWAP2 SUB SWAP1 RETURN JUMPDEST PUSH2 0x3D6 PUSH1 0x4 DUP1 CALLDATASIZE SUB DUP2 ADD SWAP1 PUSH2 0x3D1 SWAP2 SWAP1 PUSH2 0x1B16 JUMP JUMPDEST PUSH2 0x9B2 JUMP JUMPDEST STOP JUMPDEST PUSH1 0x60 PUSH1 0x36 DUP1 SLOAD PUSH2 0x3E7 SWAP1 PUSH2 0x1BDC JUMP JUMPDEST DUP1 PUSH1 0x1F ADD PUSH1 0x20 DUP1 SWAP2 DIV MUL PUSH1 0x20 ADD PUSH1 0x40 MLOAD SWAP1 DUP2 ADD PUSH1 0x40 MSTORE DUP1 SWAP3 SWAP2 SWAP1 DUP2 DUP2 MSTORE PUSH1 0x20 ADD DUP3 DUP1 SLOAD PUSH2 0x413 SWAP1 PUSH2 0x1BDC JUMP JUMPDEST DUP1 ISZERO PUSH2 0x460 JUMPI DUP1 PUSH1 0x1F LT PUSH2 0x435 JUMPI PUSH2 0x100 DUP1 DUP4 SLOAD DIV MUL DUP4 MSTORE SWAP2 PUSH1 0x20 ADD SWAP2 PUSH2 0x460 JUMP JUMPDEST DUP3 ADD SWAP2 SWAP1 PUSH1 0x0 MSTORE PUSH1 0x20 PUSH1 0x0 KECCAK256 SWAP1 JUMPDEST DUP2 SLOAD DUP2 MSTORE SWAP1 PUSH1 0x1 ADD SWAP1 PUSH1 0x20 ADD DUP1 DUP4 GT PUSH2 0x443 JUMPI DUP3 SWAP1 SUB PUSH1 0x1F AND DUP3 ADD SWAP2 JUMPDEST POP POP POP POP POP SWAP1 POP SWAP1 JUMP JUMPDEST PUSH1 0x0 DUP1 PUSH2 0x475 PUSH2 0xA36 JUMP JUMPDEST SWAP1 POP PUSH2 0x482 DUP2 DUP6 DUP6 PUSH2 0xA3E JUMP JUMPDEST PUSH1 0x1 SWAP2 POP POP SWAP3 SWAP2 POP POP JUMP JUMPDEST PUSH1 0x0 PUSH1 0x35 SLOAD SWAP1 POP SWAP1 JUMP JUMPDEST PUSH1 0x0 DUP1 PUSH2 0x4A2 PUSH2 0xA36 JUMP JUMPDEST SWAP1 POP PUSH2 0x4AF DUP6 DUP3 DUP6 PUSH2 0xC09 JUMP JUMPDEST PUSH2 0x4BA DUP6 DUP6 DUP6 PUSH2 0xC95 JUMP JUMPDEST PUSH1 0x1 SWAP2 POP POP SWAP4 SWAP3 POP POP POP JUMP JUMPDEST PUSH1 0x0 PUSH1 0x12 SWAP1 POP SWAP1 JUMP JUMPDEST PUSH1 0x0 DUP1 PUSH2 0x4DA PUSH2 0xA36 JUMP JUMPDEST SWAP1 POP PUSH2 0x4FB DUP2 DUP6 DUP6 PUSH2 0x4EC DUP6 DUP10 PUSH2 0x92B JUMP JUMPDEST PUSH2 0x4F6 SWAP2 SWAP1 PUSH2 0x1C3D JUMP JUMPDEST PUSH2 0xA3E JUMP JUMPDEST PUSH1 0x1 SWAP2 POP POP SWAP3 SWAP2 POP POP JUMP JUMPDEST PUSH2 0x50E PUSH2 0xF10 JUMP JUMPDEST PUSH2 0x516 PUSH2 0xF8E JUMP JUMPDEST JUMP JUMPDEST PUSH2 0x520 PUSH2 0xF10 JUMP JUMPDEST PUSH2 0x52A DUP3 DUP3 PUSH2 0xFF1 JUMP JUMPDEST POP POP JUMP JUMPDEST PUSH2 0x53F PUSH2 0x539 PUSH2 0xA36 JUMP JUMPDEST DUP3 PUSH2 0x1149 JUMP JUMPDEST POP JUMP JUMPDEST PUSH1 0x0 PUSH1 0x97 PUSH1 0x0 SWAP1 SLOAD SWAP1 PUSH2 0x100 EXP SWAP1 DIV PUSH1 0xFF AND SWAP1 POP SWAP1 JUMP JUMPDEST PUSH1 0x0 PUSH1 0x33 PUSH1 0x0 DUP4 PUSH20 0xFFFFFFFFFFFFFFFFFFFFFFFFFFFFFFFFFFFFFFFF AND PUSH20 0xFFFFFFFFFFFFFFFFFFFFFFFFFFFFFFFFFFFFFFFF AND DUP2 MSTORE PUSH1 0x20 ADD SWAP1 DUP2 MSTORE PUSH1 0x20 ADD PUSH1 0x0 KECCAK256 SLOAD SWAP1 POP SWAP2 SWAP1 POP JUMP JUMPDEST PUSH2 0x5AA PUSH2 0xF10 JUMP JUMPDEST PUSH2 0x5B4 PUSH1 0x0 PUSH2 0x1319 JUMP JUMPDEST JUMP JUMPDEST PUSH2 0x5C8 DUP3 PUSH2 0x5C2 PUSH2 0xA36 JUMP JUMPDEST DUP4 PUSH2 0xC09 JUMP JUMPDEST PUSH2 0x5D2 DUP3 DUP3 PUSH2 0x1149 JUMP JUMPDEST POP POP JUMP JUMPDEST PUSH1 0x0 DUP1 PUSH1 0x1 SWAP1 SLOAD SWAP1 PUSH2 0x100 EXP SWAP1 DIV PUSH1 0xFF AND ISZERO SWAP1 POP DUP1 DUP1 ISZERO PUSH2 0x607 JUMPI POP PUSH1 0x1 PUSH1 0x0 DUP1 SLOAD SWAP1 PUSH2 0x100 EXP SWAP1 DIV PUSH1 0xFF AND PUSH1 0xFF AND LT JUMPDEST DUP1 PUSH2 0x634 JUMPI POP PUSH2 0x616 ADDRESS PUSH2 0x13DF JUMP JUMPDEST ISZERO DUP1 ISZERO PUSH2 0x633 JUMPI POP PUSH1 0x1 PUSH1 0x0 DUP1 SLOAD SWAP1 PUSH2 0x100 EXP SWAP1 DIV PUSH1 0xFF AND PUSH1 0xFF AND EQ JUMPDEST JUMPDEST PUSH2 0x673 JUMPI PUSH1 0x40 MLOAD PUSH32 0x8C379A000000000000000000000000000000000000000000000000000000000 DUP2 MSTORE PUSH1 0x4 ADD PUSH2 0x66A SWAP1 PUSH2 0x1D05 JUMP JUMPDEST PUSH1 0x40 MLOAD DUP1 SWAP2 SUB SWAP1 REVERT JUMPDEST PUSH1 0x1 PUSH1 0x0 DUP1 PUSH2 0x100 EXP DUP2 SLOAD DUP2 PUSH1 0xFF MUL NOT AND SWAP1 DUP4 PUSH1 0xFF AND MUL OR SWAP1 SSTORE POP DUP1 ISZERO PUSH2 0x6B0 JUMPI PUSH1 0x1 PUSH1 0x0 PUSH1 0x1 PUSH2 0x100 EXP DUP2 SLOAD DUP2 PUSH1 0xFF MUL NOT AND SWAP1 DUP4 ISZERO ISZERO MUL OR SWAP1 SSTORE POP JUMPDEST PUSH2 0x724 PUSH1 0x40 MLOAD DUP1 PUSH1 0x40 ADD PUSH1 0x40 MSTORE DUP1 PUSH1 0xA DUP2 MSTORE PUSH1 0x20 ADD PUSH32 0x536D617274546F6B656E00000000000000000000000000000000000000000000 DUP2 MSTORE POP PUSH1 0x40 MLOAD DUP1 PUSH1 0x40 ADD PUSH1 0x40 MSTORE DUP1 PUSH1 0x3 DUP2 MSTORE PUSH1 0x20 ADD PUSH32 0x534D540000000000000000000000000000000000000000000000000000000000 DUP2 MSTORE POP PUSH2 0x1402 JUMP JUMPDEST PUSH2 0x72C PUSH2 0x145F JUMP JUMPDEST PUSH2 0x734 PUSH2 0x14B0 JUMP JUMPDEST PUSH2 0x73C PUSH2 0x1509 JUMP JUMPDEST PUSH2 0x767 CALLER PUSH2 0x748 PUSH2 0x4C6 JUMP JUMPDEST PUSH1 0xA PUSH2 0x754 SWAP2 SWAP1 PUSH2 0x1E58 JUMP JUMPDEST PUSH3 0xF4240 PUSH2 0x762 SWAP2 SWAP1 PUSH2 0x1EA3 JUMP JUMPDEST PUSH2 0xFF1 JUMP JUMPDEST DUP1 ISZERO PUSH2 0x7C0 JUMPI PUSH1 0x0 DUP1 PUSH1 0x1 PUSH2 0x100 EXP DUP2 SLOAD DUP2 PUSH1 0xFF MUL NOT AND SWAP1 DUP4 ISZERO ISZERO MUL OR SWAP1 SSTORE POP PUSH32 0x7F26B83FF96E1F2B6A682F133852F6798A09C465DA95921460CEFB3847402498 PUSH1 0x1 PUSH1 0x40 MLOAD PUSH2 0x7B7 SWAP2 SWAP1 PUSH2 0x1F42 JUMP JUMPDEST PUSH1 0x40 MLOAD DUP1 SWAP2 SUB SWAP1 LOG1 JUMPDEST POP JUMP JUMPDEST PUSH2 0x7CB PUSH2 0xF10 JUMP JUMPDEST PUSH2 0x7D3 PUSH2 0x1562 JUMP JUMPDEST JUMP JUMPDEST PUSH1 0x0 PUSH1 0xC9 PUSH1 0x0 SWAP1 SLOAD SWAP1 PUSH2 0x100 EXP SWAP1 DIV PUSH20 0xFFFFFFFFFFFFFFFFFFFFFFFFFFFFFFFFFFFFFFFF AND SWAP1 POP SWAP1 JUMP JUMPDEST PUSH1 0x60 PUSH1 0x37 DUP1 SLOAD PUSH2 0x80E SWAP1 PUSH2 0x1BDC JUMP JUMPDEST DUP1 PUSH1 0x1F ADD PUSH1 0x20 DUP1 SWAP2 DIV MUL PUSH1 0x20 ADD PUSH1 0x40 MLOAD SWAP1 DUP2 ADD PUSH1 0x40 MSTORE DUP1 SWAP3 SWAP2 SWAP1 DUP2 DUP2 MSTORE PUSH1 0x20 ADD DUP3 DUP1 SLOAD PUSH2 0x83A SWAP1 PUSH2 0x1BDC JUMP JUMPDEST DUP1 ISZERO PUSH2 0x887 JUMPI DUP1 PUSH1 0x1F LT PUSH2 0x85C JUMPI PUSH2 0x100 DUP1 DUP4 SLOAD DIV MUL DUP4 MSTORE SWAP2 PUSH1 0x20 ADD SWAP2 PUSH2 0x887 JUMP JUMPDEST DUP3 ADD SWAP2 SWAP1 PUSH1 0x0 MSTORE PUSH1 0x20 PUSH1 0x0 KECCAK256 SWAP1 JUMPDEST DUP2 SLOAD DUP2 MSTORE SWAP1 PUSH1 0x1 ADD SWAP1 PUSH1 0x20 ADD DUP1 DUP4 GT PUSH2 0x86A JUMPI DUP3 SWAP1 SUB PUSH1 0x1F AND DUP3 ADD SWAP2 JUMPDEST POP POP POP POP POP SWAP1 POP SWAP1 JUMP JUMPDEST PUSH1 0x0 DUP1 PUSH2 0x89C PUSH2 0xA36 JUMP JUMPDEST SWAP1 POP PUSH1 0x0 PUSH2 0x8AA DUP3 DUP7 PUSH2 0x92B JUMP JUMPDEST SWAP1 POP DUP4 DUP2 LT ISZERO PUSH2 0x8EF JUMPI PUSH1 0x40 MLOAD PUSH32 0x8C379A000000000000000000000000000000000000000000000000000000000 DUP2 MSTORE PUSH1 0x4 ADD PUSH2 0x8E6 SWAP1 PUSH2 0x1FCF JUMP JUMPDEST PUSH1 0x40 MLOAD DUP1 SWAP2 SUB SWAP1 REVERT JUMPDEST PUSH2 0x8FC DUP3 DUP7 DUP7 DUP5 SUB PUSH2 0xA3E JUMP JUMPDEST PUSH1 0x1 SWAP3 POP POP POP SWAP3 SWAP2 POP POP JUMP JUMPDEST PUSH1 0x0 DUP1 PUSH2 0x913 PUSH2 0xA36 JUMP JUMPDEST SWAP1 POP PUSH2 0x920 DUP2 DUP6 DUP6 PUSH2 0xC95 JUMP JUMPDEST PUSH1 0x1 SWAP2 POP POP SWAP3 SWAP2 POP POP JUMP JUMPDEST PUSH1 0x0 PUSH1 0x34 PUSH1 0x0 DUP5 PUSH20 0xFFFFFFFFFFFFFFFFFFFFFFFFFFFFFFFFFFFFFFFF AND PUSH20 0xFFFFFFFFFFFFFFFFFFFFFFFFFFFFFFFFFFFFFFFF AND DUP2 MSTORE PUSH1 0x20 ADD SWAP1 DUP2 MSTORE PUSH1 0x20 ADD PUSH1 0x0 KECCAK256 PUSH1 0x0 DUP4 PUSH20 0xFFFFFFFFFFFFFFFFFFFFFFFFFFFFFFFFFFFFFFFF AND PUSH20 0xFFFFFFFFFFFFFFFFFFFFFFFFFFFFFFFFFFFFFFFF AND DUP2 MSTORE PUSH1 0x20 ADD SWAP1 DUP2 MSTORE PUSH1 0x20 ADD PUSH1 0x0 KECCAK256 SLOAD SWAP1 POP SWAP3 SWAP2 POP POP JUMP JUMPDEST PUSH2 0x9BA PUSH2 0xF10 JUMP JUMPDEST PUSH1 0x0 PUSH20 0xFFFFFFFFFFFFFFFFFFFFFFFFFFFFFFFFFFFFFFFF AND DUP2 PUSH20 0xFFFFFFFFFFFFFFFFFFFFFFFFFFFFFFFFFFFFFFFF AND EQ ISZERO PUSH2 0xA2A JUMPI PUSH1 0x40 MLOAD PUSH32 0x8C379A000000000000000000000000000000000000000000000000000000000 DUP2 MSTORE PUSH1 0x4 ADD PUSH2 0xA21 SWAP1 PUSH2 0x2061 JUMP JUMPDEST PUSH1 0x40 MLOAD DUP1 SWAP2 SUB SWAP1 REVERT JUMPDEST PUSH2 0xA33 DUP2 PUSH2 0x1319 JUMP JUMPDEST POP JUMP JUMPDEST PUSH1 0x0 CALLER SWAP1 POP SWAP1 JUMP JUMPDEST PUSH1 0x0 PUSH20 0xFFFFFFFFFFFFFFFFFFFFFFFFFFFFFFFFFFFFFFFF AND DUP4 PUSH20 0xFFFFFFFFFFFFFFFFFFFFFFFFFFFFFFFFFFFFFFFF AND EQ ISZERO PUSH2 0xAAE JUMPI PUSH1 0x40 MLOAD PUSH32 0x8C379A000000000000000000000000000000000000000000000000000000000 DUP2 MSTORE PUSH1 0x4 ADD PUSH2 0xAA5 SWAP1 PUSH2 0x20F3 JUMP JUMPDEST PUSH1 0x40 MLOAD DUP1 SWAP2 SUB SWAP1 REVERT JUMPDEST PUSH1 0x0 PUSH20 0xFFFFFFFFFFFFFFFFFFFFFFFFFFFFFFFFFFFFFFFF AND DUP3 PUSH20 0xFFFFFFFFFFFFFFFFFFFFFFFFFFFFFFFFFFFFFFFF AND EQ ISZERO PUSH2 0xB1E JUMPI PUSH1 0x40 MLOAD PUSH32 0x8C379A000000000000000000000000000000000000000000000000000000000 DUP2 MSTORE PUSH1 0x4 ADD PUSH2 0xB15 SWAP1 PUSH2 0x2185 JUMP JUMPDEST PUSH1 0x40 MLOAD DUP1 SWAP2 SUB SWAP1 REVERT JUMPDEST DUP1 PUSH1 0x34 PUSH1 0x0 DUP6 PUSH20 0xFFFFFFFFFFFFFFFFFFFFFFFFFFFFFFFFFFFFFFFF AND PUSH20 0xFFFFFFFFFFFFFFFFFFFFFFFFFFFFFFFFFFFFFFFF AND DUP2 MSTORE PUSH1 0x20 ADD SWAP1 DUP2 MSTORE PUSH1 0x20 ADD PUSH1 0x0 KECCAK256 PUSH1 0x0 DUP5 PUSH20 0xFFFFFFFFFFFFFFFFFFFFFFFFFFFFFFFFFFFFFFFF AND PUSH20 0xFFFFFFFFFFFFFFFFFFFFFFFFFFFFFFFFFFFFFFFF AND DUP2 MSTORE PUSH1 0x20 ADD SWAP1 DUP2 MSTORE PUSH1 0x20 ADD PUSH1 0x0 KECCAK256 DUP2 SWAP1 SSTORE POP DUP2 PUSH20 0xFFFFFFFFFFFFFFFFFFFFFFFFFFFFFFFFFFFFFFFF AND DUP4 PUSH20 0xFFFFFFFFFFFFFFFFFFFFFFFFFFFFFFFFFFFFFFFF AND PUSH32 0x8C5BE1E5EBEC7D5BD14F71427D1E84F3DD0314C0F7B2291E5B200AC8C7C3B925 DUP4 PUSH1 0x40 MLOAD PUSH2 0xBFC SWAP2 SWAP1 PUSH2 0x1A44 JUMP JUMPDEST PUSH1 0x40 MLOAD DUP1 SWAP2 SUB SWAP1 LOG3 POP POP POP JUMP JUMPDEST PUSH1 0x0 PUSH2 0xC15 DUP5 DUP5 PUSH2 0x92B JUMP JUMPDEST SWAP1 POP PUSH32 0xFFFFFFFFFFFFFFFFFFFFFFFFFFFFFFFFFFFFFFFFFFFFFFFFFFFFFFFFFFFFFFFF DUP2 EQ PUSH2 0xC8F JUMPI DUP2 DUP2 LT ISZERO PUSH2 0xC81 JUMPI PUSH1 0x40 MLOAD PUSH32 0x8C379A000000000000000000000000000000000000000000000000000000000 DUP2 MSTORE PUSH1 0x4 ADD PUSH2 0xC78 SWAP1 PUSH2 0x21F1 JUMP JUMPDEST PUSH1 0x40 MLOAD DUP1 SWAP2 SUB SWAP1 REVERT JUMPDEST PUSH2 0xC8E DUP5 DUP5 DUP5 DUP5 SUB PUSH2 0xA3E JUMP JUMPDEST JUMPDEST POP POP POP POP JUMP JUMPDEST PUSH1 0x0 PUSH20 0xFFFFFFFFFFFFFFFFFFFFFFFFFFFFFFFFFFFFFFFF AND DUP4 PUSH20 0xFFFFFFFFFFFFFFFFFFFFFFFFFFFFFFFFFFFFFFFF AND EQ ISZERO PUSH2 0xD05 JUMPI PUSH1 0x40 MLOAD PUSH32 0x8C379A000000000000000000000000000000000000000000000000000000000 DUP2 MSTORE PUSH1 0x4 ADD PUSH2 0xCFC SWAP1 PUSH2 0x2283 JUMP JUMPDEST PUSH1 0x40 MLOAD DUP1 SWAP2 SUB SWAP1 REVERT JUMPDEST PUSH1 0x0 PUSH20 0xFFFFFFFFFFFFFFFFFFFFFFFFFFFFFFFFFFFFFFFF AND DUP3 PUSH20 0xFFFFFFFFFFFFFFFFFFFFFFFFFFFFFFFFFFFFFFFF AND EQ ISZERO PUSH2 0xD75 JUMPI PUSH1 0x40 MLOAD PUSH32 0x8C379A000000000000000000000000000000000000000000000000000000000 DUP2 MSTORE PUSH1 0x4 ADD PUSH2 0xD6C SWAP1 PUSH2 0x2315 JUMP JUMPDEST PUSH1 0x40 MLOAD DUP1 SWAP2 SUB SWAP1 REVERT JUMPDEST PUSH2 0xD80 DUP4 DUP4 DUP4 PUSH2 0x15C5 JUMP JUMPDEST PUSH1 0x0 PUSH1 0x33 PUSH1 0x0 DUP6 PUSH20 0xFFFFFFFFFFFFFFFFFFFFFFFFFFFFFFFFFFFFFFFF AND PUSH20 0xFFFFFFFFFFFFFFFFFFFFFFFFFFFFFFFFFFFFFFFF AND DUP2 MSTORE PUSH1 0x20 ADD SWAP1 DUP2 MSTORE PUSH1 0x20 ADD PUSH1 0x0 KECCAK256 SLOAD SWAP1 POP DUP2 DUP2 LT ISZERO PUSH2 0xE07 JUMPI PUSH1 0x40 MLOAD PUSH32 0x8C379A000000000000000000000000000000000000000000000000000000000 DUP2 MSTORE PUSH1 0x4 ADD PUSH2 0xDFE SWAP1 PUSH2 0x23A7 JUMP JUMPDEST PUSH1 0x40 MLOAD DUP1 SWAP2 SUB SWAP1 REVERT JUMPDEST DUP2 DUP2 SUB PUSH1 0x33 PUSH1 0x0 DUP7 PUSH20 0xFFFFFFFFFFFFFFFFFFFFFFFFFFFFFFFFFFFFFFFF AND PUSH20 0xFFFFFFFFFFFFFFFFFFFFFFFFFFFFFFFFFFFFFFFF AND DUP2 MSTORE PUSH1 0x20 ADD SWAP1 DUP2 MSTORE PUSH1 0x20 ADD PUSH1 0x0 KECCAK256 DUP2 SWAP1 SSTORE POP DUP2 PUSH1 0x33 PUSH1 0x0 DUP6 PUSH20 0xFFFFFFFFFFFFFFFFFFFFFFFFFFFFFFFFFFFFFFFF AND PUSH20 0xFFFFFFFFFFFFFFFFFFFFFFFFFFFFFFFFFFFFFFFF AND DUP2 MSTORE PUSH1 0x20 ADD SWAP1 DUP2 MSTORE PUSH1 0x20 ADD PUSH1 0x0 KECCAK256 PUSH1 0x0 DUP3 DUP3 SLOAD ADD SWAP3 POP POP DUP2 SWAP1 SSTORE POP DUP3 PUSH20 0xFFFFFFFFFFFFFFFFFFFFFFFFFFFFFFFFFFFFFFFF AND DUP5 PUSH20 0xFFFFFFFFFFFFFFFFFFFFFFFFFFFFFFFFFFFFFFFF AND PUSH32 0xDDF252AD1BE2C89B69C2B068FC378DAA952BA7F163C4A11628F55A4DF523B3EF DUP5 PUSH1 0x40 MLOAD PUSH2 0xEF7 SWAP2 SWAP1 PUSH2 0x1A44 JUMP JUMPDEST PUSH1 0x40 MLOAD DUP1 SWAP2 SUB SWAP1 LOG3 PUSH2 0xF0A DUP5 DUP5 DUP5 PUSH2 0x15DD JUMP JUMPDEST POP POP POP POP JUMP JUMPDEST PUSH2 0xF18 PUSH2 0xA36 JUMP JUMPDEST PUSH20 0xFFFFFFFFFFFFFFFFFFFFFFFFFFFFFFFFFFFFFFFF AND PUSH2 0xF36 PUSH2 0x7D5 JUMP JUMPDEST PUSH20 0xFFFFFFFFFFFFFFFFFFFFFFFFFFFFFFFFFFFFFFFF AND EQ PUSH2 0xF8C JUMPI PUSH1 0x40 MLOAD PUSH32 0x8C379A000000000000000000000000000000000000000000000000000000000 DUP2 MSTORE PUSH1 0x4 ADD PUSH2 0xF83 SWAP1 PUSH2 0x2413 JUMP JUMPDEST PUSH1 0x40 MLOAD DUP1 SWAP2 SUB SWAP1 REVERT JUMPDEST JUMP JUMPDEST PUSH2 0xF96 PUSH2 0x15E2 JUMP JUMPDEST PUSH1 0x0 PUSH1 0x97 PUSH1 0x0 PUSH2 0x100 EXP DUP2 SLOAD DUP2 PUSH1 0xFF MUL NOT AND SWAP1 DUP4 ISZERO ISZERO MUL OR SWAP1 SSTORE POP PUSH32 0x5DB9EE0A495BF2E6FF9C91A7834C1BA4FDD244A5E8AA4E537BD38AEAE4B073AA PUSH2 0xFDA PUSH2 0xA36 JUMP JUMPDEST PUSH1 0x40 MLOAD PUSH2 0xFE7 SWAP2 SWAP1 PUSH2 0x1B52 JUMP JUMPDEST PUSH1 0x40 MLOAD DUP1 SWAP2 SUB SWAP1 LOG1 JUMP JUMPDEST PUSH1 0x0 PUSH20 0xFFFFFFFFFFFFFFFFFFFFFFFFFFFFFFFFFFFFFFFF AND DUP3 PUSH20 0xFFFFFFFFFFFFFFFFFFFFFFFFFFFFFFFFFFFFFFFF AND EQ ISZERO PUSH2 0x1061 JUMPI PUSH1 0x40 MLOAD PUSH32 0x8C379A000000000000000000000000000000000000000000000000000000000 DUP2 MSTORE PUSH1 0x4 ADD PUSH2 0x1058 SWAP1 PUSH2 0x247F JUMP JUMPDEST PUSH1 0x40 MLOAD DUP1 SWAP2 SUB SWAP1 REVERT JUMPDEST PUSH2 0x106D PUSH1 0x0 DUP4 DUP4 PUSH2 0x15C5 JUMP JUMPDEST DUP1 PUSH1 0x35 PUSH1 0x0 DUP3 DUP3 SLOAD PUSH2 0x107F SWAP2 SWAP1 PUSH2 0x1C3D JUMP JUMPDEST SWAP3 POP POP DUP2 SWAP1 SSTORE POP DUP1 PUSH1 0x33 PUSH1 0x0 DUP5 PUSH20 0xFFFFFFFFFFFFFFFFFFFFFFFFFFFFFFFFFFFFFFFF AND PUSH20 0xFFFFFFFFFFFFFFFFFFFFFFFFFFFFFFFFFFFFFFFF AND DUP2 MSTORE PUSH1 0x20 ADD SWAP1 DUP2 MSTORE PUSH1 0x20 ADD PUSH1 0x0 KECCAK256 PUSH1 0x0 DUP3 DUP3 SLOAD ADD SWAP3 POP POP DUP2 SWAP1 SSTORE POP DUP2 PUSH20 0xFFFFFFFFFFFFFFFFFFFFFFFFFFFFFFFFFFFFFFFF AND PUSH1 0x0 PUSH20 0xFFFFFFFFFFFFFFFFFFFFFFFFFFFFFFFFFFFFFFFF AND PUSH32 0xDDF252AD1BE2C89B69C2B068FC378DAA952BA7F163C4A11628F55A4DF523B3EF DUP4 PUSH1 0x40 MLOAD PUSH2 0x1131 SWAP2 SWAP1 PUSH2 0x1A44 JUMP JUMPDEST PUSH1 0x40 MLOAD DUP1 SWAP2 SUB SWAP1 LOG3 PUSH2 0x1145 PUSH1 0x0 DUP4 DUP4 PUSH2 0x15DD JUMP JUMPDEST POP POP JUMP JUMPDEST PUSH1 0x0 PUSH20 0xFFFFFFFFFFFFFFFFFFFFFFFFFFFFFFFFFFFFFFFF AND DUP3 PUSH20 0xFFFFFFFFFFFFFFFFFFFFFFFFFFFFFFFFFFFFFFFF AND EQ ISZERO PUSH2 0x11B9 JUMPI PUSH1 0x40 MLOAD PUSH32 0x8C379A000000000000000000000000000000000000000000000000000000000 DUP2 MSTORE PUSH1 0x4 ADD PUSH2 0x11B0 SWAP1 PUSH2 0x2511 JUMP JUMPDEST PUSH1 0x40 MLOAD DUP1 SWAP2 SUB SWAP1 REVERT JUMPDEST PUSH2 0x11C5 DUP3 PUSH1 0x0 DUP4 PUSH2 0x15C5 JUMP JUMPDEST PUSH1 0x0 PUSH1 0x33 PUSH1 0x0 DUP5 PUSH20 0xFFFFFFFFFFFFFFFFFFFFFFFFFFFFFFFFFFFFFFFF AND PUSH20 0xFFFFFFFFFFFFFFFFFFFFFFFFFFFFFFFFFFFFFFFF AND DUP2 MSTORE PUSH1 0x20 ADD SWAP1 DUP2 MSTORE PUSH1 0x20 ADD PUSH1 0x0 KECCAK256 SLOAD SWAP1 POP DUP2 DUP2 LT ISZERO PUSH2 0x124C JUMPI PUSH1 0x40 MLOAD PUSH32 0x8C379A000000000000000000000000000000000000000000000000000000000 DUP2 MSTORE PUSH1 0x4 ADD PUSH2 0x1243 SWAP1 PUSH2 0x25A3 JUMP JUMPDEST PUSH1 0x40 MLOAD DUP1 SWAP2 SUB SWAP1 REVERT JUMPDEST DUP2 DUP2 SUB PUSH1 0x33 PUSH1 0x0 DUP6 PUSH20 0xFFFFFFFFFFFFFFFFFFFFFFFFFFFFFFFFFFFFFFFF AND PUSH20 0xFFFFFFFFFFFFFFFFFFFFFFFFFFFFFFFFFFFFFFFF AND DUP2 MSTORE PUSH1 0x20 ADD SWAP1 DUP2 MSTORE PUSH1 0x20 ADD PUSH1 0x0 KECCAK256 DUP2 SWAP1 SSTORE POP DUP2 PUSH1 0x35 PUSH1 0x0 DUP3 DUP3 SLOAD SUB SWAP3 POP POP DUP2 SWAP1 SSTORE POP PUSH1 0x0 PUSH20 0xFFFFFFFFFFFFFFFFFFFFFFFFFFFFFFFFFFFFFFFF AND DUP4 PUSH20 0xFFFFFFFFFFFFFFFFFFFFFFFFFFFFFFFFFFFFFFFF AND PUSH32 0xDDF252AD1BE2C89B69C2B068FC378DAA952BA7F163C4A11628F55A4DF523B3EF DUP5 PUSH1 0x40 MLOAD PUSH2 0x1300 SWAP2 SWAP1 PUSH2 0x1A44 JUMP JUMPDEST PUSH1 0x40 MLOAD DUP1 SWAP2 SUB SWAP1 LOG3 PUSH2 0x1314 DUP4 PUSH1 0x0 DUP5 PUSH2 0x15DD JUMP JUMPDEST POP POP POP JUMP JUMPDEST PUSH1 0x0 PUSH1 0xC9 PUSH1 0x0 SWAP1 SLOAD SWAP1 PUSH2 0x100 EXP SWAP1 DIV PUSH20 0xFFFFFFFFFFFFFFFFFFFFFFFFFFFFFFFFFFFFFFFF AND SWAP1 POP DUP2 PUSH1 0xC9 PUSH1 0x0 PUSH2 0x100 EXP DUP2 SLOAD DUP2 PUSH20 0xFFFFFFFFFFFFFFFFFFFFFFFFFFFFFFFFFFFFFFFF MUL NOT AND SWAP1 DUP4 PUSH20 0xFFFFFFFFFFFFFFFFFFFFFFFFFFFFFFFFFFFFFFFF AND MUL OR SWAP1 SSTORE POP DUP2 PUSH20 0xFFFFFFFFFFFFFFFFFFFFFFFFFFFFFFFFFFFFFFFF AND DUP2 PUSH20 0xFFFFFFFFFFFFFFFFFFFFFFFFFFFFFFFFFFFFFFFF AND PUSH32 0x8BE0079C531659141344CD1FD0A4F28419497F9722A3DAAFE3B4186F6B6457E0 PUSH1 0x40 MLOAD PUSH1 0x40 MLOAD DUP1 SWAP2 SUB SWAP1 LOG3 POP POP JUMP JUMPDEST PUSH1 0x0 DUP1 DUP3 PUSH20 0xFFFFFFFFFFFFFFFFFFFFFFFFFFFFFFFFFFFFFFFF AND EXTCODESIZE GT SWAP1 POP SWAP2 SWAP1 POP JUMP JUMPDEST PUSH1 0x0 PUSH1 0x1 SWAP1 SLOAD SWAP1 PUSH2 0x100 EXP SWAP1 DIV PUSH1 0xFF AND PUSH2 0x1451 JUMPI PUSH1 0x40 MLOAD PUSH32 0x8C379A000000000000000000000000000000000000000000000000000000000 DUP2 MSTORE PUSH1 0x4 ADD PUSH2 0x1448 SWAP1 PUSH2 0x2635 JUMP JUMPDEST PUSH1 0x40 MLOAD DUP1 SWAP2 SUB SWAP1 REVERT JUMPDEST PUSH2 0x145B DUP3 DUP3 PUSH2 0x162B JUMP JUMPDEST POP POP JUMP JUMPDEST PUSH1 0x0 PUSH1 0x1 SWAP1 SLOAD SWAP1 PUSH2 0x100 EXP SWAP1 DIV PUSH1 0xFF AND PUSH2 0x14AE JUMPI PUSH1 0x40 MLOAD PUSH32 0x8C379A000000000000000000000000000000000000000000000000000000000 DUP2 MSTORE PUSH1 0x4 ADD PUSH2 0x14A5 SWAP1 PUSH2 0x2635 JUMP JUMPDEST PUSH1 0x40 MLOAD DUP1 SWAP2 SUB SWAP1 REVERT JUMPDEST JUMP JUMPDEST PUSH1 0x0 PUSH1 0x1 SWAP1 SLOAD SWAP1 PUSH2 0x100 EXP SWAP1 DIV PUSH1 0xFF AND PUSH2 0x14FF JUMPI PUSH1 0x40 MLOAD PUSH32 0x8C379A000000000000000000000000000000000000000000000000000000000 DUP2 MSTORE PUSH1 0x4 ADD PUSH2 0x14F6 SWAP1 PUSH2 0x2635 JUMP JUMPDEST PUSH1 0x40 MLOAD DUP1 SWAP2 SUB SWAP1 REVERT JUMPDEST PUSH2 0x1507 PUSH2 0x16AC JUMP JUMPDEST JUMP JUMPDEST PUSH1 0x0 PUSH1 0x1 SWAP1 SLOAD SWAP1 PUSH2 0x100 EXP SWAP1 DIV PUSH1 0xFF AND PUSH2 0x1558 JUMPI PUSH1 0x40 MLOAD PUSH32 0x8C379A000000000000000000000000000000000000000000000000000000000 DUP2 MSTORE PUSH1 0x4 ADD PUSH2 0x154F SWAP1 PUSH2 0x2635 JUMP JUMPDEST PUSH1 0x40 MLOAD DUP1 SWAP2 SUB SWAP1 REVERT JUMPDEST PUSH2 0x1560 PUSH2 0x1718 JUMP JUMPDEST JUMP JUMPDEST PUSH2 0x156A PUSH2 0x1779 JUMP JUMPDEST PUSH1 0x1 PUSH1 0x97 PUSH1 0x0 PUSH2 0x100 EXP DUP2 SLOAD DUP2 PUSH1 0xFF MUL NOT AND SWAP1 DUP4 ISZERO ISZERO MUL OR SWAP1 SSTORE POP PUSH32 0x62E78CEA01BEE320CD4E420270B5EA74000D11B0C9F74754EBDBFC544B05A258 PUSH2 0x15AE PUSH2 0xA36 JUMP JUMPDEST PUSH1 0x40 MLOAD PUSH2 0x15BB SWAP2 SWAP1 PUSH2 0x1B52 JUMP JUMPDEST PUSH1 0x40 MLOAD DUP1 SWAP2 SUB SWAP1 LOG1 JUMP JUMPDEST PUSH2 0x15CD PUSH2 0x1779 JUMP JUMPDEST PUSH2 0x15D8 DUP4 DUP4 DUP4 PUSH2 0x17C3 JUMP JUMPDEST POP POP POP JUMP JUMPDEST POP POP POP JUMP JUMPDEST PUSH2 0x15EA PUSH2 0x542 JUMP JUMPDEST PUSH2 0x1629 JUMPI PUSH1 0x40 MLOAD PUSH32 0x8C379A000000000000000000000000000000000000000000000000000000000 DUP2 MSTORE PUSH1 0x4 ADD PUSH2 0x1620 SWAP1 PUSH2 0x26A1 JUMP JUMPDEST PUSH1 0x40 MLOAD DUP1 SWAP2 SUB SWAP1 REVERT JUMPDEST JUMP JUMPDEST PUSH1 0x0 PUSH1 0x1 SWAP1 SLOAD SWAP1 PUSH2 0x100 EXP SWAP1 DIV PUSH1 0xFF AND PUSH2 0x167A JUMPI PUSH1 0x40 MLOAD PUSH32 0x8C379A000000000000000000000000000000000000000000000000000000000 DUP2 MSTORE PUSH1 0x4 ADD PUSH2 0x1671 SWAP1 PUSH2 0x2635 JUMP JUMPDEST PUSH1 0x40 MLOAD DUP1 SWAP2 SUB SWAP1 REVERT JUMPDEST DUP2 PUSH1 0x36 SWAP1 DUP1 MLOAD SWAP1 PUSH1 0x20 ADD SWAP1 PUSH2 0x1690 SWAP3 SWAP2 SWAP1 PUSH2 0x17C8 JUMP JUMPDEST POP DUP1 PUSH1 0x37 SWAP1 DUP1 MLOAD SWAP1 PUSH1 0x20 ADD SWAP1 PUSH2 0x16A7 SWAP3 SWAP2 SWAP1 PUSH2 0x17C8 JUMP JUMPDEST POP POP POP JUMP JUMPDEST PUSH1 0x0 PUSH1 0x1 SWAP1 SLOAD SWAP1 PUSH2 0x100 EXP SWAP1 DIV PUSH1 0xFF AND PUSH2 0x16FB JUMPI PUSH1 0x40 MLOAD PUSH32 0x8C379A000000000000000000000000000000000000000000000000000000000 DUP2 MSTORE PUSH1 0x4 ADD PUSH2 0x16F2 SWAP1 PUSH2 0x2635 JUMP JUMPDEST PUSH1 0x40 MLOAD DUP1 SWAP2 SUB SWAP1 REVERT JUMPDEST PUSH1 0x0 PUSH1 0x97 PUSH1 0x0 PUSH2 0x100 EXP DUP2 SLOAD DUP2 PUSH1 0xFF MUL NOT AND SWAP1 DUP4 ISZERO ISZERO MUL OR SWAP1 SSTORE POP JUMP JUMPDEST PUSH1 0x0 PUSH1 0x1 SWAP1 SLOAD SWAP1 PUSH2 0x100 EXP SWAP1 DIV PUSH1 0xFF AND PUSH2 0x1767 JUMPI PUSH1 0x40 MLOAD PUSH32 0x8C379A000000000000000000000000000000000000000000000000000000000 DUP2 MSTORE PUSH1 0x4 ADD PUSH2 0x175E SWAP1 PUSH2 0x2635 JUMP JUMPDEST PUSH1 0x40 MLOAD DUP1 SWAP2 SUB SWAP1 REVERT JUMPDEST PUSH2 0x1777 PUSH2 0x1772 PUSH2 0xA36 JUMP JUMPDEST PUSH2 0x1319 JUMP JUMPDEST JUMP JUMPDEST PUSH2 0x1781 PUSH2 0x542 JUMP JUMPDEST ISZERO PUSH2 0x17C1 JUMPI PUSH1 0x40 MLOAD PUSH32 0x8C379A000000000000000000000000000000000000000000000000000000000 DUP2 MSTORE PUSH1 0x4 ADD PUSH2 0x17B8 SWAP1 PUSH2 0x270D JUMP JUMPDEST PUSH1 0x40 MLOAD DUP1 SWAP2 SUB SWAP1 REVERT JUMPDEST JUMP JUMPDEST POP POP POP JUMP JUMPDEST DUP3 DUP1 SLOAD PUSH2 0x17D4 SWAP1 PUSH2 0x1BDC JUMP JUMPDEST SWAP1 PUSH1 0x0 MSTORE PUSH1 0x20 PUSH1 0x0 KECCAK256 SWAP1 PUSH1 0x1F ADD PUSH1 0x20 SWAP1 DIV DUP2 ADD SWAP3 DUP3 PUSH2 0x17F6 JUMPI PUSH1 0x0 DUP6 SSTORE PUSH2 0x183D JUMP JUMPDEST DUP3 PUSH1 0x1F LT PUSH2 0x180F JUMPI DUP1 MLOAD PUSH1 0xFF NOT AND DUP4 DUP1 ADD OR DUP6 SSTORE PUSH2 0x183D JUMP JUMPDEST DUP3 DUP1 ADD PUSH1 0x1 ADD DUP6 SSTORE DUP3 ISZERO PUSH2 0x183D JUMPI SWAP2 DUP3 ADD JUMPDEST DUP3 DUP2 GT ISZERO PUSH2 0x183C JUMPI DUP3 MLOAD DUP3 SSTORE SWAP2 PUSH1 0x20 ADD SWAP2 SWAP1 PUSH1 0x1 ADD SWAP1 PUSH2 0x1821 JUMP JUMPDEST JUMPDEST POP SWAP1 POP PUSH2 0x184A SWAP2 SWAP1 PUSH2 0x184E JUMP JUMPDEST POP SWAP1 JUMP JUMPDEST JUMPDEST DUP1 DUP3 GT ISZERO PUSH2 0x1867 JUMPI PUSH1 0x0 DUP2 PUSH1 0x0 SWAP1 SSTORE POP PUSH1 0x1 ADD PUSH2 0x184F JUMP JUMPDEST POP SWAP1 JUMP JUMPDEST PUSH1 0x0 DUP2 MLOAD SWAP1 POP SWAP2 SWAP1 POP JUMP JUMPDEST PUSH1 0x0 DUP3 DUP3 MSTORE PUSH1 0x20 DUP3 ADD SWAP1 POP SWAP3 SWAP2 POP POP JUMP JUMPDEST PUSH1 0x0 JUMPDEST DUP4 DUP2 LT ISZERO PUSH2 0x18A5 JUMPI DUP1 DUP3 ADD MLOAD DUP2 DUP5 ADD MSTORE PUSH1 0x20 DUP2 ADD SWAP1 POP PUSH2 0x188A JUMP JUMPDEST DUP4 DUP2 GT ISZERO PUSH2 0x18B4 JUMPI PUSH1 0x0 DUP5 DUP5 ADD MSTORE JUMPDEST POP POP POP POP JUMP JUMPDEST PUSH1 0x0 PUSH1 0x1F NOT PUSH1 0x1F DUP4 ADD AND SWAP1 POP SWAP2 SWAP1 POP JUMP JUMPDEST PUSH1 0x0 PUSH2 0x18D6 DUP3 PUSH2 0x186B JUMP JUMPDEST PUSH2 0x18E0 DUP2 DUP6 PUSH2 0x1876 JUMP JUMPDEST SWAP4 POP PUSH2 0x18F0 DUP2 DUP6 PUSH1 0x20 DUP7 ADD PUSH2 0x1887 JUMP JUMPDEST PUSH2 0x18F9 DUP2 PUSH2 0x18BA JUMP JUMPDEST DUP5 ADD SWAP2 POP POP SWAP3 SWAP2 POP POP JUMP JUMPDEST PUSH1 0x0 PUSH1 0x20 DUP3 ADD SWAP1 POP DUP2 DUP2 SUB PUSH1 0x0 DUP4 ADD MSTORE PUSH2 0x191E DUP2 DUP5 PUSH2 0x18CB JUMP JUMPDEST SWAP1 POP SWAP3 SWAP2 POP POP JUMP JUMPDEST PUSH1 0x0 DUP1 REVERT JUMPDEST PUSH1 0x0 PUSH20 0xFFFFFFFFFFFFFFFFFFFFFFFFFFFFFFFFFFFFFFFF DUP3 AND SWAP1 POP SWAP2 SWAP1 POP JUMP JUMPDEST PUSH1 0x0 PUSH2 0x1956 DUP3 PUSH2 0x192B JUMP JUMPDEST SWAP1 POP SWAP2 SWAP1 POP JUMP JUMPDEST PUSH2 0x1966 DUP2 PUSH2 0x194B JUMP JUMPDEST DUP2 EQ PUSH2 0x1971 JUMPI PUSH1 0x0 DUP1 REVERT JUMPDEST POP JUMP JUMPDEST PUSH1 0x0 DUP2 CALLDATALOAD SWAP1 POP PUSH2 0x1983 DUP2 PUSH2 0x195D JUMP JUMPDEST SWAP3 SWAP2 POP POP JUMP JUMPDEST PUSH1 0x0 DUP2 SWAP1 POP SWAP2 SWAP1 POP JUMP JUMPDEST PUSH2 0x199C DUP2 PUSH2 0x1989 JUMP JUMPDEST DUP2 EQ PUSH2 0x19A7 JUMPI PUSH1 0x0 DUP1 REVERT JUMPDEST POP JUMP JUMPDEST PUSH1 0x0 DUP2 CALLDATALOAD SWAP1 POP PUSH2 0x19B9 DUP2 PUSH2 0x1993 JUMP JUMPDEST SWAP3 SWAP2 POP POP JUMP JUMPDEST PUSH1 0x0 DUP1 PUSH1 0x40 DUP4 DUP6 SUB SLT ISZERO PUSH2 0x19D6 JUMPI PUSH2 0x19D5 PUSH2 0x1926 JUMP JUMPDEST JUMPDEST PUSH1 0x0 PUSH2 0x19E4 DUP6 DUP3 DUP7 ADD PUSH2 0x1974 JUMP JUMPDEST SWAP3 POP POP PUSH1 0x20 PUSH2 0x19F5 DUP6 DUP3 DUP7 ADD PUSH2 0x19AA JUMP JUMPDEST SWAP2 POP POP SWAP3 POP SWAP3 SWAP1 POP JUMP JUMPDEST PUSH1 0x0 DUP2 ISZERO ISZERO SWAP1 POP SWAP2 SWAP1 POP JUMP JUMPDEST PUSH2 0x1A14 DUP2 PUSH2 0x19FF JUMP JUMPDEST DUP3 MSTORE POP POP JUMP JUMPDEST PUSH1 0x0 PUSH1 0x20 DUP3 ADD SWAP1 POP PUSH2 0x1A2F PUSH1 0x0 DUP4 ADD DUP5 PUSH2 0x1A0B JUMP JUMPDEST SWAP3 SWAP2 POP POP JUMP JUMPDEST PUSH2 0x1A3E DUP2 PUSH2 0x1989 JUMP JUMPDEST DUP3 MSTORE POP POP JUMP JUMPDEST PUSH1 0x0 PUSH1 0x20 DUP3 ADD SWAP1 POP PUSH2 0x1A59 PUSH1 0x0 DUP4 ADD DUP5 PUSH2 0x1A35 JUMP JUMPDEST SWAP3 SWAP2 POP POP JUMP JUMPDEST PUSH1 0x0 DUP1 PUSH1 0x0 PUSH1 0x60 DUP5 DUP7 SUB SLT ISZERO PUSH2 0x1A78 JUMPI PUSH2 0x1A77 PUSH2 0x1926 JUMP JUMPDEST JUMPDEST PUSH1 0x0 PUSH2 0x1A86 DUP7 DUP3 DUP8 ADD PUSH2 0x1974 JUMP JUMPDEST SWAP4 POP POP PUSH1 0x20 PUSH2 0x1A97 DUP7 DUP3 DUP8 ADD PUSH2 0x1974 JUMP JUMPDEST SWAP3 POP POP PUSH1 0x40 PUSH2 0x1AA8 DUP7 DUP3 DUP8 ADD PUSH2 0x19AA JUMP JUMPDEST SWAP2 POP POP SWAP3 POP SWAP3 POP SWAP3 JUMP JUMPDEST PUSH1 0x0 PUSH1 0xFF DUP3 AND SWAP1 POP SWAP2 SWAP1 POP JUMP JUMPDEST PUSH2 0x1AC8 DUP2 PUSH2 0x1AB2 JUMP JUMPDEST DUP3 MSTORE POP POP JUMP JUMPDEST PUSH1 0x0 PUSH1 0x20 DUP3 ADD SWAP1 POP PUSH2 0x1AE3 PUSH1 0x0 DUP4 ADD DUP5 PUSH2 0x1ABF JUMP JUMPDEST SWAP3 SWAP2 POP POP JUMP JUMPDEST PUSH1 0x0 PUSH1 0x20 DUP3 DUP5 SUB SLT ISZERO PUSH2 0x1AFF JUMPI PUSH2 0x1AFE PUSH2 0x1926 JUMP JUMPDEST JUMPDEST PUSH1 0x0 PUSH2 0x1B0D DUP5 DUP3 DUP6 ADD PUSH2 0x19AA JUMP JUMPDEST SWAP2 POP POP SWAP3 SWAP2 POP POP JUMP JUMPDEST PUSH1 0x0 PUSH1 0x20 DUP3 DUP5 SUB SLT ISZERO PUSH2 0x1B2C JUMPI PUSH2 0x1B2B PUSH2 0x1926 JUMP JUMPDEST JUMPDEST PUSH1 0x0 PUSH2 0x1B3A DUP5 DUP3 DUP6 ADD PUSH2 0x1974 JUMP JUMPDEST SWAP2 POP POP SWAP3 SWAP2 POP POP JUMP JUMPDEST PUSH2 0x1B4C DUP2 PUSH2 0x194B JUMP JUMPDEST DUP3 MSTORE POP POP JUMP JUMPDEST PUSH1 0x0 PUSH1 0x20 DUP3 ADD SWAP1 POP PUSH2 0x1B67 PUSH1 0x0 DUP4 ADD DUP5 PUSH2 0x1B43 JUMP JUMPDEST SWAP3 SWAP2 POP POP JUMP JUMPDEST PUSH1 0x0 DUP1 PUSH1 0x40 DUP4 DUP6 SUB SLT ISZERO PUSH2 0x1B84 JUMPI PUSH2 0x1B83 PUSH2 0x1926 JUMP JUMPDEST JUMPDEST PUSH1 0x0 PUSH2 0x1B92 DUP6 DUP3 DUP7 ADD PUSH2 0x1974 JUMP JUMPDEST SWAP3 POP POP PUSH1 0x20 PUSH2 0x1BA3 DUP6 DUP3 DUP7 ADD PUSH2 0x1974 JUMP JUMPDEST SWAP2 POP POP SWAP3 POP SWAP3 SWAP1 POP JUMP JUMPDEST PUSH32 0x4E487B7100000000000000000000000000000000000000000000000000000000 PUSH1 0x0 MSTORE PUSH1 0x22 PUSH1 0x4 MSTORE PUSH1 0x24 PUSH1 0x0 REVERT JUMPDEST PUSH1 0x0 PUSH1 0x2 DUP3 DIV SWAP1 POP PUSH1 0x1 DUP3 AND DUP1 PUSH2 0x1BF4 JUMPI PUSH1 0x7F DUP3 AND SWAP2 POP JUMPDEST PUSH1 0x20 DUP3 LT DUP2 EQ ISZERO PUSH2 0x1C08 JUMPI PUSH2 0x1C07 PUSH2 0x1BAD JUMP JUMPDEST JUMPDEST POP SWAP2 SWAP1 POP JUMP JUMPDEST PUSH32 0x4E487B7100000000000000000000000000000000000000000000000000000000 PUSH1 0x0 MSTORE PUSH1 0x11 PUSH1 0x4 MSTORE PUSH1 0x24 PUSH1 0x0 REVERT JUMPDEST PUSH1 0x0 PUSH2 0x1C48 DUP3 PUSH2 0x1989 JUMP JUMPDEST SWAP2 POP PUSH2 0x1C53 DUP4 PUSH2 0x1989 JUMP JUMPDEST SWAP3 POP DUP3 PUSH32 0xFFFFFFFFFFFFFFFFFFFFFFFFFFFFFFFFFFFFFFFFFFFFFFFFFFFFFFFFFFFFFFFF SUB DUP3 GT ISZERO PUSH2 0x1C88 JUMPI PUSH2 0x1C87 PUSH2 0x1C0E JUMP JUMPDEST JUMPDEST DUP3 DUP3 ADD SWAP1 POP SWAP3 SWAP2 POP POP JUMP JUMPDEST PUSH32 0x496E697469616C697A61626C653A20636F6E747261637420697320616C726561 PUSH1 0x0 DUP3 ADD MSTORE PUSH32 0x647920696E697469616C697A6564000000000000000000000000000000000000 PUSH1 0x20 DUP3 ADD MSTORE POP JUMP JUMPDEST PUSH1 0x0 PUSH2 0x1CEF PUSH1 0x2E DUP4 PUSH2 0x1876 JUMP JUMPDEST SWAP2 POP PUSH2 0x1CFA DUP3 PUSH2 0x1C93 JUMP JUMPDEST PUSH1 0x40 DUP3 ADD SWAP1 POP SWAP2 SWAP1 POP JUMP JUMPDEST PUSH1 0x0 PUSH1 0x20 DUP3 ADD SWAP1 POP DUP2 DUP2 SUB PUSH1 0x0 DUP4 ADD MSTORE PUSH2 0x1D1E DUP2 PUSH2 0x1CE2 JUMP JUMPDEST SWAP1 POP SWAP2 SWAP1 POP JUMP JUMPDEST PUSH1 0x0 DUP2 PUSH1 0x1 SHR SWAP1 POP SWAP2 SWAP1 POP JUMP JUMPDEST PUSH1 0x0 DUP1 DUP3 SWAP2 POP DUP4 SWAP1 POP JUMPDEST PUSH1 0x1 DUP6 GT ISZERO PUSH2 0x1D7C JUMPI DUP1 DUP7 DIV DUP2 GT ISZERO PUSH2 0x1D58 JUMPI PUSH2 0x1D57 PUSH2 0x1C0E JUMP JUMPDEST JUMPDEST PUSH1 0x1 DUP6 AND ISZERO PUSH2 0x1D67 JUMPI DUP1 DUP3 MUL SWAP2 POP JUMPDEST DUP1 DUP2 MUL SWAP1 POP PUSH2 0x1D75 DUP6 PUSH2 0x1D25 JUMP JUMPDEST SWAP5 POP PUSH2 0x1D3C JUMP JUMPDEST SWAP5 POP SWAP5 SWAP3 POP POP POP JUMP JUMPDEST PUSH1 0x0 DUP3 PUSH2 0x1D95 JUMPI PUSH1 0x1 SWAP1 POP PUSH2 0x1E51 JUMP JUMPDEST DUP2 PUSH2 0x1DA3 JUMPI PUSH1 0x0 SWAP1 POP PUSH2 0x1E51 JUMP JUMPDEST DUP2 PUSH1 0x1 DUP2 EQ PUSH2 0x1DB9 JUMPI PUSH1 0x2 DUP2 EQ PUSH2 0x1DC3 JUMPI PUSH2 0x1DF2 JUMP JUMPDEST PUSH1 0x1 SWAP2 POP POP PUSH2 0x1E51 JUMP JUMPDEST PUSH1 0xFF DUP5 GT ISZERO PUSH2 0x1DD5 JUMPI PUSH2 0x1DD4 PUSH2 0x1C0E JUMP JUMPDEST JUMPDEST DUP4 PUSH1 0x2 EXP SWAP2 POP DUP5 DUP3 GT ISZERO PUSH2 0x1DEC JUMPI PUSH2 0x1DEB PUSH2 0x1C0E JUMP JUMPDEST JUMPDEST POP PUSH2 0x1E51 JUMP JUMPDEST POP PUSH1 0x20 DUP4 LT PUSH2 0x133 DUP4 LT AND PUSH1 0x4E DUP5 LT PUSH1 0xB DUP5 LT AND OR ISZERO PUSH2 0x1E27 JUMPI DUP3 DUP3 EXP SWAP1 POP DUP4 DUP2 GT ISZERO PUSH2 0x1E22 JUMPI PUSH2 0x1E21 PUSH2 0x1C0E JUMP JUMPDEST JUMPDEST PUSH2 0x1E51 JUMP JUMPDEST PUSH2 0x1E34 DUP5 DUP5 DUP5 PUSH1 0x1 PUSH2 0x1D32 JUMP JUMPDEST SWAP3 POP SWAP1 POP DUP2 DUP5 DIV DUP2 GT ISZERO PUSH2 0x1E4B JUMPI PUSH2 0x1E4A PUSH2 0x1C0E JUMP JUMPDEST JUMPDEST DUP2 DUP2 MUL SWAP1 POP JUMPDEST SWAP4 SWAP3 POP POP POP JUMP JUMPDEST PUSH1 0x0 PUSH2 0x1E63 DUP3 PUSH2 0x1989 JUMP JUMPDEST SWAP2 POP PUSH2 0x1E6E DUP4 PUSH2 0x1AB2 JUMP JUMPDEST SWAP3 POP PUSH2 0x1E9B PUSH32 0xFFFFFFFFFFFFFFFFFFFFFFFFFFFFFFFFFFFFFFFFFFFFFFFFFFFFFFFFFFFFFFFF DUP5 DUP5 PUSH2 0x1D85 JUMP JUMPDEST SWAP1 POP SWAP3 SWAP2 POP POP JUMP JUMPDEST PUSH1 0x0 PUSH2 0x1EAE DUP3 PUSH2 0x1989 JUMP JUMPDEST SWAP2 POP PUSH2 0x1EB9 DUP4 PUSH2 0x1989 JUMP JUMPDEST SWAP3 POP DUP2 PUSH32 0xFFFFFFFFFFFFFFFFFFFFFFFFFFFFFFFFFFFFFFFFFFFFFFFFFFFFFFFFFFFFFFFF DIV DUP4 GT DUP3 ISZERO ISZERO AND ISZERO PUSH2 0x1EF2 JUMPI PUSH2 0x1EF1 PUSH2 0x1C0E JUMP JUMPDEST JUMPDEST DUP3 DUP3 MUL SWAP1 POP SWAP3 SWAP2 POP POP JUMP JUMPDEST PUSH1 0x0 DUP2 SWAP1 POP SWAP2 SWAP1 POP JUMP JUMPDEST PUSH1 0x0 DUP2 SWAP1 POP SWAP2 SWAP1 POP JUMP JUMPDEST PUSH1 0x0 PUSH2 0x1F2C PUSH2 0x1F27 PUSH2 0x1F22 DUP5 PUSH2 0x1EFD JUMP JUMPDEST PUSH2 0x1F07 JUMP JUMPDEST PUSH2 0x1AB2 JUMP JUMPDEST SWAP1 POP SWAP2 SWAP1 POP JUMP JUMPDEST PUSH2 0x1F3C DUP2 PUSH2 0x1F11 JUMP JUMPDEST DUP3 MSTORE POP POP JUMP JUMPDEST PUSH1 0x0 PUSH1 0x20 DUP3 ADD SWAP1 POP PUSH2 0x1F57 PUSH1 0x0 DUP4 ADD DUP5 PUSH2 0x1F33 JUMP JUMPDEST SWAP3 SWAP2 POP POP JUMP JUMPDEST PUSH32 0x45524332303A2064656372656173656420616C6C6F77616E63652062656C6F77 PUSH1 0x0 DUP3 ADD MSTORE PUSH32 0x207A65726F000000000000000000000000000000000000000000000000000000 PUSH1 0x20 DUP3 ADD MSTORE POP JUMP JUMPDEST PUSH1 0x0 PUSH2 0x1FB9 PUSH1 0x25 DUP4 PUSH2 0x1876 JUMP JUMPDEST SWAP2 POP PUSH2 0x1FC4 DUP3 PUSH2 0x1F5D JUMP JUMPDEST PUSH1 0x40 DUP3 ADD SWAP1 POP SWAP2 SWAP1 POP JUMP JUMPDEST PUSH1 0x0 PUSH1 0x20 DUP3 ADD SWAP1 POP DUP2 DUP2 SUB PUSH1 0x0 DUP4 ADD MSTORE PUSH2 0x1FE8 DUP2 PUSH2 0x1FAC JUMP JUMPDEST SWAP1 POP SWAP2 SWAP1 POP JUMP JUMPDEST PUSH32 0x4F776E61626C653A206E6577206F776E657220697320746865207A65726F2061 PUSH1 0x0 DUP3 ADD MSTORE PUSH32 0x6464726573730000000000000000000000000000000000000000000000000000 PUSH1 0x20 DUP3 ADD MSTORE POP JUMP JUMPDEST PUSH1 0x0 PUSH2 0x204B PUSH1 0x26 DUP4 PUSH2 0x1876 JUMP JUMPDEST SWAP2 POP PUSH2 0x2056 DUP3 PUSH2 0x1FEF JUMP JUMPDEST PUSH1 0x40 DUP3 ADD SWAP1 POP SWAP2 SWAP1 POP JUMP JUMPDEST PUSH1 0x0 PUSH1 0x20 DUP3 ADD SWAP1 POP DUP2 DUP2 SUB PUSH1 0x0 DUP4 ADD MSTORE PUSH2 0x207A DUP2 PUSH2 0x203E JUMP JUMPDEST SWAP1 POP SWAP2 SWAP1 POP JUMP JUMPDEST PUSH32 0x45524332303A20617070726F76652066726F6D20746865207A65726F20616464 PUSH1 0x0 DUP3 ADD MSTORE PUSH32 0x7265737300000000000000000000000000000000000000000000000000000000 PUSH1 0x20 DUP3 ADD MSTORE POP JUMP JUMPDEST PUSH1 0x0 PUSH2 0x20DD PUSH1 0x24 DUP4 PUSH2 0x1876 JUMP JUMPDEST SWAP2 POP PUSH2 0x20E8 DUP3 PUSH2 0x2081 JUMP JUMPDEST PUSH1 0x40 DUP3 ADD SWAP1 POP SWAP2 SWAP1 POP JUMP JUMPDEST PUSH1 0x0 PUSH1 0x20 DUP3 ADD SWAP1 POP DUP2 DUP2 SUB PUSH1 0x0 DUP4 ADD MSTORE PUSH2 0x210C DUP2 PUSH2 0x20D0 JUMP JUMPDEST SWAP1 POP SWAP2 SWAP1 POP JUMP JUMPDEST PUSH32 0x45524332303A20617070726F766520746F20746865207A65726F206164647265 PUSH1 0x0 DUP3 ADD MSTORE PUSH32 0x7373000000000000000000000000000000000000000000000000000000000000 PUSH1 0x20 DUP3 ADD MSTORE POP JUMP JUMPDEST PUSH1 0x0 PUSH2 0x216F PUSH1 0x22 DUP4 PUSH2 0x1876 JUMP JUMPDEST SWAP2 POP PUSH2 0x217A DUP3 PUSH2 0x2113 JUMP JUMPDEST PUSH1 0x40 DUP3 ADD SWAP1 POP SWAP2 SWAP1 POP JUMP JUMPDEST PUSH1 0x0 PUSH1 0x20 DUP3 ADD SWAP1 POP DUP2 DUP2 SUB PUSH1 0x0 DUP4 ADD MSTORE PUSH2 0x219E DUP2 PUSH2 0x2162 JUMP JUMPDEST SWAP1 POP SWAP2 SWAP1 POP JUMP JUMPDEST PUSH32 0x45524332303A20696E73756666696369656E7420616C6C6F77616E6365000000 PUSH1 0x0 DUP3 ADD MSTORE POP JUMP JUMPDEST PUSH1 0x0 PUSH2 0x21DB PUSH1 0x1D DUP4 PUSH2 0x1876 JUMP JUMPDEST SWAP2 POP PUSH2 0x21E6 DUP3 PUSH2 0x21A5 JUMP JUMPDEST PUSH1 0x20 DUP3 ADD SWAP1 POP SWAP2 SWAP1 POP JUMP JUMPDEST PUSH1 0x0 PUSH1 0x20 DUP3 ADD SWAP1 POP DUP2 DUP2 SUB PUSH1 0x0 DUP4 ADD MSTORE PUSH2 0x220A DUP2 PUSH2 0x21CE JUMP JUMPDEST SWAP1 POP SWAP2 SWAP1 POP JUMP JUMPDEST PUSH32 0x45524332303A207472616E736665722066726F6D20746865207A65726F206164 PUSH1 0x0 DUP3 ADD MSTORE PUSH32 0x6472657373000000000000000000000000000000000000000000000000000000 PUSH1 0x20 DUP3 ADD MSTORE POP JUMP JUMPDEST PUSH1 0x0 PUSH2 0x226D PUSH1 0x25 DUP4 PUSH2 0x1876 JUMP JUMPDEST SWAP2 POP PUSH2 0x2278 DUP3 PUSH2 0x2211 JUMP JUMPDEST PUSH1 0x40 DUP3 ADD SWAP1 POP SWAP2 SWAP1 POP JUMP JUMPDEST PUSH1 0x0 PUSH1 0x20 DUP3 ADD SWAP1 POP DUP2 DUP2 SUB PUSH1 0x0 DUP4 ADD MSTORE PUSH2 0x229C DUP2 PUSH2 0x2260 JUMP JUMPDEST SWAP1 POP SWAP2 SWAP1 POP JUMP JUMPDEST PUSH32 0x45524332303A207472616E7366657220746F20746865207A65726F2061646472 PUSH1 0x0 DUP3 ADD MSTORE PUSH32 0x6573730000000000000000000000000000000000000000000000000000000000 PUSH1 0x20 DUP3 ADD MSTORE POP JUMP JUMPDEST PUSH1 0x0 PUSH2 0x22FF PUSH1 0x23 DUP4 PUSH2 0x1876 JUMP JUMPDEST SWAP2 POP PUSH2 0x230A DUP3 PUSH2 0x22A3 JUMP JUMPDEST PUSH1 0x40 DUP3 ADD SWAP1 POP SWAP2 SWAP1 POP JUMP JUMPDEST PUSH1 0x0 PUSH1 0x20 DUP3 ADD SWAP1 POP DUP2 DUP2 SUB PUSH1 0x0 DUP4 ADD MSTORE PUSH2 0x232E DUP2 PUSH2 0x22F2 JUMP JUMPDEST SWAP1 POP SWAP2 SWAP1 POP JUMP JUMPDEST PUSH32 0x45524332303A207472616E7366657220616D6F756E7420657863656564732062 PUSH1 0x0 DUP3 ADD MSTORE PUSH32 0x616C616E63650000000000000000000000000000000000000000000000000000 PUSH1 0x20 DUP3 ADD MSTORE POP JUMP JUMPDEST PUSH1 0x0 PUSH2 0x2391 PUSH1 0x26 DUP4 PUSH2 0x1876 JUMP JUMPDEST SWAP2 POP PUSH2 0x239C DUP3 PUSH2 0x2335 JUMP JUMPDEST PUSH1 0x40 DUP3 ADD SWAP1 POP SWAP2 SWAP1 POP JUMP JUMPDEST PUSH1 0x0 PUSH1 0x20 DUP3 ADD SWAP1 POP DUP2 DUP2 SUB PUSH1 0x0 DUP4 ADD MSTORE PUSH2 0x23C0 DUP2 PUSH2 0x2384 JUMP JUMPDEST SWAP1 POP SWAP2 SWAP1 POP JUMP JUMPDEST PUSH32 0x4F776E61626C653A2063616C6C6572206973206E6F7420746865206F776E6572 PUSH1 0x0 DUP3 ADD MSTORE POP JUMP JUMPDEST PUSH1 0x0 PUSH2 0x23FD PUSH1 0x20 DUP4 PUSH2 0x1876 JUMP JUMPDEST SWAP2 POP PUSH2 0x2408 DUP3 PUSH2 0x23C7 JUMP JUMPDEST PUSH1 0x20 DUP3 ADD SWAP1 POP SWAP2 SWAP1 POP JUMP JUMPDEST PUSH1 0x0 PUSH1 0x20 DUP3 ADD SWAP1 POP DUP2 DUP2 SUB PUSH1 0x0 DUP4 ADD MSTORE PUSH2 0x242C DUP2 PUSH2 0x23F0 JUMP JUMPDEST SWAP1 POP SWAP2 SWAP1 POP JUMP JUMPDEST PUSH32 0x45524332303A206D696E7420746F20746865207A65726F206164647265737300 PUSH1 0x0 DUP3 ADD MSTORE POP JUMP JUMPDEST PUSH1 0x0 PUSH2 0x2469 PUSH1 0x1F DUP4 PUSH2 0x1876 JUMP JUMPDEST SWAP2 POP PUSH2 0x2474 DUP3 PUSH2 0x2433 JUMP JUMPDEST PUSH1 0x20 DUP3 ADD SWAP1 POP SWAP2 SWAP1 POP JUMP JUMPDEST PUSH1 0x0 PUSH1 0x20 DUP3 ADD SWAP1 POP DUP2 DUP2 SUB PUSH1 0x0 DUP4 ADD MSTORE PUSH2 0x2498 DUP2 PUSH2 0x245C JUMP JUMPDEST SWAP1 POP SWAP2 SWAP1 POP JUMP JUMPDEST PUSH32 0x45524332303A206275726E2066726F6D20746865207A65726F20616464726573 PUSH1 0x0 DUP3 ADD MSTORE PUSH32 0x7300000000000000000000000000000000000000000000000000000000000000 PUSH1 0x20 DUP3 ADD MSTORE POP JUMP JUMPDEST PUSH1 0x0 PUSH2 0x24FB PUSH1 0x21 DUP4 PUSH2 0x1876 JUMP JUMPDEST SWAP2 POP PUSH2 0x2506 DUP3 PUSH2 0x249F JUMP JUMPDEST PUSH1 0x40 DUP3 ADD SWAP1 POP SWAP2 SWAP1 POP JUMP JUMPDEST PUSH1 0x0 PUSH1 0x20 DUP3 ADD SWAP1 POP DUP2 DUP2 SUB PUSH1 0x0 DUP4 ADD MSTORE PUSH2 0x252A DUP2 PUSH2 0x24EE JUMP JUMPDEST SWAP1 POP SWAP2 SWAP1 POP JUMP JUMPDEST PUSH32 0x45524332303A206275726E20616D6F756E7420657863656564732062616C616E PUSH1 0x0 DUP3 ADD MSTORE PUSH32 0x6365000000000000000000000000000000000000000000000000000000000000 PUSH1 0x20 DUP3 ADD MSTORE POP JUMP JUMPDEST PUSH1 0x0 PUSH2 0x258D PUSH1 0x22 DUP4 PUSH2 0x1876 JUMP JUMPDEST SWAP2 POP PUSH2 0x2598 DUP3 PUSH2 0x2531 JUMP JUMPDEST PUSH1 0x40 DUP3 ADD SWAP1 POP SWAP2 SWAP1 POP JUMP JUMPDEST PUSH1 0x0 PUSH1 0x20 DUP3 ADD SWAP1 POP DUP2 DUP2 SUB PUSH1 0x0 DUP4 ADD MSTORE PUSH2 0x25BC DUP2 PUSH2 0x2580 JUMP JUMPDEST SWAP1 POP SWAP2 SWAP1 POP JUMP JUMPDEST PUSH32 0x496E697469616C697A61626C653A20636F6E7472616374206973206E6F742069 PUSH1 0x0 DUP3 ADD MSTORE PUSH32 0x6E697469616C697A696E67000000000000000000000000000000000000000000 PUSH1 0x20 DUP3 ADD MSTORE POP JUMP JUMPDEST PUSH1 0x0 PUSH2 0x261F PUSH1 0x2B DUP4 PUSH2 0x1876 JUMP JUMPDEST SWAP2 POP PUSH2 0x262A DUP3 PUSH2 0x25C3 JUMP JUMPDEST PUSH1 0x40 DUP3 ADD SWAP1 POP SWAP2 SWAP1 POP JUMP JUMPDEST PUSH1 0x0 PUSH1 0x20 DUP3 ADD SWAP1 POP DUP2 DUP2 SUB PUSH1 0x0 DUP4 ADD MSTORE PUSH2 0x264E DUP2 PUSH2 0x2612 JUMP JUMPDEST SWAP1 POP SWAP2 SWAP1 POP JUMP JUMPDEST PUSH32 0x5061757361626C653A206E6F7420706175736564000000000000000000000000 PUSH1 0x0 DUP3 ADD MSTORE POP JUMP JUMPDEST PUSH1 0x0 PUSH2 0x268B PUSH1 0x14 DUP4 PUSH2 0x1876 JUMP JUMPDEST SWAP2 POP PUSH2 0x2696 DUP3 PUSH2 0x2655 JUMP JUMPDEST PUSH1 0x20 DUP3 ADD SWAP1 POP SWAP2 SWAP1 POP JUMP JUMPDEST PUSH1 0x0 PUSH1 0x20 DUP3 ADD SWAP1 POP DUP2 DUP2 SUB PUSH1 0x0 DUP4 ADD MSTORE PUSH2 0x26BA DUP2 PUSH2 0x267E JUMP JUMPDEST SWAP1 POP SWAP2 SWAP1 POP JUMP JUMPDEST PUSH32 0x5061757361626C653A2070617573656400000000000000000000000000000000 PUSH1 0x0 DUP3 ADD MSTORE POP JUMP JUMPDEST PUSH1 0x0 PUSH2 0x26F7 PUSH1 0x10 DUP4 PUSH2 0x1876 JUMP JUMPDEST SWAP2 POP PUSH2 0x2702 DUP3 PUSH2 0x26C1 JUMP JUMPDEST PUSH1 0x20 DUP3 ADD SWAP1 POP SWAP2 SWAP1 POP JUMP JUMPDEST PUSH1 0x0 PUSH1 0x20 DUP3 ADD SWAP1 POP DUP2 DUP2 SUB PUSH1 0x0 DUP4 ADD MSTORE PUSH2 0x2726 DUP2 PUSH2 0x26EA JUMP JUMPDEST SWAP1 POP SWAP2 SWAP1 POP JUMP INVALID LOG2 PUSH5 0x6970667358 0x22 SLT KECCAK256 SMOD 0xD0 DUP2 DUP1 MULMOD DUP7 PUSH32 0x5D8A2F72469D0AD744C0FFFAC90CF3E5D851B5948C3EEC9CC64736F6C634300 ADDMOD MULMOD STOP CALLER "
				},
				"gasEstimates": {
					"creation": {
						"codeDepositCost": "2016600",
						"executionCost": "infinite",
						"totalCost": "infinite"
					},
					"external": {
						"allowance(address,address)": "infinite",
						"approve(address,uint256)": "infinite",
						"balanceOf(address)": "2864",
						"burn(uint256)": "infinite",
						"burnFrom(address,uint256)": "infinite",
						"decimals()": "455",
						"decreaseAllowance(address,uint256)": "infinite",
						"increaseAllowance(address,uint256)": "infinite",
						"initialize()": "infinite",
						"mint(address,uint256)": "infinite",
						"name()": "infinite",
						"owner()": "2544",
						"pause()": "infinite",
						"paused()": "2590",
						"renounceOwnership()": "30443",
						"symbol()": "infinite",
						"totalSupply()": "2505",
						"transfer(address,uint256)": "infinite",
						"transferFrom(address,address,uint256)": "infinite",
						"transferOwnership(address)": "30879",
						"unpause()": "infinite"
					},
					"internal": {
						"_beforeTokenTransfer(address,address,uint256)": "infinite"
					}
				},
				"methodIdentifiers": {
					"allowance(address,address)": "dd62ed3e",
					"approve(address,uint256)": "095ea7b3",
					"balanceOf(address)": "70a08231",
					"burn(uint256)": "42966c68",
					"burnFrom(address,uint256)": "79cc6790",
					"decimals()": "313ce567",
					"decreaseAllowance(address,uint256)": "a457c2d7",
					"increaseAllowance(address,uint256)": "39509351",
					"initialize()": "8129fc1c",
					"mint(address,uint256)": "40c10f19",
					"name()": "06fdde03",
					"owner()": "8da5cb5b",
					"pause()": "8456cb59",
					"paused()": "5c975abb",
					"renounceOwnership()": "715018a6",
					"symbol()": "95d89b41",
					"totalSupply()": "18160ddd",
					"transfer(address,uint256)": "a9059cbb",
					"transferFrom(address,address,uint256)": "23b872dd",
					"transferOwnership(address)": "f2fde38b",
					"unpause()": "3f4ba83a"
				}
			},
			"storageLayout": {
				"storage": [
					{
						"astId": 138,
						"contract": "contracts/Smart_token.sol:SmartToken",
						"label": "_initialized",
						"offset": 0,
						"slot": "0",
						"type": "t_uint8"
					},
					{
						"astId": 141,
						"contract": "contracts/Smart_token.sol:SmartToken",
						"label": "_initializing",
						"offset": 1,
						"slot": "0",
						"type": "t_bool"
					},
					{
						"astId": 1531,
						"contract": "contracts/Smart_token.sol:SmartToken",
						"label": "__gap",
						"offset": 0,
						"slot": "1",
						"type": "t_array(t_uint256)50_storage"
					},
					{
						"astId": 446,
						"contract": "contracts/Smart_token.sol:SmartToken",
						"label": "_balances",
						"offset": 0,
						"slot": "51",
						"type": "t_mapping(t_address,t_uint256)"
					},
					{
						"astId": 452,
						"contract": "contracts/Smart_token.sol:SmartToken",
						"label": "_allowances",
						"offset": 0,
						"slot": "52",
						"type": "t_mapping(t_address,t_mapping(t_address,t_uint256))"
					},
					{
						"astId": 454,
						"contract": "contracts/Smart_token.sol:SmartToken",
						"label": "_totalSupply",
						"offset": 0,
						"slot": "53",
						"type": "t_uint256"
					},
					{
						"astId": 456,
						"contract": "contracts/Smart_token.sol:SmartToken",
						"label": "_name",
						"offset": 0,
						"slot": "54",
						"type": "t_string_storage"
					},
					{
						"astId": 458,
						"contract": "contracts/Smart_token.sol:SmartToken",
						"label": "_symbol",
						"offset": 0,
						"slot": "55",
						"type": "t_string_storage"
					},
					{
						"astId": 1038,
						"contract": "contracts/Smart_token.sol:SmartToken",
						"label": "__gap",
						"offset": 0,
						"slot": "56",
						"type": "t_array(t_uint256)45_storage"
					},
					{
						"astId": 1180,
						"contract": "contracts/Smart_token.sol:SmartToken",
						"label": "__gap",
						"offset": 0,
						"slot": "101",
						"type": "t_array(t_uint256)50_storage"
					},
					{
						"astId": 321,
						"contract": "contracts/Smart_token.sol:SmartToken",
						"label": "_paused",
						"offset": 0,
						"slot": "151",
						"type": "t_bool"
					},
					{
						"astId": 426,
						"contract": "contracts/Smart_token.sol:SmartToken",
						"label": "__gap",
						"offset": 0,
						"slot": "152",
						"type": "t_array(t_uint256)49_storage"
					},
					{
						"astId": 10,
						"contract": "contracts/Smart_token.sol:SmartToken",
						"label": "_owner",
						"offset": 0,
						"slot": "201",
						"type": "t_address"
					},
					{
						"astId": 130,
						"contract": "contracts/Smart_token.sol:SmartToken",
						"label": "__gap",
						"offset": 0,
						"slot": "202",
						"type": "t_array(t_uint256)49_storage"
					}
				],
				"types": {
					"t_address": {
						"encoding": "inplace",
						"label": "address",
						"numberOfBytes": "20"
					},
					"t_array(t_uint256)45_storage": {
						"base": "t_uint256",
						"encoding": "inplace",
						"label": "uint256[45]",
						"numberOfBytes": "1440"
					},
					"t_array(t_uint256)49_storage": {
						"base": "t_uint256",
						"encoding": "inplace",
						"label": "uint256[49]",
						"numberOfBytes": "1568"
					},
					"t_array(t_uint256)50_storage": {
						"base": "t_uint256",
						"encoding": "inplace",
						"label": "uint256[50]",
						"numberOfBytes": "1600"
					},
					"t_bool": {
						"encoding": "inplace",
						"label": "bool",
						"numberOfBytes": "1"
					},
					"t_mapping(t_address,t_mapping(t_address,t_uint256))": {
						"encoding": "mapping",
						"key": "t_address",
						"label": "mapping(address => mapping(address => uint256))",
						"numberOfBytes": "32",
						"value": "t_mapping(t_address,t_uint256)"
					},
					"t_mapping(t_address,t_uint256)": {
						"encoding": "mapping",
						"key": "t_address",
						"label": "mapping(address => uint256)",
						"numberOfBytes": "32",
						"value": "t_uint256"
					},
					"t_string_storage": {
						"encoding": "bytes",
						"label": "string",
						"numberOfBytes": "32"
					},
					"t_uint256": {
						"encoding": "inplace",
						"label": "uint256",
						"numberOfBytes": "32"
					},
					"t_uint8": {
						"encoding": "inplace",
						"label": "uint8",
						"numberOfBytes": "1"
					}
				}
			},
			"userdoc": {
				"kind": "user",
				"methods": {},
				"version": 1
			}
		}
	}
}