{
	"contracts/2_ShibaCopy.sol": {
		"TokenMintERC20Token": {
			"abi": [
				{
					"inputs": [
						{
							"internalType": "string",
							"name": "name",
							"type": "string"
						},
						{
							"internalType": "string",
							"name": "symbol",
							"type": "string"
						},
						{
							"internalType": "uint8",
							"name": "decimals",
							"type": "uint8"
						},
						{
							"internalType": "uint256",
							"name": "totalSupply",
							"type": "uint256"
						},
						{
							"internalType": "address payable",
							"name": "feeReceiver",
							"type": "address"
						},
						{
							"internalType": "address",
							"name": "tokenOwnerAddress",
							"type": "address"
						}
					],
					"stateMutability": "payable",
					"type": "constructor"
				},
				{
					"anonymous": false,
					"inputs": [
						{
							"indexed": true,
							"internalType": "address",
							"name": "owner",
							"type": "address"
						},
						{
							"indexed": true,
							"internalType": "address",
							"name": "spender",
							"type": "address"
						},
						{
							"indexed": false,
							"internalType": "uint256",
							"name": "value",
							"type": "uint256"
						}
					],
					"name": "Approval",
					"type": "event"
				},
				{
					"anonymous": false,
					"inputs": [
						{
							"indexed": true,
							"internalType": "address",
							"name": "from",
							"type": "address"
						},
						{
							"indexed": true,
							"internalType": "address",
							"name": "to",
							"type": "address"
						},
						{
							"indexed": false,
							"internalType": "uint256",
							"name": "value",
							"type": "uint256"
						}
					],
					"name": "Transfer",
					"type": "event"
				},
				{
					"inputs": [
						{
							"internalType": "address",
							"name": "owner",
							"type": "address"
						},
						{
							"internalType": "address",
							"name": "spender",
							"type": "address"
						}
					],
					"name": "allowance",
					"outputs": [
						{
							"internalType": "uint256",
							"name": "",
							"type": "uint256"
						}
					],
					"stateMutability": "view",
					"type": "function"
				},
				{
					"inputs": [
						{
							"internalType": "address",
							"name": "spender",
							"type": "address"
						},
						{
							"internalType": "uint256",
							"name": "value",
							"type": "uint256"
						}
					],
					"name": "approve",
					"outputs": [
						{
							"internalType": "bool",
							"name": "",
							"type": "bool"
						}
					],
					"stateMutability": "nonpayable",
					"type": "function"
				},
				{
					"inputs": [
						{
							"internalType": "address",
							"name": "account",
							"type": "address"
						}
					],
					"name": "balanceOf",
					"outputs": [
						{
							"internalType": "uint256",
							"name": "",
							"type": "uint256"
						}
					],
					"stateMutability": "view",
					"type": "function"
				},
				{
					"inputs": [
						{
							"internalType": "uint256",
							"name": "value",
							"type": "uint256"
						}
					],
					"name": "burn",
					"outputs": [],
					"stateMutability": "nonpayable",
					"type": "function"
				},
				{
					"inputs": [],
					"name": "decimals",
					"outputs": [
						{
							"internalType": "uint8",
							"name": "",
							"type": "uint8"
						}
					],
					"stateMutability": "view",
					"type": "function"
				},
				{
					"inputs": [
						{
							"internalType": "address",
							"name": "spender",
							"type": "address"
						},
						{
							"internalType": "uint256",
							"name": "subtractedValue",
							"type": "uint256"
						}
					],
					"name": "decreaseAllowance",
					"outputs": [
						{
							"internalType": "bool",
							"name": "",
							"type": "bool"
						}
					],
					"stateMutability": "nonpayable",
					"type": "function"
				},
				{
					"inputs": [
						{
							"internalType": "address",
							"name": "spender",
							"type": "address"
						},
						{
							"internalType": "uint256",
							"name": "addedValue",
							"type": "uint256"
						}
					],
					"name": "increaseAllowance",
					"outputs": [
						{
							"internalType": "bool",
							"name": "",
							"type": "bool"
						}
					],
					"stateMutability": "nonpayable",
					"type": "function"
				},
				{
					"inputs": [],
					"name": "name",
					"outputs": [
						{
							"internalType": "string",
							"name": "",
							"type": "string"
						}
					],
					"stateMutability": "view",
					"type": "function"
				},
				{
					"inputs": [],
					"name": "symbol",
					"outputs": [
						{
							"internalType": "string",
							"name": "",
							"type": "string"
						}
					],
					"stateMutability": "view",
					"type": "function"
				},
				{
					"inputs": [],
					"name": "totalSupply",
					"outputs": [
						{
							"internalType": "uint256",
							"name": "",
							"type": "uint256"
						}
					],
					"stateMutability": "view",
					"type": "function"
				},
				{
					"inputs": [
						{
							"internalType": "address",
							"name": "recipient",
							"type": "address"
						},
						{
							"internalType": "uint256",
							"name": "amount",
							"type": "uint256"
						}
					],
					"name": "transfer",
					"outputs": [
						{
							"internalType": "bool",
							"name": "",
							"type": "bool"
						}
					],
					"stateMutability": "nonpayable",
					"type": "function"
				},
				{
					"inputs": [
						{
							"internalType": "address",
							"name": "sender",
							"type": "address"
						},
						{
							"internalType": "address",
							"name": "recipient",
							"type": "address"
						},
						{
							"internalType": "uint256",
							"name": "amount",
							"type": "uint256"
						}
					],
					"name": "transferFrom",
					"outputs": [
						{
							"internalType": "bool",
							"name": "",
							"type": "bool"
						}
					],
					"stateMutability": "nonpayable",
					"type": "function"
				}
			],
			"devdoc": {
				"author": "TokenMint (visit https://tokenmint.io)",
				"details": "Standard ERC20 token with burning and optional functions implemented. For full specification of ERC-20 standard see: https://github.com/ethereum/EIPs/blob/master/EIPS/eip-20.md",
				"kind": "dev",
				"methods": {
					"allowance(address,address)": {
						"details": "See `IERC20.allowance`."
					},
					"approve(address,uint256)": {
						"details": "See `IERC20.approve`. Requirements: - `spender` cannot be the zero address."
					},
					"balanceOf(address)": {
						"details": "See `IERC20.balanceOf`."
					},
					"burn(uint256)": {
						"details": "Burns a specific amount of tokens.",
						"params": {
							"value": "The amount of lowest token units to be burned."
						}
					},
					"constructor": {
						"details": "Constructor.",
						"params": {
							"decimals": "number of decimal places of one token unit, 18 is widely used",
							"name": "name of the token",
							"symbol": "symbol of the token, 3-4 chars is recommended",
							"tokenOwnerAddress": "address that gets 100% of token supply",
							"totalSupply": "total supply of tokens in lowest units (depending on decimals)"
						}
					},
					"decimals()": {
						"returns": {
							"_0": "the number of decimals of the token."
						}
					},
					"decreaseAllowance(address,uint256)": {
						"details": "Atomically decreases the allowance granted to `spender` by the caller. This is an alternative to `approve` that can be used as a mitigation for problems described in `IERC20.approve`. Emits an `Approval` event indicating the updated allowance. Requirements: - `spender` cannot be the zero address. - `spender` must have allowance for the caller of at least `subtractedValue`."
					},
					"increaseAllowance(address,uint256)": {
						"details": "Atomically increases the allowance granted to `spender` by the caller. This is an alternative to `approve` that can be used as a mitigation for problems described in `IERC20.approve`. Emits an `Approval` event indicating the updated allowance. Requirements: - `spender` cannot be the zero address."
					},
					"name()": {
						"returns": {
							"_0": "the name of the token."
						}
					},
					"symbol()": {
						"returns": {
							"_0": "the symbol of the token."
						}
					},
					"totalSupply()": {
						"details": "See `IERC20.totalSupply`."
					},
					"transfer(address,uint256)": {
						"details": "See `IERC20.transfer`. Requirements: - `recipient` cannot be the zero address. - the caller must have a balance of at least `amount`."
					},
					"transferFrom(address,address,uint256)": {
						"details": "See `IERC20.transferFrom`. Emits an `Approval` event indicating the updated allowance. This is not required by the EIP. See the note at the beginning of `ERC20`; Requirements: - `sender` and `recipient` cannot be the zero address. - `sender` must have a balance of at least `value`. - the caller must have allowance for `sender`'s tokens of at least `amount`."
					}
				},
				"title": "TokenMintERC20Token",
				"version": 1
			},
			"evm": {
				"assembly": "    /* \"contracts/2_ShibaCopy.sol\":15179:16885  contract TokenMintERC20Token is ERC20 {... */\n  mstore(0x40, 0x80)\n    /* \"contracts/2_ShibaCopy.sol\":15712:16156  constructor(string memory name, string memory symbol, uint8 decimals, uint256 totalSupply, address payable feeReceiver, address tokenOwnerAddress) public payable {... */\n  mload(0x40)\n  sub(codesize, bytecodeSize)\n  dup1\n  bytecodeSize\n  dup4\n  codecopy\n  dup2\n  dup2\n  add\n  0x40\n  mstore\n  dup2\n  add\n  swap1\n  tag_1\n  swap2\n  swap1\n  tag_2\n  jump\t// in\ntag_1:\n    /* \"contracts/2_ShibaCopy.sol\":15891:15895  name */\n  dup6\n    /* \"contracts/2_ShibaCopy.sol\":15883:15888  _name */\n  0x03\n    /* \"contracts/2_ShibaCopy.sol\":15883:15895  _name = name */\n  swap1\n  dup1\n  mload\n  swap1\n  0x20\n  add\n  swap1\n  tag_5\n  swap3\n  swap2\n  swap1\n  tag_6\n  jump\t// in\ntag_5:\n  pop\n    /* \"contracts/2_ShibaCopy.sol\":15914:15920  symbol */\n  dup5\n    /* \"contracts/2_ShibaCopy.sol\":15904:15911  _symbol */\n  0x04\n    /* \"contracts/2_ShibaCopy.sol\":15904:15920  _symbol = symbol */\n  swap1\n  dup1\n  mload\n  swap1\n  0x20\n  add\n  swap1\n  tag_7\n  swap3\n  swap2\n  swap1\n  tag_6\n  jump\t// in\ntag_7:\n  pop\n    /* \"contracts/2_ShibaCopy.sol\":15941:15949  decimals */\n  dup4\n    /* \"contracts/2_ShibaCopy.sol\":15929:15938  _decimals */\n  0x05\n  0x00\n    /* \"contracts/2_ShibaCopy.sol\":15929:15949  _decimals = decimals */\n  0x0100\n  exp\n  dup2\n  sload\n  dup2\n  0xff\n  mul\n  not\n  and\n  swap1\n  dup4\n  0xff\n  and\n  mul\n  or\n  swap1\n  sstore\n  pop\n    /* \"contracts/2_ShibaCopy.sol\":16015:16052  _mint(tokenOwnerAddress, totalSupply) */\n  tag_8\n    /* \"contracts/2_ShibaCopy.sol\":16021:16038  tokenOwnerAddress */\n  dup2\n    /* \"contracts/2_ShibaCopy.sol\":16040:16051  totalSupply */\n  dup5\n    /* \"contracts/2_ShibaCopy.sol\":16015:16020  _mint */\n  shl(0x20, tag_9)\n    /* \"contracts/2_ShibaCopy.sol\":16015:16052  _mint(tokenOwnerAddress, totalSupply) */\n  0x20\n  shr\n  jump\t// in\ntag_8:\n    /* \"contracts/2_ShibaCopy.sol\":16117:16128  feeReceiver */\n  dup2\n    /* \"contracts/2_ShibaCopy.sol\":16117:16137  feeReceiver.transfer */\n  0xffffffffffffffffffffffffffffffffffffffff\n  and\n    /* \"contracts/2_ShibaCopy.sol\":16117:16148  feeReceiver.transfer(msg.value) */\n  0x08fc\n    /* \"contracts/2_ShibaCopy.sol\":16138:16147  msg.value */\n  callvalue\n    /* \"contracts/2_ShibaCopy.sol\":16117:16148  feeReceiver.transfer(msg.value) */\n  swap1\n  dup2\n  iszero\n  mul\n  swap1\n  mload(0x40)\n  0x00\n  mload(0x40)\n  dup1\n  dup4\n  sub\n  dup2\n  dup6\n  dup9\n  dup9\n  call\n  swap4\n  pop\n  pop\n  pop\n  pop\n  iszero\n  dup1\n  iszero\n  tag_11\n  jumpi\n  returndatasize\n  0x00\n  dup1\n  returndatacopy\n  revert(0x00, returndatasize)\ntag_11:\n  pop\n    /* \"contracts/2_ShibaCopy.sol\":15712:16156  constructor(string memory name, string memory symbol, uint8 decimals, uint256 totalSupply, address payable feeReceiver, address tokenOwnerAddress) public payable {... */\n  pop\n  pop\n  pop\n  pop\n  pop\n  pop\n    /* \"contracts/2_ShibaCopy.sol\":15179:16885  contract TokenMintERC20Token is ERC20 {... */\n  jump(tag_12)\n    /* \"contracts/2_ShibaCopy.sol\":12675:12983  function _mint(address account, uint256 amount) internal {... */\ntag_9:\n    /* \"contracts/2_ShibaCopy.sol\":12770:12771  0 */\n  0x00\n    /* \"contracts/2_ShibaCopy.sol\":12751:12772  account != address(0) */\n  0xffffffffffffffffffffffffffffffffffffffff\n  and\n    /* \"contracts/2_ShibaCopy.sol\":12751:12758  account */\n  dup3\n    /* \"contracts/2_ShibaCopy.sol\":12751:12772  account != address(0) */\n  0xffffffffffffffffffffffffffffffffffffffff\n  and\n  eq\n  iszero\n    /* \"contracts/2_ShibaCopy.sol\":12743:12808  require(account != address(0), \"ERC20: mint to the zero address\") */\n  tag_14\n  jumpi\n  mload(0x40)\n  0x08c379a000000000000000000000000000000000000000000000000000000000\n  dup2\n  mstore\n  0x04\n  add\n  tag_15\n  swap1\n  tag_16\n  jump\t// in\ntag_15:\n  mload(0x40)\n  dup1\n  swap2\n  sub\n  swap1\n  revert\ntag_14:\n    /* \"contracts/2_ShibaCopy.sol\":12836:12860  _totalSupply.add(amount) */\n  tag_17\n    /* \"contracts/2_ShibaCopy.sol\":12853:12859  amount */\n  dup2\n    /* \"contracts/2_ShibaCopy.sol\":12836:12848  _totalSupply */\n  sload(0x02)\n    /* \"contracts/2_ShibaCopy.sol\":12836:12852  _totalSupply.add */\n  or(tag_0_68, shl(0x20, tag_18))\n  swap1\n    /* \"contracts/2_ShibaCopy.sol\":12836:12860  _totalSupply.add(amount) */\n  swap2\n  swap1\n  0x20\n  shr\n  jump\t// in\ntag_17:\n    /* \"contracts/2_ShibaCopy.sol\":12821:12833  _totalSupply */\n  0x02\n    /* \"contracts/2_ShibaCopy.sol\":12821:12860  _totalSupply = _totalSupply.add(amount) */\n  dup2\n  swap1\n  sstore\n  pop\n    /* \"contracts/2_ShibaCopy.sol\":12892:12922  _balances[account].add(amount) */\n  tag_19\n    /* \"contracts/2_ShibaCopy.sol\":12915:12921  amount */\n  dup2\n    /* \"contracts/2_ShibaCopy.sol\":12892:12901  _balances */\n  0x00\n    /* \"contracts/2_ShibaCopy.sol\":12892:12910  _balances[account] */\n  dup1\n    /* \"contracts/2_ShibaCopy.sol\":12902:12909  account */\n  dup6\n    /* \"contracts/2_ShibaCopy.sol\":12892:12910  _balances[account] */\n  0xffffffffffffffffffffffffffffffffffffffff\n  and\n  0xffffffffffffffffffffffffffffffffffffffff\n  and\n  dup2\n  mstore\n  0x20\n  add\n  swap1\n  dup2\n  mstore\n  0x20\n  add\n  0x00\n  keccak256\n  sload\n    /* \"contracts/2_ShibaCopy.sol\":12892:12914  _balances[account].add */\n  or(tag_0_68, shl(0x20, tag_18))\n  swap1\n    /* \"contracts/2_ShibaCopy.sol\":12892:12922  _balances[account].add(amount) */\n  swap2\n  swap1\n  0x20\n  shr\n  jump\t// in\ntag_19:\n    /* \"contracts/2_ShibaCopy.sol\":12871:12880  _balances */\n  0x00\n    /* \"contracts/2_ShibaCopy.sol\":12871:12889  _balances[account] */\n  dup1\n    /* \"contracts/2_ShibaCopy.sol\":12881:12888  account */\n  dup5\n    /* \"contracts/2_ShibaCopy.sol\":12871:12889  _balances[account] */\n  0xffffffffffffffffffffffffffffffffffffffff\n  and\n  0xffffffffffffffffffffffffffffffffffffffff\n  and\n  dup2\n  mstore\n  0x20\n  add\n  swap1\n  dup2\n  mstore\n  0x20\n  add\n  0x00\n  keccak256\n    /* \"contracts/2_ShibaCopy.sol\":12871:12922  _balances[account] = _balances[account].add(amount) */\n  dup2\n  swap1\n  sstore\n  pop\n    /* \"contracts/2_ShibaCopy.sol\":12959:12966  account */\n  dup2\n    /* \"contracts/2_ShibaCopy.sol\":12938:12975  Transfer(address(0), account, amount) */\n  0xffffffffffffffffffffffffffffffffffffffff\n  and\n    /* \"contracts/2_ShibaCopy.sol\":12955:12956  0 */\n  0x00\n    /* \"contracts/2_ShibaCopy.sol\":12938:12975  Transfer(address(0), account, amount) */\n  0xffffffffffffffffffffffffffffffffffffffff\n  and\n  0xddf252ad1be2c89b69c2b068fc378daa952ba7f163c4a11628f55a4df523b3ef\n    /* \"contracts/2_ShibaCopy.sol\":12968:12974  amount */\n  dup4\n    /* \"contracts/2_ShibaCopy.sol\":12938:12975  Transfer(address(0), account, amount) */\n  mload(0x40)\n  tag_20\n  swap2\n  swap1\n  tag_21\n  jump\t// in\ntag_20:\n  mload(0x40)\n  dup1\n  swap2\n  sub\n  swap1\n  log3\n    /* \"contracts/2_ShibaCopy.sol\":12675:12983  function _mint(address account, uint256 amount) internal {... */\n  pop\n  pop\n  jump\t// out\n    /* \"contracts/2_ShibaCopy.sol\":3946:4127  function add(uint256 a, uint256 b) internal pure returns (uint256) {... */\ntag_18:\n    /* \"contracts/2_ShibaCopy.sol\":4004:4011  uint256 */\n  0x00\n    /* \"contracts/2_ShibaCopy.sol\":4024:4033  uint256 c */\n  dup1\n    /* \"contracts/2_ShibaCopy.sol\":4040:4041  b */\n  dup3\n    /* \"contracts/2_ShibaCopy.sol\":4036:4037  a */\n  dup5\n    /* \"contracts/2_ShibaCopy.sol\":4036:4041  a + b */\n  tag_23\n  swap2\n  swap1\n  tag_24\n  jump\t// in\ntag_23:\n    /* \"contracts/2_ShibaCopy.sol\":4024:4041  uint256 c = a + b */\n  swap1\n  pop\n    /* \"contracts/2_ShibaCopy.sol\":4065:4066  a */\n  dup4\n    /* \"contracts/2_ShibaCopy.sol\":4060:4061  c */\n  dup2\n    /* \"contracts/2_ShibaCopy.sol\":4060:4066  c >= a */\n  lt\n  iszero\n    /* \"contracts/2_ShibaCopy.sol\":4052:4098  require(c >= a, \"SafeMath: addition overflow\") */\n  tag_25\n  jumpi\n  mload(0x40)\n  0x08c379a000000000000000000000000000000000000000000000000000000000\n  dup2\n  mstore\n  0x04\n  add\n  tag_26\n  swap1\n  tag_27\n  jump\t// in\ntag_26:\n  mload(0x40)\n  dup1\n  swap2\n  sub\n  swap1\n  revert\ntag_25:\n    /* \"contracts/2_ShibaCopy.sol\":4118:4119  c */\n  dup1\n    /* \"contracts/2_ShibaCopy.sol\":4111:4119  return c */\n  swap2\n  pop\n  pop\n    /* \"contracts/2_ShibaCopy.sol\":3946:4127  function add(uint256 a, uint256 b) internal pure returns (uint256) {... */\n  swap3\n  swap2\n  pop\n  pop\n  jump\t// out\n    /* \"contracts/2_ShibaCopy.sol\":15179:16885  contract TokenMintERC20Token is ERC20 {... */\ntag_6:\n  dup3\n  dup1\n  sload\n  tag_28\n  swap1\n  tag_29\n  jump\t// in\ntag_28:\n  swap1\n  0x00\n  mstore\n  keccak256(0x00, 0x20)\n  swap1\n  0x1f\n  add\n  0x20\n  swap1\n  div\n  dup2\n  add\n  swap3\n  dup3\n  tag_31\n  jumpi\n  0x00\n  dup6\n  sstore\n  jump(tag_30)\ntag_31:\n  dup3\n  0x1f\n  lt\n  tag_32\n  jumpi\n  dup1\n  mload\n  not(0xff)\n  and\n  dup4\n  dup1\n  add\n  or\n  dup6\n  sstore\n  jump(tag_30)\ntag_32:\n  dup3\n  dup1\n  add\n  0x01\n  add\n  dup6\n  sstore\n  dup3\n  iszero\n  tag_30\n  jumpi\n  swap2\n  dup3\n  add\ntag_33:\n  dup3\n  dup2\n  gt\n  iszero\n  tag_34\n  jumpi\n  dup3\n  mload\n  dup3\n  sstore\n  swap2\n  0x20\n  add\n  swap2\n  swap1\n  0x01\n  add\n  swap1\n  jump(tag_33)\ntag_34:\ntag_30:\n  pop\n  swap1\n  pop\n  tag_35\n  swap2\n  swap1\n  tag_36\n  jump\t// in\ntag_35:\n  pop\n  swap1\n  jump\t// out\ntag_36:\ntag_37:\n  dup1\n  dup3\n  gt\n  iszero\n  tag_38\n  jumpi\n  0x00\n  dup2\n  0x00\n  swap1\n  sstore\n  pop\n  0x01\n  add\n  jump(tag_37)\ntag_38:\n  pop\n  swap1\n  jump\t// out\n    /* \"#utility.yul\":7:82   */\ntag_39:\n    /* \"#utility.yul\":40:46   */\n  0x00\n    /* \"#utility.yul\":73:75   */\n  0x40\n    /* \"#utility.yul\":67:76   */\n  mload\n    /* \"#utility.yul\":57:76   */\n  swap1\n  pop\n    /* \"#utility.yul\":7:82   */\n  swap1\n  jump\t// out\n    /* \"#utility.yul\":88:205   */\ntag_40:\n    /* \"#utility.yul\":197:198   */\n  0x00\n    /* \"#utility.yul\":194:195   */\n  dup1\n    /* \"#utility.yul\":187:199   */\n  revert\n    /* \"#utility.yul\":211:328   */\ntag_41:\n    /* \"#utility.yul\":320:321   */\n  0x00\n    /* \"#utility.yul\":317:318   */\n  dup1\n    /* \"#utility.yul\":310:322   */\n  revert\n    /* \"#utility.yul\":334:451   */\ntag_42:\n    /* \"#utility.yul\":443:444   */\n  0x00\n    /* \"#utility.yul\":440:441   */\n  dup1\n    /* \"#utility.yul\":433:445   */\n  revert\n    /* \"#utility.yul\":457:574   */\ntag_43:\n    /* \"#utility.yul\":566:567   */\n  0x00\n    /* \"#utility.yul\":563:564   */\n  dup1\n    /* \"#utility.yul\":556:568   */\n  revert\n    /* \"#utility.yul\":580:682   */\ntag_44:\n    /* \"#utility.yul\":621:627   */\n  0x00\n    /* \"#utility.yul\":672:674   */\n  0x1f\n    /* \"#utility.yul\":668:675   */\n  not\n    /* \"#utility.yul\":663:665   */\n  0x1f\n    /* \"#utility.yul\":656:661   */\n  dup4\n    /* \"#utility.yul\":652:666   */\n  add\n    /* \"#utility.yul\":648:676   */\n  and\n    /* \"#utility.yul\":638:676   */\n  swap1\n  pop\n    /* \"#utility.yul\":580:682   */\n  swap2\n  swap1\n  pop\n  jump\t// out\n    /* \"#utility.yul\":688:868   */\ntag_45:\n    /* \"#utility.yul\":736:813   */\n  0x4e487b7100000000000000000000000000000000000000000000000000000000\n    /* \"#utility.yul\":733:734   */\n  0x00\n    /* \"#utility.yul\":726:814   */\n  mstore\n    /* \"#utility.yul\":833:837   */\n  0x41\n    /* \"#utility.yul\":830:831   */\n  0x04\n    /* \"#utility.yul\":823:838   */\n  mstore\n    /* \"#utility.yul\":857:861   */\n  0x24\n    /* \"#utility.yul\":854:855   */\n  0x00\n    /* \"#utility.yul\":847:862   */\n  revert\n    /* \"#utility.yul\":874:1155   */\ntag_46:\n    /* \"#utility.yul\":957:984   */\n  tag_82\n    /* \"#utility.yul\":979:983   */\n  dup3\n    /* \"#utility.yul\":957:984   */\n  tag_44\n  jump\t// in\ntag_82:\n    /* \"#utility.yul\":949:955   */\n  dup2\n    /* \"#utility.yul\":945:985   */\n  add\n    /* \"#utility.yul\":1087:1093   */\n  dup2\n    /* \"#utility.yul\":1075:1085   */\n  dup2\n    /* \"#utility.yul\":1072:1094   */\n  lt\n    /* \"#utility.yul\":1051:1069   */\n  0xffffffffffffffff\n    /* \"#utility.yul\":1039:1049   */\n  dup3\n    /* \"#utility.yul\":1036:1070   */\n  gt\n    /* \"#utility.yul\":1033:1095   */\n  or\n    /* \"#utility.yul\":1030:1118   */\n  iszero\n  tag_83\n  jumpi\n    /* \"#utility.yul\":1098:1116   */\n  tag_84\n  tag_45\n  jump\t// in\ntag_84:\n    /* \"#utility.yul\":1030:1118   */\ntag_83:\n    /* \"#utility.yul\":1138:1148   */\n  dup1\n    /* \"#utility.yul\":1134:1136   */\n  0x40\n    /* \"#utility.yul\":1127:1149   */\n  mstore\n    /* \"#utility.yul\":917:1155   */\n  pop\n    /* \"#utility.yul\":874:1155   */\n  pop\n  pop\n  jump\t// out\n    /* \"#utility.yul\":1161:1290   */\ntag_47:\n    /* \"#utility.yul\":1195:1201   */\n  0x00\n    /* \"#utility.yul\":1222:1242   */\n  tag_86\n  tag_39\n  jump\t// in\ntag_86:\n    /* \"#utility.yul\":1212:1242   */\n  swap1\n  pop\n    /* \"#utility.yul\":1251:1284   */\n  tag_87\n    /* \"#utility.yul\":1279:1283   */\n  dup3\n    /* \"#utility.yul\":1271:1277   */\n  dup3\n    /* \"#utility.yul\":1251:1284   */\n  tag_46\n  jump\t// in\ntag_87:\n    /* \"#utility.yul\":1161:1290   */\n  swap2\n  swap1\n  pop\n  jump\t// out\n    /* \"#utility.yul\":1296:1604   */\ntag_48:\n    /* \"#utility.yul\":1358:1362   */\n  0x00\n    /* \"#utility.yul\":1448:1466   */\n  0xffffffffffffffff\n    /* \"#utility.yul\":1440:1446   */\n  dup3\n    /* \"#utility.yul\":1437:1467   */\n  gt\n    /* \"#utility.yul\":1434:1490   */\n  iszero\n  tag_89\n  jumpi\n    /* \"#utility.yul\":1470:1488   */\n  tag_90\n  tag_45\n  jump\t// in\ntag_90:\n    /* \"#utility.yul\":1434:1490   */\ntag_89:\n    /* \"#utility.yul\":1508:1537   */\n  tag_91\n    /* \"#utility.yul\":1530:1536   */\n  dup3\n    /* \"#utility.yul\":1508:1537   */\n  tag_44\n  jump\t// in\ntag_91:\n    /* \"#utility.yul\":1500:1537   */\n  swap1\n  pop\n    /* \"#utility.yul\":1592:1596   */\n  0x20\n    /* \"#utility.yul\":1586:1590   */\n  dup2\n    /* \"#utility.yul\":1582:1597   */\n  add\n    /* \"#utility.yul\":1574:1597   */\n  swap1\n  pop\n    /* \"#utility.yul\":1296:1604   */\n  swap2\n  swap1\n  pop\n  jump\t// out\n    /* \"#utility.yul\":1610:1917   */\ntag_49:\n    /* \"#utility.yul\":1678:1679   */\n  0x00\n    /* \"#utility.yul\":1688:1801   */\ntag_93:\n    /* \"#utility.yul\":1702:1708   */\n  dup4\n    /* \"#utility.yul\":1699:1700   */\n  dup2\n    /* \"#utility.yul\":1696:1709   */\n  lt\n    /* \"#utility.yul\":1688:1801   */\n  iszero\n  tag_95\n  jumpi\n    /* \"#utility.yul\":1787:1788   */\n  dup1\n    /* \"#utility.yul\":1782:1785   */\n  dup3\n    /* \"#utility.yul\":1778:1789   */\n  add\n    /* \"#utility.yul\":1772:1790   */\n  mload\n    /* \"#utility.yul\":1768:1769   */\n  dup2\n    /* \"#utility.yul\":1763:1766   */\n  dup5\n    /* \"#utility.yul\":1759:1770   */\n  add\n    /* \"#utility.yul\":1752:1791   */\n  mstore\n    /* \"#utility.yul\":1724:1726   */\n  0x20\n    /* \"#utility.yul\":1721:1722   */\n  dup2\n    /* \"#utility.yul\":1717:1727   */\n  add\n    /* \"#utility.yul\":1712:1727   */\n  swap1\n  pop\n    /* \"#utility.yul\":1688:1801   */\n  jump(tag_93)\ntag_95:\n    /* \"#utility.yul\":1819:1825   */\n  dup4\n    /* \"#utility.yul\":1816:1817   */\n  dup2\n    /* \"#utility.yul\":1813:1826   */\n  gt\n    /* \"#utility.yul\":1810:1911   */\n  iszero\n  tag_96\n  jumpi\n    /* \"#utility.yul\":1899:1900   */\n  0x00\n    /* \"#utility.yul\":1890:1896   */\n  dup5\n    /* \"#utility.yul\":1885:1888   */\n  dup5\n    /* \"#utility.yul\":1881:1897   */\n  add\n    /* \"#utility.yul\":1874:1901   */\n  mstore\n    /* \"#utility.yul\":1810:1911   */\ntag_96:\n    /* \"#utility.yul\":1659:1917   */\n  pop\n    /* \"#utility.yul\":1610:1917   */\n  pop\n  pop\n  pop\n  jump\t// out\n    /* \"#utility.yul\":1923:2344   */\ntag_50:\n    /* \"#utility.yul\":2012:2017   */\n  0x00\n    /* \"#utility.yul\":2037:2103   */\n  tag_98\n    /* \"#utility.yul\":2053:2102   */\n  tag_99\n    /* \"#utility.yul\":2095:2101   */\n  dup5\n    /* \"#utility.yul\":2053:2102   */\n  tag_48\n  jump\t// in\ntag_99:\n    /* \"#utility.yul\":2037:2103   */\n  tag_47\n  jump\t// in\ntag_98:\n    /* \"#utility.yul\":2028:2103   */\n  swap1\n  pop\n    /* \"#utility.yul\":2126:2132   */\n  dup3\n    /* \"#utility.yul\":2119:2124   */\n  dup2\n    /* \"#utility.yul\":2112:2133   */\n  mstore\n    /* \"#utility.yul\":2164:2168   */\n  0x20\n    /* \"#utility.yul\":2157:2162   */\n  dup2\n    /* \"#utility.yul\":2153:2169   */\n  add\n    /* \"#utility.yul\":2202:2205   */\n  dup5\n    /* \"#utility.yul\":2193:2199   */\n  dup5\n    /* \"#utility.yul\":2188:2191   */\n  dup5\n    /* \"#utility.yul\":2184:2200   */\n  add\n    /* \"#utility.yul\":2181:2206   */\n  gt\n    /* \"#utility.yul\":2178:2290   */\n  iszero\n  tag_100\n  jumpi\n    /* \"#utility.yul\":2209:2288   */\n  tag_101\n  tag_43\n  jump\t// in\ntag_101:\n    /* \"#utility.yul\":2178:2290   */\ntag_100:\n    /* \"#utility.yul\":2299:2338   */\n  tag_102\n    /* \"#utility.yul\":2331:2337   */\n  dup5\n    /* \"#utility.yul\":2326:2329   */\n  dup3\n    /* \"#utility.yul\":2321:2324   */\n  dup6\n    /* \"#utility.yul\":2299:2338   */\n  tag_49\n  jump\t// in\ntag_102:\n    /* \"#utility.yul\":2018:2344   */\n  pop\n    /* \"#utility.yul\":1923:2344   */\n  swap4\n  swap3\n  pop\n  pop\n  pop\n  jump\t// out\n    /* \"#utility.yul\":2364:2719   */\ntag_51:\n    /* \"#utility.yul\":2431:2436   */\n  0x00\n    /* \"#utility.yul\":2480:2483   */\n  dup3\n    /* \"#utility.yul\":2473:2477   */\n  0x1f\n    /* \"#utility.yul\":2465:2471   */\n  dup4\n    /* \"#utility.yul\":2461:2478   */\n  add\n    /* \"#utility.yul\":2457:2484   */\n  slt\n    /* \"#utility.yul\":2447:2569   */\n  tag_104\n  jumpi\n    /* \"#utility.yul\":2488:2567   */\n  tag_105\n  tag_42\n  jump\t// in\ntag_105:\n    /* \"#utility.yul\":2447:2569   */\ntag_104:\n    /* \"#utility.yul\":2598:2604   */\n  dup2\n    /* \"#utility.yul\":2592:2605   */\n  mload\n    /* \"#utility.yul\":2623:2713   */\n  tag_106\n    /* \"#utility.yul\":2709:2712   */\n  dup5\n    /* \"#utility.yul\":2701:2707   */\n  dup3\n    /* \"#utility.yul\":2694:2698   */\n  0x20\n    /* \"#utility.yul\":2686:2692   */\n  dup7\n    /* \"#utility.yul\":2682:2699   */\n  add\n    /* \"#utility.yul\":2623:2713   */\n  tag_50\n  jump\t// in\ntag_106:\n    /* \"#utility.yul\":2614:2713   */\n  swap2\n  pop\n    /* \"#utility.yul\":2437:2719   */\n  pop\n    /* \"#utility.yul\":2364:2719   */\n  swap3\n  swap2\n  pop\n  pop\n  jump\t// out\n    /* \"#utility.yul\":2725:2811   */\ntag_52:\n    /* \"#utility.yul\":2760:2767   */\n  0x00\n    /* \"#utility.yul\":2800:2804   */\n  0xff\n    /* \"#utility.yul\":2793:2798   */\n  dup3\n    /* \"#utility.yul\":2789:2805   */\n  and\n    /* \"#utility.yul\":2778:2805   */\n  swap1\n  pop\n    /* \"#utility.yul\":2725:2811   */\n  swap2\n  swap1\n  pop\n  jump\t// out\n    /* \"#utility.yul\":2817:2935   */\ntag_53:\n    /* \"#utility.yul\":2888:2910   */\n  tag_109\n    /* \"#utility.yul\":2904:2909   */\n  dup2\n    /* \"#utility.yul\":2888:2910   */\n  tag_52\n  jump\t// in\ntag_109:\n    /* \"#utility.yul\":2881:2886   */\n  dup2\n    /* \"#utility.yul\":2878:2911   */\n  eq\n    /* \"#utility.yul\":2868:2929   */\n  tag_110\n  jumpi\n    /* \"#utility.yul\":2925:2926   */\n  0x00\n    /* \"#utility.yul\":2922:2923   */\n  dup1\n    /* \"#utility.yul\":2915:2927   */\n  revert\n    /* \"#utility.yul\":2868:2929   */\ntag_110:\n    /* \"#utility.yul\":2817:2935   */\n  pop\n  jump\t// out\n    /* \"#utility.yul\":2941:3080   */\ntag_54:\n    /* \"#utility.yul\":2996:3001   */\n  0x00\n    /* \"#utility.yul\":3027:3033   */\n  dup2\n    /* \"#utility.yul\":3021:3034   */\n  mload\n    /* \"#utility.yul\":3012:3034   */\n  swap1\n  pop\n    /* \"#utility.yul\":3043:3074   */\n  tag_112\n    /* \"#utility.yul\":3068:3073   */\n  dup2\n    /* \"#utility.yul\":3043:3074   */\n  tag_53\n  jump\t// in\ntag_112:\n    /* \"#utility.yul\":2941:3080   */\n  swap3\n  swap2\n  pop\n  pop\n  jump\t// out\n    /* \"#utility.yul\":3086:3163   */\ntag_55:\n    /* \"#utility.yul\":3123:3130   */\n  0x00\n    /* \"#utility.yul\":3152:3157   */\n  dup2\n    /* \"#utility.yul\":3141:3157   */\n  swap1\n  pop\n    /* \"#utility.yul\":3086:3163   */\n  swap2\n  swap1\n  pop\n  jump\t// out\n    /* \"#utility.yul\":3169:3291   */\ntag_56:\n    /* \"#utility.yul\":3242:3266   */\n  tag_115\n    /* \"#utility.yul\":3260:3265   */\n  dup2\n    /* \"#utility.yul\":3242:3266   */\n  tag_55\n  jump\t// in\ntag_115:\n    /* \"#utility.yul\":3235:3240   */\n  dup2\n    /* \"#utility.yul\":3232:3267   */\n  eq\n    /* \"#utility.yul\":3222:3285   */\n  tag_116\n  jumpi\n    /* \"#utility.yul\":3281:3282   */\n  0x00\n    /* \"#utility.yul\":3278:3279   */\n  dup1\n    /* \"#utility.yul\":3271:3283   */\n  revert\n    /* \"#utility.yul\":3222:3285   */\ntag_116:\n    /* \"#utility.yul\":3169:3291   */\n  pop\n  jump\t// out\n    /* \"#utility.yul\":3297:3440   */\ntag_57:\n    /* \"#utility.yul\":3354:3359   */\n  0x00\n    /* \"#utility.yul\":3385:3391   */\n  dup2\n    /* \"#utility.yul\":3379:3392   */\n  mload\n    /* \"#utility.yul\":3370:3392   */\n  swap1\n  pop\n    /* \"#utility.yul\":3401:3434   */\n  tag_118\n    /* \"#utility.yul\":3428:3433   */\n  dup2\n    /* \"#utility.yul\":3401:3434   */\n  tag_56\n  jump\t// in\ntag_118:\n    /* \"#utility.yul\":3297:3440   */\n  swap3\n  swap2\n  pop\n  pop\n  jump\t// out\n    /* \"#utility.yul\":3446:3572   */\ntag_58:\n    /* \"#utility.yul\":3483:3490   */\n  0x00\n    /* \"#utility.yul\":3523:3565   */\n  0xffffffffffffffffffffffffffffffffffffffff\n    /* \"#utility.yul\":3516:3521   */\n  dup3\n    /* \"#utility.yul\":3512:3566   */\n  and\n    /* \"#utility.yul\":3501:3566   */\n  swap1\n  pop\n    /* \"#utility.yul\":3446:3572   */\n  swap2\n  swap1\n  pop\n  jump\t// out\n    /* \"#utility.yul\":3578:3682   */\ntag_59:\n    /* \"#utility.yul\":3623:3630   */\n  0x00\n    /* \"#utility.yul\":3652:3676   */\n  tag_121\n    /* \"#utility.yul\":3670:3675   */\n  dup3\n    /* \"#utility.yul\":3652:3676   */\n  tag_58\n  jump\t// in\ntag_121:\n    /* \"#utility.yul\":3641:3676   */\n  swap1\n  pop\n    /* \"#utility.yul\":3578:3682   */\n  swap2\n  swap1\n  pop\n  jump\t// out\n    /* \"#utility.yul\":3688:3826   */\ntag_60:\n    /* \"#utility.yul\":3769:3801   */\n  tag_123\n    /* \"#utility.yul\":3795:3800   */\n  dup2\n    /* \"#utility.yul\":3769:3801   */\n  tag_59\n  jump\t// in\ntag_123:\n    /* \"#utility.yul\":3762:3767   */\n  dup2\n    /* \"#utility.yul\":3759:3802   */\n  eq\n    /* \"#utility.yul\":3749:3820   */\n  tag_124\n  jumpi\n    /* \"#utility.yul\":3816:3817   */\n  0x00\n    /* \"#utility.yul\":3813:3814   */\n  dup1\n    /* \"#utility.yul\":3806:3818   */\n  revert\n    /* \"#utility.yul\":3749:3820   */\ntag_124:\n    /* \"#utility.yul\":3688:3826   */\n  pop\n  jump\t// out\n    /* \"#utility.yul\":3832:3991   */\ntag_61:\n    /* \"#utility.yul\":3897:3902   */\n  0x00\n    /* \"#utility.yul\":3928:3934   */\n  dup2\n    /* \"#utility.yul\":3922:3935   */\n  mload\n    /* \"#utility.yul\":3913:3935   */\n  swap1\n  pop\n    /* \"#utility.yul\":3944:3985   */\n  tag_126\n    /* \"#utility.yul\":3979:3984   */\n  dup2\n    /* \"#utility.yul\":3944:3985   */\n  tag_60\n  jump\t// in\ntag_126:\n    /* \"#utility.yul\":3832:3991   */\n  swap3\n  swap2\n  pop\n  pop\n  jump\t// out\n    /* \"#utility.yul\":3997:4093   */\ntag_62:\n    /* \"#utility.yul\":4034:4041   */\n  0x00\n    /* \"#utility.yul\":4063:4087   */\n  tag_128\n    /* \"#utility.yul\":4081:4086   */\n  dup3\n    /* \"#utility.yul\":4063:4087   */\n  tag_58\n  jump\t// in\ntag_128:\n    /* \"#utility.yul\":4052:4087   */\n  swap1\n  pop\n    /* \"#utility.yul\":3997:4093   */\n  swap2\n  swap1\n  pop\n  jump\t// out\n    /* \"#utility.yul\":4099:4221   */\ntag_63:\n    /* \"#utility.yul\":4172:4196   */\n  tag_130\n    /* \"#utility.yul\":4190:4195   */\n  dup2\n    /* \"#utility.yul\":4172:4196   */\n  tag_62\n  jump\t// in\ntag_130:\n    /* \"#utility.yul\":4165:4170   */\n  dup2\n    /* \"#utility.yul\":4162:4197   */\n  eq\n    /* \"#utility.yul\":4152:4215   */\n  tag_131\n  jumpi\n    /* \"#utility.yul\":4211:4212   */\n  0x00\n    /* \"#utility.yul\":4208:4209   */\n  dup1\n    /* \"#utility.yul\":4201:4213   */\n  revert\n    /* \"#utility.yul\":4152:4215   */\ntag_131:\n    /* \"#utility.yul\":4099:4221   */\n  pop\n  jump\t// out\n    /* \"#utility.yul\":4227:4370   */\ntag_64:\n    /* \"#utility.yul\":4284:4289   */\n  0x00\n    /* \"#utility.yul\":4315:4321   */\n  dup2\n    /* \"#utility.yul\":4309:4322   */\n  mload\n    /* \"#utility.yul\":4300:4322   */\n  swap1\n  pop\n    /* \"#utility.yul\":4331:4364   */\n  tag_133\n    /* \"#utility.yul\":4358:4363   */\n  dup2\n    /* \"#utility.yul\":4331:4364   */\n  tag_63\n  jump\t// in\ntag_133:\n    /* \"#utility.yul\":4227:4370   */\n  swap3\n  swap2\n  pop\n  pop\n  jump\t// out\n    /* \"#utility.yul\":4376:5868   */\ntag_2:\n    /* \"#utility.yul\":4517:4523   */\n  0x00\n    /* \"#utility.yul\":4525:4531   */\n  dup1\n    /* \"#utility.yul\":4533:4539   */\n  0x00\n    /* \"#utility.yul\":4541:4547   */\n  dup1\n    /* \"#utility.yul\":4549:4555   */\n  0x00\n    /* \"#utility.yul\":4557:4563   */\n  dup1\n    /* \"#utility.yul\":4606:4609   */\n  0xc0\n    /* \"#utility.yul\":4594:4603   */\n  dup8\n    /* \"#utility.yul\":4585:4592   */\n  dup10\n    /* \"#utility.yul\":4581:4604   */\n  sub\n    /* \"#utility.yul\":4577:4610   */\n  slt\n    /* \"#utility.yul\":4574:4694   */\n  iszero\n  tag_135\n  jumpi\n    /* \"#utility.yul\":4613:4692   */\n  tag_136\n  tag_40\n  jump\t// in\ntag_136:\n    /* \"#utility.yul\":4574:4694   */\ntag_135:\n    /* \"#utility.yul\":4754:4755   */\n  0x00\n    /* \"#utility.yul\":4743:4752   */\n  dup8\n    /* \"#utility.yul\":4739:4756   */\n  add\n    /* \"#utility.yul\":4733:4757   */\n  mload\n    /* \"#utility.yul\":4784:4802   */\n  0xffffffffffffffff\n    /* \"#utility.yul\":4776:4782   */\n  dup2\n    /* \"#utility.yul\":4773:4803   */\n  gt\n    /* \"#utility.yul\":4770:4887   */\n  iszero\n  tag_137\n  jumpi\n    /* \"#utility.yul\":4806:4885   */\n  tag_138\n  tag_41\n  jump\t// in\ntag_138:\n    /* \"#utility.yul\":4770:4887   */\ntag_137:\n    /* \"#utility.yul\":4911:4985   */\n  tag_139\n    /* \"#utility.yul\":4977:4984   */\n  dup10\n    /* \"#utility.yul\":4968:4974   */\n  dup3\n    /* \"#utility.yul\":4957:4966   */\n  dup11\n    /* \"#utility.yul\":4953:4975   */\n  add\n    /* \"#utility.yul\":4911:4985   */\n  tag_51\n  jump\t// in\ntag_139:\n    /* \"#utility.yul\":4901:4985   */\n  swap7\n  pop\n    /* \"#utility.yul\":4704:4995   */\n  pop\n    /* \"#utility.yul\":5055:5057   */\n  0x20\n    /* \"#utility.yul\":5044:5053   */\n  dup8\n    /* \"#utility.yul\":5040:5058   */\n  add\n    /* \"#utility.yul\":5034:5059   */\n  mload\n    /* \"#utility.yul\":5086:5104   */\n  0xffffffffffffffff\n    /* \"#utility.yul\":5078:5084   */\n  dup2\n    /* \"#utility.yul\":5075:5105   */\n  gt\n    /* \"#utility.yul\":5072:5189   */\n  iszero\n  tag_140\n  jumpi\n    /* \"#utility.yul\":5108:5187   */\n  tag_141\n  tag_41\n  jump\t// in\ntag_141:\n    /* \"#utility.yul\":5072:5189   */\ntag_140:\n    /* \"#utility.yul\":5213:5287   */\n  tag_142\n    /* \"#utility.yul\":5279:5286   */\n  dup10\n    /* \"#utility.yul\":5270:5276   */\n  dup3\n    /* \"#utility.yul\":5259:5268   */\n  dup11\n    /* \"#utility.yul\":5255:5277   */\n  add\n    /* \"#utility.yul\":5213:5287   */\n  tag_51\n  jump\t// in\ntag_142:\n    /* \"#utility.yul\":5203:5287   */\n  swap6\n  pop\n    /* \"#utility.yul\":5005:5297   */\n  pop\n    /* \"#utility.yul\":5336:5338   */\n  0x40\n    /* \"#utility.yul\":5362:5424   */\n  tag_143\n    /* \"#utility.yul\":5416:5423   */\n  dup10\n    /* \"#utility.yul\":5407:5413   */\n  dup3\n    /* \"#utility.yul\":5396:5405   */\n  dup11\n    /* \"#utility.yul\":5392:5414   */\n  add\n    /* \"#utility.yul\":5362:5424   */\n  tag_54\n  jump\t// in\ntag_143:\n    /* \"#utility.yul\":5352:5424   */\n  swap5\n  pop\n    /* \"#utility.yul\":5307:5434   */\n  pop\n    /* \"#utility.yul\":5473:5475   */\n  0x60\n    /* \"#utility.yul\":5499:5563   */\n  tag_144\n    /* \"#utility.yul\":5555:5562   */\n  dup10\n    /* \"#utility.yul\":5546:5552   */\n  dup3\n    /* \"#utility.yul\":5535:5544   */\n  dup11\n    /* \"#utility.yul\":5531:5553   */\n  add\n    /* \"#utility.yul\":5499:5563   */\n  tag_57\n  jump\t// in\ntag_144:\n    /* \"#utility.yul\":5489:5563   */\n  swap4\n  pop\n    /* \"#utility.yul\":5444:5573   */\n  pop\n    /* \"#utility.yul\":5612:5615   */\n  0x80\n    /* \"#utility.yul\":5639:5711   */\n  tag_145\n    /* \"#utility.yul\":5703:5710   */\n  dup10\n    /* \"#utility.yul\":5694:5700   */\n  dup3\n    /* \"#utility.yul\":5683:5692   */\n  dup11\n    /* \"#utility.yul\":5679:5701   */\n  add\n    /* \"#utility.yul\":5639:5711   */\n  tag_61\n  jump\t// in\ntag_145:\n    /* \"#utility.yul\":5629:5711   */\n  swap3\n  pop\n    /* \"#utility.yul\":5583:5721   */\n  pop\n    /* \"#utility.yul\":5760:5763   */\n  0xa0\n    /* \"#utility.yul\":5787:5851   */\n  tag_146\n    /* \"#utility.yul\":5843:5850   */\n  dup10\n    /* \"#utility.yul\":5834:5840   */\n  dup3\n    /* \"#utility.yul\":5823:5832   */\n  dup11\n    /* \"#utility.yul\":5819:5841   */\n  add\n    /* \"#utility.yul\":5787:5851   */\n  tag_64\n  jump\t// in\ntag_146:\n    /* \"#utility.yul\":5777:5851   */\n  swap2\n  pop\n    /* \"#utility.yul\":5731:5861   */\n  pop\n    /* \"#utility.yul\":4376:5868   */\n  swap3\n  swap6\n  pop\n  swap3\n  swap6\n  pop\n  swap3\n  swap6\n  jump\t// out\n    /* \"#utility.yul\":5874:6043   */\ntag_65:\n    /* \"#utility.yul\":5958:5969   */\n  0x00\n    /* \"#utility.yul\":5992:5998   */\n  dup3\n    /* \"#utility.yul\":5987:5990   */\n  dup3\n    /* \"#utility.yul\":5980:5999   */\n  mstore\n    /* \"#utility.yul\":6032:6036   */\n  0x20\n    /* \"#utility.yul\":6027:6030   */\n  dup3\n    /* \"#utility.yul\":6023:6037   */\n  add\n    /* \"#utility.yul\":6008:6037   */\n  swap1\n  pop\n    /* \"#utility.yul\":5874:6043   */\n  swap3\n  swap2\n  pop\n  pop\n  jump\t// out\n    /* \"#utility.yul\":6049:6230   */\ntag_66:\n    /* \"#utility.yul\":6189:6222   */\n  0x45524332303a206d696e7420746f20746865207a65726f206164647265737300\n    /* \"#utility.yul\":6185:6186   */\n  0x00\n    /* \"#utility.yul\":6177:6183   */\n  dup3\n    /* \"#utility.yul\":6173:6187   */\n  add\n    /* \"#utility.yul\":6166:6223   */\n  mstore\n    /* \"#utility.yul\":6049:6230   */\n  pop\n  jump\t// out\n    /* \"#utility.yul\":6236:6602   */\ntag_67:\n    /* \"#utility.yul\":6378:6381   */\n  0x00\n    /* \"#utility.yul\":6399:6466   */\n  tag_150\n    /* \"#utility.yul\":6463:6465   */\n  0x1f\n    /* \"#utility.yul\":6458:6461   */\n  dup4\n    /* \"#utility.yul\":6399:6466   */\n  tag_65\n  jump\t// in\ntag_150:\n    /* \"#utility.yul\":6392:6466   */\n  swap2\n  pop\n    /* \"#utility.yul\":6475:6568   */\n  tag_151\n    /* \"#utility.yul\":6564:6567   */\n  dup3\n    /* \"#utility.yul\":6475:6568   */\n  tag_66\n  jump\t// in\ntag_151:\n    /* \"#utility.yul\":6593:6595   */\n  0x20\n    /* \"#utility.yul\":6588:6591   */\n  dup3\n    /* \"#utility.yul\":6584:6596   */\n  add\n    /* \"#utility.yul\":6577:6596   */\n  swap1\n  pop\n    /* \"#utility.yul\":6236:6602   */\n  swap2\n  swap1\n  pop\n  jump\t// out\n    /* \"#utility.yul\":6608:7027   */\ntag_16:\n    /* \"#utility.yul\":6774:6778   */\n  0x00\n    /* \"#utility.yul\":6812:6814   */\n  0x20\n    /* \"#utility.yul\":6801:6810   */\n  dup3\n    /* \"#utility.yul\":6797:6815   */\n  add\n    /* \"#utility.yul\":6789:6815   */\n  swap1\n  pop\n    /* \"#utility.yul\":6861:6870   */\n  dup2\n    /* \"#utility.yul\":6855:6859   */\n  dup2\n    /* \"#utility.yul\":6851:6871   */\n  sub\n    /* \"#utility.yul\":6847:6848   */\n  0x00\n    /* \"#utility.yul\":6836:6845   */\n  dup4\n    /* \"#utility.yul\":6832:6849   */\n  add\n    /* \"#utility.yul\":6825:6872   */\n  mstore\n    /* \"#utility.yul\":6889:7020   */\n  tag_153\n    /* \"#utility.yul\":7015:7019   */\n  dup2\n    /* \"#utility.yul\":6889:7020   */\n  tag_67\n  jump\t// in\ntag_153:\n    /* \"#utility.yul\":6881:7020   */\n  swap1\n  pop\n    /* \"#utility.yul\":6608:7027   */\n  swap2\n  swap1\n  pop\n  jump\t// out\n    /* \"#utility.yul\":7033:7151   */\ntag_68:\n    /* \"#utility.yul\":7120:7144   */\n  tag_155\n    /* \"#utility.yul\":7138:7143   */\n  dup2\n    /* \"#utility.yul\":7120:7144   */\n  tag_55\n  jump\t// in\ntag_155:\n    /* \"#utility.yul\":7115:7118   */\n  dup3\n    /* \"#utility.yul\":7108:7145   */\n  mstore\n    /* \"#utility.yul\":7033:7151   */\n  pop\n  pop\n  jump\t// out\n    /* \"#utility.yul\":7157:7379   */\ntag_21:\n    /* \"#utility.yul\":7250:7254   */\n  0x00\n    /* \"#utility.yul\":7288:7290   */\n  0x20\n    /* \"#utility.yul\":7277:7286   */\n  dup3\n    /* \"#utility.yul\":7273:7291   */\n  add\n    /* \"#utility.yul\":7265:7291   */\n  swap1\n  pop\n    /* \"#utility.yul\":7301:7372   */\n  tag_157\n    /* \"#utility.yul\":7369:7370   */\n  0x00\n    /* \"#utility.yul\":7358:7367   */\n  dup4\n    /* \"#utility.yul\":7354:7371   */\n  add\n    /* \"#utility.yul\":7345:7351   */\n  dup5\n    /* \"#utility.yul\":7301:7372   */\n  tag_68\n  jump\t// in\ntag_157:\n    /* \"#utility.yul\":7157:7379   */\n  swap3\n  swap2\n  pop\n  pop\n  jump\t// out\n    /* \"#utility.yul\":7385:7565   */\ntag_69:\n    /* \"#utility.yul\":7433:7510   */\n  0x4e487b7100000000000000000000000000000000000000000000000000000000\n    /* \"#utility.yul\":7430:7431   */\n  0x00\n    /* \"#utility.yul\":7423:7511   */\n  mstore\n    /* \"#utility.yul\":7530:7534   */\n  0x11\n    /* \"#utility.yul\":7527:7528   */\n  0x04\n    /* \"#utility.yul\":7520:7535   */\n  mstore\n    /* \"#utility.yul\":7554:7558   */\n  0x24\n    /* \"#utility.yul\":7551:7552   */\n  0x00\n    /* \"#utility.yul\":7544:7559   */\n  revert\n    /* \"#utility.yul\":7571:7876   */\ntag_24:\n    /* \"#utility.yul\":7611:7614   */\n  0x00\n    /* \"#utility.yul\":7630:7650   */\n  tag_160\n    /* \"#utility.yul\":7648:7649   */\n  dup3\n    /* \"#utility.yul\":7630:7650   */\n  tag_55\n  jump\t// in\ntag_160:\n    /* \"#utility.yul\":7625:7650   */\n  swap2\n  pop\n    /* \"#utility.yul\":7664:7684   */\n  tag_161\n    /* \"#utility.yul\":7682:7683   */\n  dup4\n    /* \"#utility.yul\":7664:7684   */\n  tag_55\n  jump\t// in\ntag_161:\n    /* \"#utility.yul\":7659:7684   */\n  swap3\n  pop\n    /* \"#utility.yul\":7818:7819   */\n  dup3\n    /* \"#utility.yul\":7750:7816   */\n  0xffffffffffffffffffffffffffffffffffffffffffffffffffffffffffffffff\n    /* \"#utility.yul\":7746:7820   */\n  sub\n    /* \"#utility.yul\":7743:7744   */\n  dup3\n    /* \"#utility.yul\":7740:7821   */\n  gt\n    /* \"#utility.yul\":7737:7844   */\n  iszero\n  tag_162\n  jumpi\n    /* \"#utility.yul\":7824:7842   */\n  tag_163\n  tag_69\n  jump\t// in\ntag_163:\n    /* \"#utility.yul\":7737:7844   */\ntag_162:\n    /* \"#utility.yul\":7868:7869   */\n  dup3\n    /* \"#utility.yul\":7865:7866   */\n  dup3\n    /* \"#utility.yul\":7861:7870   */\n  add\n    /* \"#utility.yul\":7854:7870   */\n  swap1\n  pop\n    /* \"#utility.yul\":7571:7876   */\n  swap3\n  swap2\n  pop\n  pop\n  jump\t// out\n    /* \"#utility.yul\":7882:8059   */\ntag_70:\n    /* \"#utility.yul\":8022:8051   */\n  0x536166654d6174683a206164646974696f6e206f766572666c6f770000000000\n    /* \"#utility.yul\":8018:8019   */\n  0x00\n    /* \"#utility.yul\":8010:8016   */\n  dup3\n    /* \"#utility.yul\":8006:8020   */\n  add\n    /* \"#utility.yul\":7999:8052   */\n  mstore\n    /* \"#utility.yul\":7882:8059   */\n  pop\n  jump\t// out\n    /* \"#utility.yul\":8065:8431   */\ntag_71:\n    /* \"#utility.yul\":8207:8210   */\n  0x00\n    /* \"#utility.yul\":8228:8295   */\n  tag_166\n    /* \"#utility.yul\":8292:8294   */\n  0x1b\n    /* \"#utility.yul\":8287:8290   */\n  dup4\n    /* \"#utility.yul\":8228:8295   */\n  tag_65\n  jump\t// in\ntag_166:\n    /* \"#utility.yul\":8221:8295   */\n  swap2\n  pop\n    /* \"#utility.yul\":8304:8397   */\n  tag_167\n    /* \"#utility.yul\":8393:8396   */\n  dup3\n    /* \"#utility.yul\":8304:8397   */\n  tag_70\n  jump\t// in\ntag_167:\n    /* \"#utility.yul\":8422:8424   */\n  0x20\n    /* \"#utility.yul\":8417:8420   */\n  dup3\n    /* \"#utility.yul\":8413:8425   */\n  add\n    /* \"#utility.yul\":8406:8425   */\n  swap1\n  pop\n    /* \"#utility.yul\":8065:8431   */\n  swap2\n  swap1\n  pop\n  jump\t// out\n    /* \"#utility.yul\":8437:8856   */\ntag_27:\n    /* \"#utility.yul\":8603:8607   */\n  0x00\n    /* \"#utility.yul\":8641:8643   */\n  0x20\n    /* \"#utility.yul\":8630:8639   */\n  dup3\n    /* \"#utility.yul\":8626:8644   */\n  add\n    /* \"#utility.yul\":8618:8644   */\n  swap1\n  pop\n    /* \"#utility.yul\":8690:8699   */\n  dup2\n    /* \"#utility.yul\":8684:8688   */\n  dup2\n    /* \"#utility.yul\":8680:8700   */\n  sub\n    /* \"#utility.yul\":8676:8677   */\n  0x00\n    /* \"#utility.yul\":8665:8674   */\n  dup4\n    /* \"#utility.yul\":8661:8678   */\n  add\n    /* \"#utility.yul\":8654:8701   */\n  mstore\n    /* \"#utility.yul\":8718:8849   */\n  tag_169\n    /* \"#utility.yul\":8844:8848   */\n  dup2\n    /* \"#utility.yul\":8718:8849   */\n  tag_71\n  jump\t// in\ntag_169:\n    /* \"#utility.yul\":8710:8849   */\n  swap1\n  pop\n    /* \"#utility.yul\":8437:8856   */\n  swap2\n  swap1\n  pop\n  jump\t// out\n    /* \"#utility.yul\":8862:9042   */\ntag_72:\n    /* \"#utility.yul\":8910:8987   */\n  0x4e487b7100000000000000000000000000000000000000000000000000000000\n    /* \"#utility.yul\":8907:8908   */\n  0x00\n    /* \"#utility.yul\":8900:8988   */\n  mstore\n    /* \"#utility.yul\":9007:9011   */\n  0x22\n    /* \"#utility.yul\":9004:9005   */\n  0x04\n    /* \"#utility.yul\":8997:9012   */\n  mstore\n    /* \"#utility.yul\":9031:9035   */\n  0x24\n    /* \"#utility.yul\":9028:9029   */\n  0x00\n    /* \"#utility.yul\":9021:9036   */\n  revert\n    /* \"#utility.yul\":9048:9368   */\ntag_29:\n    /* \"#utility.yul\":9092:9098   */\n  0x00\n    /* \"#utility.yul\":9129:9130   */\n  0x02\n    /* \"#utility.yul\":9123:9127   */\n  dup3\n    /* \"#utility.yul\":9119:9131   */\n  div\n    /* \"#utility.yul\":9109:9131   */\n  swap1\n  pop\n    /* \"#utility.yul\":9176:9177   */\n  0x01\n    /* \"#utility.yul\":9170:9174   */\n  dup3\n    /* \"#utility.yul\":9166:9178   */\n  and\n    /* \"#utility.yul\":9197:9215   */\n  dup1\n    /* \"#utility.yul\":9187:9268   */\n  tag_172\n  jumpi\n    /* \"#utility.yul\":9253:9257   */\n  0x7f\n    /* \"#utility.yul\":9245:9251   */\n  dup3\n    /* \"#utility.yul\":9241:9258   */\n  and\n    /* \"#utility.yul\":9231:9258   */\n  swap2\n  pop\n    /* \"#utility.yul\":9187:9268   */\ntag_172:\n    /* \"#utility.yul\":9315:9317   */\n  0x20\n    /* \"#utility.yul\":9307:9313   */\n  dup3\n    /* \"#utility.yul\":9304:9318   */\n  lt\n    /* \"#utility.yul\":9284:9302   */\n  dup2\n    /* \"#utility.yul\":9281:9319   */\n  eq\n    /* \"#utility.yul\":9278:9362   */\n  iszero\n  tag_173\n  jumpi\n    /* \"#utility.yul\":9334:9352   */\n  tag_174\n  tag_72\n  jump\t// in\ntag_174:\n    /* \"#utility.yul\":9278:9362   */\ntag_173:\n    /* \"#utility.yul\":9099:9368   */\n  pop\n    /* \"#utility.yul\":9048:9368   */\n  swap2\n  swap1\n  pop\n  jump\t// out\n    /* \"contracts/2_ShibaCopy.sol\":15179:16885  contract TokenMintERC20Token is ERC20 {... */\ntag_12:\n  dataSize(sub_0)\n  dup1\n  dataOffset(sub_0)\n  0x00\n  codecopy\n  0x00\n  return\nstop\n\nsub_0: assembly {\n        /* \"contracts/2_ShibaCopy.sol\":15179:16885  contract TokenMintERC20Token is ERC20 {... */\n      mstore(0x40, 0x80)\n      callvalue\n      dup1\n      iszero\n      tag_1\n      jumpi\n      0x00\n      dup1\n      revert\n    tag_1:\n      pop\n      jumpi(tag_2, lt(calldatasize, 0x04))\n      shr(0xe0, calldataload(0x00))\n      dup1\n      0x42966c68\n      gt\n      tag_15\n      jumpi\n      dup1\n      0x42966c68\n      eq\n      tag_9\n      jumpi\n      dup1\n      0x70a08231\n      eq\n      tag_10\n      jumpi\n      dup1\n      0x95d89b41\n      eq\n      tag_11\n      jumpi\n      dup1\n      0xa457c2d7\n      eq\n      tag_12\n      jumpi\n      dup1\n      0xa9059cbb\n      eq\n      tag_13\n      jumpi\n      dup1\n      0xdd62ed3e\n      eq\n      tag_14\n      jumpi\n      jump(tag_2)\n    tag_15:\n      dup1\n      0x06fdde03\n      eq\n      tag_3\n      jumpi\n      dup1\n      0x095ea7b3\n      eq\n      tag_4\n      jumpi\n      dup1\n      0x18160ddd\n      eq\n      tag_5\n      jumpi\n      dup1\n      0x23b872dd\n      eq\n      tag_6\n      jumpi\n      dup1\n      0x313ce567\n      eq\n      tag_7\n      jumpi\n      dup1\n      0x39509351\n      eq\n      tag_8\n      jumpi\n    tag_2:\n      0x00\n      dup1\n      revert\n        /* \"contracts/2_ShibaCopy.sol\":16489:16570  function name() public view returns (string memory) {... */\n    tag_3:\n      tag_16\n      tag_17\n      jump\t// in\n    tag_16:\n      mload(0x40)\n      tag_18\n      swap2\n      swap1\n      tag_19\n      jump\t// in\n    tag_18:\n      mload(0x40)\n      dup1\n      swap2\n      sub\n      swap1\n      return\n        /* \"contracts/2_ShibaCopy.sol\":9266:9414  function approve(address spender, uint256 value) public returns (bool) {... */\n    tag_4:\n      tag_20\n      0x04\n      dup1\n      calldatasize\n      sub\n      dup2\n      add\n      swap1\n      tag_21\n      swap2\n      swap1\n      tag_22\n      jump\t// in\n    tag_21:\n      tag_23\n      jump\t// in\n    tag_20:\n      mload(0x40)\n      tag_24\n      swap2\n      swap1\n      tag_25\n      jump\t// in\n    tag_24:\n      mload(0x40)\n      dup1\n      swap2\n      sub\n      swap1\n      return\n        /* \"contracts/2_ShibaCopy.sol\":8289:8380  function totalSupply() public view returns (uint256) {... */\n    tag_5:\n      tag_26\n      tag_27\n      jump\t// in\n    tag_26:\n      mload(0x40)\n      tag_28\n      swap2\n      swap1\n      tag_29\n      jump\t// in\n    tag_28:\n      mload(0x40)\n      dup1\n      swap2\n      sub\n      swap1\n      return\n        /* \"contracts/2_ShibaCopy.sol\":9885:10141  function transferFrom(address sender, address recipient, uint256 amount) public returns (bool) {... */\n    tag_6:\n      tag_30\n      0x04\n      dup1\n      calldatasize\n      sub\n      dup2\n      add\n      swap1\n      tag_31\n      swap2\n      swap1\n      tag_32\n      jump\t// in\n    tag_31:\n      tag_33\n      jump\t// in\n    tag_30:\n      mload(0x40)\n      tag_34\n      swap2\n      swap1\n      tag_25\n      jump\t// in\n    tag_34:\n      mload(0x40)\n      dup1\n      swap2\n      sub\n      swap1\n      return\n        /* \"contracts/2_ShibaCopy.sol\":16801:16882  function decimals() public view returns (uint8) {... */\n    tag_7:\n      tag_35\n      tag_36\n      jump\t// in\n    tag_35:\n      mload(0x40)\n      tag_37\n      swap2\n      swap1\n      tag_38\n      jump\t// in\n    tag_37:\n      mload(0x40)\n      dup1\n      swap2\n      sub\n      swap1\n      return\n        /* \"contracts/2_ShibaCopy.sol\":10550:10756  function increaseAllowance(address spender, uint256 addedValue) public returns (bool) {... */\n    tag_8:\n      tag_39\n      0x04\n      dup1\n      calldatasize\n      sub\n      dup2\n      add\n      swap1\n      tag_40\n      swap2\n      swap1\n      tag_22\n      jump\t// in\n    tag_40:\n      tag_41\n      jump\t// in\n    tag_39:\n      mload(0x40)\n      tag_42\n      swap2\n      swap1\n      tag_25\n      jump\t// in\n    tag_42:\n      mload(0x40)\n      dup1\n      swap2\n      sub\n      swap1\n      return\n        /* \"contracts/2_ShibaCopy.sol\":16298:16375  function burn(uint256 value) public {... */\n    tag_9:\n      tag_43\n      0x04\n      dup1\n      calldatasize\n      sub\n      dup2\n      add\n      swap1\n      tag_44\n      swap2\n      swap1\n      tag_45\n      jump\t// in\n    tag_44:\n      tag_46\n      jump\t// in\n    tag_43:\n      stop\n        /* \"contracts/2_ShibaCopy.sol\":8443:8553  function balanceOf(address account) public view returns (uint256) {... */\n    tag_10:\n      tag_47\n      0x04\n      dup1\n      calldatasize\n      sub\n      dup2\n      add\n      swap1\n      tag_48\n      swap2\n      swap1\n      tag_49\n      jump\t// in\n    tag_48:\n      tag_50\n      jump\t// in\n    tag_47:\n      mload(0x40)\n      tag_51\n      swap2\n      swap1\n      tag_29\n      jump\t// in\n    tag_51:\n      mload(0x40)\n      dup1\n      swap2\n      sub\n      swap1\n      return\n        /* \"contracts/2_ShibaCopy.sol\":16637:16722  function symbol() public view returns (string memory) {... */\n    tag_11:\n      tag_52\n      tag_53\n      jump\t// in\n    tag_52:\n      mload(0x40)\n      tag_54\n      swap2\n      swap1\n      tag_19\n      jump\t// in\n    tag_54:\n      mload(0x40)\n      dup1\n      swap2\n      sub\n      swap1\n      return\n        /* \"contracts/2_ShibaCopy.sol\":11259:11475  function decreaseAllowance(address spender, uint256 subtractedValue) public returns (bool) {... */\n    tag_12:\n      tag_55\n      0x04\n      dup1\n      calldatasize\n      sub\n      dup2\n      add\n      swap1\n      tag_56\n      swap2\n      swap1\n      tag_22\n      jump\t// in\n    tag_56:\n      tag_57\n      jump\t// in\n    tag_55:\n      mload(0x40)\n      tag_58\n      swap2\n      swap1\n      tag_25\n      jump\t// in\n    tag_58:\n      mload(0x40)\n      dup1\n      swap2\n      sub\n      swap1\n      return\n        /* \"contracts/2_ShibaCopy.sol\":8766:8922  function transfer(address recipient, uint256 amount) public returns (bool) {... */\n    tag_13:\n      tag_59\n      0x04\n      dup1\n      calldatasize\n      sub\n      dup2\n      add\n      swap1\n      tag_60\n      swap2\n      swap1\n      tag_22\n      jump\t// in\n    tag_60:\n      tag_61\n      jump\t// in\n    tag_59:\n      mload(0x40)\n      tag_62\n      swap2\n      swap1\n      tag_25\n      jump\t// in\n    tag_62:\n      mload(0x40)\n      dup1\n      swap2\n      sub\n      swap1\n      return\n        /* \"contracts/2_ShibaCopy.sol\":8985:9119  function allowance(address owner, address spender) public view returns (uint256) {... */\n    tag_14:\n      tag_63\n      0x04\n      dup1\n      calldatasize\n      sub\n      dup2\n      add\n      swap1\n      tag_64\n      swap2\n      swap1\n      tag_65\n      jump\t// in\n    tag_64:\n      tag_66\n      jump\t// in\n    tag_63:\n      mload(0x40)\n      tag_67\n      swap2\n      swap1\n      tag_29\n      jump\t// in\n    tag_67:\n      mload(0x40)\n      dup1\n      swap2\n      sub\n      swap1\n      return\n        /* \"contracts/2_ShibaCopy.sol\":16489:16570  function name() public view returns (string memory) {... */\n    tag_17:\n        /* \"contracts/2_ShibaCopy.sol\":16526:16539  string memory */\n      0x60\n        /* \"contracts/2_ShibaCopy.sol\":16557:16562  _name */\n      0x03\n        /* \"contracts/2_ShibaCopy.sol\":16550:16562  return _name */\n      dup1\n      sload\n      tag_70\n      swap1\n      tag_71\n      jump\t// in\n    tag_70:\n      dup1\n      0x1f\n      add\n      0x20\n      dup1\n      swap2\n      div\n      mul\n      0x20\n      add\n      mload(0x40)\n      swap1\n      dup2\n      add\n      0x40\n      mstore\n      dup1\n      swap3\n      swap2\n      swap1\n      dup2\n      dup2\n      mstore\n      0x20\n      add\n      dup3\n      dup1\n      sload\n      tag_72\n      swap1\n      tag_71\n      jump\t// in\n    tag_72:\n      dup1\n      iszero\n      tag_73\n      jumpi\n      dup1\n      0x1f\n      lt\n      tag_74\n      jumpi\n      0x0100\n      dup1\n      dup4\n      sload\n      div\n      mul\n      dup4\n      mstore\n      swap2\n      0x20\n      add\n      swap2\n      jump(tag_73)\n    tag_74:\n      dup3\n      add\n      swap2\n      swap1\n      0x00\n      mstore\n      keccak256(0x00, 0x20)\n      swap1\n    tag_75:\n      dup2\n      sload\n      dup2\n      mstore\n      swap1\n      0x01\n      add\n      swap1\n      0x20\n      add\n      dup1\n      dup4\n      gt\n      tag_75\n      jumpi\n      dup3\n      swap1\n      sub\n      0x1f\n      and\n      dup3\n      add\n      swap2\n    tag_73:\n      pop\n      pop\n      pop\n      pop\n      pop\n      swap1\n      pop\n        /* \"contracts/2_ShibaCopy.sol\":16489:16570  function name() public view returns (string memory) {... */\n      swap1\n      jump\t// out\n        /* \"contracts/2_ShibaCopy.sol\":9266:9414  function approve(address spender, uint256 value) public returns (bool) {... */\n    tag_23:\n        /* \"contracts/2_ShibaCopy.sol\":9331:9335  bool */\n      0x00\n        /* \"contracts/2_ShibaCopy.sol\":9348:9384  _approve(msg.sender, spender, value) */\n      tag_77\n        /* \"contracts/2_ShibaCopy.sol\":9357:9367  msg.sender */\n      caller\n        /* \"contracts/2_ShibaCopy.sol\":9369:9376  spender */\n      dup5\n        /* \"contracts/2_ShibaCopy.sol\":9378:9383  value */\n      dup5\n        /* \"contracts/2_ShibaCopy.sol\":9348:9356  _approve */\n      tag_78\n        /* \"contracts/2_ShibaCopy.sol\":9348:9384  _approve(msg.sender, spender, value) */\n      jump\t// in\n    tag_77:\n        /* \"contracts/2_ShibaCopy.sol\":9402:9406  true */\n      0x01\n        /* \"contracts/2_ShibaCopy.sol\":9395:9406  return true */\n      swap1\n      pop\n        /* \"contracts/2_ShibaCopy.sol\":9266:9414  function approve(address spender, uint256 value) public returns (bool) {... */\n      swap3\n      swap2\n      pop\n      pop\n      jump\t// out\n        /* \"contracts/2_ShibaCopy.sol\":8289:8380  function totalSupply() public view returns (uint256) {... */\n    tag_27:\n        /* \"contracts/2_ShibaCopy.sol\":8333:8340  uint256 */\n      0x00\n        /* \"contracts/2_ShibaCopy.sol\":8360:8372  _totalSupply */\n      sload(0x02)\n        /* \"contracts/2_ShibaCopy.sol\":8353:8372  return _totalSupply */\n      swap1\n      pop\n        /* \"contracts/2_ShibaCopy.sol\":8289:8380  function totalSupply() public view returns (uint256) {... */\n      swap1\n      jump\t// out\n        /* \"contracts/2_ShibaCopy.sol\":9885:10141  function transferFrom(address sender, address recipient, uint256 amount) public returns (bool) {... */\n    tag_33:\n        /* \"contracts/2_ShibaCopy.sol\":9974:9978  bool */\n      0x00\n        /* \"contracts/2_ShibaCopy.sol\":9991:10027  _transfer(sender, recipient, amount) */\n      tag_81\n        /* \"contracts/2_ShibaCopy.sol\":10001:10007  sender */\n      dup5\n        /* \"contracts/2_ShibaCopy.sol\":10009:10018  recipient */\n      dup5\n        /* \"contracts/2_ShibaCopy.sol\":10020:10026  amount */\n      dup5\n        /* \"contracts/2_ShibaCopy.sol\":9991:10000  _transfer */\n      tag_82\n        /* \"contracts/2_ShibaCopy.sol\":9991:10027  _transfer(sender, recipient, amount) */\n      jump\t// in\n    tag_81:\n        /* \"contracts/2_ShibaCopy.sol\":10038:10111  _approve(sender, msg.sender, _allowances[sender][msg.sender].sub(amount)) */\n      tag_83\n        /* \"contracts/2_ShibaCopy.sol\":10047:10053  sender */\n      dup5\n        /* \"contracts/2_ShibaCopy.sol\":10055:10065  msg.sender */\n      caller\n        /* \"contracts/2_ShibaCopy.sol\":10067:10110  _allowances[sender][msg.sender].sub(amount) */\n      tag_84\n        /* \"contracts/2_ShibaCopy.sol\":10103:10109  amount */\n      dup6\n        /* \"contracts/2_ShibaCopy.sol\":10067:10078  _allowances */\n      0x01\n        /* \"contracts/2_ShibaCopy.sol\":10067:10086  _allowances[sender] */\n      0x00\n        /* \"contracts/2_ShibaCopy.sol\":10079:10085  sender */\n      dup11\n        /* \"contracts/2_ShibaCopy.sol\":10067:10086  _allowances[sender] */\n      0xffffffffffffffffffffffffffffffffffffffff\n      and\n      0xffffffffffffffffffffffffffffffffffffffff\n      and\n      dup2\n      mstore\n      0x20\n      add\n      swap1\n      dup2\n      mstore\n      0x20\n      add\n      0x00\n      keccak256\n        /* \"contracts/2_ShibaCopy.sol\":10067:10098  _allowances[sender][msg.sender] */\n      0x00\n        /* \"contracts/2_ShibaCopy.sol\":10087:10097  msg.sender */\n      caller\n        /* \"contracts/2_ShibaCopy.sol\":10067:10098  _allowances[sender][msg.sender] */\n      0xffffffffffffffffffffffffffffffffffffffff\n      and\n      0xffffffffffffffffffffffffffffffffffffffff\n      and\n      dup2\n      mstore\n      0x20\n      add\n      swap1\n      dup2\n      mstore\n      0x20\n      add\n      0x00\n      keccak256\n      sload\n        /* \"contracts/2_ShibaCopy.sol\":10067:10102  _allowances[sender][msg.sender].sub */\n      tag_85\n      swap1\n        /* \"contracts/2_ShibaCopy.sol\":10067:10110  _allowances[sender][msg.sender].sub(amount) */\n      swap2\n      swap1\n      0xffffffff\n      and\n      jump\t// in\n    tag_84:\n        /* \"contracts/2_ShibaCopy.sol\":10038:10046  _approve */\n      tag_78\n        /* \"contracts/2_ShibaCopy.sol\":10038:10111  _approve(sender, msg.sender, _allowances[sender][msg.sender].sub(amount)) */\n      jump\t// in\n    tag_83:\n        /* \"contracts/2_ShibaCopy.sol\":10129:10133  true */\n      0x01\n        /* \"contracts/2_ShibaCopy.sol\":10122:10133  return true */\n      swap1\n      pop\n        /* \"contracts/2_ShibaCopy.sol\":9885:10141  function transferFrom(address sender, address recipient, uint256 amount) public returns (bool) {... */\n      swap4\n      swap3\n      pop\n      pop\n      pop\n      jump\t// out\n        /* \"contracts/2_ShibaCopy.sol\":16801:16882  function decimals() public view returns (uint8) {... */\n    tag_36:\n        /* \"contracts/2_ShibaCopy.sol\":16842:16847  uint8 */\n      0x00\n        /* \"contracts/2_ShibaCopy.sol\":16865:16874  _decimals */\n      0x05\n      0x00\n      swap1\n      sload\n      swap1\n      0x0100\n      exp\n      swap1\n      div\n      0xff\n      and\n        /* \"contracts/2_ShibaCopy.sol\":16858:16874  return _decimals */\n      swap1\n      pop\n        /* \"contracts/2_ShibaCopy.sol\":16801:16882  function decimals() public view returns (uint8) {... */\n      swap1\n      jump\t// out\n        /* \"contracts/2_ShibaCopy.sol\":10550:10756  function increaseAllowance(address spender, uint256 addedValue) public returns (bool) {... */\n    tag_41:\n        /* \"contracts/2_ShibaCopy.sol\":10630:10634  bool */\n      0x00\n        /* \"contracts/2_ShibaCopy.sol\":10647:10726  _approve(msg.sender, spender, _allowances[msg.sender][spender].add(addedValue)) */\n      tag_88\n        /* \"contracts/2_ShibaCopy.sol\":10656:10666  msg.sender */\n      caller\n        /* \"contracts/2_ShibaCopy.sol\":10668:10675  spender */\n      dup5\n        /* \"contracts/2_ShibaCopy.sol\":10677:10725  _allowances[msg.sender][spender].add(addedValue) */\n      tag_89\n        /* \"contracts/2_ShibaCopy.sol\":10714:10724  addedValue */\n      dup6\n        /* \"contracts/2_ShibaCopy.sol\":10677:10688  _allowances */\n      0x01\n        /* \"contracts/2_ShibaCopy.sol\":10677:10700  _allowances[msg.sender] */\n      0x00\n        /* \"contracts/2_ShibaCopy.sol\":10689:10699  msg.sender */\n      caller\n        /* \"contracts/2_ShibaCopy.sol\":10677:10700  _allowances[msg.sender] */\n      0xffffffffffffffffffffffffffffffffffffffff\n      and\n      0xffffffffffffffffffffffffffffffffffffffff\n      and\n      dup2\n      mstore\n      0x20\n      add\n      swap1\n      dup2\n      mstore\n      0x20\n      add\n      0x00\n      keccak256\n        /* \"contracts/2_ShibaCopy.sol\":10677:10709  _allowances[msg.sender][spender] */\n      0x00\n        /* \"contracts/2_ShibaCopy.sol\":10701:10708  spender */\n      dup10\n        /* \"contracts/2_ShibaCopy.sol\":10677:10709  _allowances[msg.sender][spender] */\n      0xffffffffffffffffffffffffffffffffffffffff\n      and\n      0xffffffffffffffffffffffffffffffffffffffff\n      and\n      dup2\n      mstore\n      0x20\n      add\n      swap1\n      dup2\n      mstore\n      0x20\n      add\n      0x00\n      keccak256\n      sload\n        /* \"contracts/2_ShibaCopy.sol\":10677:10713  _allowances[msg.sender][spender].add */\n      tag_68\n      swap1\n        /* \"contracts/2_ShibaCopy.sol\":10677:10725  _allowances[msg.sender][spender].add(addedValue) */\n      swap2\n      swap1\n      0xffffffff\n      and\n      jump\t// in\n    tag_89:\n        /* \"contracts/2_ShibaCopy.sol\":10647:10655  _approve */\n      tag_78\n        /* \"contracts/2_ShibaCopy.sol\":10647:10726  _approve(msg.sender, spender, _allowances[msg.sender][spender].add(addedValue)) */\n      jump\t// in\n    tag_88:\n        /* \"contracts/2_ShibaCopy.sol\":10744:10748  true */\n      0x01\n        /* \"contracts/2_ShibaCopy.sol\":10737:10748  return true */\n      swap1\n      pop\n        /* \"contracts/2_ShibaCopy.sol\":10550:10756  function increaseAllowance(address spender, uint256 addedValue) public returns (bool) {... */\n      swap3\n      swap2\n      pop\n      pop\n      jump\t// out\n        /* \"contracts/2_ShibaCopy.sol\":16298:16375  function burn(uint256 value) public {... */\n    tag_46:\n        /* \"contracts/2_ShibaCopy.sol\":16343:16367  _burn(msg.sender, value) */\n      tag_91\n        /* \"contracts/2_ShibaCopy.sol\":16349:16359  msg.sender */\n      caller\n        /* \"contracts/2_ShibaCopy.sol\":16361:16366  value */\n      dup3\n        /* \"contracts/2_ShibaCopy.sol\":16343:16348  _burn */\n      tag_92\n        /* \"contracts/2_ShibaCopy.sol\":16343:16367  _burn(msg.sender, value) */\n      jump\t// in\n    tag_91:\n        /* \"contracts/2_ShibaCopy.sol\":16298:16375  function burn(uint256 value) public {... */\n      pop\n      jump\t// out\n        /* \"contracts/2_ShibaCopy.sol\":8443:8553  function balanceOf(address account) public view returns (uint256) {... */\n    tag_50:\n        /* \"contracts/2_ShibaCopy.sol\":8500:8507  uint256 */\n      0x00\n        /* \"contracts/2_ShibaCopy.sol\":8527:8536  _balances */\n      dup1\n        /* \"contracts/2_ShibaCopy.sol\":8527:8545  _balances[account] */\n      0x00\n        /* \"contracts/2_ShibaCopy.sol\":8537:8544  account */\n      dup4\n        /* \"contracts/2_ShibaCopy.sol\":8527:8545  _balances[account] */\n      0xffffffffffffffffffffffffffffffffffffffff\n      and\n      0xffffffffffffffffffffffffffffffffffffffff\n      and\n      dup2\n      mstore\n      0x20\n      add\n      swap1\n      dup2\n      mstore\n      0x20\n      add\n      0x00\n      keccak256\n      sload\n        /* \"contracts/2_ShibaCopy.sol\":8520:8545  return _balances[account] */\n      swap1\n      pop\n        /* \"contracts/2_ShibaCopy.sol\":8443:8553  function balanceOf(address account) public view returns (uint256) {... */\n      swap2\n      swap1\n      pop\n      jump\t// out\n        /* \"contracts/2_ShibaCopy.sol\":16637:16722  function symbol() public view returns (string memory) {... */\n    tag_53:\n        /* \"contracts/2_ShibaCopy.sol\":16676:16689  string memory */\n      0x60\n        /* \"contracts/2_ShibaCopy.sol\":16707:16714  _symbol */\n      0x04\n        /* \"contracts/2_ShibaCopy.sol\":16700:16714  return _symbol */\n      dup1\n      sload\n      tag_95\n      swap1\n      tag_71\n      jump\t// in\n    tag_95:\n      dup1\n      0x1f\n      add\n      0x20\n      dup1\n      swap2\n      div\n      mul\n      0x20\n      add\n      mload(0x40)\n      swap1\n      dup2\n      add\n      0x40\n      mstore\n      dup1\n      swap3\n      swap2\n      swap1\n      dup2\n      dup2\n      mstore\n      0x20\n      add\n      dup3\n      dup1\n      sload\n      tag_96\n      swap1\n      tag_71\n      jump\t// in\n    tag_96:\n      dup1\n      iszero\n      tag_97\n      jumpi\n      dup1\n      0x1f\n      lt\n      tag_98\n      jumpi\n      0x0100\n      dup1\n      dup4\n      sload\n      div\n      mul\n      dup4\n      mstore\n      swap2\n      0x20\n      add\n      swap2\n      jump(tag_97)\n    tag_98:\n      dup3\n      add\n      swap2\n      swap1\n      0x00\n      mstore\n      keccak256(0x00, 0x20)\n      swap1\n    tag_99:\n      dup2\n      sload\n      dup2\n      mstore\n      swap1\n      0x01\n      add\n      swap1\n      0x20\n      add\n      dup1\n      dup4\n      gt\n      tag_99\n      jumpi\n      dup3\n      swap1\n      sub\n      0x1f\n      and\n      dup3\n      add\n      swap2\n    tag_97:\n      pop\n      pop\n      pop\n      pop\n      pop\n      swap1\n      pop\n        /* \"contracts/2_ShibaCopy.sol\":16637:16722  function symbol() public view returns (string memory) {... */\n      swap1\n      jump\t// out\n        /* \"contracts/2_ShibaCopy.sol\":11259:11475  function decreaseAllowance(address spender, uint256 subtractedValue) public returns (bool) {... */\n    tag_57:\n        /* \"contracts/2_ShibaCopy.sol\":11344:11348  bool */\n      0x00\n        /* \"contracts/2_ShibaCopy.sol\":11361:11445  _approve(msg.sender, spender, _allowances[msg.sender][spender].sub(subtractedValue)) */\n      tag_101\n        /* \"contracts/2_ShibaCopy.sol\":11370:11380  msg.sender */\n      caller\n        /* \"contracts/2_ShibaCopy.sol\":11382:11389  spender */\n      dup5\n        /* \"contracts/2_ShibaCopy.sol\":11391:11444  _allowances[msg.sender][spender].sub(subtractedValue) */\n      tag_102\n        /* \"contracts/2_ShibaCopy.sol\":11428:11443  subtractedValue */\n      dup6\n        /* \"contracts/2_ShibaCopy.sol\":11391:11402  _allowances */\n      0x01\n        /* \"contracts/2_ShibaCopy.sol\":11391:11414  _allowances[msg.sender] */\n      0x00\n        /* \"contracts/2_ShibaCopy.sol\":11403:11413  msg.sender */\n      caller\n        /* \"contracts/2_ShibaCopy.sol\":11391:11414  _allowances[msg.sender] */\n      0xffffffffffffffffffffffffffffffffffffffff\n      and\n      0xffffffffffffffffffffffffffffffffffffffff\n      and\n      dup2\n      mstore\n      0x20\n      add\n      swap1\n      dup2\n      mstore\n      0x20\n      add\n      0x00\n      keccak256\n        /* \"contracts/2_ShibaCopy.sol\":11391:11423  _allowances[msg.sender][spender] */\n      0x00\n        /* \"contracts/2_ShibaCopy.sol\":11415:11422  spender */\n      dup10\n        /* \"contracts/2_ShibaCopy.sol\":11391:11423  _allowances[msg.sender][spender] */\n      0xffffffffffffffffffffffffffffffffffffffff\n      and\n      0xffffffffffffffffffffffffffffffffffffffff\n      and\n      dup2\n      mstore\n      0x20\n      add\n      swap1\n      dup2\n      mstore\n      0x20\n      add\n      0x00\n      keccak256\n      sload\n        /* \"contracts/2_ShibaCopy.sol\":11391:11427  _allowances[msg.sender][spender].sub */\n      tag_85\n      swap1\n        /* \"contracts/2_ShibaCopy.sol\":11391:11444  _allowances[msg.sender][spender].sub(subtractedValue) */\n      swap2\n      swap1\n      0xffffffff\n      and\n      jump\t// in\n    tag_102:\n        /* \"contracts/2_ShibaCopy.sol\":11361:11369  _approve */\n      tag_78\n        /* \"contracts/2_ShibaCopy.sol\":11361:11445  _approve(msg.sender, spender, _allowances[msg.sender][spender].sub(subtractedValue)) */\n      jump\t// in\n    tag_101:\n        /* \"contracts/2_ShibaCopy.sol\":11463:11467  true */\n      0x01\n        /* \"contracts/2_ShibaCopy.sol\":11456:11467  return true */\n      swap1\n      pop\n        /* \"contracts/2_ShibaCopy.sol\":11259:11475  function decreaseAllowance(address spender, uint256 subtractedValue) public returns (bool) {... */\n      swap3\n      swap2\n      pop\n      pop\n      jump\t// out\n        /* \"contracts/2_ShibaCopy.sol\":8766:8922  function transfer(address recipient, uint256 amount) public returns (bool) {... */\n    tag_61:\n        /* \"contracts/2_ShibaCopy.sol\":8835:8839  bool */\n      0x00\n        /* \"contracts/2_ShibaCopy.sol\":8852:8892  _transfer(msg.sender, recipient, amount) */\n      tag_104\n        /* \"contracts/2_ShibaCopy.sol\":8862:8872  msg.sender */\n      caller\n        /* \"contracts/2_ShibaCopy.sol\":8874:8883  recipient */\n      dup5\n        /* \"contracts/2_ShibaCopy.sol\":8885:8891  amount */\n      dup5\n        /* \"contracts/2_ShibaCopy.sol\":8852:8861  _transfer */\n      tag_82\n        /* \"contracts/2_ShibaCopy.sol\":8852:8892  _transfer(msg.sender, recipient, amount) */\n      jump\t// in\n    tag_104:\n        /* \"contracts/2_ShibaCopy.sol\":8910:8914  true */\n      0x01\n        /* \"contracts/2_ShibaCopy.sol\":8903:8914  return true */\n      swap1\n      pop\n        /* \"contracts/2_ShibaCopy.sol\":8766:8922  function transfer(address recipient, uint256 amount) public returns (bool) {... */\n      swap3\n      swap2\n      pop\n      pop\n      jump\t// out\n        /* \"contracts/2_ShibaCopy.sol\":8985:9119  function allowance(address owner, address spender) public view returns (uint256) {... */\n    tag_66:\n        /* \"contracts/2_ShibaCopy.sol\":9057:9064  uint256 */\n      0x00\n        /* \"contracts/2_ShibaCopy.sol\":9084:9095  _allowances */\n      0x01\n        /* \"contracts/2_ShibaCopy.sol\":9084:9102  _allowances[owner] */\n      0x00\n        /* \"contracts/2_ShibaCopy.sol\":9096:9101  owner */\n      dup5\n        /* \"contracts/2_ShibaCopy.sol\":9084:9102  _allowances[owner] */\n      0xffffffffffffffffffffffffffffffffffffffff\n      and\n      0xffffffffffffffffffffffffffffffffffffffff\n      and\n      dup2\n      mstore\n      0x20\n      add\n      swap1\n      dup2\n      mstore\n      0x20\n      add\n      0x00\n      keccak256\n        /* \"contracts/2_ShibaCopy.sol\":9084:9111  _allowances[owner][spender] */\n      0x00\n        /* \"contracts/2_ShibaCopy.sol\":9103:9110  spender */\n      dup4\n        /* \"contracts/2_ShibaCopy.sol\":9084:9111  _allowances[owner][spender] */\n      0xffffffffffffffffffffffffffffffffffffffff\n      and\n      0xffffffffffffffffffffffffffffffffffffffff\n      and\n      dup2\n      mstore\n      0x20\n      add\n      swap1\n      dup2\n      mstore\n      0x20\n      add\n      0x00\n      keccak256\n      sload\n        /* \"contracts/2_ShibaCopy.sol\":9077:9111  return _allowances[owner][spender] */\n      swap1\n      pop\n        /* \"contracts/2_ShibaCopy.sol\":8985:9119  function allowance(address owner, address spender) public view returns (uint256) {... */\n      swap3\n      swap2\n      pop\n      pop\n      jump\t// out\n        /* \"contracts/2_ShibaCopy.sol\":3946:4127  function add(uint256 a, uint256 b) internal pure returns (uint256) {... */\n    tag_68:\n        /* \"contracts/2_ShibaCopy.sol\":4004:4011  uint256 */\n      0x00\n        /* \"contracts/2_ShibaCopy.sol\":4024:4033  uint256 c */\n      dup1\n        /* \"contracts/2_ShibaCopy.sol\":4040:4041  b */\n      dup3\n        /* \"contracts/2_ShibaCopy.sol\":4036:4037  a */\n      dup5\n        /* \"contracts/2_ShibaCopy.sol\":4036:4041  a + b */\n      tag_107\n      swap2\n      swap1\n      tag_108\n      jump\t// in\n    tag_107:\n        /* \"contracts/2_ShibaCopy.sol\":4024:4041  uint256 c = a + b */\n      swap1\n      pop\n        /* \"contracts/2_ShibaCopy.sol\":4065:4066  a */\n      dup4\n        /* \"contracts/2_ShibaCopy.sol\":4060:4061  c */\n      dup2\n        /* \"contracts/2_ShibaCopy.sol\":4060:4066  c >= a */\n      lt\n      iszero\n        /* \"contracts/2_ShibaCopy.sol\":4052:4098  require(c >= a, \"SafeMath: addition overflow\") */\n      tag_109\n      jumpi\n      mload(0x40)\n      0x08c379a000000000000000000000000000000000000000000000000000000000\n      dup2\n      mstore\n      0x04\n      add\n      tag_110\n      swap1\n      tag_111\n      jump\t// in\n    tag_110:\n      mload(0x40)\n      dup1\n      swap2\n      sub\n      swap1\n      revert\n    tag_109:\n        /* \"contracts/2_ShibaCopy.sol\":4118:4119  c */\n      dup1\n        /* \"contracts/2_ShibaCopy.sol\":4111:4119  return c */\n      swap2\n      pop\n      pop\n        /* \"contracts/2_ShibaCopy.sol\":3946:4127  function add(uint256 a, uint256 b) internal pure returns (uint256) {... */\n      swap3\n      swap2\n      pop\n      pop\n      jump\t// out\n        /* \"contracts/2_ShibaCopy.sol\":14062:14397  function _approve(address owner, address spender, uint256 value) internal {... */\n    tag_78:\n        /* \"contracts/2_ShibaCopy.sol\":14172:14173  0 */\n      0x00\n        /* \"contracts/2_ShibaCopy.sol\":14155:14174  owner != address(0) */\n      0xffffffffffffffffffffffffffffffffffffffff\n      and\n        /* \"contracts/2_ShibaCopy.sol\":14155:14160  owner */\n      dup4\n        /* \"contracts/2_ShibaCopy.sol\":14155:14174  owner != address(0) */\n      0xffffffffffffffffffffffffffffffffffffffff\n      and\n      eq\n      iszero\n        /* \"contracts/2_ShibaCopy.sol\":14147:14215  require(owner != address(0), \"ERC20: approve from the zero address\") */\n      tag_113\n      jumpi\n      mload(0x40)\n      0x08c379a000000000000000000000000000000000000000000000000000000000\n      dup2\n      mstore\n      0x04\n      add\n      tag_114\n      swap1\n      tag_115\n      jump\t// in\n    tag_114:\n      mload(0x40)\n      dup1\n      swap2\n      sub\n      swap1\n      revert\n    tag_113:\n        /* \"contracts/2_ShibaCopy.sol\":14253:14254  0 */\n      0x00\n        /* \"contracts/2_ShibaCopy.sol\":14234:14255  spender != address(0) */\n      0xffffffffffffffffffffffffffffffffffffffff\n      and\n        /* \"contracts/2_ShibaCopy.sol\":14234:14241  spender */\n      dup3\n        /* \"contracts/2_ShibaCopy.sol\":14234:14255  spender != address(0) */\n      0xffffffffffffffffffffffffffffffffffffffff\n      and\n      eq\n      iszero\n        /* \"contracts/2_ShibaCopy.sol\":14226:14294  require(spender != address(0), \"ERC20: approve to the zero address\") */\n      tag_116\n      jumpi\n      mload(0x40)\n      0x08c379a000000000000000000000000000000000000000000000000000000000\n      dup2\n      mstore\n      0x04\n      add\n      tag_117\n      swap1\n      tag_118\n      jump\t// in\n    tag_117:\n      mload(0x40)\n      dup1\n      swap2\n      sub\n      swap1\n      revert\n    tag_116:\n        /* \"contracts/2_ShibaCopy.sol\":14337:14342  value */\n      dup1\n        /* \"contracts/2_ShibaCopy.sol\":14307:14318  _allowances */\n      0x01\n        /* \"contracts/2_ShibaCopy.sol\":14307:14325  _allowances[owner] */\n      0x00\n        /* \"contracts/2_ShibaCopy.sol\":14319:14324  owner */\n      dup6\n        /* \"contracts/2_ShibaCopy.sol\":14307:14325  _allowances[owner] */\n      0xffffffffffffffffffffffffffffffffffffffff\n      and\n      0xffffffffffffffffffffffffffffffffffffffff\n      and\n      dup2\n      mstore\n      0x20\n      add\n      swap1\n      dup2\n      mstore\n      0x20\n      add\n      0x00\n      keccak256\n        /* \"contracts/2_ShibaCopy.sol\":14307:14334  _allowances[owner][spender] */\n      0x00\n        /* \"contracts/2_ShibaCopy.sol\":14326:14333  spender */\n      dup5\n        /* \"contracts/2_ShibaCopy.sol\":14307:14334  _allowances[owner][spender] */\n      0xffffffffffffffffffffffffffffffffffffffff\n      and\n      0xffffffffffffffffffffffffffffffffffffffff\n      and\n      dup2\n      mstore\n      0x20\n      add\n      swap1\n      dup2\n      mstore\n      0x20\n      add\n      0x00\n      keccak256\n        /* \"contracts/2_ShibaCopy.sol\":14307:14342  _allowances[owner][spender] = value */\n      dup2\n      swap1\n      sstore\n      pop\n        /* \"contracts/2_ShibaCopy.sol\":14374:14381  spender */\n      dup2\n        /* \"contracts/2_ShibaCopy.sol\":14358:14389  Approval(owner, spender, value) */\n      0xffffffffffffffffffffffffffffffffffffffff\n      and\n        /* \"contracts/2_ShibaCopy.sol\":14367:14372  owner */\n      dup4\n        /* \"contracts/2_ShibaCopy.sol\":14358:14389  Approval(owner, spender, value) */\n      0xffffffffffffffffffffffffffffffffffffffff\n      and\n      0x8c5be1e5ebec7d5bd14f71427d1e84f3dd0314c0f7b2291e5b200ac8c7c3b925\n        /* \"contracts/2_ShibaCopy.sol\":14383:14388  value */\n      dup4\n        /* \"contracts/2_ShibaCopy.sol\":14358:14389  Approval(owner, spender, value) */\n      mload(0x40)\n      tag_119\n      swap2\n      swap1\n      tag_29\n      jump\t// in\n    tag_119:\n      mload(0x40)\n      dup1\n      swap2\n      sub\n      swap1\n      log3\n        /* \"contracts/2_ShibaCopy.sol\":14062:14397  function _approve(address owner, address spender, uint256 value) internal {... */\n      pop\n      pop\n      pop\n      jump\t// out\n        /* \"contracts/2_ShibaCopy.sol\":11965:12394  function _transfer(address sender, address recipient, uint256 amount) internal {... */\n    tag_82:\n        /* \"contracts/2_ShibaCopy.sol\":12081:12082  0 */\n      0x00\n        /* \"contracts/2_ShibaCopy.sol\":12063:12083  sender != address(0) */\n      0xffffffffffffffffffffffffffffffffffffffff\n      and\n        /* \"contracts/2_ShibaCopy.sol\":12063:12069  sender */\n      dup4\n        /* \"contracts/2_ShibaCopy.sol\":12063:12083  sender != address(0) */\n      0xffffffffffffffffffffffffffffffffffffffff\n      and\n      eq\n      iszero\n        /* \"contracts/2_ShibaCopy.sol\":12055:12125  require(sender != address(0), \"ERC20: transfer from the zero address\") */\n      tag_121\n      jumpi\n      mload(0x40)\n      0x08c379a000000000000000000000000000000000000000000000000000000000\n      dup2\n      mstore\n      0x04\n      add\n      tag_122\n      swap1\n      tag_123\n      jump\t// in\n    tag_122:\n      mload(0x40)\n      dup1\n      swap2\n      sub\n      swap1\n      revert\n    tag_121:\n        /* \"contracts/2_ShibaCopy.sol\":12165:12166  0 */\n      0x00\n        /* \"contracts/2_ShibaCopy.sol\":12144:12167  recipient != address(0) */\n      0xffffffffffffffffffffffffffffffffffffffff\n      and\n        /* \"contracts/2_ShibaCopy.sol\":12144:12153  recipient */\n      dup3\n        /* \"contracts/2_ShibaCopy.sol\":12144:12167  recipient != address(0) */\n      0xffffffffffffffffffffffffffffffffffffffff\n      and\n      eq\n      iszero\n        /* \"contracts/2_ShibaCopy.sol\":12136:12207  require(recipient != address(0), \"ERC20: transfer to the zero address\") */\n      tag_124\n      jumpi\n      mload(0x40)\n      0x08c379a000000000000000000000000000000000000000000000000000000000\n      dup2\n      mstore\n      0x04\n      add\n      tag_125\n      swap1\n      tag_126\n      jump\t// in\n    tag_125:\n      mload(0x40)\n      dup1\n      swap2\n      sub\n      swap1\n      revert\n    tag_124:\n        /* \"contracts/2_ShibaCopy.sol\":12240:12269  _balances[sender].sub(amount) */\n      tag_127\n        /* \"contracts/2_ShibaCopy.sol\":12262:12268  amount */\n      dup2\n        /* \"contracts/2_ShibaCopy.sol\":12240:12249  _balances */\n      0x00\n        /* \"contracts/2_ShibaCopy.sol\":12240:12257  _balances[sender] */\n      dup1\n        /* \"contracts/2_ShibaCopy.sol\":12250:12256  sender */\n      dup7\n        /* \"contracts/2_ShibaCopy.sol\":12240:12257  _balances[sender] */\n      0xffffffffffffffffffffffffffffffffffffffff\n      and\n      0xffffffffffffffffffffffffffffffffffffffff\n      and\n      dup2\n      mstore\n      0x20\n      add\n      swap1\n      dup2\n      mstore\n      0x20\n      add\n      0x00\n      keccak256\n      sload\n        /* \"contracts/2_ShibaCopy.sol\":12240:12261  _balances[sender].sub */\n      tag_85\n      swap1\n        /* \"contracts/2_ShibaCopy.sol\":12240:12269  _balances[sender].sub(amount) */\n      swap2\n      swap1\n      0xffffffff\n      and\n      jump\t// in\n    tag_127:\n        /* \"contracts/2_ShibaCopy.sol\":12220:12229  _balances */\n      0x00\n        /* \"contracts/2_ShibaCopy.sol\":12220:12237  _balances[sender] */\n      dup1\n        /* \"contracts/2_ShibaCopy.sol\":12230:12236  sender */\n      dup6\n        /* \"contracts/2_ShibaCopy.sol\":12220:12237  _balances[sender] */\n      0xffffffffffffffffffffffffffffffffffffffff\n      and\n      0xffffffffffffffffffffffffffffffffffffffff\n      and\n      dup2\n      mstore\n      0x20\n      add\n      swap1\n      dup2\n      mstore\n      0x20\n      add\n      0x00\n      keccak256\n        /* \"contracts/2_ShibaCopy.sol\":12220:12269  _balances[sender] = _balances[sender].sub(amount) */\n      dup2\n      swap1\n      sstore\n      pop\n        /* \"contracts/2_ShibaCopy.sol\":12303:12335  _balances[recipient].add(amount) */\n      tag_128\n        /* \"contracts/2_ShibaCopy.sol\":12328:12334  amount */\n      dup2\n        /* \"contracts/2_ShibaCopy.sol\":12303:12312  _balances */\n      0x00\n        /* \"contracts/2_ShibaCopy.sol\":12303:12323  _balances[recipient] */\n      dup1\n        /* \"contracts/2_ShibaCopy.sol\":12313:12322  recipient */\n      dup6\n        /* \"contracts/2_ShibaCopy.sol\":12303:12323  _balances[recipient] */\n      0xffffffffffffffffffffffffffffffffffffffff\n      and\n      0xffffffffffffffffffffffffffffffffffffffff\n      and\n      dup2\n      mstore\n      0x20\n      add\n      swap1\n      dup2\n      mstore\n      0x20\n      add\n      0x00\n      keccak256\n      sload\n        /* \"contracts/2_ShibaCopy.sol\":12303:12327  _balances[recipient].add */\n      tag_68\n      swap1\n        /* \"contracts/2_ShibaCopy.sol\":12303:12335  _balances[recipient].add(amount) */\n      swap2\n      swap1\n      0xffffffff\n      and\n      jump\t// in\n    tag_128:\n        /* \"contracts/2_ShibaCopy.sol\":12280:12289  _balances */\n      0x00\n        /* \"contracts/2_ShibaCopy.sol\":12280:12300  _balances[recipient] */\n      dup1\n        /* \"contracts/2_ShibaCopy.sol\":12290:12299  recipient */\n      dup5\n        /* \"contracts/2_ShibaCopy.sol\":12280:12300  _balances[recipient] */\n      0xffffffffffffffffffffffffffffffffffffffff\n      and\n      0xffffffffffffffffffffffffffffffffffffffff\n      and\n      dup2\n      mstore\n      0x20\n      add\n      swap1\n      dup2\n      mstore\n      0x20\n      add\n      0x00\n      keccak256\n        /* \"contracts/2_ShibaCopy.sol\":12280:12335  _balances[recipient] = _balances[recipient].add(amount) */\n      dup2\n      swap1\n      sstore\n      pop\n        /* \"contracts/2_ShibaCopy.sol\":12368:12377  recipient */\n      dup2\n        /* \"contracts/2_ShibaCopy.sol\":12351:12386  Transfer(sender, recipient, amount) */\n      0xffffffffffffffffffffffffffffffffffffffff\n      and\n        /* \"contracts/2_ShibaCopy.sol\":12360:12366  sender */\n      dup4\n        /* \"contracts/2_ShibaCopy.sol\":12351:12386  Transfer(sender, recipient, amount) */\n      0xffffffffffffffffffffffffffffffffffffffff\n      and\n      0xddf252ad1be2c89b69c2b068fc378daa952ba7f163c4a11628f55a4df523b3ef\n        /* \"contracts/2_ShibaCopy.sol\":12379:12385  amount */\n      dup4\n        /* \"contracts/2_ShibaCopy.sol\":12351:12386  Transfer(sender, recipient, amount) */\n      mload(0x40)\n      tag_129\n      swap2\n      swap1\n      tag_29\n      jump\t// in\n    tag_129:\n      mload(0x40)\n      dup1\n      swap2\n      sub\n      swap1\n      log3\n        /* \"contracts/2_ShibaCopy.sol\":11965:12394  function _transfer(address sender, address recipient, uint256 amount) internal {... */\n      pop\n      pop\n      pop\n      jump\t// out\n        /* \"contracts/2_ShibaCopy.sol\":4402:4586  function sub(uint256 a, uint256 b) internal pure returns (uint256) {... */\n    tag_85:\n        /* \"contracts/2_ShibaCopy.sol\":4460:4467  uint256 */\n      0x00\n        /* \"contracts/2_ShibaCopy.sol\":4493:4494  a */\n      dup3\n        /* \"contracts/2_ShibaCopy.sol\":4488:4489  b */\n      dup3\n        /* \"contracts/2_ShibaCopy.sol\":4488:4494  b <= a */\n      gt\n      iszero\n        /* \"contracts/2_ShibaCopy.sol\":4480:4529  require(b <= a, \"SafeMath: subtraction overflow\") */\n      tag_131\n      jumpi\n      mload(0x40)\n      0x08c379a000000000000000000000000000000000000000000000000000000000\n      dup2\n      mstore\n      0x04\n      add\n      tag_132\n      swap1\n      tag_133\n      jump\t// in\n    tag_132:\n      mload(0x40)\n      dup1\n      swap2\n      sub\n      swap1\n      revert\n    tag_131:\n        /* \"contracts/2_ShibaCopy.sol\":4540:4549  uint256 c */\n      0x00\n        /* \"contracts/2_ShibaCopy.sol\":4556:4557  b */\n      dup3\n        /* \"contracts/2_ShibaCopy.sol\":4552:4553  a */\n      dup5\n        /* \"contracts/2_ShibaCopy.sol\":4552:4557  a - b */\n      tag_134\n      swap2\n      swap1\n      tag_135\n      jump\t// in\n    tag_134:\n        /* \"contracts/2_ShibaCopy.sol\":4540:4557  uint256 c = a - b */\n      swap1\n      pop\n        /* \"contracts/2_ShibaCopy.sol\":4577:4578  c */\n      dup1\n        /* \"contracts/2_ShibaCopy.sol\":4570:4578  return c */\n      swap2\n      pop\n      pop\n        /* \"contracts/2_ShibaCopy.sol\":4402:4586  function sub(uint256 a, uint256 b) internal pure returns (uint256) {... */\n      swap3\n      swap2\n      pop\n      pop\n      jump\t// out\n        /* \"contracts/2_ShibaCopy.sol\":13316:13622  function _burn(address account, uint256 value) internal {... */\n    tag_92:\n        /* \"contracts/2_ShibaCopy.sol\":13410:13411  0 */\n      0x00\n        /* \"contracts/2_ShibaCopy.sol\":13391:13412  account != address(0) */\n      0xffffffffffffffffffffffffffffffffffffffff\n      and\n        /* \"contracts/2_ShibaCopy.sol\":13391:13398  account */\n      dup3\n        /* \"contracts/2_ShibaCopy.sol\":13391:13412  account != address(0) */\n      0xffffffffffffffffffffffffffffffffffffffff\n      and\n      eq\n      iszero\n        /* \"contracts/2_ShibaCopy.sol\":13383:13450  require(account != address(0), \"ERC20: burn from the zero address\") */\n      tag_137\n      jumpi\n      mload(0x40)\n      0x08c379a000000000000000000000000000000000000000000000000000000000\n      dup2\n      mstore\n      0x04\n      add\n      tag_138\n      swap1\n      tag_139\n      jump\t// in\n    tag_138:\n      mload(0x40)\n      dup1\n      swap2\n      sub\n      swap1\n      revert\n    tag_137:\n        /* \"contracts/2_ShibaCopy.sol\":13478:13501  _totalSupply.sub(value) */\n      tag_140\n        /* \"contracts/2_ShibaCopy.sol\":13495:13500  value */\n      dup2\n        /* \"contracts/2_ShibaCopy.sol\":13478:13490  _totalSupply */\n      sload(0x02)\n        /* \"contracts/2_ShibaCopy.sol\":13478:13494  _totalSupply.sub */\n      tag_85\n      swap1\n        /* \"contracts/2_ShibaCopy.sol\":13478:13501  _totalSupply.sub(value) */\n      swap2\n      swap1\n      0xffffffff\n      and\n      jump\t// in\n    tag_140:\n        /* \"contracts/2_ShibaCopy.sol\":13463:13475  _totalSupply */\n      0x02\n        /* \"contracts/2_ShibaCopy.sol\":13463:13501  _totalSupply = _totalSupply.sub(value) */\n      dup2\n      swap1\n      sstore\n      pop\n        /* \"contracts/2_ShibaCopy.sol\":13533:13562  _balances[account].sub(value) */\n      tag_141\n        /* \"contracts/2_ShibaCopy.sol\":13556:13561  value */\n      dup2\n        /* \"contracts/2_ShibaCopy.sol\":13533:13542  _balances */\n      0x00\n        /* \"contracts/2_ShibaCopy.sol\":13533:13551  _balances[account] */\n      dup1\n        /* \"contracts/2_ShibaCopy.sol\":13543:13550  account */\n      dup6\n        /* \"contracts/2_ShibaCopy.sol\":13533:13551  _balances[account] */\n      0xffffffffffffffffffffffffffffffffffffffff\n      and\n      0xffffffffffffffffffffffffffffffffffffffff\n      and\n      dup2\n      mstore\n      0x20\n      add\n      swap1\n      dup2\n      mstore\n      0x20\n      add\n      0x00\n      keccak256\n      sload\n        /* \"contracts/2_ShibaCopy.sol\":13533:13555  _balances[account].sub */\n      tag_85\n      swap1\n        /* \"contracts/2_ShibaCopy.sol\":13533:13562  _balances[account].sub(value) */\n      swap2\n      swap1\n      0xffffffff\n      and\n      jump\t// in\n    tag_141:\n        /* \"contracts/2_ShibaCopy.sol\":13512:13521  _balances */\n      0x00\n        /* \"contracts/2_ShibaCopy.sol\":13512:13530  _balances[account] */\n      dup1\n        /* \"contracts/2_ShibaCopy.sol\":13522:13529  account */\n      dup5\n        /* \"contracts/2_ShibaCopy.sol\":13512:13530  _balances[account] */\n      0xffffffffffffffffffffffffffffffffffffffff\n      and\n      0xffffffffffffffffffffffffffffffffffffffff\n      and\n      dup2\n      mstore\n      0x20\n      add\n      swap1\n      dup2\n      mstore\n      0x20\n      add\n      0x00\n      keccak256\n        /* \"contracts/2_ShibaCopy.sol\":13512:13562  _balances[account] = _balances[account].sub(value) */\n      dup2\n      swap1\n      sstore\n      pop\n        /* \"contracts/2_ShibaCopy.sol\":13604:13605  0 */\n      0x00\n        /* \"contracts/2_ShibaCopy.sol\":13578:13614  Transfer(account, address(0), value) */\n      0xffffffffffffffffffffffffffffffffffffffff\n      and\n        /* \"contracts/2_ShibaCopy.sol\":13587:13594  account */\n      dup3\n        /* \"contracts/2_ShibaCopy.sol\":13578:13614  Transfer(account, address(0), value) */\n      0xffffffffffffffffffffffffffffffffffffffff\n      and\n      0xddf252ad1be2c89b69c2b068fc378daa952ba7f163c4a11628f55a4df523b3ef\n        /* \"contracts/2_ShibaCopy.sol\":13608:13613  value */\n      dup4\n        /* \"contracts/2_ShibaCopy.sol\":13578:13614  Transfer(account, address(0), value) */\n      mload(0x40)\n      tag_142\n      swap2\n      swap1\n      tag_29\n      jump\t// in\n    tag_142:\n      mload(0x40)\n      dup1\n      swap2\n      sub\n      swap1\n      log3\n        /* \"contracts/2_ShibaCopy.sol\":13316:13622  function _burn(address account, uint256 value) internal {... */\n      pop\n      pop\n      jump\t// out\n        /* \"#utility.yul\":7:106   */\n    tag_143:\n        /* \"#utility.yul\":59:65   */\n      0x00\n        /* \"#utility.yul\":93:98   */\n      dup2\n        /* \"#utility.yul\":87:99   */\n      mload\n        /* \"#utility.yul\":77:99   */\n      swap1\n      pop\n        /* \"#utility.yul\":7:106   */\n      swap2\n      swap1\n      pop\n      jump\t// out\n        /* \"#utility.yul\":112:281   */\n    tag_144:\n        /* \"#utility.yul\":196:207   */\n      0x00\n        /* \"#utility.yul\":230:236   */\n      dup3\n        /* \"#utility.yul\":225:228   */\n      dup3\n        /* \"#utility.yul\":218:237   */\n      mstore\n        /* \"#utility.yul\":270:274   */\n      0x20\n        /* \"#utility.yul\":265:268   */\n      dup3\n        /* \"#utility.yul\":261:275   */\n      add\n        /* \"#utility.yul\":246:275   */\n      swap1\n      pop\n        /* \"#utility.yul\":112:281   */\n      swap3\n      swap2\n      pop\n      pop\n      jump\t// out\n        /* \"#utility.yul\":287:594   */\n    tag_145:\n        /* \"#utility.yul\":355:356   */\n      0x00\n        /* \"#utility.yul\":365:478   */\n    tag_183:\n        /* \"#utility.yul\":379:385   */\n      dup4\n        /* \"#utility.yul\":376:377   */\n      dup2\n        /* \"#utility.yul\":373:386   */\n      lt\n        /* \"#utility.yul\":365:478   */\n      iszero\n      tag_185\n      jumpi\n        /* \"#utility.yul\":464:465   */\n      dup1\n        /* \"#utility.yul\":459:462   */\n      dup3\n        /* \"#utility.yul\":455:466   */\n      add\n        /* \"#utility.yul\":449:467   */\n      mload\n        /* \"#utility.yul\":445:446   */\n      dup2\n        /* \"#utility.yul\":440:443   */\n      dup5\n        /* \"#utility.yul\":436:447   */\n      add\n        /* \"#utility.yul\":429:468   */\n      mstore\n        /* \"#utility.yul\":401:403   */\n      0x20\n        /* \"#utility.yul\":398:399   */\n      dup2\n        /* \"#utility.yul\":394:404   */\n      add\n        /* \"#utility.yul\":389:404   */\n      swap1\n      pop\n        /* \"#utility.yul\":365:478   */\n      jump(tag_183)\n    tag_185:\n        /* \"#utility.yul\":496:502   */\n      dup4\n        /* \"#utility.yul\":493:494   */\n      dup2\n        /* \"#utility.yul\":490:503   */\n      gt\n        /* \"#utility.yul\":487:588   */\n      iszero\n      tag_186\n      jumpi\n        /* \"#utility.yul\":576:577   */\n      0x00\n        /* \"#utility.yul\":567:573   */\n      dup5\n        /* \"#utility.yul\":562:565   */\n      dup5\n        /* \"#utility.yul\":558:574   */\n      add\n        /* \"#utility.yul\":551:578   */\n      mstore\n        /* \"#utility.yul\":487:588   */\n    tag_186:\n        /* \"#utility.yul\":336:594   */\n      pop\n        /* \"#utility.yul\":287:594   */\n      pop\n      pop\n      pop\n      jump\t// out\n        /* \"#utility.yul\":600:702   */\n    tag_146:\n        /* \"#utility.yul\":641:647   */\n      0x00\n        /* \"#utility.yul\":692:694   */\n      0x1f\n        /* \"#utility.yul\":688:695   */\n      not\n        /* \"#utility.yul\":683:685   */\n      0x1f\n        /* \"#utility.yul\":676:681   */\n      dup4\n        /* \"#utility.yul\":672:686   */\n      add\n        /* \"#utility.yul\":668:696   */\n      and\n        /* \"#utility.yul\":658:696   */\n      swap1\n      pop\n        /* \"#utility.yul\":600:702   */\n      swap2\n      swap1\n      pop\n      jump\t// out\n        /* \"#utility.yul\":708:1072   */\n    tag_147:\n        /* \"#utility.yul\":796:799   */\n      0x00\n        /* \"#utility.yul\":824:863   */\n      tag_189\n        /* \"#utility.yul\":857:862   */\n      dup3\n        /* \"#utility.yul\":824:863   */\n      tag_143\n      jump\t// in\n    tag_189:\n        /* \"#utility.yul\":879:950   */\n      tag_190\n        /* \"#utility.yul\":943:949   */\n      dup2\n        /* \"#utility.yul\":938:941   */\n      dup6\n        /* \"#utility.yul\":879:950   */\n      tag_144\n      jump\t// in\n    tag_190:\n        /* \"#utility.yul\":872:950   */\n      swap4\n      pop\n        /* \"#utility.yul\":959:1011   */\n      tag_191\n        /* \"#utility.yul\":1004:1010   */\n      dup2\n        /* \"#utility.yul\":999:1002   */\n      dup6\n        /* \"#utility.yul\":992:996   */\n      0x20\n        /* \"#utility.yul\":985:990   */\n      dup7\n        /* \"#utility.yul\":981:997   */\n      add\n        /* \"#utility.yul\":959:1011   */\n      tag_145\n      jump\t// in\n    tag_191:\n        /* \"#utility.yul\":1036:1065   */\n      tag_192\n        /* \"#utility.yul\":1058:1064   */\n      dup2\n        /* \"#utility.yul\":1036:1065   */\n      tag_146\n      jump\t// in\n    tag_192:\n        /* \"#utility.yul\":1031:1034   */\n      dup5\n        /* \"#utility.yul\":1027:1066   */\n      add\n        /* \"#utility.yul\":1020:1066   */\n      swap2\n      pop\n        /* \"#utility.yul\":800:1072   */\n      pop\n        /* \"#utility.yul\":708:1072   */\n      swap3\n      swap2\n      pop\n      pop\n      jump\t// out\n        /* \"#utility.yul\":1078:1391   */\n    tag_19:\n        /* \"#utility.yul\":1191:1195   */\n      0x00\n        /* \"#utility.yul\":1229:1231   */\n      0x20\n        /* \"#utility.yul\":1218:1227   */\n      dup3\n        /* \"#utility.yul\":1214:1232   */\n      add\n        /* \"#utility.yul\":1206:1232   */\n      swap1\n      pop\n        /* \"#utility.yul\":1278:1287   */\n      dup2\n        /* \"#utility.yul\":1272:1276   */\n      dup2\n        /* \"#utility.yul\":1268:1288   */\n      sub\n        /* \"#utility.yul\":1264:1265   */\n      0x00\n        /* \"#utility.yul\":1253:1262   */\n      dup4\n        /* \"#utility.yul\":1249:1266   */\n      add\n        /* \"#utility.yul\":1242:1289   */\n      mstore\n        /* \"#utility.yul\":1306:1384   */\n      tag_194\n        /* \"#utility.yul\":1379:1383   */\n      dup2\n        /* \"#utility.yul\":1370:1376   */\n      dup5\n        /* \"#utility.yul\":1306:1384   */\n      tag_147\n      jump\t// in\n    tag_194:\n        /* \"#utility.yul\":1298:1384   */\n      swap1\n      pop\n        /* \"#utility.yul\":1078:1391   */\n      swap3\n      swap2\n      pop\n      pop\n      jump\t// out\n        /* \"#utility.yul\":1478:1595   */\n    tag_149:\n        /* \"#utility.yul\":1587:1588   */\n      0x00\n        /* \"#utility.yul\":1584:1585   */\n      dup1\n        /* \"#utility.yul\":1577:1589   */\n      revert\n        /* \"#utility.yul\":1724:1850   */\n    tag_151:\n        /* \"#utility.yul\":1761:1768   */\n      0x00\n        /* \"#utility.yul\":1801:1843   */\n      0xffffffffffffffffffffffffffffffffffffffff\n        /* \"#utility.yul\":1794:1799   */\n      dup3\n        /* \"#utility.yul\":1790:1844   */\n      and\n        /* \"#utility.yul\":1779:1844   */\n      swap1\n      pop\n        /* \"#utility.yul\":1724:1850   */\n      swap2\n      swap1\n      pop\n      jump\t// out\n        /* \"#utility.yul\":1856:1952   */\n    tag_152:\n        /* \"#utility.yul\":1893:1900   */\n      0x00\n        /* \"#utility.yul\":1922:1946   */\n      tag_200\n        /* \"#utility.yul\":1940:1945   */\n      dup3\n        /* \"#utility.yul\":1922:1946   */\n      tag_151\n      jump\t// in\n    tag_200:\n        /* \"#utility.yul\":1911:1946   */\n      swap1\n      pop\n        /* \"#utility.yul\":1856:1952   */\n      swap2\n      swap1\n      pop\n      jump\t// out\n        /* \"#utility.yul\":1958:2080   */\n    tag_153:\n        /* \"#utility.yul\":2031:2055   */\n      tag_202\n        /* \"#utility.yul\":2049:2054   */\n      dup2\n        /* \"#utility.yul\":2031:2055   */\n      tag_152\n      jump\t// in\n    tag_202:\n        /* \"#utility.yul\":2024:2029   */\n      dup2\n        /* \"#utility.yul\":2021:2056   */\n      eq\n        /* \"#utility.yul\":2011:2074   */\n      tag_203\n      jumpi\n        /* \"#utility.yul\":2070:2071   */\n      0x00\n        /* \"#utility.yul\":2067:2068   */\n      dup1\n        /* \"#utility.yul\":2060:2072   */\n      revert\n        /* \"#utility.yul\":2011:2074   */\n    tag_203:\n        /* \"#utility.yul\":1958:2080   */\n      pop\n      jump\t// out\n        /* \"#utility.yul\":2086:2225   */\n    tag_154:\n        /* \"#utility.yul\":2132:2137   */\n      0x00\n        /* \"#utility.yul\":2170:2176   */\n      dup2\n        /* \"#utility.yul\":2157:2177   */\n      calldataload\n        /* \"#utility.yul\":2148:2177   */\n      swap1\n      pop\n        /* \"#utility.yul\":2186:2219   */\n      tag_205\n        /* \"#utility.yul\":2213:2218   */\n      dup2\n        /* \"#utility.yul\":2186:2219   */\n      tag_153\n      jump\t// in\n    tag_205:\n        /* \"#utility.yul\":2086:2225   */\n      swap3\n      swap2\n      pop\n      pop\n      jump\t// out\n        /* \"#utility.yul\":2231:2308   */\n    tag_155:\n        /* \"#utility.yul\":2268:2275   */\n      0x00\n        /* \"#utility.yul\":2297:2302   */\n      dup2\n        /* \"#utility.yul\":2286:2302   */\n      swap1\n      pop\n        /* \"#utility.yul\":2231:2308   */\n      swap2\n      swap1\n      pop\n      jump\t// out\n        /* \"#utility.yul\":2314:2436   */\n    tag_156:\n        /* \"#utility.yul\":2387:2411   */\n      tag_208\n        /* \"#utility.yul\":2405:2410   */\n      dup2\n        /* \"#utility.yul\":2387:2411   */\n      tag_155\n      jump\t// in\n    tag_208:\n        /* \"#utility.yul\":2380:2385   */\n      dup2\n        /* \"#utility.yul\":2377:2412   */\n      eq\n        /* \"#utility.yul\":2367:2430   */\n      tag_209\n      jumpi\n        /* \"#utility.yul\":2426:2427   */\n      0x00\n        /* \"#utility.yul\":2423:2424   */\n      dup1\n        /* \"#utility.yul\":2416:2428   */\n      revert\n        /* \"#utility.yul\":2367:2430   */\n    tag_209:\n        /* \"#utility.yul\":2314:2436   */\n      pop\n      jump\t// out\n        /* \"#utility.yul\":2442:2581   */\n    tag_157:\n        /* \"#utility.yul\":2488:2493   */\n      0x00\n        /* \"#utility.yul\":2526:2532   */\n      dup2\n        /* \"#utility.yul\":2513:2533   */\n      calldataload\n        /* \"#utility.yul\":2504:2533   */\n      swap1\n      pop\n        /* \"#utility.yul\":2542:2575   */\n      tag_211\n        /* \"#utility.yul\":2569:2574   */\n      dup2\n        /* \"#utility.yul\":2542:2575   */\n      tag_156\n      jump\t// in\n    tag_211:\n        /* \"#utility.yul\":2442:2581   */\n      swap3\n      swap2\n      pop\n      pop\n      jump\t// out\n        /* \"#utility.yul\":2587:3061   */\n    tag_22:\n        /* \"#utility.yul\":2655:2661   */\n      0x00\n        /* \"#utility.yul\":2663:2669   */\n      dup1\n        /* \"#utility.yul\":2712:2714   */\n      0x40\n        /* \"#utility.yul\":2700:2709   */\n      dup4\n        /* \"#utility.yul\":2691:2698   */\n      dup6\n        /* \"#utility.yul\":2687:2710   */\n      sub\n        /* \"#utility.yul\":2683:2715   */\n      slt\n        /* \"#utility.yul\":2680:2799   */\n      iszero\n      tag_213\n      jumpi\n        /* \"#utility.yul\":2718:2797   */\n      tag_214\n      tag_149\n      jump\t// in\n    tag_214:\n        /* \"#utility.yul\":2680:2799   */\n    tag_213:\n        /* \"#utility.yul\":2838:2839   */\n      0x00\n        /* \"#utility.yul\":2863:2916   */\n      tag_215\n        /* \"#utility.yul\":2908:2915   */\n      dup6\n        /* \"#utility.yul\":2899:2905   */\n      dup3\n        /* \"#utility.yul\":2888:2897   */\n      dup7\n        /* \"#utility.yul\":2884:2906   */\n      add\n        /* \"#utility.yul\":2863:2916   */\n      tag_154\n      jump\t// in\n    tag_215:\n        /* \"#utility.yul\":2853:2916   */\n      swap3\n      pop\n        /* \"#utility.yul\":2809:2926   */\n      pop\n        /* \"#utility.yul\":2965:2967   */\n      0x20\n        /* \"#utility.yul\":2991:3044   */\n      tag_216\n        /* \"#utility.yul\":3036:3043   */\n      dup6\n        /* \"#utility.yul\":3027:3033   */\n      dup3\n        /* \"#utility.yul\":3016:3025   */\n      dup7\n        /* \"#utility.yul\":3012:3034   */\n      add\n        /* \"#utility.yul\":2991:3044   */\n      tag_157\n      jump\t// in\n    tag_216:\n        /* \"#utility.yul\":2981:3044   */\n      swap2\n      pop\n        /* \"#utility.yul\":2936:3054   */\n      pop\n        /* \"#utility.yul\":2587:3061   */\n      swap3\n      pop\n      swap3\n      swap1\n      pop\n      jump\t// out\n        /* \"#utility.yul\":3067:3157   */\n    tag_158:\n        /* \"#utility.yul\":3101:3108   */\n      0x00\n        /* \"#utility.yul\":3144:3149   */\n      dup2\n        /* \"#utility.yul\":3137:3150   */\n      iszero\n        /* \"#utility.yul\":3130:3151   */\n      iszero\n        /* \"#utility.yul\":3119:3151   */\n      swap1\n      pop\n        /* \"#utility.yul\":3067:3157   */\n      swap2\n      swap1\n      pop\n      jump\t// out\n        /* \"#utility.yul\":3163:3272   */\n    tag_159:\n        /* \"#utility.yul\":3244:3265   */\n      tag_219\n        /* \"#utility.yul\":3259:3264   */\n      dup2\n        /* \"#utility.yul\":3244:3265   */\n      tag_158\n      jump\t// in\n    tag_219:\n        /* \"#utility.yul\":3239:3242   */\n      dup3\n        /* \"#utility.yul\":3232:3266   */\n      mstore\n        /* \"#utility.yul\":3163:3272   */\n      pop\n      pop\n      jump\t// out\n        /* \"#utility.yul\":3278:3488   */\n    tag_25:\n        /* \"#utility.yul\":3365:3369   */\n      0x00\n        /* \"#utility.yul\":3403:3405   */\n      0x20\n        /* \"#utility.yul\":3392:3401   */\n      dup3\n        /* \"#utility.yul\":3388:3406   */\n      add\n        /* \"#utility.yul\":3380:3406   */\n      swap1\n      pop\n        /* \"#utility.yul\":3416:3481   */\n      tag_221\n        /* \"#utility.yul\":3478:3479   */\n      0x00\n        /* \"#utility.yul\":3467:3476   */\n      dup4\n        /* \"#utility.yul\":3463:3480   */\n      add\n        /* \"#utility.yul\":3454:3460   */\n      dup5\n        /* \"#utility.yul\":3416:3481   */\n      tag_159\n      jump\t// in\n    tag_221:\n        /* \"#utility.yul\":3278:3488   */\n      swap3\n      swap2\n      pop\n      pop\n      jump\t// out\n        /* \"#utility.yul\":3494:3612   */\n    tag_160:\n        /* \"#utility.yul\":3581:3605   */\n      tag_223\n        /* \"#utility.yul\":3599:3604   */\n      dup2\n        /* \"#utility.yul\":3581:3605   */\n      tag_155\n      jump\t// in\n    tag_223:\n        /* \"#utility.yul\":3576:3579   */\n      dup3\n        /* \"#utility.yul\":3569:3606   */\n      mstore\n        /* \"#utility.yul\":3494:3612   */\n      pop\n      pop\n      jump\t// out\n        /* \"#utility.yul\":3618:3840   */\n    tag_29:\n        /* \"#utility.yul\":3711:3715   */\n      0x00\n        /* \"#utility.yul\":3749:3751   */\n      0x20\n        /* \"#utility.yul\":3738:3747   */\n      dup3\n        /* \"#utility.yul\":3734:3752   */\n      add\n        /* \"#utility.yul\":3726:3752   */\n      swap1\n      pop\n        /* \"#utility.yul\":3762:3833   */\n      tag_225\n        /* \"#utility.yul\":3830:3831   */\n      0x00\n        /* \"#utility.yul\":3819:3828   */\n      dup4\n        /* \"#utility.yul\":3815:3832   */\n      add\n        /* \"#utility.yul\":3806:3812   */\n      dup5\n        /* \"#utility.yul\":3762:3833   */\n      tag_160\n      jump\t// in\n    tag_225:\n        /* \"#utility.yul\":3618:3840   */\n      swap3\n      swap2\n      pop\n      pop\n      jump\t// out\n        /* \"#utility.yul\":3846:4465   */\n    tag_32:\n        /* \"#utility.yul\":3923:3929   */\n      0x00\n        /* \"#utility.yul\":3931:3937   */\n      dup1\n        /* \"#utility.yul\":3939:3945   */\n      0x00\n        /* \"#utility.yul\":3988:3990   */\n      0x60\n        /* \"#utility.yul\":3976:3985   */\n      dup5\n        /* \"#utility.yul\":3967:3974   */\n      dup7\n        /* \"#utility.yul\":3963:3986   */\n      sub\n        /* \"#utility.yul\":3959:3991   */\n      slt\n        /* \"#utility.yul\":3956:4075   */\n      iszero\n      tag_227\n      jumpi\n        /* \"#utility.yul\":3994:4073   */\n      tag_228\n      tag_149\n      jump\t// in\n    tag_228:\n        /* \"#utility.yul\":3956:4075   */\n    tag_227:\n        /* \"#utility.yul\":4114:4115   */\n      0x00\n        /* \"#utility.yul\":4139:4192   */\n      tag_229\n        /* \"#utility.yul\":4184:4191   */\n      dup7\n        /* \"#utility.yul\":4175:4181   */\n      dup3\n        /* \"#utility.yul\":4164:4173   */\n      dup8\n        /* \"#utility.yul\":4160:4182   */\n      add\n        /* \"#utility.yul\":4139:4192   */\n      tag_154\n      jump\t// in\n    tag_229:\n        /* \"#utility.yul\":4129:4192   */\n      swap4\n      pop\n        /* \"#utility.yul\":4085:4202   */\n      pop\n        /* \"#utility.yul\":4241:4243   */\n      0x20\n        /* \"#utility.yul\":4267:4320   */\n      tag_230\n        /* \"#utility.yul\":4312:4319   */\n      dup7\n        /* \"#utility.yul\":4303:4309   */\n      dup3\n        /* \"#utility.yul\":4292:4301   */\n      dup8\n        /* \"#utility.yul\":4288:4310   */\n      add\n        /* \"#utility.yul\":4267:4320   */\n      tag_154\n      jump\t// in\n    tag_230:\n        /* \"#utility.yul\":4257:4320   */\n      swap3\n      pop\n        /* \"#utility.yul\":4212:4330   */\n      pop\n        /* \"#utility.yul\":4369:4371   */\n      0x40\n        /* \"#utility.yul\":4395:4448   */\n      tag_231\n        /* \"#utility.yul\":4440:4447   */\n      dup7\n        /* \"#utility.yul\":4431:4437   */\n      dup3\n        /* \"#utility.yul\":4420:4429   */\n      dup8\n        /* \"#utility.yul\":4416:4438   */\n      add\n        /* \"#utility.yul\":4395:4448   */\n      tag_157\n      jump\t// in\n    tag_231:\n        /* \"#utility.yul\":4385:4448   */\n      swap2\n      pop\n        /* \"#utility.yul\":4340:4458   */\n      pop\n        /* \"#utility.yul\":3846:4465   */\n      swap3\n      pop\n      swap3\n      pop\n      swap3\n      jump\t// out\n        /* \"#utility.yul\":4471:4557   */\n    tag_161:\n        /* \"#utility.yul\":4506:4513   */\n      0x00\n        /* \"#utility.yul\":4546:4550   */\n      0xff\n        /* \"#utility.yul\":4539:4544   */\n      dup3\n        /* \"#utility.yul\":4535:4551   */\n      and\n        /* \"#utility.yul\":4524:4551   */\n      swap1\n      pop\n        /* \"#utility.yul\":4471:4557   */\n      swap2\n      swap1\n      pop\n      jump\t// out\n        /* \"#utility.yul\":4563:4675   */\n    tag_162:\n        /* \"#utility.yul\":4646:4668   */\n      tag_234\n        /* \"#utility.yul\":4662:4667   */\n      dup2\n        /* \"#utility.yul\":4646:4668   */\n      tag_161\n      jump\t// in\n    tag_234:\n        /* \"#utility.yul\":4641:4644   */\n      dup3\n        /* \"#utility.yul\":4634:4669   */\n      mstore\n        /* \"#utility.yul\":4563:4675   */\n      pop\n      pop\n      jump\t// out\n        /* \"#utility.yul\":4681:4895   */\n    tag_38:\n        /* \"#utility.yul\":4770:4774   */\n      0x00\n        /* \"#utility.yul\":4808:4810   */\n      0x20\n        /* \"#utility.yul\":4797:4806   */\n      dup3\n        /* \"#utility.yul\":4793:4811   */\n      add\n        /* \"#utility.yul\":4785:4811   */\n      swap1\n      pop\n        /* \"#utility.yul\":4821:4888   */\n      tag_236\n        /* \"#utility.yul\":4885:4886   */\n      0x00\n        /* \"#utility.yul\":4874:4883   */\n      dup4\n        /* \"#utility.yul\":4870:4887   */\n      add\n        /* \"#utility.yul\":4861:4867   */\n      dup5\n        /* \"#utility.yul\":4821:4888   */\n      tag_162\n      jump\t// in\n    tag_236:\n        /* \"#utility.yul\":4681:4895   */\n      swap3\n      swap2\n      pop\n      pop\n      jump\t// out\n        /* \"#utility.yul\":4901:5230   */\n    tag_45:\n        /* \"#utility.yul\":4960:4966   */\n      0x00\n        /* \"#utility.yul\":5009:5011   */\n      0x20\n        /* \"#utility.yul\":4997:5006   */\n      dup3\n        /* \"#utility.yul\":4988:4995   */\n      dup5\n        /* \"#utility.yul\":4984:5007   */\n      sub\n        /* \"#utility.yul\":4980:5012   */\n      slt\n        /* \"#utility.yul\":4977:5096   */\n      iszero\n      tag_238\n      jumpi\n        /* \"#utility.yul\":5015:5094   */\n      tag_239\n      tag_149\n      jump\t// in\n    tag_239:\n        /* \"#utility.yul\":4977:5096   */\n    tag_238:\n        /* \"#utility.yul\":5135:5136   */\n      0x00\n        /* \"#utility.yul\":5160:5213   */\n      tag_240\n        /* \"#utility.yul\":5205:5212   */\n      dup5\n        /* \"#utility.yul\":5196:5202   */\n      dup3\n        /* \"#utility.yul\":5185:5194   */\n      dup6\n        /* \"#utility.yul\":5181:5203   */\n      add\n        /* \"#utility.yul\":5160:5213   */\n      tag_157\n      jump\t// in\n    tag_240:\n        /* \"#utility.yul\":5150:5213   */\n      swap2\n      pop\n        /* \"#utility.yul\":5106:5223   */\n      pop\n        /* \"#utility.yul\":4901:5230   */\n      swap3\n      swap2\n      pop\n      pop\n      jump\t// out\n        /* \"#utility.yul\":5236:5565   */\n    tag_49:\n        /* \"#utility.yul\":5295:5301   */\n      0x00\n        /* \"#utility.yul\":5344:5346   */\n      0x20\n        /* \"#utility.yul\":5332:5341   */\n      dup3\n        /* \"#utility.yul\":5323:5330   */\n      dup5\n        /* \"#utility.yul\":5319:5342   */\n      sub\n        /* \"#utility.yul\":5315:5347   */\n      slt\n        /* \"#utility.yul\":5312:5431   */\n      iszero\n      tag_242\n      jumpi\n        /* \"#utility.yul\":5350:5429   */\n      tag_243\n      tag_149\n      jump\t// in\n    tag_243:\n        /* \"#utility.yul\":5312:5431   */\n    tag_242:\n        /* \"#utility.yul\":5470:5471   */\n      0x00\n        /* \"#utility.yul\":5495:5548   */\n      tag_244\n        /* \"#utility.yul\":5540:5547   */\n      dup5\n        /* \"#utility.yul\":5531:5537   */\n      dup3\n        /* \"#utility.yul\":5520:5529   */\n      dup6\n        /* \"#utility.yul\":5516:5538   */\n      add\n        /* \"#utility.yul\":5495:5548   */\n      tag_154\n      jump\t// in\n    tag_244:\n        /* \"#utility.yul\":5485:5548   */\n      swap2\n      pop\n        /* \"#utility.yul\":5441:5558   */\n      pop\n        /* \"#utility.yul\":5236:5565   */\n      swap3\n      swap2\n      pop\n      pop\n      jump\t// out\n        /* \"#utility.yul\":5571:6045   */\n    tag_65:\n        /* \"#utility.yul\":5639:5645   */\n      0x00\n        /* \"#utility.yul\":5647:5653   */\n      dup1\n        /* \"#utility.yul\":5696:5698   */\n      0x40\n        /* \"#utility.yul\":5684:5693   */\n      dup4\n        /* \"#utility.yul\":5675:5682   */\n      dup6\n        /* \"#utility.yul\":5671:5694   */\n      sub\n        /* \"#utility.yul\":5667:5699   */\n      slt\n        /* \"#utility.yul\":5664:5783   */\n      iszero\n      tag_246\n      jumpi\n        /* \"#utility.yul\":5702:5781   */\n      tag_247\n      tag_149\n      jump\t// in\n    tag_247:\n        /* \"#utility.yul\":5664:5783   */\n    tag_246:\n        /* \"#utility.yul\":5822:5823   */\n      0x00\n        /* \"#utility.yul\":5847:5900   */\n      tag_248\n        /* \"#utility.yul\":5892:5899   */\n      dup6\n        /* \"#utility.yul\":5883:5889   */\n      dup3\n        /* \"#utility.yul\":5872:5881   */\n      dup7\n        /* \"#utility.yul\":5868:5890   */\n      add\n        /* \"#utility.yul\":5847:5900   */\n      tag_154\n      jump\t// in\n    tag_248:\n        /* \"#utility.yul\":5837:5900   */\n      swap3\n      pop\n        /* \"#utility.yul\":5793:5910   */\n      pop\n        /* \"#utility.yul\":5949:5951   */\n      0x20\n        /* \"#utility.yul\":5975:6028   */\n      tag_249\n        /* \"#utility.yul\":6020:6027   */\n      dup6\n        /* \"#utility.yul\":6011:6017   */\n      dup3\n        /* \"#utility.yul\":6000:6009   */\n      dup7\n        /* \"#utility.yul\":5996:6018   */\n      add\n        /* \"#utility.yul\":5975:6028   */\n      tag_154\n      jump\t// in\n    tag_249:\n        /* \"#utility.yul\":5965:6028   */\n      swap2\n      pop\n        /* \"#utility.yul\":5920:6038   */\n      pop\n        /* \"#utility.yul\":5571:6045   */\n      swap3\n      pop\n      swap3\n      swap1\n      pop\n      jump\t// out\n        /* \"#utility.yul\":6051:6231   */\n    tag_163:\n        /* \"#utility.yul\":6099:6176   */\n      0x4e487b7100000000000000000000000000000000000000000000000000000000\n        /* \"#utility.yul\":6096:6097   */\n      0x00\n        /* \"#utility.yul\":6089:6177   */\n      mstore\n        /* \"#utility.yul\":6196:6200   */\n      0x22\n        /* \"#utility.yul\":6193:6194   */\n      0x04\n        /* \"#utility.yul\":6186:6201   */\n      mstore\n        /* \"#utility.yul\":6220:6224   */\n      0x24\n        /* \"#utility.yul\":6217:6218   */\n      0x00\n        /* \"#utility.yul\":6210:6225   */\n      revert\n        /* \"#utility.yul\":6237:6557   */\n    tag_71:\n        /* \"#utility.yul\":6281:6287   */\n      0x00\n        /* \"#utility.yul\":6318:6319   */\n      0x02\n        /* \"#utility.yul\":6312:6316   */\n      dup3\n        /* \"#utility.yul\":6308:6320   */\n      div\n        /* \"#utility.yul\":6298:6320   */\n      swap1\n      pop\n        /* \"#utility.yul\":6365:6366   */\n      0x01\n        /* \"#utility.yul\":6359:6363   */\n      dup3\n        /* \"#utility.yul\":6355:6367   */\n      and\n        /* \"#utility.yul\":6386:6404   */\n      dup1\n        /* \"#utility.yul\":6376:6457   */\n      tag_252\n      jumpi\n        /* \"#utility.yul\":6442:6446   */\n      0x7f\n        /* \"#utility.yul\":6434:6440   */\n      dup3\n        /* \"#utility.yul\":6430:6447   */\n      and\n        /* \"#utility.yul\":6420:6447   */\n      swap2\n      pop\n        /* \"#utility.yul\":6376:6457   */\n    tag_252:\n        /* \"#utility.yul\":6504:6506   */\n      0x20\n        /* \"#utility.yul\":6496:6502   */\n      dup3\n        /* \"#utility.yul\":6493:6507   */\n      lt\n        /* \"#utility.yul\":6473:6491   */\n      dup2\n        /* \"#utility.yul\":6470:6508   */\n      eq\n        /* \"#utility.yul\":6467:6551   */\n      iszero\n      tag_253\n      jumpi\n        /* \"#utility.yul\":6523:6541   */\n      tag_254\n      tag_163\n      jump\t// in\n    tag_254:\n        /* \"#utility.yul\":6467:6551   */\n    tag_253:\n        /* \"#utility.yul\":6288:6557   */\n      pop\n        /* \"#utility.yul\":6237:6557   */\n      swap2\n      swap1\n      pop\n      jump\t// out\n        /* \"#utility.yul\":6563:6743   */\n    tag_164:\n        /* \"#utility.yul\":6611:6688   */\n      0x4e487b7100000000000000000000000000000000000000000000000000000000\n        /* \"#utility.yul\":6608:6609   */\n      0x00\n        /* \"#utility.yul\":6601:6689   */\n      mstore\n        /* \"#utility.yul\":6708:6712   */\n      0x11\n        /* \"#utility.yul\":6705:6706   */\n      0x04\n        /* \"#utility.yul\":6698:6713   */\n      mstore\n        /* \"#utility.yul\":6732:6736   */\n      0x24\n        /* \"#utility.yul\":6729:6730   */\n      0x00\n        /* \"#utility.yul\":6722:6737   */\n      revert\n        /* \"#utility.yul\":6749:7054   */\n    tag_108:\n        /* \"#utility.yul\":6789:6792   */\n      0x00\n        /* \"#utility.yul\":6808:6828   */\n      tag_257\n        /* \"#utility.yul\":6826:6827   */\n      dup3\n        /* \"#utility.yul\":6808:6828   */\n      tag_155\n      jump\t// in\n    tag_257:\n        /* \"#utility.yul\":6803:6828   */\n      swap2\n      pop\n        /* \"#utility.yul\":6842:6862   */\n      tag_258\n        /* \"#utility.yul\":6860:6861   */\n      dup4\n        /* \"#utility.yul\":6842:6862   */\n      tag_155\n      jump\t// in\n    tag_258:\n        /* \"#utility.yul\":6837:6862   */\n      swap3\n      pop\n        /* \"#utility.yul\":6996:6997   */\n      dup3\n        /* \"#utility.yul\":6928:6994   */\n      0xffffffffffffffffffffffffffffffffffffffffffffffffffffffffffffffff\n        /* \"#utility.yul\":6924:6998   */\n      sub\n        /* \"#utility.yul\":6921:6922   */\n      dup3\n        /* \"#utility.yul\":6918:6999   */\n      gt\n        /* \"#utility.yul\":6915:7022   */\n      iszero\n      tag_259\n      jumpi\n        /* \"#utility.yul\":7002:7020   */\n      tag_260\n      tag_164\n      jump\t// in\n    tag_260:\n        /* \"#utility.yul\":6915:7022   */\n    tag_259:\n        /* \"#utility.yul\":7046:7047   */\n      dup3\n        /* \"#utility.yul\":7043:7044   */\n      dup3\n        /* \"#utility.yul\":7039:7048   */\n      add\n        /* \"#utility.yul\":7032:7048   */\n      swap1\n      pop\n        /* \"#utility.yul\":6749:7054   */\n      swap3\n      swap2\n      pop\n      pop\n      jump\t// out\n        /* \"#utility.yul\":7060:7237   */\n    tag_165:\n        /* \"#utility.yul\":7200:7229   */\n      0x536166654d6174683a206164646974696f6e206f766572666c6f770000000000\n        /* \"#utility.yul\":7196:7197   */\n      0x00\n        /* \"#utility.yul\":7188:7194   */\n      dup3\n        /* \"#utility.yul\":7184:7198   */\n      add\n        /* \"#utility.yul\":7177:7230   */\n      mstore\n        /* \"#utility.yul\":7060:7237   */\n      pop\n      jump\t// out\n        /* \"#utility.yul\":7243:7609   */\n    tag_166:\n        /* \"#utility.yul\":7385:7388   */\n      0x00\n        /* \"#utility.yul\":7406:7473   */\n      tag_263\n        /* \"#utility.yul\":7470:7472   */\n      0x1b\n        /* \"#utility.yul\":7465:7468   */\n      dup4\n        /* \"#utility.yul\":7406:7473   */\n      tag_144\n      jump\t// in\n    tag_263:\n        /* \"#utility.yul\":7399:7473   */\n      swap2\n      pop\n        /* \"#utility.yul\":7482:7575   */\n      tag_264\n        /* \"#utility.yul\":7571:7574   */\n      dup3\n        /* \"#utility.yul\":7482:7575   */\n      tag_165\n      jump\t// in\n    tag_264:\n        /* \"#utility.yul\":7600:7602   */\n      0x20\n        /* \"#utility.yul\":7595:7598   */\n      dup3\n        /* \"#utility.yul\":7591:7603   */\n      add\n        /* \"#utility.yul\":7584:7603   */\n      swap1\n      pop\n        /* \"#utility.yul\":7243:7609   */\n      swap2\n      swap1\n      pop\n      jump\t// out\n        /* \"#utility.yul\":7615:8034   */\n    tag_111:\n        /* \"#utility.yul\":7781:7785   */\n      0x00\n        /* \"#utility.yul\":7819:7821   */\n      0x20\n        /* \"#utility.yul\":7808:7817   */\n      dup3\n        /* \"#utility.yul\":7804:7822   */\n      add\n        /* \"#utility.yul\":7796:7822   */\n      swap1\n      pop\n        /* \"#utility.yul\":7868:7877   */\n      dup2\n        /* \"#utility.yul\":7862:7866   */\n      dup2\n        /* \"#utility.yul\":7858:7878   */\n      sub\n        /* \"#utility.yul\":7854:7855   */\n      0x00\n        /* \"#utility.yul\":7843:7852   */\n      dup4\n        /* \"#utility.yul\":7839:7856   */\n      add\n        /* \"#utility.yul\":7832:7879   */\n      mstore\n        /* \"#utility.yul\":7896:8027   */\n      tag_266\n        /* \"#utility.yul\":8022:8026   */\n      dup2\n        /* \"#utility.yul\":7896:8027   */\n      tag_166\n      jump\t// in\n    tag_266:\n        /* \"#utility.yul\":7888:8027   */\n      swap1\n      pop\n        /* \"#utility.yul\":7615:8034   */\n      swap2\n      swap1\n      pop\n      jump\t// out\n        /* \"#utility.yul\":8040:8263   */\n    tag_167:\n        /* \"#utility.yul\":8180:8214   */\n      0x45524332303a20617070726f76652066726f6d20746865207a65726f20616464\n        /* \"#utility.yul\":8176:8177   */\n      0x00\n        /* \"#utility.yul\":8168:8174   */\n      dup3\n        /* \"#utility.yul\":8164:8178   */\n      add\n        /* \"#utility.yul\":8157:8215   */\n      mstore\n        /* \"#utility.yul\":8249:8255   */\n      0x7265737300000000000000000000000000000000000000000000000000000000\n        /* \"#utility.yul\":8244:8246   */\n      0x20\n        /* \"#utility.yul\":8236:8242   */\n      dup3\n        /* \"#utility.yul\":8232:8247   */\n      add\n        /* \"#utility.yul\":8225:8256   */\n      mstore\n        /* \"#utility.yul\":8040:8263   */\n      pop\n      jump\t// out\n        /* \"#utility.yul\":8269:8635   */\n    tag_168:\n        /* \"#utility.yul\":8411:8414   */\n      0x00\n        /* \"#utility.yul\":8432:8499   */\n      tag_269\n        /* \"#utility.yul\":8496:8498   */\n      0x24\n        /* \"#utility.yul\":8491:8494   */\n      dup4\n        /* \"#utility.yul\":8432:8499   */\n      tag_144\n      jump\t// in\n    tag_269:\n        /* \"#utility.yul\":8425:8499   */\n      swap2\n      pop\n        /* \"#utility.yul\":8508:8601   */\n      tag_270\n        /* \"#utility.yul\":8597:8600   */\n      dup3\n        /* \"#utility.yul\":8508:8601   */\n      tag_167\n      jump\t// in\n    tag_270:\n        /* \"#utility.yul\":8626:8628   */\n      0x40\n        /* \"#utility.yul\":8621:8624   */\n      dup3\n        /* \"#utility.yul\":8617:8629   */\n      add\n        /* \"#utility.yul\":8610:8629   */\n      swap1\n      pop\n        /* \"#utility.yul\":8269:8635   */\n      swap2\n      swap1\n      pop\n      jump\t// out\n        /* \"#utility.yul\":8641:9060   */\n    tag_115:\n        /* \"#utility.yul\":8807:8811   */\n      0x00\n        /* \"#utility.yul\":8845:8847   */\n      0x20\n        /* \"#utility.yul\":8834:8843   */\n      dup3\n        /* \"#utility.yul\":8830:8848   */\n      add\n        /* \"#utility.yul\":8822:8848   */\n      swap1\n      pop\n        /* \"#utility.yul\":8894:8903   */\n      dup2\n        /* \"#utility.yul\":8888:8892   */\n      dup2\n        /* \"#utility.yul\":8884:8904   */\n      sub\n        /* \"#utility.yul\":8880:8881   */\n      0x00\n        /* \"#utility.yul\":8869:8878   */\n      dup4\n        /* \"#utility.yul\":8865:8882   */\n      add\n        /* \"#utility.yul\":8858:8905   */\n      mstore\n        /* \"#utility.yul\":8922:9053   */\n      tag_272\n        /* \"#utility.yul\":9048:9052   */\n      dup2\n        /* \"#utility.yul\":8922:9053   */\n      tag_168\n      jump\t// in\n    tag_272:\n        /* \"#utility.yul\":8914:9053   */\n      swap1\n      pop\n        /* \"#utility.yul\":8641:9060   */\n      swap2\n      swap1\n      pop\n      jump\t// out\n        /* \"#utility.yul\":9066:9287   */\n    tag_169:\n        /* \"#utility.yul\":9206:9240   */\n      0x45524332303a20617070726f766520746f20746865207a65726f206164647265\n        /* \"#utility.yul\":9202:9203   */\n      0x00\n        /* \"#utility.yul\":9194:9200   */\n      dup3\n        /* \"#utility.yul\":9190:9204   */\n      add\n        /* \"#utility.yul\":9183:9241   */\n      mstore\n        /* \"#utility.yul\":9275:9279   */\n      0x7373000000000000000000000000000000000000000000000000000000000000\n        /* \"#utility.yul\":9270:9272   */\n      0x20\n        /* \"#utility.yul\":9262:9268   */\n      dup3\n        /* \"#utility.yul\":9258:9273   */\n      add\n        /* \"#utility.yul\":9251:9280   */\n      mstore\n        /* \"#utility.yul\":9066:9287   */\n      pop\n      jump\t// out\n        /* \"#utility.yul\":9293:9659   */\n    tag_170:\n        /* \"#utility.yul\":9435:9438   */\n      0x00\n        /* \"#utility.yul\":9456:9523   */\n      tag_275\n        /* \"#utility.yul\":9520:9522   */\n      0x22\n        /* \"#utility.yul\":9515:9518   */\n      dup4\n        /* \"#utility.yul\":9456:9523   */\n      tag_144\n      jump\t// in\n    tag_275:\n        /* \"#utility.yul\":9449:9523   */\n      swap2\n      pop\n        /* \"#utility.yul\":9532:9625   */\n      tag_276\n        /* \"#utility.yul\":9621:9624   */\n      dup3\n        /* \"#utility.yul\":9532:9625   */\n      tag_169\n      jump\t// in\n    tag_276:\n        /* \"#utility.yul\":9650:9652   */\n      0x40\n        /* \"#utility.yul\":9645:9648   */\n      dup3\n        /* \"#utility.yul\":9641:9653   */\n      add\n        /* \"#utility.yul\":9634:9653   */\n      swap1\n      pop\n        /* \"#utility.yul\":9293:9659   */\n      swap2\n      swap1\n      pop\n      jump\t// out\n        /* \"#utility.yul\":9665:10084   */\n    tag_118:\n        /* \"#utility.yul\":9831:9835   */\n      0x00\n        /* \"#utility.yul\":9869:9871   */\n      0x20\n        /* \"#utility.yul\":9858:9867   */\n      dup3\n        /* \"#utility.yul\":9854:9872   */\n      add\n        /* \"#utility.yul\":9846:9872   */\n      swap1\n      pop\n        /* \"#utility.yul\":9918:9927   */\n      dup2\n        /* \"#utility.yul\":9912:9916   */\n      dup2\n        /* \"#utility.yul\":9908:9928   */\n      sub\n        /* \"#utility.yul\":9904:9905   */\n      0x00\n        /* \"#utility.yul\":9893:9902   */\n      dup4\n        /* \"#utility.yul\":9889:9906   */\n      add\n        /* \"#utility.yul\":9882:9929   */\n      mstore\n        /* \"#utility.yul\":9946:10077   */\n      tag_278\n        /* \"#utility.yul\":10072:10076   */\n      dup2\n        /* \"#utility.yul\":9946:10077   */\n      tag_170\n      jump\t// in\n    tag_278:\n        /* \"#utility.yul\":9938:10077   */\n      swap1\n      pop\n        /* \"#utility.yul\":9665:10084   */\n      swap2\n      swap1\n      pop\n      jump\t// out\n        /* \"#utility.yul\":10090:10314   */\n    tag_171:\n        /* \"#utility.yul\":10230:10264   */\n      0x45524332303a207472616e736665722066726f6d20746865207a65726f206164\n        /* \"#utility.yul\":10226:10227   */\n      0x00\n        /* \"#utility.yul\":10218:10224   */\n      dup3\n        /* \"#utility.yul\":10214:10228   */\n      add\n        /* \"#utility.yul\":10207:10265   */\n      mstore\n        /* \"#utility.yul\":10299:10306   */\n      0x6472657373000000000000000000000000000000000000000000000000000000\n        /* \"#utility.yul\":10294:10296   */\n      0x20\n        /* \"#utility.yul\":10286:10292   */\n      dup3\n        /* \"#utility.yul\":10282:10297   */\n      add\n        /* \"#utility.yul\":10275:10307   */\n      mstore\n        /* \"#utility.yul\":10090:10314   */\n      pop\n      jump\t// out\n        /* \"#utility.yul\":10320:10686   */\n    tag_172:\n        /* \"#utility.yul\":10462:10465   */\n      0x00\n        /* \"#utility.yul\":10483:10550   */\n      tag_281\n        /* \"#utility.yul\":10547:10549   */\n      0x25\n        /* \"#utility.yul\":10542:10545   */\n      dup4\n        /* \"#utility.yul\":10483:10550   */\n      tag_144\n      jump\t// in\n    tag_281:\n        /* \"#utility.yul\":10476:10550   */\n      swap2\n      pop\n        /* \"#utility.yul\":10559:10652   */\n      tag_282\n        /* \"#utility.yul\":10648:10651   */\n      dup3\n        /* \"#utility.yul\":10559:10652   */\n      tag_171\n      jump\t// in\n    tag_282:\n        /* \"#utility.yul\":10677:10679   */\n      0x40\n        /* \"#utility.yul\":10672:10675   */\n      dup3\n        /* \"#utility.yul\":10668:10680   */\n      add\n        /* \"#utility.yul\":10661:10680   */\n      swap1\n      pop\n        /* \"#utility.yul\":10320:10686   */\n      swap2\n      swap1\n      pop\n      jump\t// out\n        /* \"#utility.yul\":10692:11111   */\n    tag_123:\n        /* \"#utility.yul\":10858:10862   */\n      0x00\n        /* \"#utility.yul\":10896:10898   */\n      0x20\n        /* \"#utility.yul\":10885:10894   */\n      dup3\n        /* \"#utility.yul\":10881:10899   */\n      add\n        /* \"#utility.yul\":10873:10899   */\n      swap1\n      pop\n        /* \"#utility.yul\":10945:10954   */\n      dup2\n        /* \"#utility.yul\":10939:10943   */\n      dup2\n        /* \"#utility.yul\":10935:10955   */\n      sub\n        /* \"#utility.yul\":10931:10932   */\n      0x00\n        /* \"#utility.yul\":10920:10929   */\n      dup4\n        /* \"#utility.yul\":10916:10933   */\n      add\n        /* \"#utility.yul\":10909:10956   */\n      mstore\n        /* \"#utility.yul\":10973:11104   */\n      tag_284\n        /* \"#utility.yul\":11099:11103   */\n      dup2\n        /* \"#utility.yul\":10973:11104   */\n      tag_172\n      jump\t// in\n    tag_284:\n        /* \"#utility.yul\":10965:11104   */\n      swap1\n      pop\n        /* \"#utility.yul\":10692:11111   */\n      swap2\n      swap1\n      pop\n      jump\t// out\n        /* \"#utility.yul\":11117:11339   */\n    tag_173:\n        /* \"#utility.yul\":11257:11291   */\n      0x45524332303a207472616e7366657220746f20746865207a65726f2061646472\n        /* \"#utility.yul\":11253:11254   */\n      0x00\n        /* \"#utility.yul\":11245:11251   */\n      dup3\n        /* \"#utility.yul\":11241:11255   */\n      add\n        /* \"#utility.yul\":11234:11292   */\n      mstore\n        /* \"#utility.yul\":11326:11331   */\n      0x6573730000000000000000000000000000000000000000000000000000000000\n        /* \"#utility.yul\":11321:11323   */\n      0x20\n        /* \"#utility.yul\":11313:11319   */\n      dup3\n        /* \"#utility.yul\":11309:11324   */\n      add\n        /* \"#utility.yul\":11302:11332   */\n      mstore\n        /* \"#utility.yul\":11117:11339   */\n      pop\n      jump\t// out\n        /* \"#utility.yul\":11345:11711   */\n    tag_174:\n        /* \"#utility.yul\":11487:11490   */\n      0x00\n        /* \"#utility.yul\":11508:11575   */\n      tag_287\n        /* \"#utility.yul\":11572:11574   */\n      0x23\n        /* \"#utility.yul\":11567:11570   */\n      dup4\n        /* \"#utility.yul\":11508:11575   */\n      tag_144\n      jump\t// in\n    tag_287:\n        /* \"#utility.yul\":11501:11575   */\n      swap2\n      pop\n        /* \"#utility.yul\":11584:11677   */\n      tag_288\n        /* \"#utility.yul\":11673:11676   */\n      dup3\n        /* \"#utility.yul\":11584:11677   */\n      tag_173\n      jump\t// in\n    tag_288:\n        /* \"#utility.yul\":11702:11704   */\n      0x40\n        /* \"#utility.yul\":11697:11700   */\n      dup3\n        /* \"#utility.yul\":11693:11705   */\n      add\n        /* \"#utility.yul\":11686:11705   */\n      swap1\n      pop\n        /* \"#utility.yul\":11345:11711   */\n      swap2\n      swap1\n      pop\n      jump\t// out\n        /* \"#utility.yul\":11717:12136   */\n    tag_126:\n        /* \"#utility.yul\":11883:11887   */\n      0x00\n        /* \"#utility.yul\":11921:11923   */\n      0x20\n        /* \"#utility.yul\":11910:11919   */\n      dup3\n        /* \"#utility.yul\":11906:11924   */\n      add\n        /* \"#utility.yul\":11898:11924   */\n      swap1\n      pop\n        /* \"#utility.yul\":11970:11979   */\n      dup2\n        /* \"#utility.yul\":11964:11968   */\n      dup2\n        /* \"#utility.yul\":11960:11980   */\n      sub\n        /* \"#utility.yul\":11956:11957   */\n      0x00\n        /* \"#utility.yul\":11945:11954   */\n      dup4\n        /* \"#utility.yul\":11941:11958   */\n      add\n        /* \"#utility.yul\":11934:11981   */\n      mstore\n        /* \"#utility.yul\":11998:12129   */\n      tag_290\n        /* \"#utility.yul\":12124:12128   */\n      dup2\n        /* \"#utility.yul\":11998:12129   */\n      tag_174\n      jump\t// in\n    tag_290:\n        /* \"#utility.yul\":11990:12129   */\n      swap1\n      pop\n        /* \"#utility.yul\":11717:12136   */\n      swap2\n      swap1\n      pop\n      jump\t// out\n        /* \"#utility.yul\":12142:12322   */\n    tag_175:\n        /* \"#utility.yul\":12282:12314   */\n      0x536166654d6174683a207375627472616374696f6e206f766572666c6f770000\n        /* \"#utility.yul\":12278:12279   */\n      0x00\n        /* \"#utility.yul\":12270:12276   */\n      dup3\n        /* \"#utility.yul\":12266:12280   */\n      add\n        /* \"#utility.yul\":12259:12315   */\n      mstore\n        /* \"#utility.yul\":12142:12322   */\n      pop\n      jump\t// out\n        /* \"#utility.yul\":12328:12694   */\n    tag_176:\n        /* \"#utility.yul\":12470:12473   */\n      0x00\n        /* \"#utility.yul\":12491:12558   */\n      tag_293\n        /* \"#utility.yul\":12555:12557   */\n      0x1e\n        /* \"#utility.yul\":12550:12553   */\n      dup4\n        /* \"#utility.yul\":12491:12558   */\n      tag_144\n      jump\t// in\n    tag_293:\n        /* \"#utility.yul\":12484:12558   */\n      swap2\n      pop\n        /* \"#utility.yul\":12567:12660   */\n      tag_294\n        /* \"#utility.yul\":12656:12659   */\n      dup3\n        /* \"#utility.yul\":12567:12660   */\n      tag_175\n      jump\t// in\n    tag_294:\n        /* \"#utility.yul\":12685:12687   */\n      0x20\n        /* \"#utility.yul\":12680:12683   */\n      dup3\n        /* \"#utility.yul\":12676:12688   */\n      add\n        /* \"#utility.yul\":12669:12688   */\n      swap1\n      pop\n        /* \"#utility.yul\":12328:12694   */\n      swap2\n      swap1\n      pop\n      jump\t// out\n        /* \"#utility.yul\":12700:13119   */\n    tag_133:\n        /* \"#utility.yul\":12866:12870   */\n      0x00\n        /* \"#utility.yul\":12904:12906   */\n      0x20\n        /* \"#utility.yul\":12893:12902   */\n      dup3\n        /* \"#utility.yul\":12889:12907   */\n      add\n        /* \"#utility.yul\":12881:12907   */\n      swap1\n      pop\n        /* \"#utility.yul\":12953:12962   */\n      dup2\n        /* \"#utility.yul\":12947:12951   */\n      dup2\n        /* \"#utility.yul\":12943:12963   */\n      sub\n        /* \"#utility.yul\":12939:12940   */\n      0x00\n        /* \"#utility.yul\":12928:12937   */\n      dup4\n        /* \"#utility.yul\":12924:12941   */\n      add\n        /* \"#utility.yul\":12917:12964   */\n      mstore\n        /* \"#utility.yul\":12981:13112   */\n      tag_296\n        /* \"#utility.yul\":13107:13111   */\n      dup2\n        /* \"#utility.yul\":12981:13112   */\n      tag_176\n      jump\t// in\n    tag_296:\n        /* \"#utility.yul\":12973:13112   */\n      swap1\n      pop\n        /* \"#utility.yul\":12700:13119   */\n      swap2\n      swap1\n      pop\n      jump\t// out\n        /* \"#utility.yul\":13125:13316   */\n    tag_135:\n        /* \"#utility.yul\":13165:13169   */\n      0x00\n        /* \"#utility.yul\":13185:13205   */\n      tag_298\n        /* \"#utility.yul\":13203:13204   */\n      dup3\n        /* \"#utility.yul\":13185:13205   */\n      tag_155\n      jump\t// in\n    tag_298:\n        /* \"#utility.yul\":13180:13205   */\n      swap2\n      pop\n        /* \"#utility.yul\":13219:13239   */\n      tag_299\n        /* \"#utility.yul\":13237:13238   */\n      dup4\n        /* \"#utility.yul\":13219:13239   */\n      tag_155\n      jump\t// in\n    tag_299:\n        /* \"#utility.yul\":13214:13239   */\n      swap3\n      pop\n        /* \"#utility.yul\":13258:13259   */\n      dup3\n        /* \"#utility.yul\":13255:13256   */\n      dup3\n        /* \"#utility.yul\":13252:13260   */\n      lt\n        /* \"#utility.yul\":13249:13283   */\n      iszero\n      tag_300\n      jumpi\n        /* \"#utility.yul\":13263:13281   */\n      tag_301\n      tag_164\n      jump\t// in\n    tag_301:\n        /* \"#utility.yul\":13249:13283   */\n    tag_300:\n        /* \"#utility.yul\":13308:13309   */\n      dup3\n        /* \"#utility.yul\":13305:13306   */\n      dup3\n        /* \"#utility.yul\":13301:13310   */\n      sub\n        /* \"#utility.yul\":13293:13310   */\n      swap1\n      pop\n        /* \"#utility.yul\":13125:13316   */\n      swap3\n      swap2\n      pop\n      pop\n      jump\t// out\n        /* \"#utility.yul\":13322:13542   */\n    tag_177:\n        /* \"#utility.yul\":13462:13496   */\n      0x45524332303a206275726e2066726f6d20746865207a65726f20616464726573\n        /* \"#utility.yul\":13458:13459   */\n      0x00\n        /* \"#utility.yul\":13450:13456   */\n      dup3\n        /* \"#utility.yul\":13446:13460   */\n      add\n        /* \"#utility.yul\":13439:13497   */\n      mstore\n        /* \"#utility.yul\":13531:13534   */\n      0x7300000000000000000000000000000000000000000000000000000000000000\n        /* \"#utility.yul\":13526:13528   */\n      0x20\n        /* \"#utility.yul\":13518:13524   */\n      dup3\n        /* \"#utility.yul\":13514:13529   */\n      add\n        /* \"#utility.yul\":13507:13535   */\n      mstore\n        /* \"#utility.yul\":13322:13542   */\n      pop\n      jump\t// out\n        /* \"#utility.yul\":13548:13914   */\n    tag_178:\n        /* \"#utility.yul\":13690:13693   */\n      0x00\n        /* \"#utility.yul\":13711:13778   */\n      tag_304\n        /* \"#utility.yul\":13775:13777   */\n      0x21\n        /* \"#utility.yul\":13770:13773   */\n      dup4\n        /* \"#utility.yul\":13711:13778   */\n      tag_144\n      jump\t// in\n    tag_304:\n        /* \"#utility.yul\":13704:13778   */\n      swap2\n      pop\n        /* \"#utility.yul\":13787:13880   */\n      tag_305\n        /* \"#utility.yul\":13876:13879   */\n      dup3\n        /* \"#utility.yul\":13787:13880   */\n      tag_177\n      jump\t// in\n    tag_305:\n        /* \"#utility.yul\":13905:13907   */\n      0x40\n        /* \"#utility.yul\":13900:13903   */\n      dup3\n        /* \"#utility.yul\":13896:13908   */\n      add\n        /* \"#utility.yul\":13889:13908   */\n      swap1\n      pop\n        /* \"#utility.yul\":13548:13914   */\n      swap2\n      swap1\n      pop\n      jump\t// out\n        /* \"#utility.yul\":13920:14339   */\n    tag_139:\n        /* \"#utility.yul\":14086:14090   */\n      0x00\n        /* \"#utility.yul\":14124:14126   */\n      0x20\n        /* \"#utility.yul\":14113:14122   */\n      dup3\n        /* \"#utility.yul\":14109:14127   */\n      add\n        /* \"#utility.yul\":14101:14127   */\n      swap1\n      pop\n        /* \"#utility.yul\":14173:14182   */\n      dup2\n        /* \"#utility.yul\":14167:14171   */\n      dup2\n        /* \"#utility.yul\":14163:14183   */\n      sub\n        /* \"#utility.yul\":14159:14160   */\n      0x00\n        /* \"#utility.yul\":14148:14157   */\n      dup4\n        /* \"#utility.yul\":14144:14161   */\n      add\n        /* \"#utility.yul\":14137:14184   */\n      mstore\n        /* \"#utility.yul\":14201:14332   */\n      tag_307\n        /* \"#utility.yul\":14327:14331   */\n      dup2\n        /* \"#utility.yul\":14201:14332   */\n      tag_178\n      jump\t// in\n    tag_307:\n        /* \"#utility.yul\":14193:14332   */\n      swap1\n      pop\n        /* \"#utility.yul\":13920:14339   */\n      swap2\n      swap1\n      pop\n      jump\t// out\n\n    auxdata: 0xa2646970667358221220e120db404e717328809517a6ceefd45da7f7cb754f2be9f54802e91d1dd0626864736f6c63430008090033\n}\n",
				"bytecode": {
					"linkReferences": {},
					"object": "608060405260405162001ec938038062001ec983398181016040528101906200002991906200064a565b856003908051906020019062000041929190620002da565b5084600490805190602001906200005a929190620002da565b5083600560006101000a81548160ff021916908360ff160217905550620000888184620000dc60201b60201c565b8173ffffffffffffffffffffffffffffffffffffffff166108fc349081150290604051600060405180830381858888f19350505050158015620000cf573d6000803e3d6000fd5b5050505050505062000938565b600073ffffffffffffffffffffffffffffffffffffffff168273ffffffffffffffffffffffffffffffffffffffff1614156200014f576040517f08c379a0000000000000000000000000000000000000000000000000000000008152600401620001469062000785565b60405180910390fd5b6200016b816002546200027760201b620006e71790919060201c565b600281905550620001c9816000808573ffffffffffffffffffffffffffffffffffffffff1673ffffffffffffffffffffffffffffffffffffffff168152602001908152602001600020546200027760201b620006e71790919060201c565b6000808473ffffffffffffffffffffffffffffffffffffffff1673ffffffffffffffffffffffffffffffffffffffff168152602001908152602001600020819055508173ffffffffffffffffffffffffffffffffffffffff16600073ffffffffffffffffffffffffffffffffffffffff167fddf252ad1be2c89b69c2b068fc378daa952ba7f163c4a11628f55a4df523b3ef836040516200026b9190620007b8565b60405180910390a35050565b600080828462000288919062000804565b905083811015620002d0576040517f08c379a0000000000000000000000000000000000000000000000000000000008152600401620002c790620008b1565b60405180910390fd5b8091505092915050565b828054620002e89062000902565b90600052602060002090601f0160209004810192826200030c576000855562000358565b82601f106200032757805160ff191683800117855562000358565b8280016001018555821562000358579182015b82811115620003575782518255916020019190600101906200033a565b5b5090506200036791906200036b565b5090565b5b80821115620003865760008160009055506001016200036c565b5090565b6000604051905090565b600080fd5b600080fd5b600080fd5b600080fd5b6000601f19601f8301169050919050565b7f4e487b7100000000000000000000000000000000000000000000000000000000600052604160045260246000fd5b620003f382620003a8565b810181811067ffffffffffffffff82111715620004155762000414620003b9565b5b80604052505050565b60006200042a6200038a565b9050620004388282620003e8565b919050565b600067ffffffffffffffff8211156200045b576200045a620003b9565b5b6200046682620003a8565b9050602081019050919050565b60005b838110156200049357808201518184015260208101905062000476565b83811115620004a3576000848401525b50505050565b6000620004c0620004ba846200043d565b6200041e565b905082815260208101848484011115620004df57620004de620003a3565b5b620004ec84828562000473565b509392505050565b600082601f8301126200050c576200050b6200039e565b5b81516200051e848260208601620004a9565b91505092915050565b600060ff82169050919050565b6200053f8162000527565b81146200054b57600080fd5b50565b6000815190506200055f8162000534565b92915050565b6000819050919050565b6200057a8162000565565b81146200058657600080fd5b50565b6000815190506200059a816200056f565b92915050565b600073ffffffffffffffffffffffffffffffffffffffff82169050919050565b6000620005cd82620005a0565b9050919050565b620005df81620005c0565b8114620005eb57600080fd5b50565b600081519050620005ff81620005d4565b92915050565b60006200061282620005a0565b9050919050565b620006248162000605565b81146200063057600080fd5b50565b600081519050620006448162000619565b92915050565b60008060008060008060c087890312156200066a576200066962000394565b5b600087015167ffffffffffffffff8111156200068b576200068a62000399565b5b6200069989828a01620004f4565b965050602087015167ffffffffffffffff811115620006bd57620006bc62000399565b5b620006cb89828a01620004f4565b9550506040620006de89828a016200054e565b9450506060620006f189828a0162000589565b93505060806200070489828a01620005ee565b92505060a06200071789828a0162000633565b9150509295509295509295565b600082825260208201905092915050565b7f45524332303a206d696e7420746f20746865207a65726f206164647265737300600082015250565b60006200076d601f8362000724565b91506200077a8262000735565b602082019050919050565b60006020820190508181036000830152620007a0816200075e565b9050919050565b620007b28162000565565b82525050565b6000602082019050620007cf6000830184620007a7565b92915050565b7f4e487b7100000000000000000000000000000000000000000000000000000000600052601160045260246000fd5b6000620008118262000565565b91506200081e8362000565565b9250827fffffffffffffffffffffffffffffffffffffffffffffffffffffffffffffffff03821115620008565762000855620007d5565b5b828201905092915050565b7f536166654d6174683a206164646974696f6e206f766572666c6f770000000000600082015250565b600062000899601b8362000724565b9150620008a68262000861565b602082019050919050565b60006020820190508181036000830152620008cc816200088a565b9050919050565b7f4e487b7100000000000000000000000000000000000000000000000000000000600052602260045260246000fd5b600060028204905060018216806200091b57607f821691505b60208210811415620009325762000931620008d3565b5b50919050565b61158180620009486000396000f3fe608060405234801561001057600080fd5b50600436106100b45760003560e01c806342966c681161007157806342966c68146101a357806370a08231146101bf57806395d89b41146101ef578063a457c2d71461020d578063a9059cbb1461023d578063dd62ed3e1461026d576100b4565b806306fdde03146100b9578063095ea7b3146100d757806318160ddd1461010757806323b872dd14610125578063313ce567146101555780633950935114610173575b600080fd5b6100c161029d565b6040516100ce9190610e00565b60405180910390f35b6100f160048036038101906100ec9190610ebb565b61032f565b6040516100fe9190610f16565b60405180910390f35b61010f610346565b60405161011c9190610f40565b60405180910390f35b61013f600480360381019061013a9190610f5b565b610350565b60405161014c9190610f16565b60405180910390f35b61015d610401565b60405161016a9190610fca565b60405180910390f35b61018d60048036038101906101889190610ebb565b610418565b60405161019a9190610f16565b60405180910390f35b6101bd60048036038101906101b89190610fe5565b6104bd565b005b6101d960048036038101906101d49190611012565b6104ca565b6040516101e69190610f40565b60405180910390f35b6101f7610512565b6040516102049190610e00565b60405180910390f35b61022760048036038101906102229190610ebb565b6105a4565b6040516102349190610f16565b60405180910390f35b61025760048036038101906102529190610ebb565b610649565b6040516102649190610f16565b60405180910390f35b6102876004803603810190610282919061103f565b610660565b6040516102949190610f40565b60405180910390f35b6060600380546102ac906110ae565b80601f01602080910402602001604051908101604052809291908181526020018280546102d8906110ae565b80156103255780601f106102fa57610100808354040283529160200191610325565b820191906000526020600020905b81548152906001019060200180831161030857829003601f168201915b5050505050905090565b600061033c338484610745565b6001905092915050565b6000600254905090565b600061035d848484610910565b6103f684336103f185600160008a73ffffffffffffffffffffffffffffffffffffffff1673ffffffffffffffffffffffffffffffffffffffff16815260200190815260200160002060003373ffffffffffffffffffffffffffffffffffffffff1673ffffffffffffffffffffffffffffffffffffffff16815260200190815260200160002054610b8090919063ffffffff16565b610745565b600190509392505050565b6000600560009054906101000a900460ff16905090565b60006104b333846104ae85600160003373ffffffffffffffffffffffffffffffffffffffff1673ffffffffffffffffffffffffffffffffffffffff16815260200190815260200160002060008973ffffffffffffffffffffffffffffffffffffffff1673ffffffffffffffffffffffffffffffffffffffff168152602001908152602001600020546106e790919063ffffffff16565b610745565b6001905092915050565b6104c73382610bdf565b50565b60008060008373ffffffffffffffffffffffffffffffffffffffff1673ffffffffffffffffffffffffffffffffffffffff168152602001908152602001600020549050919050565b606060048054610521906110ae565b80601f016020809104026020016040519081016040528092919081815260200182805461054d906110ae565b801561059a5780601f1061056f5761010080835404028352916020019161059a565b820191906000526020600020905b81548152906001019060200180831161057d57829003601f168201915b5050505050905090565b600061063f338461063a85600160003373ffffffffffffffffffffffffffffffffffffffff1673ffffffffffffffffffffffffffffffffffffffff16815260200190815260200160002060008973ffffffffffffffffffffffffffffffffffffffff1673ffffffffffffffffffffffffffffffffffffffff16815260200190815260200160002054610b8090919063ffffffff16565b610745565b6001905092915050565b6000610656338484610910565b6001905092915050565b6000600160008473ffffffffffffffffffffffffffffffffffffffff1673ffffffffffffffffffffffffffffffffffffffff16815260200190815260200160002060008373ffffffffffffffffffffffffffffffffffffffff1673ffffffffffffffffffffffffffffffffffffffff16815260200190815260200160002054905092915050565b60008082846106f6919061110f565b90508381101561073b576040517f08c379a0000000000000000000000000000000000000000000000000000000008152600401610732906111b1565b60405180910390fd5b8091505092915050565b600073ffffffffffffffffffffffffffffffffffffffff168373ffffffffffffffffffffffffffffffffffffffff1614156107b5576040517f08c379a00000000000000000000000000000000000000000000000000000000081526004016107ac90611243565b60405180910390fd5b600073ffffffffffffffffffffffffffffffffffffffff168273ffffffffffffffffffffffffffffffffffffffff161415610825576040517f08c379a000000000000000000000000000000000000000000000000000000000815260040161081c906112d5565b60405180910390fd5b80600160008573ffffffffffffffffffffffffffffffffffffffff1673ffffffffffffffffffffffffffffffffffffffff16815260200190815260200160002060008473ffffffffffffffffffffffffffffffffffffffff1673ffffffffffffffffffffffffffffffffffffffff168152602001908152602001600020819055508173ffffffffffffffffffffffffffffffffffffffff168373ffffffffffffffffffffffffffffffffffffffff167f8c5be1e5ebec7d5bd14f71427d1e84f3dd0314c0f7b2291e5b200ac8c7c3b925836040516109039190610f40565b60405180910390a3505050565b600073ffffffffffffffffffffffffffffffffffffffff168373ffffffffffffffffffffffffffffffffffffffff161415610980576040517f08c379a000000000000000000000000000000000000000000000000000000000815260040161097790611367565b60405180910390fd5b600073ffffffffffffffffffffffffffffffffffffffff168273ffffffffffffffffffffffffffffffffffffffff1614156109f0576040517f08c379a00000000000000000000000000000000000000000000000000000000081526004016109e7906113f9565b60405180910390fd5b610a41816000808673ffffffffffffffffffffffffffffffffffffffff1673ffffffffffffffffffffffffffffffffffffffff16815260200190815260200160002054610b8090919063ffffffff16565b6000808573ffffffffffffffffffffffffffffffffffffffff1673ffffffffffffffffffffffffffffffffffffffff16815260200190815260200160002081905550610ad4816000808573ffffffffffffffffffffffffffffffffffffffff1673ffffffffffffffffffffffffffffffffffffffff168152602001908152602001600020546106e790919063ffffffff16565b6000808473ffffffffffffffffffffffffffffffffffffffff1673ffffffffffffffffffffffffffffffffffffffff168152602001908152602001600020819055508173ffffffffffffffffffffffffffffffffffffffff168373ffffffffffffffffffffffffffffffffffffffff167fddf252ad1be2c89b69c2b068fc378daa952ba7f163c4a11628f55a4df523b3ef83604051610b739190610f40565b60405180910390a3505050565b600082821115610bc5576040517f08c379a0000000000000000000000000000000000000000000000000000000008152600401610bbc90611465565b60405180910390fd5b60008284610bd39190611485565b90508091505092915050565b600073ffffffffffffffffffffffffffffffffffffffff168273ffffffffffffffffffffffffffffffffffffffff161415610c4f576040517f08c379a0000000000000000000000000000000000000000000000000000000008152600401610c469061152b565b60405180910390fd5b610c6481600254610b8090919063ffffffff16565b600281905550610cbb816000808573ffffffffffffffffffffffffffffffffffffffff1673ffffffffffffffffffffffffffffffffffffffff16815260200190815260200160002054610b8090919063ffffffff16565b6000808473ffffffffffffffffffffffffffffffffffffffff1673ffffffffffffffffffffffffffffffffffffffff16815260200190815260200160002081905550600073ffffffffffffffffffffffffffffffffffffffff168273ffffffffffffffffffffffffffffffffffffffff167fddf252ad1be2c89b69c2b068fc378daa952ba7f163c4a11628f55a4df523b3ef83604051610d5b9190610f40565b60405180910390a35050565b600081519050919050565b600082825260208201905092915050565b60005b83811015610da1578082015181840152602081019050610d86565b83811115610db0576000848401525b50505050565b6000601f19601f8301169050919050565b6000610dd282610d67565b610ddc8185610d72565b9350610dec818560208601610d83565b610df581610db6565b840191505092915050565b60006020820190508181036000830152610e1a8184610dc7565b905092915050565b600080fd5b600073ffffffffffffffffffffffffffffffffffffffff82169050919050565b6000610e5282610e27565b9050919050565b610e6281610e47565b8114610e6d57600080fd5b50565b600081359050610e7f81610e59565b92915050565b6000819050919050565b610e9881610e85565b8114610ea357600080fd5b50565b600081359050610eb581610e8f565b92915050565b60008060408385031215610ed257610ed1610e22565b5b6000610ee085828601610e70565b9250506020610ef185828601610ea6565b9150509250929050565b60008115159050919050565b610f1081610efb565b82525050565b6000602082019050610f2b6000830184610f07565b92915050565b610f3a81610e85565b82525050565b6000602082019050610f556000830184610f31565b92915050565b600080600060608486031215610f7457610f73610e22565b5b6000610f8286828701610e70565b9350506020610f9386828701610e70565b9250506040610fa486828701610ea6565b9150509250925092565b600060ff82169050919050565b610fc481610fae565b82525050565b6000602082019050610fdf6000830184610fbb565b92915050565b600060208284031215610ffb57610ffa610e22565b5b600061100984828501610ea6565b91505092915050565b60006020828403121561102857611027610e22565b5b600061103684828501610e70565b91505092915050565b6000806040838503121561105657611055610e22565b5b600061106485828601610e70565b925050602061107585828601610e70565b9150509250929050565b7f4e487b7100000000000000000000000000000000000000000000000000000000600052602260045260246000fd5b600060028204905060018216806110c657607f821691505b602082108114156110da576110d961107f565b5b50919050565b7f4e487b7100000000000000000000000000000000000000000000000000000000600052601160045260246000fd5b600061111a82610e85565b915061112583610e85565b9250827fffffffffffffffffffffffffffffffffffffffffffffffffffffffffffffffff0382111561115a576111596110e0565b5b828201905092915050565b7f536166654d6174683a206164646974696f6e206f766572666c6f770000000000600082015250565b600061119b601b83610d72565b91506111a682611165565b602082019050919050565b600060208201905081810360008301526111ca8161118e565b9050919050565b7f45524332303a20617070726f76652066726f6d20746865207a65726f2061646460008201527f7265737300000000000000000000000000000000000000000000000000000000602082015250565b600061122d602483610d72565b9150611238826111d1565b604082019050919050565b6000602082019050818103600083015261125c81611220565b9050919050565b7f45524332303a20617070726f766520746f20746865207a65726f20616464726560008201527f7373000000000000000000000000000000000000000000000000000000000000602082015250565b60006112bf602283610d72565b91506112ca82611263565b604082019050919050565b600060208201905081810360008301526112ee816112b2565b9050919050565b7f45524332303a207472616e736665722066726f6d20746865207a65726f20616460008201527f6472657373000000000000000000000000000000000000000000000000000000602082015250565b6000611351602583610d72565b915061135c826112f5565b604082019050919050565b6000602082019050818103600083015261138081611344565b9050919050565b7f45524332303a207472616e7366657220746f20746865207a65726f206164647260008201527f6573730000000000000000000000000000000000000000000000000000000000602082015250565b60006113e3602383610d72565b91506113ee82611387565b604082019050919050565b60006020820190508181036000830152611412816113d6565b9050919050565b7f536166654d6174683a207375627472616374696f6e206f766572666c6f770000600082015250565b600061144f601e83610d72565b915061145a82611419565b602082019050919050565b6000602082019050818103600083015261147e81611442565b9050919050565b600061149082610e85565b915061149b83610e85565b9250828210156114ae576114ad6110e0565b5b828203905092915050565b7f45524332303a206275726e2066726f6d20746865207a65726f2061646472657360008201527f7300000000000000000000000000000000000000000000000000000000000000602082015250565b6000611515602183610d72565b9150611520826114b9565b604082019050919050565b6000602082019050818103600083015261154481611508565b905091905056fea2646970667358221220e120db404e717328809517a6ceefd45da7f7cb754f2be9f54802e91d1dd0626864736f6c63430008090033",
					"opcodes": "PUSH1 0x80 PUSH1 0x40 MSTORE PUSH1 0x40 MLOAD PUSH3 0x1EC9 CODESIZE SUB DUP1 PUSH3 0x1EC9 DUP4 CODECOPY DUP2 DUP2 ADD PUSH1 0x40 MSTORE DUP2 ADD SWAP1 PUSH3 0x29 SWAP2 SWAP1 PUSH3 0x64A JUMP JUMPDEST DUP6 PUSH1 0x3 SWAP1 DUP1 MLOAD SWAP1 PUSH1 0x20 ADD SWAP1 PUSH3 0x41 SWAP3 SWAP2 SWAP1 PUSH3 0x2DA JUMP JUMPDEST POP DUP5 PUSH1 0x4 SWAP1 DUP1 MLOAD SWAP1 PUSH1 0x20 ADD SWAP1 PUSH3 0x5A SWAP3 SWAP2 SWAP1 PUSH3 0x2DA JUMP JUMPDEST POP DUP4 PUSH1 0x5 PUSH1 0x0 PUSH2 0x100 EXP DUP2 SLOAD DUP2 PUSH1 0xFF MUL NOT AND SWAP1 DUP4 PUSH1 0xFF AND MUL OR SWAP1 SSTORE POP PUSH3 0x88 DUP2 DUP5 PUSH3 0xDC PUSH1 0x20 SHL PUSH1 0x20 SHR JUMP JUMPDEST DUP2 PUSH20 0xFFFFFFFFFFFFFFFFFFFFFFFFFFFFFFFFFFFFFFFF AND PUSH2 0x8FC CALLVALUE SWAP1 DUP2 ISZERO MUL SWAP1 PUSH1 0x40 MLOAD PUSH1 0x0 PUSH1 0x40 MLOAD DUP1 DUP4 SUB DUP2 DUP6 DUP9 DUP9 CALL SWAP4 POP POP POP POP ISZERO DUP1 ISZERO PUSH3 0xCF JUMPI RETURNDATASIZE PUSH1 0x0 DUP1 RETURNDATACOPY RETURNDATASIZE PUSH1 0x0 REVERT JUMPDEST POP POP POP POP POP POP POP PUSH3 0x938 JUMP JUMPDEST PUSH1 0x0 PUSH20 0xFFFFFFFFFFFFFFFFFFFFFFFFFFFFFFFFFFFFFFFF AND DUP3 PUSH20 0xFFFFFFFFFFFFFFFFFFFFFFFFFFFFFFFFFFFFFFFF AND EQ ISZERO PUSH3 0x14F JUMPI PUSH1 0x40 MLOAD PUSH32 0x8C379A000000000000000000000000000000000000000000000000000000000 DUP2 MSTORE PUSH1 0x4 ADD PUSH3 0x146 SWAP1 PUSH3 0x785 JUMP JUMPDEST PUSH1 0x40 MLOAD DUP1 SWAP2 SUB SWAP1 REVERT JUMPDEST PUSH3 0x16B DUP2 PUSH1 0x2 SLOAD PUSH3 0x277 PUSH1 0x20 SHL PUSH3 0x6E7 OR SWAP1 SWAP2 SWAP1 PUSH1 0x20 SHR JUMP JUMPDEST PUSH1 0x2 DUP2 SWAP1 SSTORE POP PUSH3 0x1C9 DUP2 PUSH1 0x0 DUP1 DUP6 PUSH20 0xFFFFFFFFFFFFFFFFFFFFFFFFFFFFFFFFFFFFFFFF AND PUSH20 0xFFFFFFFFFFFFFFFFFFFFFFFFFFFFFFFFFFFFFFFF AND DUP2 MSTORE PUSH1 0x20 ADD SWAP1 DUP2 MSTORE PUSH1 0x20 ADD PUSH1 0x0 KECCAK256 SLOAD PUSH3 0x277 PUSH1 0x20 SHL PUSH3 0x6E7 OR SWAP1 SWAP2 SWAP1 PUSH1 0x20 SHR JUMP JUMPDEST PUSH1 0x0 DUP1 DUP5 PUSH20 0xFFFFFFFFFFFFFFFFFFFFFFFFFFFFFFFFFFFFFFFF AND PUSH20 0xFFFFFFFFFFFFFFFFFFFFFFFFFFFFFFFFFFFFFFFF AND DUP2 MSTORE PUSH1 0x20 ADD SWAP1 DUP2 MSTORE PUSH1 0x20 ADD PUSH1 0x0 KECCAK256 DUP2 SWAP1 SSTORE POP DUP2 PUSH20 0xFFFFFFFFFFFFFFFFFFFFFFFFFFFFFFFFFFFFFFFF AND PUSH1 0x0 PUSH20 0xFFFFFFFFFFFFFFFFFFFFFFFFFFFFFFFFFFFFFFFF AND PUSH32 0xDDF252AD1BE2C89B69C2B068FC378DAA952BA7F163C4A11628F55A4DF523B3EF DUP4 PUSH1 0x40 MLOAD PUSH3 0x26B SWAP2 SWAP1 PUSH3 0x7B8 JUMP JUMPDEST PUSH1 0x40 MLOAD DUP1 SWAP2 SUB SWAP1 LOG3 POP POP JUMP JUMPDEST PUSH1 0x0 DUP1 DUP3 DUP5 PUSH3 0x288 SWAP2 SWAP1 PUSH3 0x804 JUMP JUMPDEST SWAP1 POP DUP4 DUP2 LT ISZERO PUSH3 0x2D0 JUMPI PUSH1 0x40 MLOAD PUSH32 0x8C379A000000000000000000000000000000000000000000000000000000000 DUP2 MSTORE PUSH1 0x4 ADD PUSH3 0x2C7 SWAP1 PUSH3 0x8B1 JUMP JUMPDEST PUSH1 0x40 MLOAD DUP1 SWAP2 SUB SWAP1 REVERT JUMPDEST DUP1 SWAP2 POP POP SWAP3 SWAP2 POP POP JUMP JUMPDEST DUP3 DUP1 SLOAD PUSH3 0x2E8 SWAP1 PUSH3 0x902 JUMP JUMPDEST SWAP1 PUSH1 0x0 MSTORE PUSH1 0x20 PUSH1 0x0 KECCAK256 SWAP1 PUSH1 0x1F ADD PUSH1 0x20 SWAP1 DIV DUP2 ADD SWAP3 DUP3 PUSH3 0x30C JUMPI PUSH1 0x0 DUP6 SSTORE PUSH3 0x358 JUMP JUMPDEST DUP3 PUSH1 0x1F LT PUSH3 0x327 JUMPI DUP1 MLOAD PUSH1 0xFF NOT AND DUP4 DUP1 ADD OR DUP6 SSTORE PUSH3 0x358 JUMP JUMPDEST DUP3 DUP1 ADD PUSH1 0x1 ADD DUP6 SSTORE DUP3 ISZERO PUSH3 0x358 JUMPI SWAP2 DUP3 ADD JUMPDEST DUP3 DUP2 GT ISZERO PUSH3 0x357 JUMPI DUP3 MLOAD DUP3 SSTORE SWAP2 PUSH1 0x20 ADD SWAP2 SWAP1 PUSH1 0x1 ADD SWAP1 PUSH3 0x33A JUMP JUMPDEST JUMPDEST POP SWAP1 POP PUSH3 0x367 SWAP2 SWAP1 PUSH3 0x36B JUMP JUMPDEST POP SWAP1 JUMP JUMPDEST JUMPDEST DUP1 DUP3 GT ISZERO PUSH3 0x386 JUMPI PUSH1 0x0 DUP2 PUSH1 0x0 SWAP1 SSTORE POP PUSH1 0x1 ADD PUSH3 0x36C JUMP JUMPDEST POP SWAP1 JUMP JUMPDEST PUSH1 0x0 PUSH1 0x40 MLOAD SWAP1 POP SWAP1 JUMP JUMPDEST PUSH1 0x0 DUP1 REVERT JUMPDEST PUSH1 0x0 DUP1 REVERT JUMPDEST PUSH1 0x0 DUP1 REVERT JUMPDEST PUSH1 0x0 DUP1 REVERT JUMPDEST PUSH1 0x0 PUSH1 0x1F NOT PUSH1 0x1F DUP4 ADD AND SWAP1 POP SWAP2 SWAP1 POP JUMP JUMPDEST PUSH32 0x4E487B7100000000000000000000000000000000000000000000000000000000 PUSH1 0x0 MSTORE PUSH1 0x41 PUSH1 0x4 MSTORE PUSH1 0x24 PUSH1 0x0 REVERT JUMPDEST PUSH3 0x3F3 DUP3 PUSH3 0x3A8 JUMP JUMPDEST DUP2 ADD DUP2 DUP2 LT PUSH8 0xFFFFFFFFFFFFFFFF DUP3 GT OR ISZERO PUSH3 0x415 JUMPI PUSH3 0x414 PUSH3 0x3B9 JUMP JUMPDEST JUMPDEST DUP1 PUSH1 0x40 MSTORE POP POP POP JUMP JUMPDEST PUSH1 0x0 PUSH3 0x42A PUSH3 0x38A JUMP JUMPDEST SWAP1 POP PUSH3 0x438 DUP3 DUP3 PUSH3 0x3E8 JUMP JUMPDEST SWAP2 SWAP1 POP JUMP JUMPDEST PUSH1 0x0 PUSH8 0xFFFFFFFFFFFFFFFF DUP3 GT ISZERO PUSH3 0x45B JUMPI PUSH3 0x45A PUSH3 0x3B9 JUMP JUMPDEST JUMPDEST PUSH3 0x466 DUP3 PUSH3 0x3A8 JUMP JUMPDEST SWAP1 POP PUSH1 0x20 DUP2 ADD SWAP1 POP SWAP2 SWAP1 POP JUMP JUMPDEST PUSH1 0x0 JUMPDEST DUP4 DUP2 LT ISZERO PUSH3 0x493 JUMPI DUP1 DUP3 ADD MLOAD DUP2 DUP5 ADD MSTORE PUSH1 0x20 DUP2 ADD SWAP1 POP PUSH3 0x476 JUMP JUMPDEST DUP4 DUP2 GT ISZERO PUSH3 0x4A3 JUMPI PUSH1 0x0 DUP5 DUP5 ADD MSTORE JUMPDEST POP POP POP POP JUMP JUMPDEST PUSH1 0x0 PUSH3 0x4C0 PUSH3 0x4BA DUP5 PUSH3 0x43D JUMP JUMPDEST PUSH3 0x41E JUMP JUMPDEST SWAP1 POP DUP3 DUP2 MSTORE PUSH1 0x20 DUP2 ADD DUP5 DUP5 DUP5 ADD GT ISZERO PUSH3 0x4DF JUMPI PUSH3 0x4DE PUSH3 0x3A3 JUMP JUMPDEST JUMPDEST PUSH3 0x4EC DUP5 DUP3 DUP6 PUSH3 0x473 JUMP JUMPDEST POP SWAP4 SWAP3 POP POP POP JUMP JUMPDEST PUSH1 0x0 DUP3 PUSH1 0x1F DUP4 ADD SLT PUSH3 0x50C JUMPI PUSH3 0x50B PUSH3 0x39E JUMP JUMPDEST JUMPDEST DUP2 MLOAD PUSH3 0x51E DUP5 DUP3 PUSH1 0x20 DUP7 ADD PUSH3 0x4A9 JUMP JUMPDEST SWAP2 POP POP SWAP3 SWAP2 POP POP JUMP JUMPDEST PUSH1 0x0 PUSH1 0xFF DUP3 AND SWAP1 POP SWAP2 SWAP1 POP JUMP JUMPDEST PUSH3 0x53F DUP2 PUSH3 0x527 JUMP JUMPDEST DUP2 EQ PUSH3 0x54B JUMPI PUSH1 0x0 DUP1 REVERT JUMPDEST POP JUMP JUMPDEST PUSH1 0x0 DUP2 MLOAD SWAP1 POP PUSH3 0x55F DUP2 PUSH3 0x534 JUMP JUMPDEST SWAP3 SWAP2 POP POP JUMP JUMPDEST PUSH1 0x0 DUP2 SWAP1 POP SWAP2 SWAP1 POP JUMP JUMPDEST PUSH3 0x57A DUP2 PUSH3 0x565 JUMP JUMPDEST DUP2 EQ PUSH3 0x586 JUMPI PUSH1 0x0 DUP1 REVERT JUMPDEST POP JUMP JUMPDEST PUSH1 0x0 DUP2 MLOAD SWAP1 POP PUSH3 0x59A DUP2 PUSH3 0x56F JUMP JUMPDEST SWAP3 SWAP2 POP POP JUMP JUMPDEST PUSH1 0x0 PUSH20 0xFFFFFFFFFFFFFFFFFFFFFFFFFFFFFFFFFFFFFFFF DUP3 AND SWAP1 POP SWAP2 SWAP1 POP JUMP JUMPDEST PUSH1 0x0 PUSH3 0x5CD DUP3 PUSH3 0x5A0 JUMP JUMPDEST SWAP1 POP SWAP2 SWAP1 POP JUMP JUMPDEST PUSH3 0x5DF DUP2 PUSH3 0x5C0 JUMP JUMPDEST DUP2 EQ PUSH3 0x5EB JUMPI PUSH1 0x0 DUP1 REVERT JUMPDEST POP JUMP JUMPDEST PUSH1 0x0 DUP2 MLOAD SWAP1 POP PUSH3 0x5FF DUP2 PUSH3 0x5D4 JUMP JUMPDEST SWAP3 SWAP2 POP POP JUMP JUMPDEST PUSH1 0x0 PUSH3 0x612 DUP3 PUSH3 0x5A0 JUMP JUMPDEST SWAP1 POP SWAP2 SWAP1 POP JUMP JUMPDEST PUSH3 0x624 DUP2 PUSH3 0x605 JUMP JUMPDEST DUP2 EQ PUSH3 0x630 JUMPI PUSH1 0x0 DUP1 REVERT JUMPDEST POP JUMP JUMPDEST PUSH1 0x0 DUP2 MLOAD SWAP1 POP PUSH3 0x644 DUP2 PUSH3 0x619 JUMP JUMPDEST SWAP3 SWAP2 POP POP JUMP JUMPDEST PUSH1 0x0 DUP1 PUSH1 0x0 DUP1 PUSH1 0x0 DUP1 PUSH1 0xC0 DUP8 DUP10 SUB SLT ISZERO PUSH3 0x66A JUMPI PUSH3 0x669 PUSH3 0x394 JUMP JUMPDEST JUMPDEST PUSH1 0x0 DUP8 ADD MLOAD PUSH8 0xFFFFFFFFFFFFFFFF DUP2 GT ISZERO PUSH3 0x68B JUMPI PUSH3 0x68A PUSH3 0x399 JUMP JUMPDEST JUMPDEST PUSH3 0x699 DUP10 DUP3 DUP11 ADD PUSH3 0x4F4 JUMP JUMPDEST SWAP7 POP POP PUSH1 0x20 DUP8 ADD MLOAD PUSH8 0xFFFFFFFFFFFFFFFF DUP2 GT ISZERO PUSH3 0x6BD JUMPI PUSH3 0x6BC PUSH3 0x399 JUMP JUMPDEST JUMPDEST PUSH3 0x6CB DUP10 DUP3 DUP11 ADD PUSH3 0x4F4 JUMP JUMPDEST SWAP6 POP POP PUSH1 0x40 PUSH3 0x6DE DUP10 DUP3 DUP11 ADD PUSH3 0x54E JUMP JUMPDEST SWAP5 POP POP PUSH1 0x60 PUSH3 0x6F1 DUP10 DUP3 DUP11 ADD PUSH3 0x589 JUMP JUMPDEST SWAP4 POP POP PUSH1 0x80 PUSH3 0x704 DUP10 DUP3 DUP11 ADD PUSH3 0x5EE JUMP JUMPDEST SWAP3 POP POP PUSH1 0xA0 PUSH3 0x717 DUP10 DUP3 DUP11 ADD PUSH3 0x633 JUMP JUMPDEST SWAP2 POP POP SWAP3 SWAP6 POP SWAP3 SWAP6 POP SWAP3 SWAP6 JUMP JUMPDEST PUSH1 0x0 DUP3 DUP3 MSTORE PUSH1 0x20 DUP3 ADD SWAP1 POP SWAP3 SWAP2 POP POP JUMP JUMPDEST PUSH32 0x45524332303A206D696E7420746F20746865207A65726F206164647265737300 PUSH1 0x0 DUP3 ADD MSTORE POP JUMP JUMPDEST PUSH1 0x0 PUSH3 0x76D PUSH1 0x1F DUP4 PUSH3 0x724 JUMP JUMPDEST SWAP2 POP PUSH3 0x77A DUP3 PUSH3 0x735 JUMP JUMPDEST PUSH1 0x20 DUP3 ADD SWAP1 POP SWAP2 SWAP1 POP JUMP JUMPDEST PUSH1 0x0 PUSH1 0x20 DUP3 ADD SWAP1 POP DUP2 DUP2 SUB PUSH1 0x0 DUP4 ADD MSTORE PUSH3 0x7A0 DUP2 PUSH3 0x75E JUMP JUMPDEST SWAP1 POP SWAP2 SWAP1 POP JUMP JUMPDEST PUSH3 0x7B2 DUP2 PUSH3 0x565 JUMP JUMPDEST DUP3 MSTORE POP POP JUMP JUMPDEST PUSH1 0x0 PUSH1 0x20 DUP3 ADD SWAP1 POP PUSH3 0x7CF PUSH1 0x0 DUP4 ADD DUP5 PUSH3 0x7A7 JUMP JUMPDEST SWAP3 SWAP2 POP POP JUMP JUMPDEST PUSH32 0x4E487B7100000000000000000000000000000000000000000000000000000000 PUSH1 0x0 MSTORE PUSH1 0x11 PUSH1 0x4 MSTORE PUSH1 0x24 PUSH1 0x0 REVERT JUMPDEST PUSH1 0x0 PUSH3 0x811 DUP3 PUSH3 0x565 JUMP JUMPDEST SWAP2 POP PUSH3 0x81E DUP4 PUSH3 0x565 JUMP JUMPDEST SWAP3 POP DUP3 PUSH32 0xFFFFFFFFFFFFFFFFFFFFFFFFFFFFFFFFFFFFFFFFFFFFFFFFFFFFFFFFFFFFFFFF SUB DUP3 GT ISZERO PUSH3 0x856 JUMPI PUSH3 0x855 PUSH3 0x7D5 JUMP JUMPDEST JUMPDEST DUP3 DUP3 ADD SWAP1 POP SWAP3 SWAP2 POP POP JUMP JUMPDEST PUSH32 0x536166654D6174683A206164646974696F6E206F766572666C6F770000000000 PUSH1 0x0 DUP3 ADD MSTORE POP JUMP JUMPDEST PUSH1 0x0 PUSH3 0x899 PUSH1 0x1B DUP4 PUSH3 0x724 JUMP JUMPDEST SWAP2 POP PUSH3 0x8A6 DUP3 PUSH3 0x861 JUMP JUMPDEST PUSH1 0x20 DUP3 ADD SWAP1 POP SWAP2 SWAP1 POP JUMP JUMPDEST PUSH1 0x0 PUSH1 0x20 DUP3 ADD SWAP1 POP DUP2 DUP2 SUB PUSH1 0x0 DUP4 ADD MSTORE PUSH3 0x8CC DUP2 PUSH3 0x88A JUMP JUMPDEST SWAP1 POP SWAP2 SWAP1 POP JUMP JUMPDEST PUSH32 0x4E487B7100000000000000000000000000000000000000000000000000000000 PUSH1 0x0 MSTORE PUSH1 0x22 PUSH1 0x4 MSTORE PUSH1 0x24 PUSH1 0x0 REVERT JUMPDEST PUSH1 0x0 PUSH1 0x2 DUP3 DIV SWAP1 POP PUSH1 0x1 DUP3 AND DUP1 PUSH3 0x91B JUMPI PUSH1 0x7F DUP3 AND SWAP2 POP JUMPDEST PUSH1 0x20 DUP3 LT DUP2 EQ ISZERO PUSH3 0x932 JUMPI PUSH3 0x931 PUSH3 0x8D3 JUMP JUMPDEST JUMPDEST POP SWAP2 SWAP1 POP JUMP JUMPDEST PUSH2 0x1581 DUP1 PUSH3 0x948 PUSH1 0x0 CODECOPY PUSH1 0x0 RETURN INVALID PUSH1 0x80 PUSH1 0x40 MSTORE CALLVALUE DUP1 ISZERO PUSH2 0x10 JUMPI PUSH1 0x0 DUP1 REVERT JUMPDEST POP PUSH1 0x4 CALLDATASIZE LT PUSH2 0xB4 JUMPI PUSH1 0x0 CALLDATALOAD PUSH1 0xE0 SHR DUP1 PUSH4 0x42966C68 GT PUSH2 0x71 JUMPI DUP1 PUSH4 0x42966C68 EQ PUSH2 0x1A3 JUMPI DUP1 PUSH4 0x70A08231 EQ PUSH2 0x1BF JUMPI DUP1 PUSH4 0x95D89B41 EQ PUSH2 0x1EF JUMPI DUP1 PUSH4 0xA457C2D7 EQ PUSH2 0x20D JUMPI DUP1 PUSH4 0xA9059CBB EQ PUSH2 0x23D JUMPI DUP1 PUSH4 0xDD62ED3E EQ PUSH2 0x26D JUMPI PUSH2 0xB4 JUMP JUMPDEST DUP1 PUSH4 0x6FDDE03 EQ PUSH2 0xB9 JUMPI DUP1 PUSH4 0x95EA7B3 EQ PUSH2 0xD7 JUMPI DUP1 PUSH4 0x18160DDD EQ PUSH2 0x107 JUMPI DUP1 PUSH4 0x23B872DD EQ PUSH2 0x125 JUMPI DUP1 PUSH4 0x313CE567 EQ PUSH2 0x155 JUMPI DUP1 PUSH4 0x39509351 EQ PUSH2 0x173 JUMPI JUMPDEST PUSH1 0x0 DUP1 REVERT JUMPDEST PUSH2 0xC1 PUSH2 0x29D JUMP JUMPDEST PUSH1 0x40 MLOAD PUSH2 0xCE SWAP2 SWAP1 PUSH2 0xE00 JUMP JUMPDEST PUSH1 0x40 MLOAD DUP1 SWAP2 SUB SWAP1 RETURN JUMPDEST PUSH2 0xF1 PUSH1 0x4 DUP1 CALLDATASIZE SUB DUP2 ADD SWAP1 PUSH2 0xEC SWAP2 SWAP1 PUSH2 0xEBB JUMP JUMPDEST PUSH2 0x32F JUMP JUMPDEST PUSH1 0x40 MLOAD PUSH2 0xFE SWAP2 SWAP1 PUSH2 0xF16 JUMP JUMPDEST PUSH1 0x40 MLOAD DUP1 SWAP2 SUB SWAP1 RETURN JUMPDEST PUSH2 0x10F PUSH2 0x346 JUMP JUMPDEST PUSH1 0x40 MLOAD PUSH2 0x11C SWAP2 SWAP1 PUSH2 0xF40 JUMP JUMPDEST PUSH1 0x40 MLOAD DUP1 SWAP2 SUB SWAP1 RETURN JUMPDEST PUSH2 0x13F PUSH1 0x4 DUP1 CALLDATASIZE SUB DUP2 ADD SWAP1 PUSH2 0x13A SWAP2 SWAP1 PUSH2 0xF5B JUMP JUMPDEST PUSH2 0x350 JUMP JUMPDEST PUSH1 0x40 MLOAD PUSH2 0x14C SWAP2 SWAP1 PUSH2 0xF16 JUMP JUMPDEST PUSH1 0x40 MLOAD DUP1 SWAP2 SUB SWAP1 RETURN JUMPDEST PUSH2 0x15D PUSH2 0x401 JUMP JUMPDEST PUSH1 0x40 MLOAD PUSH2 0x16A SWAP2 SWAP1 PUSH2 0xFCA JUMP JUMPDEST PUSH1 0x40 MLOAD DUP1 SWAP2 SUB SWAP1 RETURN JUMPDEST PUSH2 0x18D PUSH1 0x4 DUP1 CALLDATASIZE SUB DUP2 ADD SWAP1 PUSH2 0x188 SWAP2 SWAP1 PUSH2 0xEBB JUMP JUMPDEST PUSH2 0x418 JUMP JUMPDEST PUSH1 0x40 MLOAD PUSH2 0x19A SWAP2 SWAP1 PUSH2 0xF16 JUMP JUMPDEST PUSH1 0x40 MLOAD DUP1 SWAP2 SUB SWAP1 RETURN JUMPDEST PUSH2 0x1BD PUSH1 0x4 DUP1 CALLDATASIZE SUB DUP2 ADD SWAP1 PUSH2 0x1B8 SWAP2 SWAP1 PUSH2 0xFE5 JUMP JUMPDEST PUSH2 0x4BD JUMP JUMPDEST STOP JUMPDEST PUSH2 0x1D9 PUSH1 0x4 DUP1 CALLDATASIZE SUB DUP2 ADD SWAP1 PUSH2 0x1D4 SWAP2 SWAP1 PUSH2 0x1012 JUMP JUMPDEST PUSH2 0x4CA JUMP JUMPDEST PUSH1 0x40 MLOAD PUSH2 0x1E6 SWAP2 SWAP1 PUSH2 0xF40 JUMP JUMPDEST PUSH1 0x40 MLOAD DUP1 SWAP2 SUB SWAP1 RETURN JUMPDEST PUSH2 0x1F7 PUSH2 0x512 JUMP JUMPDEST PUSH1 0x40 MLOAD PUSH2 0x204 SWAP2 SWAP1 PUSH2 0xE00 JUMP JUMPDEST PUSH1 0x40 MLOAD DUP1 SWAP2 SUB SWAP1 RETURN JUMPDEST PUSH2 0x227 PUSH1 0x4 DUP1 CALLDATASIZE SUB DUP2 ADD SWAP1 PUSH2 0x222 SWAP2 SWAP1 PUSH2 0xEBB JUMP JUMPDEST PUSH2 0x5A4 JUMP JUMPDEST PUSH1 0x40 MLOAD PUSH2 0x234 SWAP2 SWAP1 PUSH2 0xF16 JUMP JUMPDEST PUSH1 0x40 MLOAD DUP1 SWAP2 SUB SWAP1 RETURN JUMPDEST PUSH2 0x257 PUSH1 0x4 DUP1 CALLDATASIZE SUB DUP2 ADD SWAP1 PUSH2 0x252 SWAP2 SWAP1 PUSH2 0xEBB JUMP JUMPDEST PUSH2 0x649 JUMP JUMPDEST PUSH1 0x40 MLOAD PUSH2 0x264 SWAP2 SWAP1 PUSH2 0xF16 JUMP JUMPDEST PUSH1 0x40 MLOAD DUP1 SWAP2 SUB SWAP1 RETURN JUMPDEST PUSH2 0x287 PUSH1 0x4 DUP1 CALLDATASIZE SUB DUP2 ADD SWAP1 PUSH2 0x282 SWAP2 SWAP1 PUSH2 0x103F JUMP JUMPDEST PUSH2 0x660 JUMP JUMPDEST PUSH1 0x40 MLOAD PUSH2 0x294 SWAP2 SWAP1 PUSH2 0xF40 JUMP JUMPDEST PUSH1 0x40 MLOAD DUP1 SWAP2 SUB SWAP1 RETURN JUMPDEST PUSH1 0x60 PUSH1 0x3 DUP1 SLOAD PUSH2 0x2AC SWAP1 PUSH2 0x10AE JUMP JUMPDEST DUP1 PUSH1 0x1F ADD PUSH1 0x20 DUP1 SWAP2 DIV MUL PUSH1 0x20 ADD PUSH1 0x40 MLOAD SWAP1 DUP2 ADD PUSH1 0x40 MSTORE DUP1 SWAP3 SWAP2 SWAP1 DUP2 DUP2 MSTORE PUSH1 0x20 ADD DUP3 DUP1 SLOAD PUSH2 0x2D8 SWAP1 PUSH2 0x10AE JUMP JUMPDEST DUP1 ISZERO PUSH2 0x325 JUMPI DUP1 PUSH1 0x1F LT PUSH2 0x2FA JUMPI PUSH2 0x100 DUP1 DUP4 SLOAD DIV MUL DUP4 MSTORE SWAP2 PUSH1 0x20 ADD SWAP2 PUSH2 0x325 JUMP JUMPDEST DUP3 ADD SWAP2 SWAP1 PUSH1 0x0 MSTORE PUSH1 0x20 PUSH1 0x0 KECCAK256 SWAP1 JUMPDEST DUP2 SLOAD DUP2 MSTORE SWAP1 PUSH1 0x1 ADD SWAP1 PUSH1 0x20 ADD DUP1 DUP4 GT PUSH2 0x308 JUMPI DUP3 SWAP1 SUB PUSH1 0x1F AND DUP3 ADD SWAP2 JUMPDEST POP POP POP POP POP SWAP1 POP SWAP1 JUMP JUMPDEST PUSH1 0x0 PUSH2 0x33C CALLER DUP5 DUP5 PUSH2 0x745 JUMP JUMPDEST PUSH1 0x1 SWAP1 POP SWAP3 SWAP2 POP POP JUMP JUMPDEST PUSH1 0x0 PUSH1 0x2 SLOAD SWAP1 POP SWAP1 JUMP JUMPDEST PUSH1 0x0 PUSH2 0x35D DUP5 DUP5 DUP5 PUSH2 0x910 JUMP JUMPDEST PUSH2 0x3F6 DUP5 CALLER PUSH2 0x3F1 DUP6 PUSH1 0x1 PUSH1 0x0 DUP11 PUSH20 0xFFFFFFFFFFFFFFFFFFFFFFFFFFFFFFFFFFFFFFFF AND PUSH20 0xFFFFFFFFFFFFFFFFFFFFFFFFFFFFFFFFFFFFFFFF AND DUP2 MSTORE PUSH1 0x20 ADD SWAP1 DUP2 MSTORE PUSH1 0x20 ADD PUSH1 0x0 KECCAK256 PUSH1 0x0 CALLER PUSH20 0xFFFFFFFFFFFFFFFFFFFFFFFFFFFFFFFFFFFFFFFF AND PUSH20 0xFFFFFFFFFFFFFFFFFFFFFFFFFFFFFFFFFFFFFFFF AND DUP2 MSTORE PUSH1 0x20 ADD SWAP1 DUP2 MSTORE PUSH1 0x20 ADD PUSH1 0x0 KECCAK256 SLOAD PUSH2 0xB80 SWAP1 SWAP2 SWAP1 PUSH4 0xFFFFFFFF AND JUMP JUMPDEST PUSH2 0x745 JUMP JUMPDEST PUSH1 0x1 SWAP1 POP SWAP4 SWAP3 POP POP POP JUMP JUMPDEST PUSH1 0x0 PUSH1 0x5 PUSH1 0x0 SWAP1 SLOAD SWAP1 PUSH2 0x100 EXP SWAP1 DIV PUSH1 0xFF AND SWAP1 POP SWAP1 JUMP JUMPDEST PUSH1 0x0 PUSH2 0x4B3 CALLER DUP5 PUSH2 0x4AE DUP6 PUSH1 0x1 PUSH1 0x0 CALLER PUSH20 0xFFFFFFFFFFFFFFFFFFFFFFFFFFFFFFFFFFFFFFFF AND PUSH20 0xFFFFFFFFFFFFFFFFFFFFFFFFFFFFFFFFFFFFFFFF AND DUP2 MSTORE PUSH1 0x20 ADD SWAP1 DUP2 MSTORE PUSH1 0x20 ADD PUSH1 0x0 KECCAK256 PUSH1 0x0 DUP10 PUSH20 0xFFFFFFFFFFFFFFFFFFFFFFFFFFFFFFFFFFFFFFFF AND PUSH20 0xFFFFFFFFFFFFFFFFFFFFFFFFFFFFFFFFFFFFFFFF AND DUP2 MSTORE PUSH1 0x20 ADD SWAP1 DUP2 MSTORE PUSH1 0x20 ADD PUSH1 0x0 KECCAK256 SLOAD PUSH2 0x6E7 SWAP1 SWAP2 SWAP1 PUSH4 0xFFFFFFFF AND JUMP JUMPDEST PUSH2 0x745 JUMP JUMPDEST PUSH1 0x1 SWAP1 POP SWAP3 SWAP2 POP POP JUMP JUMPDEST PUSH2 0x4C7 CALLER DUP3 PUSH2 0xBDF JUMP JUMPDEST POP JUMP JUMPDEST PUSH1 0x0 DUP1 PUSH1 0x0 DUP4 PUSH20 0xFFFFFFFFFFFFFFFFFFFFFFFFFFFFFFFFFFFFFFFF AND PUSH20 0xFFFFFFFFFFFFFFFFFFFFFFFFFFFFFFFFFFFFFFFF AND DUP2 MSTORE PUSH1 0x20 ADD SWAP1 DUP2 MSTORE PUSH1 0x20 ADD PUSH1 0x0 KECCAK256 SLOAD SWAP1 POP SWAP2 SWAP1 POP JUMP JUMPDEST PUSH1 0x60 PUSH1 0x4 DUP1 SLOAD PUSH2 0x521 SWAP1 PUSH2 0x10AE JUMP JUMPDEST DUP1 PUSH1 0x1F ADD PUSH1 0x20 DUP1 SWAP2 DIV MUL PUSH1 0x20 ADD PUSH1 0x40 MLOAD SWAP1 DUP2 ADD PUSH1 0x40 MSTORE DUP1 SWAP3 SWAP2 SWAP1 DUP2 DUP2 MSTORE PUSH1 0x20 ADD DUP3 DUP1 SLOAD PUSH2 0x54D SWAP1 PUSH2 0x10AE JUMP JUMPDEST DUP1 ISZERO PUSH2 0x59A JUMPI DUP1 PUSH1 0x1F LT PUSH2 0x56F JUMPI PUSH2 0x100 DUP1 DUP4 SLOAD DIV MUL DUP4 MSTORE SWAP2 PUSH1 0x20 ADD SWAP2 PUSH2 0x59A JUMP JUMPDEST DUP3 ADD SWAP2 SWAP1 PUSH1 0x0 MSTORE PUSH1 0x20 PUSH1 0x0 KECCAK256 SWAP1 JUMPDEST DUP2 SLOAD DUP2 MSTORE SWAP1 PUSH1 0x1 ADD SWAP1 PUSH1 0x20 ADD DUP1 DUP4 GT PUSH2 0x57D JUMPI DUP3 SWAP1 SUB PUSH1 0x1F AND DUP3 ADD SWAP2 JUMPDEST POP POP POP POP POP SWAP1 POP SWAP1 JUMP JUMPDEST PUSH1 0x0 PUSH2 0x63F CALLER DUP5 PUSH2 0x63A DUP6 PUSH1 0x1 PUSH1 0x0 CALLER PUSH20 0xFFFFFFFFFFFFFFFFFFFFFFFFFFFFFFFFFFFFFFFF AND PUSH20 0xFFFFFFFFFFFFFFFFFFFFFFFFFFFFFFFFFFFFFFFF AND DUP2 MSTORE PUSH1 0x20 ADD SWAP1 DUP2 MSTORE PUSH1 0x20 ADD PUSH1 0x0 KECCAK256 PUSH1 0x0 DUP10 PUSH20 0xFFFFFFFFFFFFFFFFFFFFFFFFFFFFFFFFFFFFFFFF AND PUSH20 0xFFFFFFFFFFFFFFFFFFFFFFFFFFFFFFFFFFFFFFFF AND DUP2 MSTORE PUSH1 0x20 ADD SWAP1 DUP2 MSTORE PUSH1 0x20 ADD PUSH1 0x0 KECCAK256 SLOAD PUSH2 0xB80 SWAP1 SWAP2 SWAP1 PUSH4 0xFFFFFFFF AND JUMP JUMPDEST PUSH2 0x745 JUMP JUMPDEST PUSH1 0x1 SWAP1 POP SWAP3 SWAP2 POP POP JUMP JUMPDEST PUSH1 0x0 PUSH2 0x656 CALLER DUP5 DUP5 PUSH2 0x910 JUMP JUMPDEST PUSH1 0x1 SWAP1 POP SWAP3 SWAP2 POP POP JUMP JUMPDEST PUSH1 0x0 PUSH1 0x1 PUSH1 0x0 DUP5 PUSH20 0xFFFFFFFFFFFFFFFFFFFFFFFFFFFFFFFFFFFFFFFF AND PUSH20 0xFFFFFFFFFFFFFFFFFFFFFFFFFFFFFFFFFFFFFFFF AND DUP2 MSTORE PUSH1 0x20 ADD SWAP1 DUP2 MSTORE PUSH1 0x20 ADD PUSH1 0x0 KECCAK256 PUSH1 0x0 DUP4 PUSH20 0xFFFFFFFFFFFFFFFFFFFFFFFFFFFFFFFFFFFFFFFF AND PUSH20 0xFFFFFFFFFFFFFFFFFFFFFFFFFFFFFFFFFFFFFFFF AND DUP2 MSTORE PUSH1 0x20 ADD SWAP1 DUP2 MSTORE PUSH1 0x20 ADD PUSH1 0x0 KECCAK256 SLOAD SWAP1 POP SWAP3 SWAP2 POP POP JUMP JUMPDEST PUSH1 0x0 DUP1 DUP3 DUP5 PUSH2 0x6F6 SWAP2 SWAP1 PUSH2 0x110F JUMP JUMPDEST SWAP1 POP DUP4 DUP2 LT ISZERO PUSH2 0x73B JUMPI PUSH1 0x40 MLOAD PUSH32 0x8C379A000000000000000000000000000000000000000000000000000000000 DUP2 MSTORE PUSH1 0x4 ADD PUSH2 0x732 SWAP1 PUSH2 0x11B1 JUMP JUMPDEST PUSH1 0x40 MLOAD DUP1 SWAP2 SUB SWAP1 REVERT JUMPDEST DUP1 SWAP2 POP POP SWAP3 SWAP2 POP POP JUMP JUMPDEST PUSH1 0x0 PUSH20 0xFFFFFFFFFFFFFFFFFFFFFFFFFFFFFFFFFFFFFFFF AND DUP4 PUSH20 0xFFFFFFFFFFFFFFFFFFFFFFFFFFFFFFFFFFFFFFFF AND EQ ISZERO PUSH2 0x7B5 JUMPI PUSH1 0x40 MLOAD PUSH32 0x8C379A000000000000000000000000000000000000000000000000000000000 DUP2 MSTORE PUSH1 0x4 ADD PUSH2 0x7AC SWAP1 PUSH2 0x1243 JUMP JUMPDEST PUSH1 0x40 MLOAD DUP1 SWAP2 SUB SWAP1 REVERT JUMPDEST PUSH1 0x0 PUSH20 0xFFFFFFFFFFFFFFFFFFFFFFFFFFFFFFFFFFFFFFFF AND DUP3 PUSH20 0xFFFFFFFFFFFFFFFFFFFFFFFFFFFFFFFFFFFFFFFF AND EQ ISZERO PUSH2 0x825 JUMPI PUSH1 0x40 MLOAD PUSH32 0x8C379A000000000000000000000000000000000000000000000000000000000 DUP2 MSTORE PUSH1 0x4 ADD PUSH2 0x81C SWAP1 PUSH2 0x12D5 JUMP JUMPDEST PUSH1 0x40 MLOAD DUP1 SWAP2 SUB SWAP1 REVERT JUMPDEST DUP1 PUSH1 0x1 PUSH1 0x0 DUP6 PUSH20 0xFFFFFFFFFFFFFFFFFFFFFFFFFFFFFFFFFFFFFFFF AND PUSH20 0xFFFFFFFFFFFFFFFFFFFFFFFFFFFFFFFFFFFFFFFF AND DUP2 MSTORE PUSH1 0x20 ADD SWAP1 DUP2 MSTORE PUSH1 0x20 ADD PUSH1 0x0 KECCAK256 PUSH1 0x0 DUP5 PUSH20 0xFFFFFFFFFFFFFFFFFFFFFFFFFFFFFFFFFFFFFFFF AND PUSH20 0xFFFFFFFFFFFFFFFFFFFFFFFFFFFFFFFFFFFFFFFF AND DUP2 MSTORE PUSH1 0x20 ADD SWAP1 DUP2 MSTORE PUSH1 0x20 ADD PUSH1 0x0 KECCAK256 DUP2 SWAP1 SSTORE POP DUP2 PUSH20 0xFFFFFFFFFFFFFFFFFFFFFFFFFFFFFFFFFFFFFFFF AND DUP4 PUSH20 0xFFFFFFFFFFFFFFFFFFFFFFFFFFFFFFFFFFFFFFFF AND PUSH32 0x8C5BE1E5EBEC7D5BD14F71427D1E84F3DD0314C0F7B2291E5B200AC8C7C3B925 DUP4 PUSH1 0x40 MLOAD PUSH2 0x903 SWAP2 SWAP1 PUSH2 0xF40 JUMP JUMPDEST PUSH1 0x40 MLOAD DUP1 SWAP2 SUB SWAP1 LOG3 POP POP POP JUMP JUMPDEST PUSH1 0x0 PUSH20 0xFFFFFFFFFFFFFFFFFFFFFFFFFFFFFFFFFFFFFFFF AND DUP4 PUSH20 0xFFFFFFFFFFFFFFFFFFFFFFFFFFFFFFFFFFFFFFFF AND EQ ISZERO PUSH2 0x980 JUMPI PUSH1 0x40 MLOAD PUSH32 0x8C379A000000000000000000000000000000000000000000000000000000000 DUP2 MSTORE PUSH1 0x4 ADD PUSH2 0x977 SWAP1 PUSH2 0x1367 JUMP JUMPDEST PUSH1 0x40 MLOAD DUP1 SWAP2 SUB SWAP1 REVERT JUMPDEST PUSH1 0x0 PUSH20 0xFFFFFFFFFFFFFFFFFFFFFFFFFFFFFFFFFFFFFFFF AND DUP3 PUSH20 0xFFFFFFFFFFFFFFFFFFFFFFFFFFFFFFFFFFFFFFFF AND EQ ISZERO PUSH2 0x9F0 JUMPI PUSH1 0x40 MLOAD PUSH32 0x8C379A000000000000000000000000000000000000000000000000000000000 DUP2 MSTORE PUSH1 0x4 ADD PUSH2 0x9E7 SWAP1 PUSH2 0x13F9 JUMP JUMPDEST PUSH1 0x40 MLOAD DUP1 SWAP2 SUB SWAP1 REVERT JUMPDEST PUSH2 0xA41 DUP2 PUSH1 0x0 DUP1 DUP7 PUSH20 0xFFFFFFFFFFFFFFFFFFFFFFFFFFFFFFFFFFFFFFFF AND PUSH20 0xFFFFFFFFFFFFFFFFFFFFFFFFFFFFFFFFFFFFFFFF AND DUP2 MSTORE PUSH1 0x20 ADD SWAP1 DUP2 MSTORE PUSH1 0x20 ADD PUSH1 0x0 KECCAK256 SLOAD PUSH2 0xB80 SWAP1 SWAP2 SWAP1 PUSH4 0xFFFFFFFF AND JUMP JUMPDEST PUSH1 0x0 DUP1 DUP6 PUSH20 0xFFFFFFFFFFFFFFFFFFFFFFFFFFFFFFFFFFFFFFFF AND PUSH20 0xFFFFFFFFFFFFFFFFFFFFFFFFFFFFFFFFFFFFFFFF AND DUP2 MSTORE PUSH1 0x20 ADD SWAP1 DUP2 MSTORE PUSH1 0x20 ADD PUSH1 0x0 KECCAK256 DUP2 SWAP1 SSTORE POP PUSH2 0xAD4 DUP2 PUSH1 0x0 DUP1 DUP6 PUSH20 0xFFFFFFFFFFFFFFFFFFFFFFFFFFFFFFFFFFFFFFFF AND PUSH20 0xFFFFFFFFFFFFFFFFFFFFFFFFFFFFFFFFFFFFFFFF AND DUP2 MSTORE PUSH1 0x20 ADD SWAP1 DUP2 MSTORE PUSH1 0x20 ADD PUSH1 0x0 KECCAK256 SLOAD PUSH2 0x6E7 SWAP1 SWAP2 SWAP1 PUSH4 0xFFFFFFFF AND JUMP JUMPDEST PUSH1 0x0 DUP1 DUP5 PUSH20 0xFFFFFFFFFFFFFFFFFFFFFFFFFFFFFFFFFFFFFFFF AND PUSH20 0xFFFFFFFFFFFFFFFFFFFFFFFFFFFFFFFFFFFFFFFF AND DUP2 MSTORE PUSH1 0x20 ADD SWAP1 DUP2 MSTORE PUSH1 0x20 ADD PUSH1 0x0 KECCAK256 DUP2 SWAP1 SSTORE POP DUP2 PUSH20 0xFFFFFFFFFFFFFFFFFFFFFFFFFFFFFFFFFFFFFFFF AND DUP4 PUSH20 0xFFFFFFFFFFFFFFFFFFFFFFFFFFFFFFFFFFFFFFFF AND PUSH32 0xDDF252AD1BE2C89B69C2B068FC378DAA952BA7F163C4A11628F55A4DF523B3EF DUP4 PUSH1 0x40 MLOAD PUSH2 0xB73 SWAP2 SWAP1 PUSH2 0xF40 JUMP JUMPDEST PUSH1 0x40 MLOAD DUP1 SWAP2 SUB SWAP1 LOG3 POP POP POP JUMP JUMPDEST PUSH1 0x0 DUP3 DUP3 GT ISZERO PUSH2 0xBC5 JUMPI PUSH1 0x40 MLOAD PUSH32 0x8C379A000000000000000000000000000000000000000000000000000000000 DUP2 MSTORE PUSH1 0x4 ADD PUSH2 0xBBC SWAP1 PUSH2 0x1465 JUMP JUMPDEST PUSH1 0x40 MLOAD DUP1 SWAP2 SUB SWAP1 REVERT JUMPDEST PUSH1 0x0 DUP3 DUP5 PUSH2 0xBD3 SWAP2 SWAP1 PUSH2 0x1485 JUMP JUMPDEST SWAP1 POP DUP1 SWAP2 POP POP SWAP3 SWAP2 POP POP JUMP JUMPDEST PUSH1 0x0 PUSH20 0xFFFFFFFFFFFFFFFFFFFFFFFFFFFFFFFFFFFFFFFF AND DUP3 PUSH20 0xFFFFFFFFFFFFFFFFFFFFFFFFFFFFFFFFFFFFFFFF AND EQ ISZERO PUSH2 0xC4F JUMPI PUSH1 0x40 MLOAD PUSH32 0x8C379A000000000000000000000000000000000000000000000000000000000 DUP2 MSTORE PUSH1 0x4 ADD PUSH2 0xC46 SWAP1 PUSH2 0x152B JUMP JUMPDEST PUSH1 0x40 MLOAD DUP1 SWAP2 SUB SWAP1 REVERT JUMPDEST PUSH2 0xC64 DUP2 PUSH1 0x2 SLOAD PUSH2 0xB80 SWAP1 SWAP2 SWAP1 PUSH4 0xFFFFFFFF AND JUMP JUMPDEST PUSH1 0x2 DUP2 SWAP1 SSTORE POP PUSH2 0xCBB DUP2 PUSH1 0x0 DUP1 DUP6 PUSH20 0xFFFFFFFFFFFFFFFFFFFFFFFFFFFFFFFFFFFFFFFF AND PUSH20 0xFFFFFFFFFFFFFFFFFFFFFFFFFFFFFFFFFFFFFFFF AND DUP2 MSTORE PUSH1 0x20 ADD SWAP1 DUP2 MSTORE PUSH1 0x20 ADD PUSH1 0x0 KECCAK256 SLOAD PUSH2 0xB80 SWAP1 SWAP2 SWAP1 PUSH4 0xFFFFFFFF AND JUMP JUMPDEST PUSH1 0x0 DUP1 DUP5 PUSH20 0xFFFFFFFFFFFFFFFFFFFFFFFFFFFFFFFFFFFFFFFF AND PUSH20 0xFFFFFFFFFFFFFFFFFFFFFFFFFFFFFFFFFFFFFFFF AND DUP2 MSTORE PUSH1 0x20 ADD SWAP1 DUP2 MSTORE PUSH1 0x20 ADD PUSH1 0x0 KECCAK256 DUP2 SWAP1 SSTORE POP PUSH1 0x0 PUSH20 0xFFFFFFFFFFFFFFFFFFFFFFFFFFFFFFFFFFFFFFFF AND DUP3 PUSH20 0xFFFFFFFFFFFFFFFFFFFFFFFFFFFFFFFFFFFFFFFF AND PUSH32 0xDDF252AD1BE2C89B69C2B068FC378DAA952BA7F163C4A11628F55A4DF523B3EF DUP4 PUSH1 0x40 MLOAD PUSH2 0xD5B SWAP2 SWAP1 PUSH2 0xF40 JUMP JUMPDEST PUSH1 0x40 MLOAD DUP1 SWAP2 SUB SWAP1 LOG3 POP POP JUMP JUMPDEST PUSH1 0x0 DUP2 MLOAD SWAP1 POP SWAP2 SWAP1 POP JUMP JUMPDEST PUSH1 0x0 DUP3 DUP3 MSTORE PUSH1 0x20 DUP3 ADD SWAP1 POP SWAP3 SWAP2 POP POP JUMP JUMPDEST PUSH1 0x0 JUMPDEST DUP4 DUP2 LT ISZERO PUSH2 0xDA1 JUMPI DUP1 DUP3 ADD MLOAD DUP2 DUP5 ADD MSTORE PUSH1 0x20 DUP2 ADD SWAP1 POP PUSH2 0xD86 JUMP JUMPDEST DUP4 DUP2 GT ISZERO PUSH2 0xDB0 JUMPI PUSH1 0x0 DUP5 DUP5 ADD MSTORE JUMPDEST POP POP POP POP JUMP JUMPDEST PUSH1 0x0 PUSH1 0x1F NOT PUSH1 0x1F DUP4 ADD AND SWAP1 POP SWAP2 SWAP1 POP JUMP JUMPDEST PUSH1 0x0 PUSH2 0xDD2 DUP3 PUSH2 0xD67 JUMP JUMPDEST PUSH2 0xDDC DUP2 DUP6 PUSH2 0xD72 JUMP JUMPDEST SWAP4 POP PUSH2 0xDEC DUP2 DUP6 PUSH1 0x20 DUP7 ADD PUSH2 0xD83 JUMP JUMPDEST PUSH2 0xDF5 DUP2 PUSH2 0xDB6 JUMP JUMPDEST DUP5 ADD SWAP2 POP POP SWAP3 SWAP2 POP POP JUMP JUMPDEST PUSH1 0x0 PUSH1 0x20 DUP3 ADD SWAP1 POP DUP2 DUP2 SUB PUSH1 0x0 DUP4 ADD MSTORE PUSH2 0xE1A DUP2 DUP5 PUSH2 0xDC7 JUMP JUMPDEST SWAP1 POP SWAP3 SWAP2 POP POP JUMP JUMPDEST PUSH1 0x0 DUP1 REVERT JUMPDEST PUSH1 0x0 PUSH20 0xFFFFFFFFFFFFFFFFFFFFFFFFFFFFFFFFFFFFFFFF DUP3 AND SWAP1 POP SWAP2 SWAP1 POP JUMP JUMPDEST PUSH1 0x0 PUSH2 0xE52 DUP3 PUSH2 0xE27 JUMP JUMPDEST SWAP1 POP SWAP2 SWAP1 POP JUMP JUMPDEST PUSH2 0xE62 DUP2 PUSH2 0xE47 JUMP JUMPDEST DUP2 EQ PUSH2 0xE6D JUMPI PUSH1 0x0 DUP1 REVERT JUMPDEST POP JUMP JUMPDEST PUSH1 0x0 DUP2 CALLDATALOAD SWAP1 POP PUSH2 0xE7F DUP2 PUSH2 0xE59 JUMP JUMPDEST SWAP3 SWAP2 POP POP JUMP JUMPDEST PUSH1 0x0 DUP2 SWAP1 POP SWAP2 SWAP1 POP JUMP JUMPDEST PUSH2 0xE98 DUP2 PUSH2 0xE85 JUMP JUMPDEST DUP2 EQ PUSH2 0xEA3 JUMPI PUSH1 0x0 DUP1 REVERT JUMPDEST POP JUMP JUMPDEST PUSH1 0x0 DUP2 CALLDATALOAD SWAP1 POP PUSH2 0xEB5 DUP2 PUSH2 0xE8F JUMP JUMPDEST SWAP3 SWAP2 POP POP JUMP JUMPDEST PUSH1 0x0 DUP1 PUSH1 0x40 DUP4 DUP6 SUB SLT ISZERO PUSH2 0xED2 JUMPI PUSH2 0xED1 PUSH2 0xE22 JUMP JUMPDEST JUMPDEST PUSH1 0x0 PUSH2 0xEE0 DUP6 DUP3 DUP7 ADD PUSH2 0xE70 JUMP JUMPDEST SWAP3 POP POP PUSH1 0x20 PUSH2 0xEF1 DUP6 DUP3 DUP7 ADD PUSH2 0xEA6 JUMP JUMPDEST SWAP2 POP POP SWAP3 POP SWAP3 SWAP1 POP JUMP JUMPDEST PUSH1 0x0 DUP2 ISZERO ISZERO SWAP1 POP SWAP2 SWAP1 POP JUMP JUMPDEST PUSH2 0xF10 DUP2 PUSH2 0xEFB JUMP JUMPDEST DUP3 MSTORE POP POP JUMP JUMPDEST PUSH1 0x0 PUSH1 0x20 DUP3 ADD SWAP1 POP PUSH2 0xF2B PUSH1 0x0 DUP4 ADD DUP5 PUSH2 0xF07 JUMP JUMPDEST SWAP3 SWAP2 POP POP JUMP JUMPDEST PUSH2 0xF3A DUP2 PUSH2 0xE85 JUMP JUMPDEST DUP3 MSTORE POP POP JUMP JUMPDEST PUSH1 0x0 PUSH1 0x20 DUP3 ADD SWAP1 POP PUSH2 0xF55 PUSH1 0x0 DUP4 ADD DUP5 PUSH2 0xF31 JUMP JUMPDEST SWAP3 SWAP2 POP POP JUMP JUMPDEST PUSH1 0x0 DUP1 PUSH1 0x0 PUSH1 0x60 DUP5 DUP7 SUB SLT ISZERO PUSH2 0xF74 JUMPI PUSH2 0xF73 PUSH2 0xE22 JUMP JUMPDEST JUMPDEST PUSH1 0x0 PUSH2 0xF82 DUP7 DUP3 DUP8 ADD PUSH2 0xE70 JUMP JUMPDEST SWAP4 POP POP PUSH1 0x20 PUSH2 0xF93 DUP7 DUP3 DUP8 ADD PUSH2 0xE70 JUMP JUMPDEST SWAP3 POP POP PUSH1 0x40 PUSH2 0xFA4 DUP7 DUP3 DUP8 ADD PUSH2 0xEA6 JUMP JUMPDEST SWAP2 POP POP SWAP3 POP SWAP3 POP SWAP3 JUMP JUMPDEST PUSH1 0x0 PUSH1 0xFF DUP3 AND SWAP1 POP SWAP2 SWAP1 POP JUMP JUMPDEST PUSH2 0xFC4 DUP2 PUSH2 0xFAE JUMP JUMPDEST DUP3 MSTORE POP POP JUMP JUMPDEST PUSH1 0x0 PUSH1 0x20 DUP3 ADD SWAP1 POP PUSH2 0xFDF PUSH1 0x0 DUP4 ADD DUP5 PUSH2 0xFBB JUMP JUMPDEST SWAP3 SWAP2 POP POP JUMP JUMPDEST PUSH1 0x0 PUSH1 0x20 DUP3 DUP5 SUB SLT ISZERO PUSH2 0xFFB JUMPI PUSH2 0xFFA PUSH2 0xE22 JUMP JUMPDEST JUMPDEST PUSH1 0x0 PUSH2 0x1009 DUP5 DUP3 DUP6 ADD PUSH2 0xEA6 JUMP JUMPDEST SWAP2 POP POP SWAP3 SWAP2 POP POP JUMP JUMPDEST PUSH1 0x0 PUSH1 0x20 DUP3 DUP5 SUB SLT ISZERO PUSH2 0x1028 JUMPI PUSH2 0x1027 PUSH2 0xE22 JUMP JUMPDEST JUMPDEST PUSH1 0x0 PUSH2 0x1036 DUP5 DUP3 DUP6 ADD PUSH2 0xE70 JUMP JUMPDEST SWAP2 POP POP SWAP3 SWAP2 POP POP JUMP JUMPDEST PUSH1 0x0 DUP1 PUSH1 0x40 DUP4 DUP6 SUB SLT ISZERO PUSH2 0x1056 JUMPI PUSH2 0x1055 PUSH2 0xE22 JUMP JUMPDEST JUMPDEST PUSH1 0x0 PUSH2 0x1064 DUP6 DUP3 DUP7 ADD PUSH2 0xE70 JUMP JUMPDEST SWAP3 POP POP PUSH1 0x20 PUSH2 0x1075 DUP6 DUP3 DUP7 ADD PUSH2 0xE70 JUMP JUMPDEST SWAP2 POP POP SWAP3 POP SWAP3 SWAP1 POP JUMP JUMPDEST PUSH32 0x4E487B7100000000000000000000000000000000000000000000000000000000 PUSH1 0x0 MSTORE PUSH1 0x22 PUSH1 0x4 MSTORE PUSH1 0x24 PUSH1 0x0 REVERT JUMPDEST PUSH1 0x0 PUSH1 0x2 DUP3 DIV SWAP1 POP PUSH1 0x1 DUP3 AND DUP1 PUSH2 0x10C6 JUMPI PUSH1 0x7F DUP3 AND SWAP2 POP JUMPDEST PUSH1 0x20 DUP3 LT DUP2 EQ ISZERO PUSH2 0x10DA JUMPI PUSH2 0x10D9 PUSH2 0x107F JUMP JUMPDEST JUMPDEST POP SWAP2 SWAP1 POP JUMP JUMPDEST PUSH32 0x4E487B7100000000000000000000000000000000000000000000000000000000 PUSH1 0x0 MSTORE PUSH1 0x11 PUSH1 0x4 MSTORE PUSH1 0x24 PUSH1 0x0 REVERT JUMPDEST PUSH1 0x0 PUSH2 0x111A DUP3 PUSH2 0xE85 JUMP JUMPDEST SWAP2 POP PUSH2 0x1125 DUP4 PUSH2 0xE85 JUMP JUMPDEST SWAP3 POP DUP3 PUSH32 0xFFFFFFFFFFFFFFFFFFFFFFFFFFFFFFFFFFFFFFFFFFFFFFFFFFFFFFFFFFFFFFFF SUB DUP3 GT ISZERO PUSH2 0x115A JUMPI PUSH2 0x1159 PUSH2 0x10E0 JUMP JUMPDEST JUMPDEST DUP3 DUP3 ADD SWAP1 POP SWAP3 SWAP2 POP POP JUMP JUMPDEST PUSH32 0x536166654D6174683A206164646974696F6E206F766572666C6F770000000000 PUSH1 0x0 DUP3 ADD MSTORE POP JUMP JUMPDEST PUSH1 0x0 PUSH2 0x119B PUSH1 0x1B DUP4 PUSH2 0xD72 JUMP JUMPDEST SWAP2 POP PUSH2 0x11A6 DUP3 PUSH2 0x1165 JUMP JUMPDEST PUSH1 0x20 DUP3 ADD SWAP1 POP SWAP2 SWAP1 POP JUMP JUMPDEST PUSH1 0x0 PUSH1 0x20 DUP3 ADD SWAP1 POP DUP2 DUP2 SUB PUSH1 0x0 DUP4 ADD MSTORE PUSH2 0x11CA DUP2 PUSH2 0x118E JUMP JUMPDEST SWAP1 POP SWAP2 SWAP1 POP JUMP JUMPDEST PUSH32 0x45524332303A20617070726F76652066726F6D20746865207A65726F20616464 PUSH1 0x0 DUP3 ADD MSTORE PUSH32 0x7265737300000000000000000000000000000000000000000000000000000000 PUSH1 0x20 DUP3 ADD MSTORE POP JUMP JUMPDEST PUSH1 0x0 PUSH2 0x122D PUSH1 0x24 DUP4 PUSH2 0xD72 JUMP JUMPDEST SWAP2 POP PUSH2 0x1238 DUP3 PUSH2 0x11D1 JUMP JUMPDEST PUSH1 0x40 DUP3 ADD SWAP1 POP SWAP2 SWAP1 POP JUMP JUMPDEST PUSH1 0x0 PUSH1 0x20 DUP3 ADD SWAP1 POP DUP2 DUP2 SUB PUSH1 0x0 DUP4 ADD MSTORE PUSH2 0x125C DUP2 PUSH2 0x1220 JUMP JUMPDEST SWAP1 POP SWAP2 SWAP1 POP JUMP JUMPDEST PUSH32 0x45524332303A20617070726F766520746F20746865207A65726F206164647265 PUSH1 0x0 DUP3 ADD MSTORE PUSH32 0x7373000000000000000000000000000000000000000000000000000000000000 PUSH1 0x20 DUP3 ADD MSTORE POP JUMP JUMPDEST PUSH1 0x0 PUSH2 0x12BF PUSH1 0x22 DUP4 PUSH2 0xD72 JUMP JUMPDEST SWAP2 POP PUSH2 0x12CA DUP3 PUSH2 0x1263 JUMP JUMPDEST PUSH1 0x40 DUP3 ADD SWAP1 POP SWAP2 SWAP1 POP JUMP JUMPDEST PUSH1 0x0 PUSH1 0x20 DUP3 ADD SWAP1 POP DUP2 DUP2 SUB PUSH1 0x0 DUP4 ADD MSTORE PUSH2 0x12EE DUP2 PUSH2 0x12B2 JUMP JUMPDEST SWAP1 POP SWAP2 SWAP1 POP JUMP JUMPDEST PUSH32 0x45524332303A207472616E736665722066726F6D20746865207A65726F206164 PUSH1 0x0 DUP3 ADD MSTORE PUSH32 0x6472657373000000000000000000000000000000000000000000000000000000 PUSH1 0x20 DUP3 ADD MSTORE POP JUMP JUMPDEST PUSH1 0x0 PUSH2 0x1351 PUSH1 0x25 DUP4 PUSH2 0xD72 JUMP JUMPDEST SWAP2 POP PUSH2 0x135C DUP3 PUSH2 0x12F5 JUMP JUMPDEST PUSH1 0x40 DUP3 ADD SWAP1 POP SWAP2 SWAP1 POP JUMP JUMPDEST PUSH1 0x0 PUSH1 0x20 DUP3 ADD SWAP1 POP DUP2 DUP2 SUB PUSH1 0x0 DUP4 ADD MSTORE PUSH2 0x1380 DUP2 PUSH2 0x1344 JUMP JUMPDEST SWAP1 POP SWAP2 SWAP1 POP JUMP JUMPDEST PUSH32 0x45524332303A207472616E7366657220746F20746865207A65726F2061646472 PUSH1 0x0 DUP3 ADD MSTORE PUSH32 0x6573730000000000000000000000000000000000000000000000000000000000 PUSH1 0x20 DUP3 ADD MSTORE POP JUMP JUMPDEST PUSH1 0x0 PUSH2 0x13E3 PUSH1 0x23 DUP4 PUSH2 0xD72 JUMP JUMPDEST SWAP2 POP PUSH2 0x13EE DUP3 PUSH2 0x1387 JUMP JUMPDEST PUSH1 0x40 DUP3 ADD SWAP1 POP SWAP2 SWAP1 POP JUMP JUMPDEST PUSH1 0x0 PUSH1 0x20 DUP3 ADD SWAP1 POP DUP2 DUP2 SUB PUSH1 0x0 DUP4 ADD MSTORE PUSH2 0x1412 DUP2 PUSH2 0x13D6 JUMP JUMPDEST SWAP1 POP SWAP2 SWAP1 POP JUMP JUMPDEST PUSH32 0x536166654D6174683A207375627472616374696F6E206F766572666C6F770000 PUSH1 0x0 DUP3 ADD MSTORE POP JUMP JUMPDEST PUSH1 0x0 PUSH2 0x144F PUSH1 0x1E DUP4 PUSH2 0xD72 JUMP JUMPDEST SWAP2 POP PUSH2 0x145A DUP3 PUSH2 0x1419 JUMP JUMPDEST PUSH1 0x20 DUP3 ADD SWAP1 POP SWAP2 SWAP1 POP JUMP JUMPDEST PUSH1 0x0 PUSH1 0x20 DUP3 ADD SWAP1 POP DUP2 DUP2 SUB PUSH1 0x0 DUP4 ADD MSTORE PUSH2 0x147E DUP2 PUSH2 0x1442 JUMP JUMPDEST SWAP1 POP SWAP2 SWAP1 POP JUMP JUMPDEST PUSH1 0x0 PUSH2 0x1490 DUP3 PUSH2 0xE85 JUMP JUMPDEST SWAP2 POP PUSH2 0x149B DUP4 PUSH2 0xE85 JUMP JUMPDEST SWAP3 POP DUP3 DUP3 LT ISZERO PUSH2 0x14AE JUMPI PUSH2 0x14AD PUSH2 0x10E0 JUMP JUMPDEST JUMPDEST DUP3 DUP3 SUB SWAP1 POP SWAP3 SWAP2 POP POP JUMP JUMPDEST PUSH32 0x45524332303A206275726E2066726F6D20746865207A65726F20616464726573 PUSH1 0x0 DUP3 ADD MSTORE PUSH32 0x7300000000000000000000000000000000000000000000000000000000000000 PUSH1 0x20 DUP3 ADD MSTORE POP JUMP JUMPDEST PUSH1 0x0 PUSH2 0x1515 PUSH1 0x21 DUP4 PUSH2 0xD72 JUMP JUMPDEST SWAP2 POP PUSH2 0x1520 DUP3 PUSH2 0x14B9 JUMP JUMPDEST PUSH1 0x40 DUP3 ADD SWAP1 POP SWAP2 SWAP1 POP JUMP JUMPDEST PUSH1 0x0 PUSH1 0x20 DUP3 ADD SWAP1 POP DUP2 DUP2 SUB PUSH1 0x0 DUP4 ADD MSTORE PUSH2 0x1544 DUP2 PUSH2 0x1508 JUMP JUMPDEST SWAP1 POP SWAP2 SWAP1 POP JUMP INVALID LOG2 PUSH5 0x6970667358 0x22 SLT KECCAK256 0xE1 KECCAK256 0xDB BLOCKHASH 0x4E PUSH18 0x7328809517A6CEEFD45DA7F7CB754F2BE9F5 BASEFEE MUL 0xE9 SAR SAR 0xD0 PUSH3 0x686473 PUSH16 0x6C634300080900330000000000000000 "
				},
				"gasEstimates": {
					"creation": {
						"codeDepositCost": "1101000",
						"executionCost": "infinite",
						"totalCost": "infinite"
					},
					"external": {
						"allowance(address,address)": "infinite",
						"approve(address,uint256)": "infinite",
						"balanceOf(address)": "2863",
						"burn(uint256)": "infinite",
						"decimals()": "2568",
						"decreaseAllowance(address,uint256)": "infinite",
						"increaseAllowance(address,uint256)": "infinite",
						"name()": "infinite",
						"symbol()": "infinite",
						"totalSupply()": "2482",
						"transfer(address,uint256)": "infinite",
						"transferFrom(address,address,uint256)": "infinite"
					}
				},
				"methodIdentifiers": {
					"allowance(address,address)": "dd62ed3e",
					"approve(address,uint256)": "095ea7b3",
					"balanceOf(address)": "70a08231",
					"burn(uint256)": "42966c68",
					"decimals()": "313ce567",
					"decreaseAllowance(address,uint256)": "a457c2d7",
					"increaseAllowance(address,uint256)": "39509351",
					"name()": "06fdde03",
					"symbol()": "95d89b41",
					"totalSupply()": "18160ddd",
					"transfer(address,uint256)": "a9059cbb",
					"transferFrom(address,address,uint256)": "23b872dd"
				}
			},
			"storageLayout": {
				"storage": [
					{
						"astId": 226,
						"contract": "contracts/2_ShibaCopy.sol:TokenMintERC20Token",
						"label": "_balances",
						"offset": 0,
						"slot": "0",
						"type": "t_mapping(t_address,t_uint256)"
					},
					{
						"astId": 232,
						"contract": "contracts/2_ShibaCopy.sol:TokenMintERC20Token",
						"label": "_allowances",
						"offset": 0,
						"slot": "1",
						"type": "t_mapping(t_address,t_mapping(t_address,t_uint256))"
					},
					{
						"astId": 234,
						"contract": "contracts/2_ShibaCopy.sol:TokenMintERC20Token",
						"label": "_totalSupply",
						"offset": 0,
						"slot": "2",
						"type": "t_uint256"
					},
					{
						"astId": 637,
						"contract": "contracts/2_ShibaCopy.sol:TokenMintERC20Token",
						"label": "_name",
						"offset": 0,
						"slot": "3",
						"type": "t_string_storage"
					},
					{
						"astId": 639,
						"contract": "contracts/2_ShibaCopy.sol:TokenMintERC20Token",
						"label": "_symbol",
						"offset": 0,
						"slot": "4",
						"type": "t_string_storage"
					},
					{
						"astId": 641,
						"contract": "contracts/2_ShibaCopy.sol:TokenMintERC20Token",
						"label": "_decimals",
						"offset": 0,
						"slot": "5",
						"type": "t_uint8"
					}
				],
				"types": {
					"t_address": {
						"encoding": "inplace",
						"label": "address",
						"numberOfBytes": "20"
					},
					"t_mapping(t_address,t_mapping(t_address,t_uint256))": {
						"encoding": "mapping",
						"key": "t_address",
						"label": "mapping(address => mapping(address => uint256))",
						"numberOfBytes": "32",
						"value": "t_mapping(t_address,t_uint256)"
					},
					"t_mapping(t_address,t_uint256)": {
						"encoding": "mapping",
						"key": "t_address",
						"label": "mapping(address => uint256)",
						"numberOfBytes": "32",
						"value": "t_uint256"
					},
					"t_string_storage": {
						"encoding": "bytes",
						"label": "string",
						"numberOfBytes": "32"
					},
					"t_uint256": {
						"encoding": "inplace",
						"label": "uint256",
						"numberOfBytes": "32"
					},
					"t_uint8": {
						"encoding": "inplace",
						"label": "uint8",
						"numberOfBytes": "1"
					}
				}
			},
			"userdoc": {
				"kind": "user",
				"methods": {},
				"version": 1
			}
		}
	}
}